:1000000000000320D1010000B13700006937000073
:100010006937000069370000693700006937000060
:10002000693700006937000069370000B137000008
:10003000B137000069370000D54E0000D94F0000ED
:10004000B1370000B1370000B1370000B137000010
:10005000B1370000B1370000B1370000B137000000
:10006000B1370000B1370000B1370000B1370000F0
:10007000B1370000B1370000B1370000B1370000E0
:10008000B1370000B1370000B1370000B1370000D0
:10009000B1370000B1370000B1370000B1370000C0
:1000A000FD33000009340000B1370000B137000013
:1000B000B1370000B1370000B137000061510000D6
:1000C000B13700008D520000B1370000B953000075
:1000D000B1370000B1540000B1370000B137000063
:1000E000B1370000B1370000B1370000B137000070
:1000F000B1370000B1370000B1370000B137000060
:10010000B1370000B1370000B1370000B13700004F
:10011000B1370000BD3C0000B1370000B13700002E
:10012000B1370000B1370000B1370000B13700002F
:10013000B1370000B1370000B1370000B13700001F
:10014000894C0000B1370000A9550000B13700000C
:10015000B1370000B1370000B1370000B1370000FF
:10016000B1370000B137000015340000B13700008E
:10017000B1370000B1370000B1370000B1370000DF
:10018000B1370000B1370000B1370000B1370000CF
:10019000B1370000B1370000A1560000B1370000B0
:1001A000B1370000B1370000B13700002134000042
:1001B000B1370000B1370000B1370000B13700009F
:1001C000B1370000B1370000B1370000B13700008F
:1001D0005C4B4CF2205210B51A804DF628121A8052
:1001E00000BF00BF03F0E8FA574B4FF030621A60CF
:1001F000564A9A60564ADA60564B4FF470021A60BB
:10020000554B564A1A60564B1A78110703D51A787F
:1002100042F008021A70534B5349AA221A70534AEB
:10022000534B8B4204D252F8040F43F8040BF8E707
:10023000504B514900228B4202D243F8042BFAE77B
:100240004E494F4A002352F8230041F8230001335E
:10025000742BF8D14B4B4C4A802103F8011B93427D
:10026000FBD14A4B454A1A60494B8A221A70A3F5C2
:10027000805324225A70A0221A709A799207FCD5D2
:100280009A79D406FCD4434A937903F00C03082BE3
:10029000FAD1414B60221A7002331A78802AFCD1BD
:1002A0003C4B01221A715D225A719A799006FCD555
:1002B0009979384A4906FBD5384B394919600021EC
:1002C000596020231370937903F00C030C2BFAD19F
:1002D000344B354A1A60354A354C136813F4807331
:1002E00003D123604FF4A8531360324B324A1A6093
:1002F00000225A60072243F8042C304AC3F80C2D20
:1003000062B603F07FFB2368DA0705D52C4803F0BB
:1003100009FB2C4B2C4A1A602C4B1B785B0609D529
:10032000284C294B22689A4204D1254803F0FAFA56
:100330000023236007F086FF03F044FA04F06AFE0E
:10034000FEE700BF0E20054030800440823F0400DD
:100350000100002B88ED00E0002008E0030000858C
:1003600002D0074000E00740DC5CFF1FF89000006F
:100370003049FF1FE05CFF1F6C69FF1F0044FF1F37
:100380000000000000E400E064E400E008ED00E0AC
:10039000005006400040064001E007404480044011
:1003A0000000060204800440C010070010D0034083
:1003B00014D0034014E000E01FBF02000000202022
:1003C000D9CEEC5D1CE00340A5C3945A00F0074071
:1003D000FFFFFFFFFFFFFFFFFFFFFFFFFFFFFFFF2D
:1003E000FFFFFFFFFFFFFFFFFFFFFFFFFFFFFFFF1D
:1003F000FFFFFFFFFFFFFFFFFFFFFFFFFFFFFFFF0D
:10040000FFFFFFFFFFFFFFFFFFFFFFFFDEF9FFFF23
:1004100010B5054C237833B9044B13B10448AFF33E
:1004200000800123237010BDE05CFF1F000000006E
:10043000F4900000084B10B51BB108490848AFF311
:1004400000800848036803B910BD074B002BFBD0A0
:10045000BDE81040184700BF00000000E45CFF1F2B
:10046000F4900000DC5CFF1F0000000010B50446A3
:1004700004F0B4FB204610BD38B5184D184B194C8C
:100480000246294618690023237002F03DFC2A78B1
:100490006B78154943EA02231BB25A1E0B80042ACB
:1004A00006D8DFE802F015120906030005232370C1
:1004B00038BD0423237038BD0C480D4A03230025A2
:1004C000012123700580117038BD0223237038BDCF
:1004D0000A21084803F008F8FEE700BF805EFF1F0E
:1004E0004464FF1F7A5EFF1F085DFF1F785EFF1FD9
:1004F000845DFF1F7064FF1F002310B4114C417214
:10050000026104600372C36041B1194600E00269F0
:1005100042F82310427A01339A42F8DC0A4B1A68F7
:100520000AB90CE01A465369002BFBD15061002335
:1005300043618380C38083725DF8044B7047186009
:10054000F5E700BFB08B00007465FF1FF0B53A4CB3
:100550003A4B617B20698DB0012500260493122758
:10056000132305952A460396009602970193552377
:1005700002F02AFB2369324A32493348C3F86C023D
:10058000C3F868124FF47A70157003F0E9F940214E
:100590002E482F4C2F4F04F0F1F92F4B2F49996122
:1005A0002F4ADA6131462F4E5E622F4B0793099333
:1005B00006F12D56A3F1527306F51A26A3F59333CF
:1005C000204607AABF3B06F27C4608970A960B9383
:1005D00000F038FD254B0793294607AA20460993CA
:1005E000234E244B244D08960A950B93234F244EFB
:1005F000244D00F027FD244B079307AA2046022133
:1006000009930A960B950897204E214D00F01AFD8C
:10061000204B079307AA204603211F4C09930896F5
:100620000A950B9400F00EFD1C4A1D4B12680792B0
:10063000079A1A600DB0F0BD4464FF1FA086010048
:100640003449FF1F79040000150B00000002FF1F52
:10065000BC5DFF1F7C01AB86185DFF1F006E5C4414
:100660008044284100B76D5B427FAA3C3603630E8D
:100670006D06C61C9C5264033EBA27F6826BEB28BB
:100680008129160E84ADC003C1B57514DDF7E236BD
:10069000E064F31FEE7B711BDA8AD20D7864FF1FD2
:1006A0007C5EFF1FFFFFFFFF2DE9F04F944B2DED08
:1006B000028B1A7883B0002A3BD0924D924CAA6AE2
:1006C000002119705AB98F4800F01CFC10EE100A76
:1006D00006F080FFAB6AC4E90001002BF3D0894823
:1006E0008A4D00F00FFC10EE100A06F073FF06466C
:1006F0000F4602460B46C4E9006706F0BFFF0246FC
:100700000B46D5E9000106F007FE814A1368C5E9EA
:100710000001013313607F497F4A0B680093009BFF
:1007200010681B1A222B0AD803B0BDEC028BBDE85F
:10073000F08F744B9B6A002BEDD0734CCFE70B68A6
:100740000193734F019B13603868DFF8C08106F096
:100750001FFF02460B46D8E9000107F0B9F841EC4B
:10076000100B05F085FA0022002351EC100BB0EEBF
:10077000408AF0EE608A07F0E9F908B19FED5C8BE2
:10078000B0EE480AF0EE680A644BDFF8C89183EDDA
:10079000008B05F045F8002251EC100B604B06F081
:1007A0006DFF00225F4B06F0B7FD5F4B002206F0A5
:1007B000B3FDD9ED007A5D4BF5EE407A04460D4667
:1007C000F1EE10FAC3E9004540F0828007F006FA26
:1007D000C9F80000564ED6ED007AF5EE407AF1EEFB
:1007E00010FA68D12046294607F0F8F93060002257
:1007F000504BDFF864A1DFF864B12046294607F0CA
:1008000067F89FED3D0B41EC110B05F095F84A4C54
:10081000DAE9002384ED000B51EC100B06F07CFDAF
:10082000DBF80030013304460D461846CAE900459E
:10083000CBF8003006F0ACFE02460B4620462946B7
:1008400007F046F841EC100B04F0EAFF0022394BA8
:1008500051EC100B06F012FF384A394B92F800E0C9
:1008600000240025C3E900010023C8E900453B60DE
:10087000BEF1000F3FF458AF1370CBF8003007F013
:10088000ADF9304B3049D9F800C0D6F800E02F4F11
:100890002F4A1860C1F800C000230121CAE90045B1
:1008A000C7F800E01180C9F80030336003B0BDEC38
:1008B000028BBDE8F08F17EE900A06F08BFE024621
:1008C0000B462046294607F069F900288FD089E7B2
:1008D00017EE900A06F07EFE02460B462046294699
:1008E00007F03EF900283FF475AF204629466DE732
:1008F000000000A0F7C6B03E000000000000244049
:100900003449FF1F885DFF1FC85EFF1F005DFF1F8A
:10091000C45EFF1F7864FF1F7C5EFF1FE85EFF1F41
:100920000000344000005E4000001440105DFF1FD6
:10093000B85DFF1F00002440085FFF1F845DFF1F9C
:10094000585EFF1FC05EFF1FFC5EFF1F6C5DFF1F38
:10095000785EFF1F0C5DFF1FF05EFF1F545DFF1FE1
:100960002DE9F0475449554E554B0A683360002332
:1009700084B0737233613372F3600AB999E01A4636
:100980005369002BFBD156614E4D4F4B4B483360A2
:1009900000247461B480F480B47200F07BFD05F132
:1009A000340202212846FFF7A7FD484F4849494B2A
:1009B000494A4A4829604FF48051AA61E86107F129
:1009C000980229626B6201213846AC62EC622C63AA
:1009D000FFF792FD3B46424A43F8142B07F194017E
:1009E000224643F8042F8B424FF00004F9D1DFF880
:1009F00018A1DFF81891DFF818810AF11802012117
:100A00005046FFF779FD374BCAF80030002200232B
:100A10004846CAE90823CAF82840C9F80060C9F85E
:100A2000045089F8084089F80940C9F80C4089F851
:100A3000104004F09FF82C4A2C492D4E484607F0F0
:100A4000EFFB404688E8A00088F8084088F8094095
:100A5000C8F80C4088F8104004F08CF8224A23496A
:100A6000404607F0DDFB304686E88004347274723D
:100A7000F460347404F07EF830461B4A1B491D4E66
:100A80001D4C07F0CDFB1D4B1D491A680092009FBD
:100A90001A680192019D1A68029202981B680393DA
:100AA000039A184B3760256008601A6004B0BDE8EF
:100AB000F0870E6068E700BF7465FF1F605EFF1F70
:100AC000B08B0000185DFF1FF48B0000BC5DFF1FA2
:100AD000E88B000080F9855A00B28E04E8728E041B
:100AE000DC8B0000D08B00003049FF1F6D0400003C
:100AF000705DFF1F7C5EFF1FF85EFF1F7864FF1FA5
:100B0000005FFF1FD05EFF1F885DFF1F585DFF1F46
:100B1000D45EFF1FF0B5C14D2B78042B83B000F0DD
:100B20007281052B2FD0022B01D003B0F0BDBC4841
:100B3000BC4E00F1140E374643780278727031468D
:100B400007F8023FFF2311F8012F0824534013F048
:100B5000800F04F1FF324FEA430318BF83F03103E3
:100B600012F0FF04DBB2F2D1B942ECD1023086457B
:100B700006F8033FDFD11B22AB49AC4801F0B8FDBA
:100B80002C7003B0F0BDAA4BA74C1B6801939DF8D5
:100B900007209DF806002270D343DBB26070082264
:100BA00004E0013A12F0FF02CBB20CD013F0800F38
:100BB0004FEA4301F5D05B00013A83F0310312F0B4
:100BC000FF02DBB2F2D14340082204E0013A12F006
:100BD000FF02CBB20CD013F0800F4FEA4301F5D0E7
:100BE0005B00013A83F0310312F0FF02DBB2F2D175
:100BF0009DF805209DF80400A370D343E270DBB29A
:100C00002071082204E0013A12F0FF02CBB20CD0AE
:100C100013F0800F4FEA4301F5D05B00013A83F0F7
:100C2000310312F0FF02DBB2F2D14340082204E0AC
:100C3000013A12F0FF02CBB20CD013F0800F4FEA52
:100C40004301F5D05B00013A83F0310312F0FF025B
:100C5000DBB2F2D1774A6371136801939DF80720E4
:100C60009DF80600A271D343DBB2E071082204E0D4
:100C7000013A12F0FF02CBB20CD013F0800F4FEA12
:100C80004301F5D05B00013A83F0310312F0FF021B
:100C9000DBB2F2D14340082204E0013A12F0FF0235
:100CA000CBB20CD013F0800F4FEA4301F5D05B00BC
:100CB000013A83F0310312F0FF02DBB2F2D19DF86A
:100CC00005209DF804002372D3436272DBB2A07248
:100CD000082204E0013A12F0FF02CBB20CD013F06C
:100CE000800F4FEA4301F5D05B00013A83F03103F6
:100CF00012F0FF02DBB2F2D14340082204E0013AD5
:100D000012F0FF02CBB20CD013F0800F4FEA430178
:100D1000F5D05B00013A83F0310312F0FF02DBB241
:100D2000F2D1454AE372136801939DF807209DF8BC
:100D300006002273D343DBB26073082204E0013A59
:100D400012F0FF02CBB20CD013F0800F4FEA430138
:100D5000F5D05B00013A83F0310312F0FF02DBB201
:100D6000F2D14340082204E0013A12F0FF02CBB274
:100D70000CD013F0800F4FEA4301F5D05B00013A2D
:100D800083F0310312F0FF02DBB2F2D19DF80520AF
:100D90009DF80400A373D343E273DBB220740822EE
:100DA00004E0013A12F0FF02CBB20CD013F0800F36
:100DB0004FEA4301F5D05B00013A83F0310312F0B2
:100DC000FF02DBB2F2D14340082604E0D3B2721E28
:100DD00012F0FF060CD013F0800F4FEA4302F5D05B
:100DE0005B00721E83F0310312F0FF06DBB2F2D11A
:100DF00012220D490D48637401F07AFC0F4B2E70DE
:100E00001E8003B0F0BD0D4B074C1B881A0AD8B2E8
:100E1000D3432270DBB26070082216E07A5EFF1FB7
:100E2000B48B00007F5EFF1F805EFF1F4464FF1FC6
:100E3000C05EFF1FFC5EFF1F6C5DFF1F785EFF1F23
:100E4000013A12F0FF02CBB20CD013F0800F4FEA40
:100E50004301F5D05B00013A83F0310312F0FF0249
:100E6000DBB2F2D14340082604E0D3B2721E12F086
:100E7000FF060CD013F0800F4FEA4302F5D05B0061
:100E8000721E83F0310312F0FF06DBB2F2D10322AF
:100E900003490448A37001F02BFC2E7003B0F0BD91
:100EA000805EFF1F4464FF1F2DE9F0410021804652
:100EB00003F032FEF8B1D8E90823011D00F5827E67
:100EC0000F684E688D68103151F8044CC7FBC7237A
:100ED000C6FBC623C5FBC523C4FBC4238E45EFD880
:100EE000D8F828100131C8E90823C8F82810BDE84F
:100EF000F04103F0CDBDD8F828300133C8F82830D0
:100F0000BDE8F081F8B572B6002200230025D0E9D3
:100F10000867846A8562C0E9082362B6E401224654
:100F20002B463046394606F0B7FF06F077FF07EE4E
:100F3000900AB1EEE70AB4EE400AF1EE10FA04D1DD
:100F4000DFED087A80EE270AF8BD22462B463046B0
:100F5000394606F0A1FF06F061FF00EE100A04F02A
:100F6000E7FEEDE700FEFF462DE9F04F83B00021DC
:100F70000446009003F0DCFD019000285ED000F5EF
:100F8000827900F1040A04F13808A8F1200B58F81E
:100F9000042C58F80C4C58F8106C58F8147C58F87D
:100FA000081C9BE80058C2F30D0355461A46234619
:100FB0005446C246B04628683BFB00223CFB132245
:100FC0003EFB032237FB112238FB012222F38F362E
:100FD000C2F30D023BFB10223CFB00223EFB13231D
:100FE00037FB063338FB113323F38F31C6EA014157
:100FF00045F8041BA945C3F30D020346DBD8D046D0
:10100000A246044658F8040C48F8081C134600F0A1
:101010000040034348F80C4C48F8043C08F1200811
:101020000028B2D102469DE81100214603F05AFD86
:10103000204603B0BDE8F04F03F02ABD03B0BDE881
:10104000F08F00BF032917D870B418304C01031972
:1010500072B691B911680151D0681169DC6956689E
:1010600095689D6004F0004440424A425E60DC6145
:10107000D8601A6162B670BC704753F8041C41F026
:10108000004143F8041CE5E72DE9F04F83B08846A2
:10109000846A0190D0F81CC0D0F824A0C16A076B04
:1010A000DDF8309008F580702646834638F902EB6B
:1010B0004FEA0E3E5CFB17F401EB84045AFB17F574
:1010C0007644C4EB6606A6EB85065CFB16F007EBE0
:1010D00080005CFB10F104EB81015AFB10F5C1EBC1
:1010E0000E07A7EB85055CFB15F700EB87070C44A3
:1010F00024F34F34384420F34F30354425F34F3533
:10110000C34522F8024B764623F8020B29F8025B0E
:10111000CCD1019A1346C3F828E0D162176303B01B
:10112000BDE8F08F2DE9F04F85B0884681690191C7
:1011300001460C460390006A0290D1F824B08F6AF1
:10114000206BC96ADDF838A0DDF83C9008F58074A2
:10115000009432F9026B029C06FB04F626F07845F7
:1011600005F10065ED0055FB15F5284C55FB14F510
:10117000ED00013CF616C6F106062C443441019DF3
:1011800055FB14F4224D38F902CBAC42A8BF2C46D3
:1011900024024FEA0C3C54FB10F601EB86065BFB85
:1011A00010F107EB0C0EC6EB6E0EAEEB810E54FB8E
:1011B0001EF500EB850554FB15F106EB81015BFB89
:1011C00015F0C1EB0C07A7EB800754FB17F405EBF8
:1011D00084000E4426F34F36054425F34F35BE44B4
:1011E0002EF34F3E009C23F8026B44452AF8025B25
:1011F000674629F802EBACD1039A1346C3F828C01E
:10120000D162106305B0BDE8F08F00BFABAAAA2A77
:10121000E71052002DE9F043002183B0044603F0AB
:101220007BFC01210546204603F076FC0646002D96
:101230003CD003F0D9FB074600283CD003F0D4FB98
:101240008046002842D003F0CFFB8146002851D0D1
:10125000002E45D0021D08F10403019200932046A0
:101260003B1D321D291DFFF75DFF304603F010FCCA
:10127000284603F00DFC00223946204603F032FCDC
:10128000384603F005FC01224146204603F02AFCC3
:10129000404603F0FDFB20460222494603F022FCB3
:1012A000484603B0BDE8F04303F0F2BB0028F8D194
:1012B00003B0BDE8F083284603F0EAFB002EF7D028
:1012C000304603B0BDE8F04303F0E2BB284603F02C
:1012D000DFFB384603F0DCFB002EE9D03046F0E7B8
:1012E000031D00933A1D08F10403291D2046FFF752
:1012F000CBFEBDE7284603F0CBFB384603F0C8FB26
:10130000404603F0C5FB002ED2D03046D9E700BFDF
:1013100010B5044603F060FD204610BD024A0349A3
:10132000034806F07DBF00BF3049FF1F11130000C6
:10133000105FFF1F38B5074D074C08482A46214665
:1013400006F06EFF2A4621460548BDE8384006F003
:1013500067BF00BF3049FF1F11130000185FFF1F58
:10136000205FFF1F1A4A1B4B11681B48096970B4A4
:1013700099421279027008D2184A12782AB3184A90
:101380000121116003F5807402E01C46A3F580730F
:10139000144A154912680D68AAB1A5B1134E3088D8
:1013A000402810D841000A4440302944023202311A
:1013B000308033F9040B22F8020F9C4233F9020CFF
:1013C00021F8020FF5D870BC704703F58074DFE791
:1013D0003461FF1F2C60FF1F1F8000402C61FF1F26
:1013E00008E200E03C61FF1F3061FF1F285FFF1F24
:1013F000F8B5064603F0F8FA0446E8B103F0F4FA4B
:10140000054600283AD072B61F4B1A887F2A19D891
:10141000002C31D01D490A6842B162B6204603F063
:1014200037FB2846BDE8F84003F032BB18480C6093
:101430001A80056062B6F8BD054672B6124B1A886E
:101440007F2AE5D9114A12491768146000220C68F6
:101450001A800D6062B63946304603F043FB3846C9
:1014600003F016FB30462146012203F03BFB2046E9
:10147000BDE8F84003F00CBB62B6F8BD204603F0AF
:1014800007FB2C46BFE700BF285FFF1F3C61FF1F23
:101490003061FF1FF8B5284C284E294F294D2046B2
:1014A000012103F033FC00F0B1F8274B274A28480C
:1014B0004FF480611960236800211A6099802279B5
:1014C0001E6102F1804240F20116DE809F6102F54A
:1014D00004324FF480760627DE82DE839F83022665
:1014E0008C27D9609E609E82117017702B68194EF0
:1014F00043F0124343F001032B600368164D43F0A1
:101500001043036003F0A8FB2279144B144C1870AD
:1015100053119B0003F16043174602F1100003F5DD
:10152000614302F01F020121377001FA02F245F80F
:1015300020401A60F8BD00BF3461FF1F2C5FFF1F01
:1015400000FEFFFF80F0024014B00440A2F0024011
:1015500000F002401B8000400044FF1F2C61FF1F71
:1015600065130000024A0349034806F059BE00BF54
:101570003049FF1F111300003461FF1F024A034965
:10158000034806F04DBE00BF3049FF1F1113000095
:101590004061FF1F024A0349034806F041BE00BFF5
:1015A0003049FF1F111300004861FF1F024A034921
:1015B000034806F035BE00BF3049FF1F111300007D
:1015C0005061FF1F024A0349034806F029BE00BFCD
:1015D0003049FF1F111300005861FF1F024A0349E1
:1015E000034806F01DBE00BF3049FF1F1113000065
:1015F0006061FF1F024A0349034806F011BE00BFA5
:101600003049FF1F111300006861FF1F284B294953
:101610001A68294842F400421A600A6842F002023D
:101620000A601A6842F002021A600368002B3EDB6F
:10163000224B1B68002B3ADB214A4FF0804313609A
:101640001368002BFCDBF0B51E4C1F48DFF8A8E048
:101650001E491F4B1F4A204F204E214D4FF2FE0CBA
:10166000C4F800C0002404600120CEF80000DFF8B8
:101670008CE0C1F800E04FF480311960194B136021
:10168000DFF87CE0184A3A603460286000F18E4050
:10169000CEF80000154CB9671548164946F8503C7D
:1016A0004FF4C0632A61236003600B60F0BD704794
:1016B0003C8004404080044000F0024080F0024042
:1016C00000F1024004F1024060F0024008F00240E4
:1016D0000CF0024010F0024014F00240E0F0024032
:1016E00084F002401B1F0100001F1F1F08B00440B0
:1016F0000CB0044018B0044004F0024001000007A0
:1017000088F00240024A0349034806F089BD00BF41
:101710003049FF1F111300007061FF1F024A034987
:10172000034806F07DBD00BF3049FF1F11130000C4
:101730007861FF1F024A0349034806F071BD00BFEC
:101740003049FF1F111300008061FF1F024A034947
:10175000034806F065BD00BF3049FF1F11130000AC
:101760008861FF1F024A0349034806F059BD00BFC4
:101770003049FF1F111300009061FF1F024A034907
:10178000034806F04DBD00BF3049FF1F1113000094
:101790009861FF1F10B4047F4160022CC26003D027
:1017A0005DF8044B03F034BB83685DF8044B1847C5
:1017B000F0B4464B464A986B5C6B01791170454911
:1017C00022790A701A6B00790870002A46D059688D
:1017D000C9688A423ED82168CC8B240402F1FF30CC
:1017E00065D4C0F30E00C883C88B80B2C882996BE1
:1017F0000968C88B000452D4C2F30E00C883C88B9A
:10180000002480B212F1FF32C88218BF01221C638B
:10181000596B2E4809680D6800F12C04A54236D09A
:101820000068C46814F0804F0C680D6815BF2488E8
:1018300024780235013544F000440D604463996B0F
:10184000254B09791970214912B14A6B12791A7026
:10185000F0BC7047521A1A630122D9E7D86B196895
:1018600005681E4C0A63CC62CC682D681C4E24F0BF
:1018700080440327B542CC6083F82D701FD1037FCD
:101880004260022BC2601ED0F0BC03F0C1BA0168F6
:1018900090F82C00CC6840F000404863CFE7CC8B38
:1018A000C2F3080004F47E442043C883A7E7CC8B2E
:1018B000C0F3080004F47E442043C88394E72B4619
:1018C0001146F0BC18478368F0BC18473849FF1F21
:1018D0001F8000401C8000401B80004000000FFF64
:1018E0009517000000207047704700BF064B074A5D
:1018F000DA620221002259609A7083F8242083F86A
:10190000302083F832207047A061FF1F948C0000C4
:101910002049214A0B6843F080030B60114613688D
:10192000DB07FCD40B689B07F9D41C4B30B44FF099
:101930008072184D186000E0A2B12968184B154C50
:101940000B40013A002BF7D062B1012B0AD123687A
:1019500013F0800F23680FD043F00113236003209E
:1019600030BC70470B4A136843F4702343F0010303
:101970001360012030BC704713F48030236804D01A
:1019800043F0011323600520F4E743F001032360D3
:10199000F0E700BF30100B4024100B400C100B4040
:1019A00001000E0070B50D4D0D480E4E00232B604A
:1019B000FFF7AEFF40F2E73403463268520701D525
:1019C00007480BB1184670BD2B60FFF7A1FF013C23
:1019D0000346F2D1002808BF052070BD08100B4057
:1019E0000000DB0C24100B40F8B5384B1A780AB114
:1019F0000320F8BD5B78064603B94902344D354CE7
:101A0000354B36484FF6FF774FF481322F60216017
:101A10001A60FFF77DFF0028EBD1314B31491B687D
:101A20001C3406F1400206F510702B68284F43F075
:101A3000200613F4E00F2E603ED123681E05FCD56E
:101A40000B6842F8403C0B6842F83C3C0B6842F89B
:101A5000383C0B6842F8343C0B6842F8303C0B6869
:101A600042F82C3C0B6842F8283C0B6842F8243CB6
:101A70000B6842F8203C0B6842F81C3C0B6842F8AB
:101A8000183C0B6842F8143C0B6842F8103C0B6899
:101A900042F80C3C0B6842F8083C0B6842F8043CE6
:101AA00040328242C1D1002009490B68084A9B0795
:101AB000FBD50D4B1360F8BD43F4E00343F0200366
:101AC0003B60FFF76FFF0120EEE700BFF461FF1FEF
:101AD00030100B4008100B4004100B4010003A115E
:101AE00010100B4020100B4022000001F8B52B4BCA
:101AF0001A780AB10320F8BD5B78044603B949029D
:101B0000274D28482A68284B2A604FF4813201600B
:101B100026481A60FFF7FCFE0028ECD1244B254E26
:101B20001B68294604F500770B681D4AD806FBD5CB
:101B30002B6813F4E00F1AD104F1400254F8043B6F
:101B40003360A242FAD10B68DFF854E043F010038F
:101B50000B600B6813F4E00013D19742E4D11049F5
:101B60000B680F4A9B07FBD5134B1360F8BD136836
:101B700043F4E00343F010031360FFF713FF012069
:101B8000EDE7DEF8003043F4E00343F01003CEF855
:101B90000030FFF707FF0120E1E700BFF461FF1FFE
:101BA00030100B4008100B4004100B4000003A1896
:101BB00010100B4020100B401200000110B5012145
:101BC000007801F0C1FE114A1378C3B11049CB7AF5
:101BD00000241846147093B1DA0703D50D4AC8697A
:101BE000106018469C0703D50B4B0A6AC87A1A6026
:101BF000420705D4030702D5084B8A6A1A6010BD54
:101C0000074B4A6AC87A1A60F4E700BF0862FF1FF0
:101C10003849FF1F00E100E004E100E00CE100E0D2
:101C200008E100E0234B1A781AB10078002101F096
:101C30008BBE70B4204A2149D47A096801251D70F1
:101C4000002C26D072B6D47AE607234606D51C4D62
:101C5000D3682E683340D3612B602346A50706D591
:101C6000184D14692E68D37A344014622C605C07D6
:101C700006D5154D54692E68D37A344054622C60D1
:101C80001B0705D5114C936925682B40936223608F
:101C900062B61368DA688A4207D00D4C1C600D4AA0
:101CA000D96041F080441C611A600078002170BC4A
:101CB00001F04ABE0862FF1F3849FF1F0462FF1F80
:101CC00080E100E084E100E088E100E08CE100E0F8
:101CD00001403F0000003F80F0B41248124A036800
:101CE00082B016460093009F4FF00045FF24136812
:101CF00043F480631360D5625463D36A002BFCDA2B
:101D0000B36BDBB2FF2B09D003680193019BDB1B94
:101D10008B42ECD3002002B0F0BC7047012002B02F
:101D2000F0BC70477864FF1F00C00240F8B50D4654
:101D30004FF4967116460446FFF7CEFF284B1A68FB
:101D40004FF0004042F4806245F040011A60D862D2
:101D50001A465963D36A002BFCDA214918204FF048
:101D600000470A6826FA00F342F48062DBB20A6098
:101D7000CF624B63CB6A002BFCDA083810F1080FF6
:101D8000EFD155B3082D0CBF8721FF21144B1A68E2
:101D90004FF0004042F480621A60D8621A465963DC
:101DA000D36A002BFCDA0E4A002716464FF0004596
:101DB000FF21136843F480631360D5625163D36AD3
:101DC000002BFCDAB36BD8B21B06607000D4F8BDF0
:101DD0000137B7F5807FECD1F8BD9521D6E700BF7C
:101DE00000C00240F0B41549154A0B6882B016468F
:101DF0000093009F4FF00045FF24136843F4806375
:101E00001360D5625463D36A002BFCDAB36BDBB288
:101E1000FF2B43700AD10B680193019BDB1BB3F5C9
:101E2000967FEAD9002002B0F0BC7047A3F1FE0013
:101E3000B0FA80F0400902B0F0BC70477864FF1F30
:101E400000C00240F8B58378032B0E46044618BF45
:101E50004E021546FFF7E6FE324611212046FFF7F7
:101E600065FF18B92046FFF7BDFF20B92046FFF7F0
:101E7000A5FE0020F8BD204B2049214A1A608E465D
:101E800059631A4659631E46596305F5FD70A91C2E
:101E900005F5FE77D36A13F0F00FFBD0C6F834E0F7
:101EA000B36B01F8013C1B1201F8023C02318F4276
:101EB000F0D105F50075A8420DD20F4A1646D36A37
:101EC00013F0F00FFBD0B36B191200F8021BA842FD
:101ED00000F8013CF3D3084B0949084A1960194638
:101EE0005A63CB6A044A13F0F00FFAD02046936B82
:101EF000FFF764FE0120F8BD00C00240FFFF009024
:101F000000041F80F0B4314E33684FF0004743F4B3
:101F1000806333603D46F762344671633346511C3B
:101F200002F20127E26A002AFCDA1A6811F8016C51
:101F300042F480621A60DD625E63E26A002AFCDAC3
:101F40001A6811F8026B42F480628F421A60DD62F7
:101F50005E63E7D11D49CA6A1C4B002AFBDA1A6886
:101F60004FF0004542F48062FF241A601946DD629A
:101F70005C63CB6A154A002BFBDA13684FF000450F
:101F800043F48063FF2413601146D5625463CB6A27
:101F90000E4A002BFBDA13684FF0004543F48063D0
:101FA000FF2413601146D5625463CB6A074A002BA5
:101FB000FBDA936BDBB203F01F024370A2F1050062
:101FC000B0FA80F04009F0BC704700BF00C002408A
:101FD00070B5044671B18378032B0D4618BF4D02CE
:101FE0001646FFF71FFE2A4618212046FFF79EFEE1
:101FF000054620B12046FFF7E1FD002070BD3246C6
:10200000FE212046FFF77EFF0028F3D04FF4167123
:102010002046FFF761FE0028ECD02A460D2120461D
:10202000FFF784FE0028E5D10B4B1A684FF00045FE
:1020300042F48062FF201A601946DD625863CB6A61
:10204000054A002BFBDA936B13F0FF0FD2D1204629
:10205000FFF7B4FD012070BD00C00240014B024AF1
:102060001A6070470462FF1F0320003838B590F9EA
:102070000530002B03DBBDE8384000F079B9044699
:102080000121006900F0B4F9F8B1257D104B13EB84
:1020900045151AD0A3790F4A012B9CBFA369EB61A8
:1020A000E36912686B831B0CAB8232B105F1160138
:1020B00005F1180090472B8B6B82637903F07F0347
:1020C0006371BDE8384000F053B9002038BD00BF4F
:1020D0001862FF1F0C62FF1F10B500F108020446D2
:1020E0000121006A00F02CFA50B1E3693BB9637931
:1020F000A268E26163F07F036371012010BD0120DB
:1021000010BD00BFF8B5837913B182698A4201D24C
:102110000020F8BD022B0F4605461AD007B32B6AE4
:10212000E9681C7C4A1E04F109037C1EDA40DC408D
:10213000A24211D9EB69AB6005F1080606E0A96877
:10214000286A00F0C5F9013C0028E1D03246002C95
:10215000F5D1EF600120F8BD0029EBD0A41AEBE720
:10216000AF60EF600120F8BD2DE9F04F8B4681791B
:1021700085B001290746019205D001233B7100205B
:1021800005B0BDE8F08F42799107F6D5530708D521
:10219000FC68B9698C4200F0B480FFF7B3FF0028F7
:1021A000EBD0019BFC68002B4AD0DFF8A491DFF84C
:1021B000A4A1DDF80480386A0679013E06EA5426B7
:1021C00016F0FF06C4F3080443D1002C41D1B968CE
:1021D000002973D1FA69002A00F08380BA60C4F53F
:1021E0000075ADB245453AD9057C4169023AAA402D
:1021F0000E4416441FFA88F51CB9F868BA69904273
:102200004FD23046012100F0F3F80028B5D04C44FD
:1022100004EB050E74450DD00BF1FF31621E0EF17B
:10222000FF3611F8010F02F8010F9642F9D1C4EB05
:102230000E04A344FC68B8EB05082C44FC60BAD13A
:10224000BB69A34262D27A79BC6142F080027A71A2
:1022500065E0C4F50075ADB24545BA68C4D8017CE7
:102260004069023A8A400644B5F5007F1644C3D15E
:10227000DAF80020964204BF4FF0FF32CAF800207F
:102280002F4A10680278FE2A314633D05A46FFF7AB
:102290009FFE00283FF471AF0BF5007B4FF40075F3
:1022A000C8E700F065F800283FF467AF2549CAF891
:1022B00000600A7842F001020A70A8E703AA00F061
:1022C00007F900283FF45CAF386A1F4B90F82050A4
:1022D000039A4FF6F871102D18BF19468A42FFF481
:1022E0007DAF3846FFF7F8FE00283FF446AF386A66
:1022F000BA6874E75846FFF7F9FBB0FA80F0400976
:10230000C7E7019B002B7FF450AF08E00F4B7A79B1
:102310001B6823B1019B13B142F080027A7112074E
:1023200009D5BB79002B3FF428AF3846FFF79EFE56
:1023300000283FF422AF019805B0BDE8F08F00BF40
:102340001462FF1F1864FF1FF8FFFF0F0C62FF1FCE
:102350001862FF1F7849FF1F00B583B002AB01224E
:1023600003F8011D1946FFF7FFFE03B05DF804FBFB
:1023700070B51A4C23780BB9012070BD184D194B5C
:10238000286819680378FE2B17D0174AFFF720FE3C
:1023900088B1164E316819B900232370012070BD31
:1023A00028680378FE2B0FD00F4AFFF711FE10B1FB
:1023B00000233360F0E7002070BD0B48FFF796FB69
:1023C000B0FA80F04009E3E70748FFF78FFBB0FA67
:1023D00080F040090028EBD1EDE700BF1864FF1F33
:1023E0001462FF1F7849FF1F1862FF1F1062FF1F52
:1023F00070B5124D2B6883420E4611D00446FFF78C
:10240000B7FF08B9002070BD0D4B18680378FE2B8C
:102410000CD00C4A2146FFF715FD0028F2D02C60A5
:10242000094B197831431970012070BD21460548C8
:10243000FFF7DAFAB0FA80F04009EEE77849FF1FBB
:102440001462FF1F1862FF1F1864FF1FF8B590F891
:102450002030C469102B1A4B05460E4617461B68E0
:1024600016D004EBD1149C4216D106F07F06154A13
:1024700042F826701449287E0A78012842F00102A9
:102480000A7018D9A968114A0B4413600120F8BDDD
:1024900004EB11249C4208D000212046FFF7A8FF3E
:1024A00050B195F82030102B07D1F6B2054A2346DB
:1024B00022F81670DEE70120F8BD2346D5E700BFFD
:1024C0007849FF1F1862FF1F1864FF1F1062FF1F6B
:1024D000C36801338B4218D370B590F82030102BAD
:1024E000154B044616460D46C0691B680FD000EB1D
:1024F000D11098420FD105F07F01104B53F82130D5
:1025000023F070433360012070BD0020704700EB62
:102510001120984207D00021FFF76AFF50B194F8CC
:102520002030102BE7D1E9B2044B33F8113033607F
:10253000012070BD002070BD7849FF1F1862FF1F89
:102540002DE9F04F176883B06FB301374FF0000AE1
:10255000C36803F1010813B38B46064691463C4617
:10256000002505E01C461F46F3680135AB4216D92D
:10257000A04538BF0224214601AA304638BF27466D
:10258000FFF7A6FF631CD91B48B1019A002AE9D1C5
:102590008B4510D01C46F3680135AB42E8D80020CB
:1025A00003B0BDE8F08FA1F1010ABAFA8AFA076810
:1025B0004FEA5A1ACCE7012CF1D9F36801339C4257
:1025C000EDD86FF0704221463046FFF73FFF0028FC
:1025D000E5D0A74214D2013C012CE0D9F3680133C5
:1025E0009C42DCD8621C21463046FFF72FFF0028B2
:1025F000D5D0A74204F1FF3402D0012CEED1CEE7B2
:10260000D9F8001059B10129C9D9F36801339942A9
:10261000C5D83A463046FFF719FF0028BFD0C9F8A1
:102620000070BAF1000F01D0013737600120B7E721
:102630000369D3F83801D3F83431C01A704700BFAA
:102640000369D3F83411D3F83821914208D2D3F872
:102650003421511C1A44C3F8341192F830007047E9
:102660004FF0FF30704700BF0369D3F83411D3F83F
:10267000382191423DBFD3F834219B1893F83000A4
:102680004FF0FF30704700BF704700BF0369D3F8B9
:102690004422B2F5817F03D90123037100207047E2
:1026A000D3F8442210B49C180132C3F8442284F8B1
:1026B0003C1101205DF8044B704700BF38B5036939
:1026C0000A4A026093F84822022A044601D02046B2
:1026D00038BDD3F87452002DF9D0284602F07CFBA7
:1026E0002846082102F0A0FC204638BDAC8C000032
:1026F00038B503690546D3F84402B0F5817F1AD88E
:102700001446D3F84422D3F84402C2F58172013250
:1027100003F59E73A242184402D2012314462B7182
:10272000224600F017FF2A69D2F844322344C2F847
:102730004432204638BD01232B71002038BD00BF34
:102740002DE9F04F574C83B006460D4692461F4682
:102750009DF830809DF834E09DF83890234621465E
:102760000022022004E00432202A36D011F8040F9F
:102770008542F8D148785045F5D196F84A121A4466
:102780008A4592F803B000F08680BBF1000F28D094
:10279000BEF1000F0BD096F84C2296F84A02019336
:1027A000002A14BF0221002101F0D4F8019B4FEA56
:1027B0000B2202F4E062B8F1000F60D142F0640233
:1027C000394901EBCA01012049680A6086F84AA22A
:1027D00086F84C8286F8980203E096F84A224FF079
:1027E000000B0022022104E00432202A36D014F823
:1027F000041F8D42F8D1A178B942F5D11A4496F858
:102800004B32D4789F4240D0002C34D0B9F1000F25
:1028100009D096F84C3296F84B02002B14BF0221D7
:10282000002101F097F8230203F4E063B8F1000FF0
:1028300028D143F064031C4A02EBC702012152680D
:10284000136086F84B7286F84C8286F89912BBF1B9
:10285000000F10D0012003B0BDE8F08F96F84B3286
:10286000BB4208D1B9F1000F05D00024BBF1000F25
:1028700001D0002CEED1002003B0BDE8F08F42F073
:1028800003029DE743F00303D5E7B9F1000FEDD153
:10289000002CC8D1EFE7BEF1000FA2D1BBF1000FB1
:1028A00085D19EE7C88C0000008E0000F8B5C36893
:1028B0001B789B0610D483680D4680211970C3686D
:1028C0001221197090F84932012B044606D08AB9BA
:1028D00080F848220120F8BD0020F8BD1A4675B9DD
:1028E000794B4FF080711960022A0FD0012084F8D3
:1028F0004802F8BD531E012BF1D90120F8BD012D6E
:102900004BD1714B4FF000711960EDE7D4F8746250
:10291000002E00F097803379202B30D0002D43D14A
:1029200032686A49938B6A4F9BB243F008039383E2
:102930003279531102F110009B0041F8207003F12D
:10294000604303F56143012102F01F0201FA02F224
:1029500031681A608B8B9BB243F002038B8333790F
:1029600003F1804303F5043392221D701A70002294
:10297000022384F85E2284F848320120F8BD3046F4
:1029800002F02AFA3046082102F04EFB0023012013
:10299000C4F8743284F84802F8BD022D5DD14D4B65
:1029A0004FF4806119609FE7012D26D132684749B5
:1029B000938B494F9BB243F00803938332795311B1
:1029C00002F110009B0041F8207003F1604303F511
:1029D000614302F01F02954032681D60938B9BB2E9
:1029E00043F002039383337903F1804303F5043307
:1029F0000021932219701A70B9E7022D35D1D4F84D
:102A0000741232480A68354E938B9BB243F0080328
:102A100093830A79531102F110059B0040F8256059
:102A200003F1604303F56143012002F01F0200FA45
:102A300002F208681A60838B9BB243F0020383831F
:102A40000B79D1E7082002F0EDFA314607463E4601
:102A500002F05CF9C4F874725DE7032D7FF444AFB3
:102A60001C4B4FF0006119603EE7032D7FF47FAFF0
:102A7000D4F8741215480A68194E938B9BB243F030
:102A8000080393830A79531102F110059B0040F863
:102A9000256003F1604303F56143012002F01F024A
:102AA00000FA02F208681A60838B9BB243F00203BB
:102AB00083830B7903F1804303F5043300219222D1
:102AC00019701A7053E700BF00E100E00044FF1FD7
:102AD000FD33000008E100E0093400001534000077
:102AE00021340000F0B5284EDFF8ACE0A6FB01432E
:102AF000A6FB02429E09370275469609142400235C
:102B0000B7FBF6F604E00133372B1BD055F8044F22
:102B100022029642F7DA83BB14241C4A4568B1FBB3
:102B2000F4F491422B70C0F8504207D8184B8269D8
:102B3000A3FB0131C1F307511170F0BD8369042279
:102B40001A70F0BD002422464FF470274FF47065D0
:102B50004FF0360CB21AF71B002A87EAE776A6EB8D
:102B6000E776B8BF5242964202DD0A4AD35CD4E708
:102B7000084B2C4613F80C30CFE703F1FF3C5EF80E
:102B80002C502F02E6E700BFD34D6210FF6BDC0232
:102B9000819F5E16C88D0000EC8C0000F0B49DF89B
:102BA00014409DF810609DF818503CB135B1C768CD
:102BB0003F78BF0602D50020F0BC7047069505940B
:102BC0000496F0BCFFF7BCBD2DE9F04184B004468B
:102BD00094469DF828609DF82C209DF830009DF8C3
:102BE00034E09DF83C700D4600294CD1DFF810818F
:102BF000D8F8001041F04001C8F80010002184F816
:102C000049C284F85512BCF1000F2BD16369202111
:102C1000197012B994F84A22D2B210B994F84B0242
:102C2000C0B294F8981294F8996202960346CDF8CF
:102C300000E0019120462946FFF7B0FF0E9A2F4988
:102C40002046FFF74FFF3A4629462046FFF72EFE63
:102C500094F84932002B37D0A368C0221A7004B010
:102C6000BDE8F0816169CEB14FF0280C81F800C059
:102C70009E4221682ED95B00DBB20B707600E369BF
:102C8000F6B21E70C5E7012913D1DFF87480D8F8B9
:102C9000001041F08001C8F80010AFE74FF0200CA1
:102CA00081F800C021685B00DBB20B70E3691E7025
:102CB000AFE7022916D1DFF84C80D8F8001041F0B8
:102CC0004001C8F8001099E7A36880221A7004B088
:102CD000BDE8F0817600F6B20E705E00E369F6B2F0
:102CE0001E7096E7032989D1DFF81880D8F8001004
:102CF00041F08001C8F8001080E700BF008793030F
:102D0000348004402880044070B5D0F83841D0F8B1
:102D100034319C4218D9D0F83831D0F83451D0F839
:102D200034615D1B954228BF1546044600F130030F
:102D30002A460846991900F00DFCD4F834312B448A
:102D4000C4F83431284670BD002070BD2DE9F04133
:102D5000BF4EC7683378D0F808E00133DBB2337078
:102D60003D789EF800300446DBB2806903F0200213
:102D70000178EDB2FAB113F0100F94F85E327FD003
:102D8000022B00F0D78094F85E32032B00F0D28043
:102D900094F85532082B00F0238294F85532092B11
:102DA00000F05C8294F85532012B00F0CC81802336
:102DB0008EF800305BE002F0FF08EA0624D405F04C
:102DC000400202F0FF071ABB03F0100303F0FF02FA
:102DD000002B00F08E8015F0010540F0A881D4F89A
:102DE0004022D4F844329A4207D2D4F840325A1CD6
:102DF0002344C4F8402293F83C5123691D70A36812
:102E0000D0221A70A06979E0102368063B7029D59A
:102E100094F855320C2B00F00F8105F0040505F0F5
:102E2000FF02002D73D0A3680021D0220B2084F86C
:102E30005502C4F844121A702269D4F86C1213783F
:102E40005B0884F8563209B188472269D4F84432C5
:102E5000002B00F0758194F83C8182F800800123FA
:102E6000C4F84032A269137843F050031370E3684A
:102E700002221A703378013BDBB23370BDE8F08177
:102E8000022B00F09F8094F85E32032B00F09A80B2
:102E9000D4F83831D4F858220233934200F04181FB
:102EA00094F85532012B00F03781D4F838310133D2
:102EB000934280F00B8194F85532012B00F0018190
:102EC000D4F838312269591CC4F8381123441278D7
:102ED00083F83020E36802221A7094F85532DBB28E
:102EE000012BC7D194F85D22002AC3D184F85D324A
:102EF000C0E794F855320C2B00F09381037843F02F
:102F000050030370E36802221A70BDE8F081A169E2
:102F10000B7843F020030B70A3680C20C02184F8C9
:102F20005502C4F83821197023691B785B0884F8AE
:102F3000563297E7D4F8742213689B8B190604D590
:102F400094F85E32022B00F0B08094F85E32032BCE
:102F500000F086803F4B12791968012393400B42A1
:102F600088D03D493D4B0A70D4F874120979197024
:102F70000022072384F85E2284F85532D4F8943274
:102F8000013304D0D4F894320133C4F89432ED06FE
:102F900011D5042384F85532D4F88C32013304D08F
:102FA000D4F88C320133C4F88C32E268102100234B
:102FB0001170C4F84032A36880221A70E3680222BC
:102FC0001A7032E0D4F874321A68928B120603D564
:102FD00094F85E22022A5CD094F85E22032A00F064
:102FE000D6801C491A790968012393400B423FF4AB
:102FF00041AF1949194B0A70D4F8742212791A702A
:10300000A36880220020072184F85E0284F855120C
:103010001A70E36802221A70D4F89432013304D093
:10302000D4F894320133C4F89432D4F87032002BBF
:103030003FF420AF98471DE7D4F86832002B3FF4E7
:10304000ECAE0022C4F83421D4F838019847E4E605
:103050005864FF1F2C8000401E8000401F800040ED
:103060003B781B06FCD5C34B12791A70002384F8F9
:103070005E32D4F844322169013BC4F84032D4F8BE
:1030800040322344022293F83C310B70E3681A70FB
:10309000F0E6B9491B790B70A368E8211970E36861
:1030A000032184F85E121A70E4E6B34912790A70BB
:1030B000A268F0211170E268032184F85E12137097
:1030C000D8E694F85D32002B3FF4FAAEA3680021F5
:1030D000B02284F85D121A70D4F838312269591C74
:1030E000C4F838112344127883F8302094F854320D
:1030F000012B00F0C580E36802221A7094F8553263
:10310000012B36D0D4F86432002284F85522002BEB
:103110003FF4E3AE9847E0E694F85D32002B7FF48D
:10312000C4AEE8238EF80030D4F85822BDE6C023A0
:103130008EF800302369A0691B7884F85572DDE6AB
:1031400084F83C3189E694F85432012B0CBF80237B
:10315000B0238EF80030E36802221A70D4F880326F
:1031600001333FF462AFD4F880320133C4F88032C7
:103170005BE7D4F88032013304D0D4F880320133D5
:10318000C4F88032D4F87032002BC3D1A5E6794A56
:103190001B791370A3680021B02284F85E121A70A4
:1031A000D4F858322269013BC4F83831D4F83831A8
:1031B000591CC4F838112344127883F8302094F84D
:1031C0005432012B00F0DA80E36802221A70D4F83E
:1031D0006432002284F85522002B7FF42BAF49E69D
:1031E00005F0100303F0FF02002B50D00023042150
:1031F000102284F85E3284F855123A70A268802159
:103200001170E268C4F8403202231370D4F88C3293
:1032100001333FF40AAFD4F88C320133C4F88C3256
:1032200003E7C9B211F0500F4AD0037843F05003BE
:103230000370A1690B7803F0DF030B70E3680221D0
:103240001970D4F8683284F85522002B3FF412AE7E
:10325000C4F83421D4F8380198470BE6E80641D584
:103260000422102384F855223B70A36880221A7030
:10327000E36802221A70D4F88C320133CBD1D4E641
:103280003C23013BFDD1A36880221A7033E715F07F
:1032900001053CD084F85E22D4F84032002B7CD16A
:1032A000022384F85532D4F88432013304D0D4F8A0
:1032B00084320133C4F8843280238EF800307DE6F6
:1032C00023691B78D4F83821B2F5817FDBB23FF651
:1032D00015AED4F83821A1180132C4F8382181F88C
:1032E00030300BE6E9072ED50223802284F85532D0
:1032F0008EF80020E2681370D4F8843201333FF472
:1033000094AED4F884320133C4F884328DE6D4F814
:1033100040320133C4F84032D4F84422934234D3CB
:1033200094F8543284F85552012B0CBF8023B023FB
:103330008EF80030E36802221A70D4F86032002B55
:103340007FF478AE96E594F85E32012B32D0D4F853
:103350005832012B4FF00A020CBFE823E02384F817
:1033600055228EF800302269E368127802221A7022
:1033700080E500BF1C8000401F8000403C23013BD3
:10338000FDD1A36880221A701EE794F85E32012BEB
:1033900020D0D4F84032216973E6032384F85532F3
:1033A000D4F88832013387D0D4F888320133C4F896
:1033B000883281E70223E12284F85E328EF8002011
:1033C000D4F874120C4A097911702169E2680978FD
:1033D00013704FE50223F12284F85E328EF800204C
:1033E000D4F87412044A09791170226994F83D11D5
:1033F0001170E26813703DE51B8000400021014818
:10340000FFF7A4BC7C49FF1F01210148FFF79EBCC8
:10341000184CFF1F02210148FFF798BCB44EFF1F54
:1034200003210148FFF792BC5051FF1F2DE9F843DB
:10343000224BDFF8A090DFF8A080214E214D1E60C6
:1034400000244FF47A774A4641461C711C739F60F2
:1034500018465C731D6104F0E3FE1B4B05F52772F3
:1034600001211A611C714A469F601C7359731846EA
:1034700041461E6004F0D4FE144B05F5A7620221FC
:103480001A611C714A469F601C7359731846414665
:103490001E6004F0C5FE0E4B4FF0030E05F2D4750E
:1034A0001C711C7383F80DE04A46414618461D61A5
:1034B0009F601E60BDE8F84304F0B2BE4464FF1F85
:1034C000AC8C00007C49FF1F1C64FF1F3064FF1F91
:1034D0005C64FF1F3049FF1FBD260000014B002226
:1034E0001A6070477064FF1F03680329D8BF4FF448
:1034F000FA51994223D0F0B472B6124B4CF22054D8
:103500004DF628121C801A8000BF00BF00BF0E4F6E
:103510000E4E0F4C112523F80E5C0A0C8BB20025C1
:103520003A803380258062B64FF4807300BF00BFBD
:1035300000BF013BFAD10160F0BC08467047084665
:10354000704700BF0E2005400420054006200540BE
:1035500016200540844641EA000313F003036DD1B1
:10356000403A41D351F8043B40F8043B51F8043B46
:1035700040F8043B51F8043B40F8043B51F8043B4D
:1035800040F8043B51F8043B40F8043B51F8043B3D
:1035900040F8043B51F8043B40F8043B51F8043B2D
:1035A00040F8043B51F8043B40F8043B51F8043B1D
:1035B00040F8043B51F8043B40F8043B51F8043B0D
:1035C00040F8043B51F8043B40F8043B51F8043BFD
:1035D00040F8043B51F8043B40F8043B51F8043BED
:1035E00040F8043B403ABDD2303211D351F8043B8D
:1035F00040F8043B51F8043B40F8043B51F8043BCD
:1036000040F8043B51F8043B40F8043B103AEDD23B
:103610000C3205D351F8043B40F8043B043AF9D28C
:10362000043208D0D2071CBF11F8013B00F8013B5F
:1036300001D30B8803806046704700BF082A13D36C
:103640008B078DD010F003038AD0C3F10403D21A84
:10365000DB071CBF11F8013B00F8013B80D331F8B8
:10366000023B20F8023B7BE7043AD9D3013A11F838
:10367000013B00F8013BF9D20B7803704B784370A3
:103680008B7883706046704730B42948294A2A4BAA
:103690002A4D6024E121047011701B78284C082BFE
:1036A00030D00A2B2748284937D00C2B0CBF3522A5
:1036B0005D2212232A60236002600B60234B2449A1
:1036C0001B78244ABBB101230B601360224B2349B2
:1036D0001B78234A012B26D9042B0FD9082B1ED97E
:1036E000102B94BF862387230B6013601D4B012290
:1036F0001A7030BC70470B601360E7E784230B60DF
:103700001360F3E700F58E200F49083021221323C0
:103710002A60236002600B60D0E73922F7E7852337
:103720000B601360E2E780230B601360DEE700BFED
:103730000040074001400740EC53FF1F08B0034022
:103740000CB0034008B00B400CB00B407564FF1F79
:1037500020B0034020B00B40ED53FF1F24B00340C6
:1037600024B00B407464FF1F08B5104C08E02368B8
:1037700059050DD423681A050FD42368DB0411D42E
:1037800023685803F3D500F099FA23685905F1D559
:1037900001F0E6FC23681A05EFD501F077FD2368F8
:1037A000DB04EDD501F008FEEAE700BF34800440F9
:1037B00008B5FFF7D9FF00BF014B10221A807047F0
:1037C00000200540704700BF094908B50B6830B1BB
:1037D0006A461844A2F50052904202D20860184688
:1037E00008BD04F029FD0C2303604FF0FF3008BD35
:1037F000F053FF1FFEE700BF084A1378802B01D06B
:10380000002070470649074B0748086000211970DF
:103810001378802BFCD00120704700BF03E00740E5
:103820004480044001E0074000002822094A137840
:10383000012B01D00020704703F1804303F5FC23E6
:10384000602119701378802BFCD1034B034A1A6056
:103850000120704703E00740448004400000060256
:1038600010B4114B53F8302092F8804234B1012348
:1038700079B182F880305DF8044B704703EBC003E8
:103880005B681A6851B922F002021A605DF8044BB5
:10389000704782F800315DF8044B704742F0030234
:1038A0001A605DF8044B7047008E00001C4A02EB62
:1038B000C00301295B6811D004291BD052F83000E5
:1038C000002280F8802229B1022920D0032922D0A9
:1038D0001A6070474FF480721A60704752F83000D7
:1038E0004FF4A27280F880121A601A6822F0200247
:1038F0001A60704752F830104FF4A272012081F81C
:1039000080021A601A6842F020021A60704740F282
:1039100003121A6070474FF481721A60704700BF3B
:10392000008E000030B4054B054D064C00221021DE
:103930001A602A602060196030BC704714D00340C0
:1039400004D0034000D003403F2801D8FFF788BFD0
:10395000704700BF3F2801D8FFF7A8BF704700BFDE
:103960002DE9F843054672B6224F234B234A1B68C4
:103970003C68126862B6520102D5322B88BF01340E
:10398000B5B3C3F52F3303F21F331D4EDFF8689034
:10399000DFF868809B084FF47A72A6FB031302FBE2
:1039A00004F404EB930472B6D9F800103A68D8F81E
:1039B00000E062B6C1F52F3303F21F339B08A6FB6C
:1039C00003031EF0806FC4EB93034FF47A7002D0B0
:1039D000322988BF013200FB0233B3F57A7F04D36A
:1039E000013D05D004F57A74DDE701F021FBDAE74B
:1039F000BDE8F8837864FF1F18E000E004ED00E004
:103A0000176CC116F8B54E4B4E48DFF85CC14E4CF2
:103A10004E49DFF858E14E4E4E4D4F4F4FF0006289
:103A20001A604FF080521A604FF000521A604FF047
:103A300080421A604FF000421A6000220260282380
:103A40004EF6FF70CCF80000CEF8003023600EF583
:103A5000012E0B6033602B6006F500263B6005F5F8
:103A60000025A36207F500278B6204F5012401F508
:103A7000012106F6E87605F6E87507F57F6710314F
:103A80000EF1100E203433602B60CEF800303B6016
:103A90000B602360314CBB618B6109212160A7F56C
:103AA000002704F58054203F08343A602060BB6052
:103AB000E36047F8041C04F5FD2407F5FE270437EE
:103AC00004F2FC7422603860A360FB6044F8041CBC
:103AD000083404F6FC74C7F8FC2F2060A4F5E12438
:103AE000A4F2DC7433602B60C7F8F81F21681C480F
:103AF00041F40071216001681A4C0EF57F4E0EF101
:103B0000E80E07F5883706F5803605F5803541F073
:103B100000710160CEF8002047F6FF71082239607D
:103B200033602B602260FFF7AFFD1920FFF718FF0D
:103B300000F02CFE40F21310BDE8F840FFF710BF74
:103B400004E100E004800340148003401C80034033
:103B5000248003402C8003403480034000800340D5
:103B60000480044000900C40088003400C80034017
:103B700030B472B62B4A13781D0706D52A4B196A42
:103B8000002936D0996A002941D053781C0706D500
:103B9000254B196C00293ED0996C002939D09378B7
:103BA000190705D5204B196E002936D0996E89B1B9
:103BB000D3781B0707D51C4BD3F880207AB3D3F8F2
:103BC000882011213AB162B6184B00221A7030BC1D
:103BD00000F07CBE0D21154C154D227843F8315074
:103BE00003EBC1030830013A5860227062B630BC62
:103BF000704704220D4C0F4D217843F8325003EBEF
:103C0000C20308304A1E5860227062B6EFE70521F1
:103C1000E1E70921DFE70822ECE70C22EAE71022BE
:103C2000E8E700BF009000000000FF1F5165FF1F84
:103C3000C800400088004000431E032B1DD81B4ACB
:103C4000400140F0100030B4104472B6184CE25CF1
:103C5000032A1BD8DFE802F00212151703220D8891
:103C6000E25410F0080F14BFC823882343EA054329
:103C700008310360416062B630BC704708300222F0
:103C8000EDE70522EBE708300422E8E7094A52F89D
:103C9000230038B1084A52F82300416042F823104B
:103CA00062B6E9E742F82310034AF7E70000FF1F76
:103CB0006065FF1F2865FF1F3865FF1F2DE9F04F66
:103CC000DFF80CB3DFF80CA387B044E0AB4F4FEA4A
:103CD000930807EBC809013ED9F8042003F0080354
:103CE000F6B2A2F1080003F0FF04002B40F00281BD
:103CF00057F838301B0C99B222F8081C002B00F042
:103D0000F0809F4B22F8064C42F8044C53F82620D2
:103D1000002A00F0C5829B4D55F8263058609A4C19
:103D200045F8260034F81630194424F8161000F02F
:103D3000ADFD002800F0AD82944A954B19F0080FB4
:103D400000F1080018BF1346C9F8040047F83830DE
:103D500008238BF800309BF80040E4B261071AD5C5
:103D60008C4B1B78A3B18C490A7802F0FF0322B177
:103D7000013BDBB20B7003B900BE88490A7802F040
:103D8000FF032AB1013BDBB20B70002B00F057821E
:103D900004238BF8003004F0080303F0FF02002B2B
:103DA00000F0CC809AF80030DBB21E098ED19C085E
:103DB000DFF8C89159F8342009EBC401C2F383023B
:103DC000013A49680C2A00F28880DFE802F07C7C26
:103DD0008686868686864786868607000868704DB2
:103DE0004A68704F704E286081B240F28160674B24
:103DF0006A604FF0010E0022814249F834303A6087
:103E0000C9F81020C9F8182086F800E05B4C00F2D1
:103E1000E380B1F5D06F80F04683B1F5817F00F08B
:103E2000FC8200F28D82802900F07783822940F0A5
:103E3000FA82A98801F07F01042900F2F4825B482C
:103E40005B4C89000844227062700278930740F14D
:103E5000588484F800E04FF0020E42E3514F3A6874
:103E600032B3544B504E5449188834780D7840285A
:103E7000864645F0020828BF4FF0400E002C84F023
:103E800001043470CEEB00000CBF8824C82409EB79
:103E9000C80680B285F0010544EA0E4472601880BD
:103EA00049F8384072440D70002800F045813A60AE
:103EB0003B4B1A88B2F5A06F0FD100219A78597048
:103EC0003E4B1A7009E0364A108842F221029042B5
:103ED00000F037812D4A49F83420394A0123137004
:103EE00036E72A4A2A4B19F0080F18BF134647F83D
:103EF00038302DE700F0EAFC324A334952F82630D8
:103F0000002B00F0D18158688C5D42F8260003F147
:103F10000802C9F80420032C05D8DFE804F02C02BD
:103F2000292602228A551A8819F0080F0CBF882307
:103F3000C82343EA024347F8383009E7E00700F1B5
:103F40008181210600F1F281A20706D51F4A20498E
:103F500013780220DBB213700870E30602D51C4B05
:103F600010221A7007B0BDE8F08F04228A55DAE7F4
:103F700005228A55D7E703228A55D4E70000FF1FA0
:103F8000D464FF1F8064FF1F5469FF1FC8004000F6
:103F9000880040005C65FF1FE564FF1F6465FF1F2C
:103FA0004865FF1F7C64FF1FE464FF1FC0200740BB
:103FB0005465FF1F9064FF1F5065FF1F9820074046
:103FC000942007402865FF1F6065FF1F8820074079
:103FD000802007409020074042F22100814200F0FB
:103FE0002A8100F2D880B1F5086F00F07682B1F531
:103FF000106F40F01882226AB349A8780870120640
:1040000000F13A83D9F82820B049130600F10C8357
:10401000D9F83020AD49150600F10183D9F83820D0
:10402000AA49140600F1F682D9F84020A7491006E3
:1040300000F14A83D9F84820A449120600F13F83D1
:10404000D9F85020A149130600F13483D9F858203B
:104050009E49150600F12983D9F860209B49140672
:1040600000F11E83D9F868209849100600F11383E7
:10407000D9F870209549120600F10883D9F8782004
:104080009249130600F1FD82D9F880208F49150668
:1040900000F13183D9F888208C49140600F125837A
:1040A000D9F890208949100600F11983D9F8982091
:1040B0008649120600F10D838548864A864901909B
:1040C0008648874D874C04970023059602958046C5
:1040D0000F4616461D460394306828B1446800F028
:1040E000F5FB2046002CF9D100233360029B386891
:1040F0001A46002342F8253028B1446800F0E6FB58
:104100002046002CF9D100223A60019A98F800303C
:104110001146002241F8042B039A0191023B4FF013
:10412000000122F81510032B00F22B81DFE813F0B9
:104130007001250170012501BEF1400F18BF00225A
:10414000B5E6694A0D784878157050708D78C87852
:104150009570D07010680D79157186284D79897920
:104160005571917100F09B816049614E0A783078F9
:1041700082F00105002842F002020D700CBF882178
:10418000C82149F8321009EBC20280F00100002179
:10419000307051609EE642F22120814240F0CB8196
:1041A000544B554C5549A8781D682560CDF804E05E
:1041B0000870002002908046844604464B490D78E2
:1041C00045F0020E09EBCE030393019B002B039BEA
:1041D0005C600CBF8824C82444EA080385F001040D
:1041E00049F83E3032700C70DFF8E0E0404BDFF809
:1041F000FC80002840F01E81BCF1400F1BD144F030
:10420000020C09EBCC03029CDFF8C0E05C60002AE2
:1042100040F02681020442F088029DF804304EF8F6
:104220003C20044433700D702346402803D1002005
:10423000334A3B601080334A012313704DE600F08F
:1042400079FBA5E5214B2F4828491A614FF0020E52
:1042500080F800E02C4F0A702C49196099602C4EB0
:104260002C4D2D4C9A610D213970FF213170DFF8F2
:10427000B8E029702270294D294A8EF800109F2736
:10428000012406F8047C5D600470DA6007B0BDE8C4
:10429000F08F244A47F8380013780133137057E53C
:1042A00043F826000E4D3AE58B5D032B00F2F080BB
:1042B00001A252F823F000BF513D0000513D000023
:1042C000754300006F4300005C65FF1F0000FF1F87
:1042D0003865FF1FD464FF1F2865FF1F6065FF1F3F
:1042E0008064FF1F5469FF1F5C69FF1F5065FF1F3B
:1042F000E464FF1F7864FF1F6469FF1F7065FF1F80
:104300009064FF1F94200740C020074088004000B1
:104310008820074080200740982007409464FF1FB2
:10432000E864FF1F5165FF1F8C200740C149C24B45
:1043300080220D2008701A70A2077FF50EAE05E6E8
:1043400040F20232914240F0EE80A98801F07F01F4
:10435000042968D86A88002A65D1B648CDF804E0F7
:1043600089000844017841F00201017021E701232E
:104370008B55EDE400238B55EAE44FF0010388F8F8
:1043800000300135042D06F1040607F1040708F199
:1043900001087FF4A1AEA94CA94B2278A94D049F36
:1043A000059E002129701A70130700F105816278BB
:1043B000A549DFF8A0820A7010074FF00001C9F884
:1043C0003010C9F8381000F1E080A049A2780A70D6
:1043D0000021C9F85010C9F858101107DFF874828D
:1043E00000F10181E2789A499A4C0A700021120783
:1043F000C9F87010C9F8781000F1B08033780193D3
:10440000002183F00102C9F89010C9F89810D0E695
:104410004FF0000388F80030B3E7A98801F07F016E
:10442000042940F28D80834A0F2313708A4A0123A6
:10443000137052E540287FF6E2AE44F002040EEB22
:10444000C401029E4E60BAB19DF80410834A1970EF
:104450003346403888F8005040334EF83420E7E6C1
:104460009DF8043033700204029B0D7042F0C802C4
:1044700003444EF83C20D8E69DF804101970029BC6
:10448000774A88F80050403840334EF83420CFE661
:1044900019F0080F0CBF022303238B5558E4714A0F
:1044A0000F21117060E6704A5468002CBBD06888F8
:1044B000B5F804E003E00C325468002CB3D0138844
:1044C0008342F8D153887345F5D1000A03280CBF05
:1044D00094F800E0B2F808E003E0644A644C127813
:1044E0002270E888704580F03F8162490D7840284D
:1044F000844645F0020E28BF4FF0400C04EB0C033D
:1045000009EBCE02029301235460CCEB00004FEA8A
:104510000C4800220193C8245EE6554C4FF0020E71
:1045200022706270DDE7B1F5A06F7FF47CAF0123EC
:10453000002201933DE642F221329142F7D072E728
:104540006A88002A7FF46FAF3A48CDF804E089000A
:104550000844017821F0020101702AE600F096F982
:10456000002800F0EF8008303D4AC4F88400C4F809
:10457000802000F08BF9002800F0DE800830374AF8
:10458000C9F88C00C9F8882038E700F07FF90028C6
:1045900000F0C0800830324AC8F84400C8F8402013
:1045A00000F074F9002800F0AF8008302B4AC9F8F9
:1045B0004C00C9F8482008E700F068F9002800F02E
:1045C000CD800830264AC9F82400C9F8202000F020
:1045D0005DF9002800F0BC800830204AC9F82C00A2
:1045E000C9F82820E3E600F051F9002800F09E8089
:1045F00008301B4AC8F86400C8F8602000F046F98B
:10460000002800F08D800830144AC9F86C00C9F801
:104610006820E7E6C86B083800F058F904E5486BF5
:10462000083800F053F9F9E4C86A083800F04EF988
:10463000EEE400BFC020074080200740009000004B
:10464000C42007405165FF1FC8200740CC20074009
:10465000D02007400000FF1F94200740C800400002
:1046600088004000E564FF1F049000005C65FF1FA8
:104670005465FF1F5065FF1F606A083800F026F977
:10468000C0E4C86F083800F021F9FDE4486F08382D
:1046900000F01CF9F2E4C86E083800F017F9E7E4FE
:1046A000486E083800F012F9DCE4C86D083800F0F4
:1046B0000DF9D1E4486D083800F008F9C6E4C86C7B
:1046C000083800F003F9BBE4486C083800F0FEF845
:1046D000B0E4D1F89C00083800F0F8F8ECE4D1F828
:1046E0009400083800F0F2F8E0E4D1F88C000838C3
:1046F00000F0ECF8D4E4D1F88400083800F0E6F8D3
:10470000C8E44FF0020EECE62A78C9F848000132FE
:104710002A705AE62A78C8F8400001322A703FE72A
:104720002A78C9F8680001322A705BE62A78C8F84E
:10473000600001322A7061E72A78C9F888000132E6
:104740002A705BE62A78C4F8800001322A7010E7EC
:104750002A78C9F8280001322A7028E62A78C9F890
:10476000200001322A7032E7BEF1400FF44628BF24
:104770004FF0400C04EB0C0302930123CCEB0E0032
:104780004FEA0C480022019318E500BF2DE9F041E3
:1047900000F0F8FF314C324B3248DFF8E480324E03
:1047A000DFF8E0C0314F324DDFF8DCE000221A6064
:1047B0005A609A60DA601A615A619A61DA611A6223
:1047C0005A629A62DA621A635A639A63DA631A6403
:1047D0005A649A64DA641A655A659A65DA651A66E3
:1047E0005A669A66DA661A675A679A67DA67C3F88A
:1047F00080202168C3F8842041F480212160016871
:1048000041F040710160032188F80010A020C3F33B
:1048100007218CF8000004F528343170C3F30740F9
:10482000144938701B0E2B70CC34FF238EF80030E7
:10483000114D0CF8B83C11480B70012306F8083CE8
:10484000227070264FF40014102207F82C3C2E70B2
:10485000046081F8F820BDE8F08100BF3480044096
:104860000000FF1F00D800409C200740B0200740F8
:10487000B42007401020074035E400E004E100E0E8
:1048800044210740402107408020074072B60D4870
:104890000268B2FA82F30B2B10DC4FF00041D940D2
:1048A00022EA0102026062B6074803EBC303DB00A1
:1048B000C2180021C15010465160704762B60020F6
:1048C000704700BFF453FF1FD045FF1F0D4B0E4A2A
:1048D000C31AA2FB03231B090B2B0CD80B4A12781B
:1048E00052B972B60A484FF00041026821FA03F348
:1048F0001A43026062B67047064A1278002AF0D066
:10490000FFF736B9D045FF1F398EE3385165FF1FD9
:10491000F453FF1F5C65FF1F044B054A1B6890881A
:104920001BB11A885B88D31A184470476C65FF1F47
:104930005469FF1F38B50E4B1B7873B90D4C2168B5
:1049400061B103F0FF054B880B800420FFF774F979
:10495000256038BD084B01221A7038BDFFF796FF5D
:104960000028F7D00146BDE838400420FFF764B9BD
:104970006565FF1F6865FF1F6465FF1FB1F5607FF8
:10498000F0B428BF4FF4607172B6134A134C144B45
:1049900010600022228003F1700443F8042FA34228
:1049A000FBD1B1B10F4E002301275D0903F01F04B5
:1049B00056F8252007FA04F4013322438B4246F8C7
:1049C0002520F2D10023438001338B4200F5827011
:1049D000F9D162B6F0BC70477C65FF1FF665FF1F1A
:1049E0008065FF1F8465FF1FF0B472B6234F244E0D
:1049F0003C8806F1700306EB8400984212D256F808
:104A0000241099B9021D06F17305631CAD1A03EB5E
:104A1000950503E052F8041B41B90133AB421C4633
:104A20001046F7D162B60020F0BC7047B1FA81F3AE
:104A30004FF00042DA4021EA0201016001B901347D
:104A400010493C800A88013294B20C8062B6801B07
:104A50008010C3EB401000EB801083000A480B4924
:104A6000006803F5FB531C330125C5540D88AA4289
:104A7000184488BF0C80F0BC704700BFF665FF1F6C
:104A80008465FF1FF865FF1F7C65FF1F7865FF1FAA
:104A9000428872B60378012B03D9013B037062B6DA
:104AA0007047531170B40C4C0C4D54F823102E88E1
:104AB000D2434FF0004002F01F0220FA02F21143ED
:104AC000074A44F82310B34238BF2B801388013BB8
:104AD000138062B670BC70478465FF1FF665FF1FC8
:104AE000F865FF1FC368B3B130B401E0DB688BB178
:104AF000187A9042FAD158685C7A006950F82450CC
:104B0000002DF3D140F82410087801300870DB68DC
:104B1000002BEDD130BC7047437A8B4206D9036934
:104B2000002253F8210043F82120704700207047ED
:104B300038B5437A8B421AD9036953F821400022D1
:104B400043F821209CB12378012B0ED9FFF74CFFAD
:104B5000054628B14FF48072211D0430FEF7FAFC9F
:104B60002378013B2370284638BD204638BD0020FD
:104B700038BD00BF037C23BB4368427A5B7A9A420C
:104B80001FD830B472B60468E3682BB3DA6832B168
:104B900019688C4216D01346DA68002AF8D1D8601A
:104BA0000023C360A37A0133A37202684168012322
:104BB00013728A7A1A448A7242681372037462B654
:104BC00030BC70475D6841688D42E4D11989038922
:104BD0009942F4D01346DFE7E060E1E7037C10B5CB
:104BE000002B32D04368427A5B7A9A422DD872B653
:104BF0000268D36843B3984202D129E0984202D0B8
:104C0000DB68002BFAD14368417A1B69044653F8EC
:104C1000210048B1FFF73CFF72B66368627A1B69F6
:104C2000002143F822102268937A013B9372236893
:104C30009A7A02B91A726268937A013B9372636836
:104C40009A7A1AB10023237462B610BD1A72F9E77A
:104C5000C368D360D7E700BF084B1A785AB9084831
:104C6000084910B4D0240470012210460A601A705A
:104C70005DF8044B70470020704700BF8065FF1F40
:104C800040E400E008E100E01A491B4A1B48F8B57F
:104C90000B681B4D046843F080730B60136843F08E
:104CA000010313602E6814B915E064699CB1237A7E
:104CB000002BFAD023682F681B68204698472B6882
:104CC000E188DB1B1B099AB28B42A28088BFE2807D
:104CD0006469002CEBD10A4B0A4A1B6810880A4C05
:104CE0009B1B1B0999B28342218001D91180F8BD19
:104CF000F8BD00BFFCED00E0001000E07465FF1F90
:104D0000041000E0F465FF1FFA65FF1FF0B572B6EE
:104D100099B902688AB103790F2B0ED8284C2188E3
:104D200041FA03F5ED070AD503F1007303F590632B
:104D3000B2EB431F03D162B6F0BD214C21880023A2
:104D400041FA03F212F0010207D00133102BF7D120
:104D500062B6002203710260F0BD01259D40294327
:104D6000218062B6174E184D184FDFF868E0D9B2AF
:104D70000171346844F0020434602C6844F0020489
:104D80002C60A6F5802640F28244A5F5802503F12B
:104D900000733C6003F59063223E243D0C4C8EF87A
:104DA00000105B0131702970217003601A605A6035
:104DB0009A60DA601A615A619A61DA61F0BD00BFE7
:104DC000FC65FF1F408004403C80044000800040A0
:104DD0001F8000401A80004003790F2B12D80A4A26
:104DE00010B4137072B6094904790A880123A340EC
:104DF00022EA03030B8062B6102200235DF8044B05
:104E000002710360704700BF1A800040FC65FF1FFD
:104E100010B4EFF3108272B6437F33B9017F0129DA
:104E200008D0032910D00123437702B962B65DF898
:104E3000044B7047114C2168A1B1114943610B68C3
:104E4000836108605861EEE70E4C216881B10E491C
:104E500043610B688361086058610C4B4FF08051CF
:104E60001960E0E7064B4161816120601860DAE774
:104E7000054B4161816120601860EEE71066FF1FFD
:104E80000C66FF1F0066FF1F0466FF1F04ED00E0B5
:104E900070B5EFF3108272B60C4C206880B10C4EE6
:104EA00000254369236073B19D6102B962B64577FD
:104EB00083689847EFF3108272B620680028F0D11B
:104EC00002B962B670BD3360EFE700BF0066FF1F36
:104ED0000466FF1FFFF7DCBF184A30B41468002CCB
:104EE00027D0036821688B420ED2CB1A0021846040
:104EF000C1602360E06010600223037530BC70471E
:104F000011688B42144608D3A2685B1A0360002A1A
:104F1000F6D18260C460A060EEE7D268C2608460AF
:104F2000E060C568CB1A0222A8602360027530BC1D
:104F300070478460C4601060DEE700BF0866FF1F32
:104F4000F8B5224E34682CB32368002B3AD1204F99
:104F50001D4604E03468ECB12368002B32D1A3680D
:104F600003B1DD6020693360036825751B68BB42AF
:104F700021D1037F4560022BC46020D0FFF748FF9A
:104F80006368002BE6D023602046FFF7A5FF346856
:104F9000002CE1D1EFF3108372B60E4A00211068A5
:104FA000116003B962B628B18468FFF795FF204607
:104FB0000028F9D1F8BD224600219847E0E7836830
:104FC0009847DDE7013B2360E4E700BF0866FF1F69
:104FD000951700001866FF1F024A1368013313601B
:104FE000FFF7AEBF7864FF1FF8B50E4671B17AB116
:104FF0000746144600253B6816F8011B1B68384617
:105000009847013C0544F6D12846F8BD0846F8BD4E
:105010001046F8BD08B5FBF799FAFBF745FB00F021
:1050200007F8FAE703F036B903F03CB9704700BF60
:1050300038B52C4C237803B138BD01232370FFF71A
:105040006BFC002842D100F07BF800283BD100F037
:105050000DF9002834D100F09FF970BB00F018FA68
:1050600040BB00F091FA10BB00F00AFBE0B900234E
:105070002370EFF30583002BDED1EFF3108172B6BE
:10508000194B186828B3194C227812BB45691D606A
:10509000012323700DB3AA6101B962B600254577DB
:1050A000836898472570C7E700F0B8FBDFE700F09A
:1050B000B3FBD9E700F0AEFBD3E700F0A9FBCDE7E7
:1050C00000F0A4FBC7E700F09FFBC0E7FFF7AEFFCF
:1050D000B9E70029B0D162B638BD054B1D60002983
:1050E000DCD1DAE71C66FF1F1066FF1F1466FF1F86
:1050F0000C66FF1FF0B44D1E2E46002400E0013464
:10510000B0FBF2F302FB1300092800F130078ABF5D
:105110003730F8B2C0B206F8010F1846002BEED1B6
:105120000A1953704CB1107815F8016F28700133CB
:10513000E01A834202F80169F5DB0846F0BC7047CB
:10514000054A064B10781B78C0B2DBB2984238BFD4
:105150004030C01A704700BF2466FF1F2566FF1F3E
:10516000F0B4384B1A7912F0300F2CD072B6997D0A
:1051700001F0FF0200293DD062B6334F3349387841
:105180000D78334E1C46C0B2EDB2431C402BE17982
:1051900028BF0023AB4202F1FF32C9B21CBFF15459
:1051A000184612F0FF02F0D12A4B1B68C2B23A70C7
:1051B0004BB1A84236BFC5F14005401B4019272816
:1051C000C4BF01221A701F49CA78D2B2150616D47C
:1051D00052060DD51B4B1B795B0609D51E4B1F498B
:1051E0001B6800220A7003B11A70164B3C22DA7059
:1051F000F0BC70474022D9795A7462B6E3E70B7964
:105200001C06E5D5164B174E1C783378E4B2DBB29A
:105210009C420ED0144D01E0A3420AD00133402B32
:1052200028BF00230879E85CC0B2C871087D072850
:10523000F2D9DBB2034933700B79180644BF7C23E3
:10524000CB70C5E700A006402466FF1F2566FF1F40
:105250006866FF1F2066FF1FAC66FF1FA866FF1F62
:10526000B066FF1FA966FF1F2866FF1F054A064B91
:1052700010781B78C0B2DBB2984238BF4030C01AF9
:10528000704700BF2467FF1FB966FF1FF0B4384B9B
:105290001A7912F0300F2CD072B6997D01F0FF020E
:1052A00000293DD062B6334F334938780D78334EFC
:1052B0001C46C0B2EDB2431C402BE17928BF00234D
:1052C000AB4202F1FF32C9B21CBFF154184612F0D2
:1052D000FF02F0D12A4B1B68C2B23A704BB1A84210
:1052E00036BFC5F14005401B40192728C4BF012225
:1052F0001A701F49CA78D2B2150616D452060DD5B7
:105300001B4B1B795B0609D51E4B1F491B680022EE
:105310000A7003B11A70164B3C22DA70F0BC704769
:105320004022D9795A7462B6E3E70B791C06E5D5B9
:10533000164B174E1C783378E4B2DBB29C420ED089
:10534000144D01E0A3420AD00133282B28BF0023CB
:105350000879E85CC0B2C871087D0728F2D9DBB2D1
:10536000034933700B79180644BF7C23CB70C5E723
:1053700000B006402467FF1FB966FF1FE466FF1FE9
:10538000B466FF1F2867FF1FB866FF1F2C67FF1F4B
:105390002567FF1FBC66FF1F054A064B10781B7868
:1053A000C0B2DBB2984238BF4030C01A704700BF6D
:1053B0003467FF1F3567FF1F30B42B4B1A799406F3
:1053C0001FD52A48DA790378294901333F2B097818
:1053D000C8BF00238B42D2B203D0264CD9B2E254CC
:1053E0000170254A116861B1244A1278D2B2934201
:1053F00036BFC2F140029B1A9B18272BC4BF012362
:105400000B70194AD378DBB2180611D45A060DD5A1
:10541000154B1B795B0609D5194B1A491B680022ED
:105420000A7003B11A70104B2C22DA7030BC70472E
:1054300011790906EAD5144910480C780178C9B2E7
:105440008C420DD04A1C272A84BF00210A460F4DEA
:10545000054C98BFD1B2AA5CD2B2E2710170D5E717
:105460006C21D170D2E700BF00C006403467FF1F37
:105470003567FF1F6067FF1F3067FF1FA167FF1FB2
:10548000A467FF1FA067FF1FA867FF1F3867FF1FE4
:10549000054A064B10781B78C0B2DBB2984238BF81
:1054A0004030C01A704700BFB067FF1FB167FF1FD1
:1054B00030B42B4B1A7994061FD52A48DA79037831
:1054C000294901333F2B0978C8BF00238B42D2B250
:1054D00003D0264CD9B2E2540170254A116861B15B
:1054E000244A1278D2B2934236BFC2F140029B1ACC
:1054F0009B18272BC4BF01230B70194AD378DBB24A
:10550000180611D45A060DD5154B1B795B0609D523
:10551000194B1A491B6800220A7003B11A70104B0C
:105520002C22DA7030BC704711790906EAD514498B
:1055300010480C780178C9B28C420DD04A1C272A39
:1055400084BF00210A460F4D054C98BFD1B2AA5C1A
:10555000D2B2E2710170D5E76C21D170D2E700BF01
:1055600000D00640B067FF1FB167FF1FDC67FF1F59
:10557000AC67FF1F1D68FF1F2068FF1F1C68FF1F0F
:105580002468FF1FB467FF1F054A064B10781B787D
:10559000C0B2DBB2984238BF4030C01A704700BF7B
:1055A0002C68FF1F2D68FF1F30B42B4B1A7994060F
:1055B0001FD52A48DA790378294901333F2B097826
:1055C000C8BF00238B42D2B203D0264CD9B2E254DA
:1055D0000170254A116861B1244A1278D2B293420F
:1055E00036BFC2F140029B1A9B18272BC4BF012370
:1055F0000B70194AD378DBB2180611D45A060DD5B0
:10560000154B1B795B0609D5194B1A491B680022FB
:105610000A7003B11A70104B2C22DA7030BC70473C
:1056200011790906EAD5144910480C780178C9B2F5
:105630008C420DD04A1C272A84BF00210A460F4DF8
:10564000054C98BFD1B2AA5CD2B2E2710170D5E725
:105650006C21D170D2E700BF00A00E402C68FF1F64
:105660002D68FF1F5868FF1F2868FF1F9968FF1FDC
:105670009C68FF1F9868FF1FA068FF1F3068FF1F0E
:10568000054A064B10781B78C0B2DBB2984238BF8F
:105690004030C01A704700BFA868FF1FA968FF1FED
:1056A00030B42C4B5A6894021FD52B48DA68037823
:1056B0002A4901333F2B0978C8BF00238B4204D00D
:1056C000274CD2B2D9B2E2540170264A116861B1B6
:1056D000254A1278D2B2934236BFC2F140029B1AD9
:1056E0009B18272BC4BF01230B701A4A936818021A
:1056F00002D55268110211D45A020DD5154B5B68C0
:105700005B0209D5194B1A491B6800220A7003B1C4
:105710001A70184B00221A6030BC7047164A1249A2
:1057200010780A78D2B290420DD00132272A84BF75
:1057300000200246114D074C98BFD0B2AA5CD2B2ED
:10574000E2600870D8E70E480A4A0024012104608C
:105750001160D1E700400C40A868FF1FA968FF1F37
:10576000D468FF1FA468FF1F1569FF1F1869FF1F7A
:105770001469FF1F580188431C69FF1FAC68FF1F95
:105780005C01884310B584B072B6FEF735F8184A4C
:10579000184B19491160702280211A701A4619702D
:1057A00013781B06FCD5154B1C68FEF73FF862B654
:1057B000134B9C429CBF04EB840464002046114CB4
:1057C00001A90A22FFF796FC01A92046002311F83F
:1057D000012B01333AB10A2B20F8022FF7D11623FF
:1057E000237004B010BD5B00DBB2237004B010BDA9
:1057F0000400024000000240000007410C0002408B
:105800007F9698008454FF1F704700BF704700BF09
:10581000704700BF704700BF704700BF704700BFB0
:105820002DE9F0432DED028B8BB055EC104B00F0C1
:10583000D7FA3B4BB0EE408AF0EE608A93F90060F5
:10584000731C0ED022462B462046294602F0B0F9A2
:10585000074630B9002200232046294602F08AF983
:1058600040B9B0EE480AF0EE680A0BB0BDEC028B0E
:10587000BDE8F0832B4B0897CDE90245CDE90445FF
:105880000193DEB9284F4FF060462046294600229A
:105890000023CDE9066702F059F9002837D002232A
:1058A0000093684601F0FAF9C8B1089BE3B99DED91
:1058B000060B0BB0BDEC028BBDE8F083DFF87090F7
:1058C0004FF000082046294600220023CDE9068932
:1058D00002F03CF968B102239E420093E1D102F04C
:1058E000ABFC22230360E0E702F0A6FC089B036008
:1058F000DDE70123022E00930BD102F09DFC212352
:1059000003600A4801F0CCF98DED060BCDE70123C9
:105910000093684601F0C2F90028F2D1EDE700BF1C
:105920009A54FF1F58900000FFFFEFC768900000D7
:105930000000F0FFFFFFFFFF2DE9F04F2DED028B80
:10594000DFF824A38BB057EC106B55EC114B00F033
:10595000EBFA9AF90080B0EE408AF0EE608AB8F176
:10596000FF3F48D022462B462046294602F020F928
:10597000834600283FD132463B463046394602F046
:1059800017F98146002840F09080304639460022C1
:10599000002302F0DBF8002836D000220023204646
:1059A000294602F0D3F88346B8B19FEDA57B0122CA
:1059B000A94BCDF820900092CDE90267CDE90445CE
:1059C0008DED067B0193B8F1000F5BD09FED9E0B30
:1059D0000BB0BDEC028BBDE8F08F45EC104B01F035
:1059E00055F940B1002200232046294602F0B8F8BC
:1059F000002840F0C580B0EE480AF0EE680A0BB00F
:105A0000BDEC028BBDE8F08FB0EE480AF0EE680AFC
:105A100001F03CF98046002861D04FF000084FF0BB
:105A2000000951EC180B42464B4602F08FF8002853
:105A3000E1D047EC106B01F029F90028DBD045ECF0
:105A4000104B01F023F90028D5D09AF90030824A92
:105A5000019204210022022BCDE90267CDE9044521
:105A6000CDE906890091089203D0684601F016F945
:105A700070B902F0E1FB2223036009E09FED707B27
:105A80008DED067B684601F009F9002800F08E8054
:105A9000089B1BB102F0D0FB089B03609DED060B39
:105AA0000BB0BDEC028BBDE8F08F00220023204636
:105AB000294602F04BF800289DD09FED630B664B02
:105AC000CDF820B00122B8F1020FCDE90267CDE98F
:105AD00004458DED060B8DE80C00D3D18FE747EC24
