:1000000000000320D1010000D92D0000912D000037
:10001000912D0000912D0000912D0000912D0000E8
:10002000912D0000912D0000912D0000D92D000090
:10003000D92D0000912D0000AD440000B144000016
:10004000D92D0000D92D0000D92D0000D92D000098
:10005000D92D0000D92D0000D92D0000D92D000088
:10006000D92D0000D92D0000D92D0000D92D000078
:10007000D92D0000D92D0000D92D0000D92D000068
:10008000D92D0000D92D0000D92D0000D92D000058
:10009000D92D0000D92D0000D92D0000D92D000048
:1000A0009D2A0000A92A0000D92D0000D92D0000AA
:1000B000D92D0000D92D0000D92D0000D92D000028
:1000C000D92D0000D92D0000D92D0000D92D000018
:1000D000D92D0000D92D0000D92D0000D92D000008
:1000E000D92D0000D92D0000D92D0000D92D0000F8
:1000F000D92D0000D92D0000D92D0000D92D0000E8
:10010000D92D0000D92D0000D92D0000D92D0000D7
:10011000D92D0000C9320000D92D0000D92D0000D2
:10012000D92D0000D92D0000D92D0000D92D0000B7
:10013000D92D0000D92D0000D92D0000D92D0000A7
:1001400061420000D92D0000D92D0000D92D0000FA
:10015000D92D0000D92D0000D92D0000D92D000087
:10016000D92D0000D92D0000B52A0000D92D00009E
:10017000D92D0000D92D0000D92D0000D92D000067
:10018000D92D0000D92D0000D92D0000D92D000057
:10019000D92D0000D92D0000D92D0000D92D000047
:1001A000D92D0000D92D0000D92D0000C12A000052
:1001B000D92D0000D92D0000D92D0000D92D000027
:1001C000D92D0000D92D0000D92D0000D92D000017
:1001D0005C4B4CF2205210B51A804DF628121A8052
:1001E00000BF00BF02F0FCFD574B4FF030621A60B9
:1001F000564A9A60564ADA60564B4FF470021A60BB
:10020000554B564A1A60564B1A78110703D51A787F
:1002100042F008021A70534B5349AA221A70534AEB
:10022000534B8B4204D252F8040F43F8040BF8E707
:10023000504B514900228B4202D243F8042BFAE77B
:100240004E494F4A002352F8230041F8230001335E
:10025000742BF8D14B4B4C4A802103F8011B93427D
:10026000FBD14A4B454A1A60494B8A221A70A3F5C2
:10027000805324225A70A0221A709A799207FCD5D2
:100280009A79D406FCD4434A937903F00C03082BE3
:10029000FAD1414B60221A7002331A78802AFCD1BD
:1002A0003C4B01221A715D225A719A799006FCD555
:1002B0009979384A4906FBD5384B394919600021EC
:1002C000596020231370937903F00C030C2BFAD19F
:1002D000344B354A1A60354A354C136813F4807331
:1002E00003D123604FF4A8531360324B324A1A6093
:1002F00000225A60072243F8042C304AC3F80C2D20
:1003000062B602F051FE2368DA0705D52C4802F0E8
:10031000E1FD2C4B2C4A1A602C4B1B785B0609D54F
:10032000284C294B22689A4204D1254802F0D2FD7C
:100330000023236006F004FF02F058FD04F004FAE5
:10034000FEE700BF0E20054030800440823F0400DD
:100350000100002B88ED00E0002008E0030000858C
:1003600002D0074000E00740FC2AFF1F0480000085
:100370003017FF1F002BFF1F7833FF1F0012FF1FD6
:100380000000000000E400E064E400E008ED00E0AC
:10039000005006400040064001E007404480044011
:1003A0000000060204800440C010070010D0034083
:1003B00014D0034014E000E01FBF02000000202022
:1003C0009DED4D611CE00340A5C3945A00F0074029
:1003D000FFFFFFFFFFFFFFFFFFFFFFFFFFFFFFFF2D
:1003E000FFFFFFFFFFFFFFFFFFFFFFFFFFFFFFFF1D
:1003F000FFFFFFFFFFFFFFFFFFFFFFFFFFFFFFFF0D
:10040000FFFFFFFFFFFFFFFFFFFFFFFFDEF9FFFF23
:1004100010B5054C237833B9044B13B10448AFF33E
:1004200000800123237010BD002BFF1F000000007F
:1004300000800000084B10B51BB108490848AFF315
:1004400000800848036803B910BD074B002BFBD0A0
:10045000BDE81040184700BF00000000042BFF1F3C
:1004600000800000FC2AFF1F0000000070B51F4B39
:10047000036004460021012004F124020B4660724F
:1004800022612172E16004F1280600E0226942F84D
:100490002310627A01339A42F8DC154B1A680AB9C4
:1004A00021E01A465369002BFBD1546120460021FC
:1004B0000125104B26626161A180E180A172E1619A
:1004C000A1622576502240F82C3B07F029F94FF025
:1004D0007E53094AC4F88050E267E362236463658F
:1004E000A366204670BD1C60E0E700BF487B0000AB
:1004F0007832FF1FC87B0000A6552C47F0B54FF49B
:10050000FA7083B002F0FEFC334B344F344E354D5D
:10051000354C01224FF47A701A7002F0F3FC0A2174
:10052000324803F04FFE202000F088FB3048314A6B
:10053000314B826300F12C0230490363012A304BB6
:10054000C7634664C5640465C0F88020C162416326
:100550000364836405D900F190030421843004F01E
:10056000F3F92848284A29494263002300F12C0264
:10057000274F284E284D294CC16203632849294B37
:100580008763012AC6634564C4640165C0F880209E
:100590000364836405D900F190030421843004F0DE
:1005A000D3F9214B21491A680192019C1B680093E1
:1005B0001F4B009A0C601F481A60012103F0FEFCDB
:1005C0001D4803F093FF39211C4803F0F7FC1A483B
:1005D00003F08CFF03B0F0BD3417FF1F590DDA3E56
:1005E0007A899E3FAF7B9EBF1EBA74BE0002FF1F7A
:1005F000382BFF1F8730F6BECB08073FCB08873E5E
:100600007A891E3F7C2CFF1FB9F3B0BEB9F3B03E10
:1006100068049D3F8E189EBE55CAFEBF4FCAFE3F5E
:10062000B4947DBF55CA7E3F7831FF1F842DFF1FD4
:10063000C42DFF1F4C7B00000822FF1F507B0000D1
:100640002DE9F04FBC4B2DED028B1A7885B0002AB6
:100650003BD0BA4DBA4CAA6B002119705AB9B748B1
:1006600000F0FCFB10EE100A06F0EAF9AB6BC4E9EF
:100670000001002BF3D0B148B24D00F0EFFB10EEBB
:10068000100A06F0DDF906460F4602460B46C4E99D
:10069000006706F029FA02460B46D5E9000106F08C
:1006A00071F8A94A1368C5E9000101331360A74C2A
:1006B000A74A23680093009B11685B1A222B0AD873
:1006C00005B0BDEC028BBDE8F08F9C4B9B6B002B03
:1006D000EDD09B4CCFE7236801939B49019B1360AE
:1006E0000868DFF8609206F089F902460B46D9E9FE
:1006F000000106F023FB41EC100B04F0E9FC0022A2
:10070000002351EC100BB0EE408AF0EE608A06F048
:1007100053FC08B19FED828BB0EE480AF0EE680AF8
:100720008C4BDFF87C8283ED008B04F0A9FA002269
:1007300051EC100B884B06F0D7F9884B002206F0DD
:1007400021F8D8ED007A864BF5EE407A06460F4642
:10075000F1EE10FAC3E9006740F0D08006F094FC97
:10076000C8F800007F4DD5ED007AF5EE407AF1EE45
:1007700010FA40F0B5803046394606F085FC286016
:100780000022794BDFF81CA2DFF81CB23046394654
:1007900006F0D4FA9FED640B41EC110B04F0FCFA67
:1007A000724B51EC100B83ED000BDAE9002305F0DE
:1007B000E9FFDBF80030013306460F461846CAE968
:1007C0000067CBF8003006F019F902460B463046B8
:1007D000394606F0B3FA41EC100B04F051FA00224E
:1007E000614B594F51EC100B06F07EF92368604ABB
:1007F0000293029E5F4C1368DFF850E19FED4C7B43
:10080000F31AC4E9000142F210740026A34289EDF4
:10081000007B3E605BD9DEF800300393039B1360DE
:10082000554B564F564E574C00221A70CBF80020AD
:1008300006F02AFC544BD8F8002029683860326052
:10084000216001220D2151481A8003F0B7FB504866
:1008500003F04CFE08214F4803F0B0FB386806F067
:10086000EFF841EC100B0221494803F091FE484893
:1008700003F03CFE0821484803F0A0FB306806F076
:10088000DFF841EC100B0221414803F081FE4048A3
:1008900003F02CFE0821414803F090FB206806F08D
:1008A000CFF841EC100B0221394803F071FE3848B3
:1008B00003F01CFE002300200021CAE90001C8F853
:1008C00000302B6005B0BDEC028BBDE8F08F2A4BE9
:1008D0001A78002AA5D105B0BDEC028BBDE8F08FD7
:1008E00017EE900A06F0ACF802460B463046394641
:1008F00006F08AFB00283FF443AF3CE717EE900A6E
:1009000006F09EF802460B463046394606F05EFB7E
:1009100000283FF427AF304639461FE7AFF3008089
:10092000000000A0F7C6B03E000000000000244018
:1009300000000000000000003417FF1F382CFF1FCC
:10094000A02DFF1F202BFF1F9C2DFF1F7831FF1FA5
:10095000842DFF1FB02DFF1F0000344000405F407A
:10096000302BFF1F782CFF1F00002440D02DFF1FCD
:10097000C42DFF1F502DFF1F302CFF1F982DFF1F70
:10098000C82DFF1F1C2CFF1F802DFF1F8C7B00001C
:100990000822FF1F9C7B0000A87B0000B47B0000A6
:1009A000282BFF1FB82DFF1F082CFF1F2DE9F04338
:1009B000524E534F37600021012006F1240285B0CA
:1009C0000B46707232613172F160344600E0226988
:1009D00042F82310727A494801339A42F7DCDFF873
:1009E0003481D8F800200AB982E01A465369002BF6
:1009F000FBD156610024434B40487461B480F480BD
:100A0000B47234763462F4613F4D336000F0D8FA4A
:100A10003E48FFF72BFD3E48FFF728FD012105F179
:100A200024036972224620462F602C72EC602B61F1
:100A3000294600E00B6943F822006B7A324C013200
:100A40009342F7DCD8F80020324B0AB953E01A463B
:100A50005369002BFBD155612F4B30492B4F1E6042
:100A6000002401262E4A296218465F601C726C61C0
:100A7000AC80EC80AC72EC61AC625C72DC602E76B7
:100A800080234FF000084FF000092A60C5E90C8967
:100A9000AC63AC87AB8500F095F9224B1C4E1F6010
:100AA00018461C725C72DC605E6000F08BF91E4BB5
:100AB00018461E605D601C725C72DC6000F082F99A
:100AC0001A4B1B4E1A680092009F1A680192019DF2
:100AD0001A68029202981B680393164C1649174B2A
:100AE000039A3760256008601A6005B0BDE8F0839E
:100AF000C8F800007EE71C60AEE700BF582DFF1F5E
:100B0000487B0000F87B0000382CFF1F382BFF1FAC
:100B10007C2CFF1F7832FF1F0C2CFF1F602CFF1F47
:100B2000EC7B0000882DFF1F202CFF1F7831FF1F5A
:100B3000842DFF1FC02DFF1FA82DFF1FC42DFF1FD9
:100B400038B50021054600F01BF9B8B1D5F8803062
:100B500083B1012B044607D0021DD0F8083211469C
:100B600005F1840003F0FEFE28460022214600F035
:100B7000E1F82046BDE8384000F0B8B838BD00BF05
:100B8000154B1A782AB3B0F5761F4FF0000270B5F6
:100B90001A709ABF4FF4057343434FF0FF33044676
:100BA000184603F0D9FD06467CB10C4D00F50573DF
:100BB000002280210132A24243F8101C43F80C1C91
:100BC00043F8085C03F50573F4D1054B30461E600D
:100BD00070BD034B186870473517FF1FA6552C478B
:100BE000F02DFF1FC029F0B428BFC02172B6114BF1
:100BF000114E1860002333607360B360F36033619B
:100C00007361012799B15D0903F01F0456F825208F
:100C100007FA04F4013322438B4246F82520F2D12F
:100C20000023437001338B4200F50570F9D162B6A1
:100C3000F0BC7047F82DFF1FD82DFF1F10B50446DC
:100C4000FFF79EFF20B12146BDE81040FFF7CABF65
:100C500010BD00BF70B472B6204B186820B9586838
:100C600028B30433202200E000221D4E3478B0FA6D
:100C700080F54FF00041E9400134E4B220EA010080
:100C80003470186062B64FF40571531B01FB03F218
:100C9000144B1549186802F580436C330122C25485
:100CA0000A78A242184438BF0C7070BC704798682C
:100CB00020B9D86828B10C336022D6E70833402227
:100CC000D3E7186920B9586928B11433A022CCE7BA
:100CD00010338022C9E762B6E7E700BFD82DFF1FB7
:100CE000F42DFF1FF82DFF1FF52DFF1F427872B660
:100CF0000378012B03D9013B037062B6704770B4CF
:100D000056110A4D0A4C55F826102378D2434FF05D
:100D1000004002F01F0220FA02F21143013B45F8A5
:100D20002610237062B670BC704700BFD82DFF1F1D
:100D3000F42DFF1FC369B3B130B401E0DB688BB1A0
:100D4000187A9042FAD158685C7A006A50F82450B8
:100D5000002DF3D140F82410087801300870DB68CA
:100D6000002BEDD130BC7047037E8B4206D9036A5D
:100D7000002253F8210043F82120704700207047DB
:100D800038B5037E8B421AD9036A53F821400022FA
:100D900043F821209CB12378012B0ED9FFF75AFF8D
:100DA000054628B14FF40072211D043001F0E6FE23
:100DB0002378013B2370284638BD204638BD0020EB
:100DC00038BD00BF4368427A1B7E9A420ED872B685
:100DD0000168CA690AB90AE01A46D368002BFBD138
:100DE000D060426801230B72137262B67047C8610B
:100DF000F7E700BF30B583B000230021019304461C
:100E0000FFF7B2FFC8B1011D01ABA28D0546084630
:100E100003F08AFE019805F013FE0B460246D4E962
:100E20000C0105F0AFFCA36B0133C4E90C01A36313
:100E30002846FFF75BFF03B030BDA38F002BFAD02D
:100E40001421044803F0BAF8034803F04FFB03B041
:100E500030BD00BFCC7B00000822FF1F10B5044648
:100E600072B6D0E90C0106F00FF9D4ED0E7A06EE59
:100E7000900A002100200023C4E90C01A363B8EE0E
:100E8000677A62B6A38D07EE903AF8EE677A67EE5E
:100E9000877A86EEA77AB1EEC70AB4EE400AF1EE81
:100EA00010FA00D110BDB0EE470A04F071F9F9E76D
:100EB00030B41F4A1F4B11681F480969127902702C
:100EC00003F5007291421D4929D21D4A0868147821
:100ED00003EB800203EBC00034BB1A4B1B68E3B189
:100EE000194D0C682988B1EB540F16D804EBD47453
:100EF00001EB64049FED157A2C8003EB8101043132
:100F000052F8083B1B1207EE903AF8EEE77A90424F
:100F100067EE877AE1EC017AF2D830BC7047086856
:100F20001A4603EB8000D8E7094B01241C60D4E784
:100F3000FC2DFF1F400CFF1F1F8000403817FF1FB4
:100F40000A2EFF1F042EFF1F082EFF1F0000003473
:100F500008E200E038B50546FFF77CFE014672B6B0
:100F6000114B124A1C88126894420CDAD0B1104C12
:100F7000226822B162B6BDE83840FFF7B7BE2060F4
:100F80001A8062B638BD0A48002204681A800160DF
:100F900062B628462146FFF7CDFE2046BDE8384020
:100FA000FFF7A4BE62B638BD082EFF1F3817FF1F1B
:100FB000042EFF1F10B5044603F0FAF9204610BDB9
:100FC000F8B52C4C2C4E2D4F2D4D2046012103F011
:100FD00089F92C4B2C492D4A18682D4B1268086052
:100FE00001201A6000F014F92A4B2B4A2B484FF4C9
:100FF00080611960236800211A60998022791E613E
:1010000002F1804240F20226DE809F6102F5043246
:101010004FF480760627DE82DE839F8304268C27AA
:10102000D9609E609E82117017702B681C4E43F031
:10103000124343F001032B6003681A4D43F0104341
:10104000036003F0F5F82279174B184C1870531110
:101050009B0003F16043174602F1100003F5614362
:1010600002F01F020121377001FA02F245F8204018
:101070001A60F8BDFC2DFF1F400CFF1F00FCFFFF96
:1010800080F002403C17FF1F4017FF1F3817FF1F5B
:101090004417FF1F14B00440A0F0024000F00240CB
:1010A0001B8000400012FF1F0A2EFF1FB10E000020
:1010B000024A0349034805F059BB00BF3017FF1F20
:1010C000B50F0000FC2DFF1F184A4FF0804313603E
:1010D0001368002BFCDBF0B5154C1648DFF884E0F4
:1010E0001549164A164B174E174D184F4FF2FE0C66
:1010F000C4F800C0002404600120CEF80000DFF82E
:1011000068E0C1F800E04FF480311160104A1A60C5
:10111000104B33602C6038600F4C1048104F7767CD
:1011200045F8541C22600360F0BD00BF00F102408E
:1011300004F1024060F0024008F002400CF002406E
:1011400010F0024014F00240E0F0024084F002404F
:101150001B0F0100000F0F0F90F0024094F00240AF
:101160000300004704F0024003000007184A4FF054
:10117000804313601368002BFCDBF0B5154C164858
:10118000DFF884E01549164A164B174E174D184FD5
:101190004FF2FE0CC4F800C0002404600120CEF819
:1011A0000000DFF868E0C1F800E04FF48031116022
:1011B000104A1A60104B33602C6038600F4C104896
:1011C000104F776745F8541C22600360F0BD00BFE4
:1011D00000F1024004F1024060F0024008F00240D9
:1011E0000CF0024010F0024014F00240E0F0024027
:1011F00084F002401B1F0100001F1F1F90F00240DF
:1012000094F002400100004704F002400100000792
:10121000124B13491A6842F4004210B51A600A686A
:10122000104C42F002020A601A6842F002021A6090
:101230002368002B0EDB0C4B1B68002B0ADB50B91C
:10124000FFF742FF09480A490A4A4FF4C0630360A6
:101250000B60136010BDFFF789FFF3E73C8004408B
:101260004080044000F0024080F0024008B004409A
:101270000CB0044018B00440024A0349034805F08A
:1012800075BA00BF3017FF1FB50F00000C2EFF1FEF
:10129000024A0349034805F069BA00BF3017FF1F2F
:1012A000B50F0000142EFF1F38B5074D074C084836
:1012B0002A46214605F05AFA2A4621460548BDE845
:1012C000384005F053BA00BF3017FF1FB50F0000BC
:1012D0001C2EFF1F242EFF1F024A0349034805F05E
:1012E00045BA00BF3017FF1FB50F00002C2EFF1F9F
:1012F000024A0349034805F039BA00BF3017FF1FFF
:10130000B50F0000342EFF1F024A0349034805F0C1
:101310002DBA00BF3017FF1FB50F00003C2EFF1F76
:10132000024A0349034805F021BA00BF3017FF1FE6
:10133000B50F0000442EFF1F024A0349034805F081
:1013400015BA00BF3017FF1FB50F00004C2EFF1F4E
:10135000024A0349034805F009BA00BF3017FF1FCE
:10136000B50F0000542EFF1F024A0349034805F041
:10137000FDB900BF3017FF1FB50F00005C2EFF1F27
:10138000024A0349034805F0F1B900BF3017FF1FB7
:10139000B50F0000642EFF1F024A0349034805F001
:1013A000E5B900BF3017FF1FB50F00006C2EFF1FFF
:1013B000024A0349034805F0D9B900BF3017FF1F9F
:1013C000B50F0000742EFF1F024A0349034805F0C1
:1013D000CDB900BF3017FF1FB50F00007C2EFF1FD7
:1013E000024A0349034805F0C1B900BF3017FF1F87
:1013F000B50F0000842EFF1F024A0349034805F081
:10140000B5B900BF3017FF1FB50F00008C2EFF1FAE
:10141000024A0349034805F0A9B900BF3017FF1F6E
:10142000B50F0000942EFF1F024A0349034805F040
:101430009DB900BF3017FF1FB50F00009C2EFF1F86
:1014400010B4047F4160022CC26003D05DF8044BED
:1014500002F0CABF83685DF8044B1847F0B4464BEE
:10146000464A986B5C6B01791170454922790A7084
:101470001A6B00790870002A46D05968C9688A42F8
:101480003ED82168CC8B240402F1FF3065D4C0F330
:101490000E00C883C88B80B2C882996B0968C88B5C
:1014A000000452D4C2F30E00C883C88B002480B25B
:1014B00012F1FF32C88218BF01221C63596B2E48FB
:1014C00009680D6800F12C04A54236D00068C46894
:1014D00014F0804F0C680D6815BF248824780235FD
:1014E000013544F000440D604463996B254B097944
:1014F0001970214912B14A6B12791A70F0BC704709
:10150000521A1A630122D9E7D86B196805681E4C74
:101510000A63CC62CC682D681C4E24F080440327FB
:10152000B542CC6083F82D701FD1037F4260022B3F
:10153000C2601ED0F0BC02F057BF016890F82C00CA
:10154000CC6840F000404863CFE7CC8BC2F3080082
:1015500004F47E442043C883A7E7CC8BC0F3080083
:1015600004F47E442043C88394E72B461146F0BC24
:1015700018478368F0BC18474817FF1F1F800040BA
:101580001C8000401B80004000000FFF4114000041
:1015900000207047704700BF064B074ADA620221FD
:1015A000002259609A7083F8242083F8302083F851
:1015B00032207047A42EFF1F987C00002049214A4A
:1015C0000B6843F080030B6011461368DB07FCD403
:1015D0000B689B07F9D41C4B30B44FF08072184D48
:1015E000186000E0A2B12968184B154C0B40013A75
:1015F000002BF7D062B1012B0AD1236813F0800FC2
:1016000023680FD043F001132360032030BC7047E0
:101610000B4A136843F4702343F001031360012065
:1016200030BC704713F48030236804D043F00113BA
:1016300023600520F4E743F001032360F0E700BFD7
:1016400030100B4024100B400C100B4001000E001A
:1016500070B50D4D0D480E4E00232B60FFF7AEFF09
:1016600040F2E73403463268520701D507480BB110
:10167000184670BD2B60FFF7A1FF013C0346F2D175
:10168000002808BF052070BD08100B400000DB0CCF
:1016900024100B40F8B5384B1A780AB10320F8BD76
:1016A0005B78064603B94902344D354C354B364814
:1016B0004FF6FF774FF481322F6021601A60FFF7F9
:1016C0007DFF0028EBD1314B31491B681C3406F1FA
:1016D000400206F510702B68284F43F0200613F4E3
:1016E000E00F2E603ED123681E05FCD50B6842F842
:1016F000403C0B6842F83C3C0B6842F8383C0B68B5
:1017000042F8343C0B6842F8303C0B6842F82C3C01
:101710000B6842F8283C0B6842F8243C0B6842F8FE
:10172000203C0B6842F81C3C0B6842F8183C0B68E4
:1017300042F8143C0B6842F8103C0B6842F80C3C31
:101740000B6842F8083C0B6842F8043C4032824285
:10175000C1D1002009490B68084A9B07FBD50D4BF6
:101760001360F8BD43F4E00343F020033B60FFF750
:101770006FFF0120EEE700BFF82EFF1F30100B4077
:1017800008100B4004100B4010003A1110100B40D1
:1017900020100B4022000001F8B52B4B1A780AB13B
:1017A0000320F8BD5B78044603B94902274D284859
:1017B0002A68284B2A604FF48132016026481A605B
:1017C000FFF7FCFE0028ECD1244B254E1B68294670
:1017D00004F500770B681D4AD806FBD52B6813F477
:1017E000E00F1AD104F1400254F8043B3360A242E6
:1017F000FAD10B68DFF854E043F010030B600B687C
:1018000013F4E00013D19742E4D110490B680F4A5A
:101810009B07FBD5134B1360F8BD136843F4E0033B
:1018200043F010031360FFF713FF0120EDE7DEF82C
:10183000003043F4E00343F01003CEF80030FFF72C
:1018400007FF0120E1E700BFF82EFF1F30100B401B
:1018500008100B4004100B4000003A1810100B4009
:1018600020100B401200000110B50121007801F09A
:1018700043FB114A1378C3B11049CB7A00241846B0
:10188000147093B1DA0703D50D4AC8691060184681
:101890009C0703D50B4B0A6AC87A1A60420705D425
:1018A000030702D5084B8A6A1A6010BD074B4A6AC3
:1018B000C87A1A60F4E700BF0C2FFF1F4817FF1FFC
:1018C00000E100E004E100E00CE100E008E100E0FC
:1018D000234B1A781AB10078002101F00DBB70B4C7
:1018E000204A2149D47A096801251D70002C26D090
:1018F00072B6D47AE607234606D51C4DD3682E6807
:101900003340D3612B602346A50706D5184D1469D3
:101910002E68D37A344014622C605C0706D5154DCE
:1019200054692E68D37A344054622C601B0705D565
:10193000114C936925682B409362236062B613684B
:10194000DA688A4207D00D4C1C600D4AD96041F01C
:1019500080441C611A600078002170BC01F0CCBA90
:101960000C2FFF1F4817FF1F082FFF1F80E100E00B
:1019700084E100E088E100E08CE100E001403F000C
:1019800000003F80F0B41248124A036882B0164645
:101990000093009F4FF00045FF24136843F48063D9
:1019A0001360D5625463D36A002BFCDAB36BDBB2ED
:1019B000FF2B09D003680193019BDB1B8B42ECD307
:1019C000002002B0F0BC7047012002B0F0BC7047AC
:1019D0007831FF1F00C00240F8B50D464FF49671F4
:1019E00016460446FFF7CEFF284B1A684FF000401A
:1019F00042F4806245F040011A60D8621A46596389
:101A0000D36A002BFCDA214918204FF000470A68FE
:101A100026FA00F342F48062DBB20A60CF624B63C5
:101A2000CB6A002BFCDA083810F1080FEFD155B360
:101A3000082D0CBF8721FF21144B1A684FF000407E
:101A400042F480621A60D8621A465963D36A002B46
:101A5000FCDA0E4A002716464FF00045FF211368B6
:101A600043F480631360D5625163D36A002BFCDAC0
:101A7000B36BD8B21B06607000D4F8BD0137B7F560
:101A8000807FECD1F8BD9521D6E700BF00C00240B1
:101A9000F0B41549154A0B6882B016460093009FB2
:101AA0004FF00045FF24136843F480631360D56250
:101AB0005463D36A002BFCDAB36BDBB2FF2B4370A9
:101AC0000AD10B680193019BDB1BB3F5967FEAD922
:101AD000002002B0F0BC7047A3F1FE00B0FA80F025
:101AE000400902B0F0BC70477831FF1F00C00240CF
:101AF000F8B58378032B0E46044618BF4E021546F0
:101B0000FFF7E6FE324611212046FFF765FF18B9C0
:101B10002046FFF7BDFF20B92046FFF7A5FE0020B5
:101B2000F8BD204B2049214A1A608E4659631A4657
:101B300059631E46596305F5FD70A91C05F5FE772E
:101B4000D36A13F0F00FFBD0C6F834E0B36B01F8A2
:101B5000013C1B1201F8023C02318F42F0D105F525
:101B60000075A8420DD20F4A1646D36A13F0F00F43
:101B7000FBD0B36B191200F8021BA84200F8013C1D
:101B8000F3D3084B0949084A196019465A63CB6ACE
:101B9000044A13F0F00FFAD02046936BFFF764FE6F
:101BA0000120F8BD00C00240FFFF009000041F802C
:101BB000F0B4314E33684FF0004743F48063336034
:101BC0003D46F762344671633346511C02F20127E9
:101BD000E26A002AFCDA1A6811F8016C42F48062A9
:101BE0001A60DD625E63E26A002AFCDA1A6811F8A4
:101BF000026B42F480628F421A60DD625E63E7D15D
:101C00001D49CA6A1C4B002AFBDA1A684FF00045CE
:101C100042F48062FF241A601946DD625C63CB6A7D
:101C2000154A002BFBDA13684FF0004543F480633C
:101C3000FF2413601146D5625463CB6A0E4A002B11
:101C4000FBDA13684FF0004543F48063FF24136010
:101C50001146D5625463CB6A074A002BFBDA936BBB
:101C6000DBB203F01F024370A2F10500B0FA80F06E
:101C70004009F0BC704700BF00C0024070B5044688
:101C800071B18378032B0D4618BF4D021646FFF73E
:101C90001FFE2A4618212046FFF79EFE054620B16A
:101CA0002046FFF7E1FD002070BD3246FE212046B0
:101CB000FFF77EFF0028F3D04FF416712046FFF7A0
:101CC00061FE0028ECD02A460D212046FFF784FE55
:101CD0000028E5D10B4B1A684FF0004542F48062B2
:101CE000FF201A601946DD625863CB6A054A002B53
:101CF000FBDA936B13F0FF0FD2D12046FFF7B4FD50
:101D0000012070BD00C00240014B024A1A607047BA
:101D1000082FFF1F0320003838B590F90530002B3D
:101D200003DBBDE8384000F079B9044601210069C1
:101D300000F0B4F9F8B1257D104B13EB45151AD01E
:101D4000A3790F4A012B9CBFA369EB61E369126879
:101D50006B831B0CAB8232B105F1160105F1180043
:101D600090472B8B6B82637903F07F036371BDE82F
:101D7000384000F053B9002038BD00BF1C2FFF1FB2
:101D8000102FFF1F10B500F1080204460121006A60
:101D900000F02CFA50B1E3693BB96379A268E261C3
:101DA00063F07F036371012010BD012010BD00BFEF
:101DB000F8B5837913B182698A4201D20020F8BD57
:101DC000022B0F4605461AD007B32B6AE9681C7C24
:101DD0004A1E04F109037C1EDA40DC40A24211D9FC
:101DE000EB69AB6005F1080606E0A968286A00F017
:101DF000C5F9013C0028E1D03246002CF5D1EF6056
:101E00000120F8BD0029EBD0A41AEBE7AF60EF602A
:101E10000120F8BD2DE9F04F8B46817985B001296D
:101E20000746019205D001233B71002005B0BDE8B3
:101E3000F08F42799107F6D5530708D5FC68B96948
:101E40008C4200F0B480FFF7B3FF0028EBD0019B79
:101E5000FC68002B4AD0DFF8A491DFF8A4A1DDF8DC
:101E60000480386A0679013E06EA542616F0FF0619
:101E7000C4F3080443D1002C41D1B968002973D1BF
:101E8000FA69002A00F08380BA60C4F50075ADB22B
:101E900045453AD9057C4169023AAA400E441644A8
:101EA0001FFA88F51CB9F868BA6990424FD23046DB
:101EB000012100F0F3F80028B5D04C4404EB050EE6
:101EC00074450DD00BF1FF31621E0EF1FF3611F893
:101ED000010F02F8010F9642F9D1C4EB0E04A3449E
:101EE000FC68B8EB05082C44FC60BAD1BB69A3427E
:101EF00062D27A79BC6142F080027A7165E0C4F501
:101F00000075ADB24545BA68C4D8017C4069023A53
:101F10008A400644B5F5007F1644C3D1DAF80020A4
:101F2000964204BF4FF0FF32CAF800202F4A1068D3
:101F30000278FE2A314633D05A46FFF79FFE00282A
:101F40003FF471AF0BF5007B4FF40075C8E700F06C
:101F500065F800283FF467AF2549CAF800600A78A1
:101F600042F001020A70A8E703AA00F007F900286E
:101F70003FF45CAF386A1F4B90F82050039A4FF63D
:101F8000F871102D18BF19468A42FFF47DAF38460C
:101F9000FFF7F8FE00283FF446AF386ABA6874E7E6
:101FA0005846FFF7F9FBB0FA80F04009C7E7019BFC
:101FB000002B7FF450AF08E00F4B7A791B6823B1F8
:101FC000019B13B142F080027A71120709D5BB79E7
:101FD000002B3FF428AF3846FFF79EFE00283FF461
:101FE00022AF019805B0BDE8F08F00BF182FFF1F8A
:101FF0001C31FF1FF8FFFF0F102FFF1F1C2FFF1FAB
:102000008817FF1F00B583B002AB012203F8011D42
:102010001946FFF7FFFE03B05DF804FB70B51A4CDC
:1020200023780BB9012070BD184D194B2868196829
:102030000378FE2B17D0174AFFF720FE88B1164E03
:10204000316819B900232370012070BD2868037816
:10205000FE2B0FD00F4AFFF711FE10B100233360A3
:10206000F0E7002070BD0B48FFF796FBB0FA80F058
:102070004009E3E70748FFF78FFBB0FA80F040091B
:102080000028EBD1EDE700BF1C31FF1F182FFF1F09
:102090008817FF1F1C2FFF1F142FFF1F70B5124D35
:1020A0002B6883420E4611D00446FFF7B7FF08B9EC
:1020B000002070BD0D4B18680378FE2B0CD00C4A25
:1020C0002146FFF715FD0028F2D02C60094B197846
:1020D00031431970012070BD21460548FFF7DAFA37
:1020E000B0FA80F04009EEE78817FF1F182FFF1F96
:1020F0001C2FFF1F1C31FF1FF8B590F82030C4695A
:10210000102B1A4B05460E4617461B6816D004EBDB
:10211000D1149C4216D106F07F06154A42F826706B
:102120001449287E0A78012842F001020A7018D961
:10213000A968114A0B4413600120F8BD04EB112477
:102140009C4208D000212046FFF7A8FF50B195F827
:102150002030102B07D1F6B2054A234622F816701C
:10216000DEE70120F8BD2346D5E700BF8817FF1F33
:102170001C2FFF1F1C31FF1F142FFF1FC3680133CB
:102180008B4218D370B590F82030102B154B0446B5
:1021900016460D46C0691B680FD000EBD11098425F
:1021A0000FD105F07F01104B53F8213023F070431D
:1021B0003360012070BD0020704700EB1120984271
:1021C00007D00021FFF76AFF50B194F82030102BA0
:1021D000E7D1E9B2044B33F811303360012070BD10
:1021E000002070BD8817FF1F1C2FFF1F2DE9F04F27
:1021F000176883B06FB301374FF0000AC36803F16B
:10220000010813B38B46064691463C46002505E07F
:102210001C461F46F3680135AB4216D9A04538BFAE
:102220000224214601AA304638BF2746FFF7A6FF01
:10223000631CD91B48B1019A002AE9D18B4510D003
:102240001C46F3680135AB42E8D8002003B0BDE876
:10225000F08FA1F1010ABAFA8AFA07684FEA5A1A0E
:10226000CCE7012CF1D9F36801339C42EDD86FF033
:10227000704221463046FFF73FFF0028E5D0A742D5
:1022800014D2013C012CE0D9F36801339C42DCD824
:10229000621C21463046FFF72FFF0028D5D0A74209
:1022A00004F1FF3402D0012CEED1CEE7D9F80010B2
:1022B00059B10129C9D9F36801339942C5D83A46C1
:1022C0003046FFF719FF0028BFD0C9F80070BAF1F7
:1022D000000F01D0013737600120B7E70369D3F859
:1022E0003801D3F83431C01A704700BF0369D3F8FE
:1022F0003411D3F83821914208D2D3F83421511C3B
:102300001A44C3F8341192F8300070474FF0FF3090
:10231000704700BF0369D3F83411D3F838219142D4
:102320003DBFD3F834219B1893F830004FF0FF30B5
:10233000704700BF704700BF0369D3F84422B2F56D
:10234000817F03D90123037100207047D3F8442211
:1023500010B49C180132C3F8442284F83C110120C7
:102360005DF8044B704700BF38B503690A4A026044
:1023700093F84822022A044601D0204638BDD3F8FB
:102380007452002DF9D0284602F012F82846082190
:1023900002F0E4F9204638BDB07C000038B503698E
:1023A0000546D3F84402B0F5817F1AD81446D3F815
:1023B0004422D3F84402C2F58172013203F59E73C0
:1023C000A242184402D2012314462B71224600F087
:1023D000D5FB2A69D2F844322344C2F8443220465D
:1023E00038BD01232B71002038BD00BF2DE9F0411D
:1023F000BF4EC7683378D0F808E00133DBB23370E2
:102400003D789EF800300446DBB2806903F020027C
:102410000178EDB2FAB113F0100F94F85E327FD06C
:10242000022B00F0D78094F85E32032B00F0D280AC
:1024300094F85532082B00F0238294F85532092B7A
:1024400000F05C8294F85532012B00F0CC8180239F
:102450008EF800305BE002F0FF08EA0624D405F0B5
:10246000400202F0FF071ABB03F0100303F0FF0263
:10247000002B00F08E8015F0010540F0A881D4F803
:102480004022D4F844329A4207D2D4F840325A1C3F
:102490002344C4F8402293F83C5123691D70A3687B
:1024A000D0221A70A06979E0102368063B7029D504
:1024B00094F855320C2B00F00F8105F0040505F05F
:1024C000FF02002D73D0A3680021D0220B2084F8D6
:1024D0005502C4F844121A702269D4F86C121378A9
:1024E0005B0884F8563209B188472269D4F844322F
:1024F000002B00F0758194F83C8182F80080012364
:10250000C4F84032A269137843F050031370E368B3
:1025100002221A703378013BDBB23370BDE8F081E0
:10252000022B00F09F8094F85E32032B00F09A801B
:10253000D4F83831D4F858220233934200F0418164
:1025400094F85532012B00F03781D4F8383101333B
:10255000934280F00B8194F85532012B00F00181F9
:10256000D4F838312269591CC4F838112344127840
:1025700083F83020E36802221A7094F85532DBB2F7
:10258000012BC7D194F85D22002AC3D184F85D32B3
:10259000C0E794F855320C2B00F09381037843F098
:1025A00050030370E36802221A70BDE8F081A1694C
:1025B0000B7843F020030B70A3680C20C02184F833
:1025C0005502C4F83821197023691B785B0884F818
:1025D000563297E7D4F8742213689B8B190604D5FA
:1025E00094F85E32022B00F0B08094F85E32032B38
:1025F00000F086803F4B12791968012393400B420B
:1026000088D03D493D4B0A70D4F87412097919708D
:102610000022072384F85E2284F85532D4F89432DD
:10262000013304D0D4F894320133C4F89432ED0667
:1026300011D5042384F85532D4F88C32013304D0F8
:10264000D4F88C320133C4F88C32E26810210023B4
:102650001170C4F84032A36880221A70E368022225
:102660001A7032E0D4F874321A68928B120603D5CD
:1026700094F85E22022A5CD094F85E22032A00F0CD
:10268000D6801C491A790968012393400B423FF414
:1026900041AF1949194B0A70D4F8742212791A7093
:1026A000A36880220020072184F85E0284F8551276
:1026B0001A70E36802221A70D4F89432013304D0FD
:1026C000D4F894320133C4F89432D4F87032002B29
:1026D0003FF420AF98471DE7D4F86832002B3FF451
:1026E000ECAE0022C4F83421D4F838019847E4E66F
:1026F0005C31FF1F2C8000401E8000401F80004086
:102700003B781B06FCD5C34B12791A70002384F862
:102710005E32D4F844322169013BC4F84032D4F827
:1027200040322344022293F83C310B70E3681A7064
:10273000F0E6B9491B790B70A368E8211970E368CA
:10274000032184F85E121A70E4E6B34912790A7024
:10275000A268F0211170E268032184F85E12137000
:10276000D8E694F85D32002B3FF4FAAEA36800215E
:10277000B02284F85D121A70D4F838312269591CDD
:10278000C4F838112344127883F8302094F8543276
:10279000012B00F0C580E36802221A7094F85532CC
:1027A000012B36D0D4F86432002284F85522002B55
:1027B0003FF4E3AE9847E0E694F85D32002B7FF4F7
:1027C000C4AEE8238EF80030D4F85822BDE6C0230A
:1027D0008EF800302369A0691B7884F85572DDE615
:1027E00084F83C3189E694F85432012B0CBF8023E5
:1027F000B0238EF80030E36802221A70D4F88032D9
:1028000001333FF462AFD4F880320133C4F8803230
:102810005BE7D4F88032013304D0D4F8803201333E
:10282000C4F88032D4F87032002BC3D1A5E6794ABF
:102830001B791370A3680021B02284F85E121A700D
:10284000D4F858322269013BC4F83831D4F8383111
:10285000591CC4F838112344127883F8302094F8B6
:102860005432012B00F0DA80E36802221A70D4F8A7
:102870006432002284F85522002B7FF42BAF49E606
:1028800005F0100303F0FF02002B50D000230421B9
:10289000102284F85E3284F855123A70A2688021C2
:1028A0001170E268C4F8403202231370D4F88C32FD
:1028B00001333FF40AAFD4F88C320133C4F88C32C0
:1028C00003E7C9B211F0500F4AD0037843F0500328
:1028D0000370A1690B7803F0DF030B70E36802213A
:1028E0001970D4F8683284F85522002B3FF412AEE8
:1028F000C4F83421D4F8380198470BE6E80641D5EE
:102900000422102384F855223B70A36880221A7099
:10291000E36802221A70D4F88C320133CBD1D4E6AA
:102920003C23013BFDD1A36880221A7033E715F0E8
:1029300001053CD084F85E22D4F84032002B7CD1D3
:10294000022384F85532D4F88432013304D0D4F809
:1029500084320133C4F8843280238EF800307DE65F
:1029600023691B78D4F83821B2F5817FDBB23FF6BA
:1029700015AED4F83821A1180132C4F8382181F8F5
:1029800030300BE6E9072ED50223802284F8553239
:102990008EF80020E2681370D4F8843201333FF4DB
:1029A00094AED4F884320133C4F884328DE6D4F87E
:1029B00040320133C4F84032D4F84422934234D335
:1029C00094F8543284F85552012B0CBF8023B02365
:1029D0008EF80030E36802221A70D4F86032002BBF
:1029E0007FF478AE96E594F85E32012B32D0D4F8BD
:1029F0005832012B4FF00A020CBFE823E02384F881
:102A000055228EF800302269E368127802221A708B
:102A100080E500BF1C8000401F8000403C23013B3C
:102A2000FDD1A36880221A701EE794F85E32012B54
:102A300020D0D4F84032216973E6032384F855325C
:102A4000D4F88832013387D0D4F888320133C4F8FF
:102A5000883281E70223E12284F85E328EF800207A
:102A6000D4F874120C4A097911702169E268097866
:102A700013704FE50223F12284F85E328EF80020B5
:102A8000D4F87412044A09791170226994F83D113E
:102A90001170E26813703DE51B8000400021014881
:102AA000FFF7A4BC8C17FF1F01210148FFF79EBC54
:102AB000281AFF1F02210148FFF798BCC41CFF1F02
:102AC00003210148FFF792BC601FFF1F2DE9F84367
:102AD000224BDFF8A090DFF8A080214E214D1E6030
:102AE00000244FF47A774A4641461C711C739F605C
:102AF00018465C731D6103F039FE1B4B05F5277208
:102B000001211A611C714A469F601C735973184653
:102B100041461E6003F02AFE144B05F5A762022110
:102B20001A611C714A469F601C73597318464146CE
:102B30001E6003F01BFE0E4B4FF0030E05F2D47522
:102B40001C711C7383F80DE04A46414618461D610E
:102B50009F601E60BDE8F84303F008BE4831FF1FC8
:102B6000B07C00008C17FF1F2031FF1F3431FF1F86
:102B70006031FF1F3017FF1F69230000844641EAC0
:102B8000000313F003036DD1403A41D351F8043BE5
:102B900040F8043B51F8043B40F8043B51F8043B37
:102BA00040F8043B51F8043B40F8043B51F8043B27
:102BB00040F8043B51F8043B40F8043B51F8043B17
:102BC00040F8043B51F8043B40F8043B51F8043B07
:102BD00040F8043B51F8043B40F8043B51F8043BF7
:102BE00040F8043B51F8043B40F8043B51F8043BE7
:102BF00040F8043B51F8043B40F8043B51F8043BD7
:102C000040F8043B51F8043B40F8043B403ABDD245
:102C1000303211D351F8043B40F8043B51F8043BE7
:102C200040F8043B51F8043B40F8043B51F8043BA6
:102C300040F8043B103AEDD20C3205D351F8043B76
:102C400040F8043B043AF9D2043208D0D2071CBF42
:102C500011F8013B00F8013B01D30B88038060466B
:102C6000704700BF082A13D38B078DD010F00303E1
:102C70008AD0C3F10403D21ADB071CBF11F8013B51
:102C800000F8013B80D331F8023B20F8023B7BE7A0
:102C9000043AD9D3013A11F8013B00F8013BF9D2CB
:102CA0000B7803704B7843708B7883706046704765
:102CB00030B42948294A2A4B2A4D6024E121047066
:102CC00011701B78284C082B30D00A2B2748284934
:102CD00037D00C2B0CBF35225D2212232A602360D3
:102CE00002600B60234B24491B78244ABBB10123AB
:102CF0000B601360224B23491B78234A012B26D9F2
:102D0000042B0FD9082B1ED9102B94BF86238723A1
:102D10000B6013601D4B01221A7030BC70470B60B2
:102D20001360E7E784230B601360F3E700F58E2060
:102D30000F490830212213232A60236002600B60B0
:102D4000D0E73922F7E785230B601360E2E78023A1
:102D50000B601360DEE700BF004007400140074002
:102D6000FC21FF1F08B003400CB0034008B00B402B
:102D70000CB00B407531FF1F20B0034020B00B405A
:102D8000FD21FF1F24B0034024B00B407431FF1F0E
:102D900008B5104C08E0236859050DD423681A05BE
:102DA0000FD42368DB0411D423685803F3D500F053
:102DB0008BFA23685905F1D500F00EF823681A053F
:102DC000EFD500F009F82368DB04EDD500F004F836
:102DD000EAE700BF3480044008B5FFF7D9FF00BF21
:102DE000014B10221A80704700200540704700BF39
:102DF000094908B50B6830B16A461844A2F500527B
:102E0000904202D20860184608BD04F093F90C23E2
:102E100003604FF0FF3008BD0022FF1FFEE700BF38
:102E2000084A1378802B01D0002070470649074BD1
:102E300007480860002119701378802BFCD001200E
:102E4000704700BF03E007404480044001E00740B2
:102E500000002822094A1378012B01D00020704776
:102E600003F1804303F5FC23602119701378802B54
:102E7000FCD1034B034A1A600120704703E007406E
:102E8000448004400000060210B4114B53F8302077
:102E900092F8804234B1012379B182F880305DF834
:102EA000044B704703EBC0035B681A6851B922F00A
:102EB00002021A605DF8044B704782F800315DF839
:102EC000044B704742F003021A605DF8044B7047F0
:102ED000CC7C000030B4054B054D064C002210217F
:102EE0001A602A602060196030BC704714D003401B
:102EF00004D0034000D003403F2801D8FFF7C4BFEF
:102F0000704700BF2DE9F843054672B6224F234BA8
:102F1000234A1B683C68126862B6520102D5322B04
:102F200088BF0134B5B3C3F52F3303F21F331D4EF1
:102F3000DFF86890DFF868809B084FF47A72A6FB90
:102F4000031302FB04F404EB930472B6D9F80010E7
:102F50003A68D8F800E062B6C1F52F3303F21F33A8
:102F60009B08A6FB03031EF0806FC4EB93034FF492
:102F70007A7002D0322988BF013200FB0233B3F5E8
:102F80007A7F04D3013D05D004F57A74DDE701F0C2
:102F9000FBFBDAE7BDE8F8837831FF1F18E000E0BB
:102FA00004ED00E0176CC116F8B54E4B4E48DFF843
:102FB0005CC14E4C4E49DFF858E14E4E4E4D4F4FDE
:102FC0004FF000621A604FF080521A604FF00052CA
:102FD0001A604FF080421A604FF000421A600022DF
:102FE000026028234EF6FF70CCF80000CEF80030C7
:102FF00023600EF5012E0B6033602B6006F5002672
:103000003B6005F50025A36207F500278B6204F5F8
:10301000012401F5012106F6E87605F6E87507F5C5
:103020007F6710310EF1100E203433602B60CEF824
:1030300000303B600B602360314CBB618B61092128
:103040002160A7F5002704F58054203F08343A603A
:103050002060BB60E36047F8041C04F5FD2407F51D
:10306000FE27043704F2FC7422603860A360FB6022
:1030700044F8041C083404F6FC74C7F8FC2F2060E4
:10308000A4F5E124A4F2DC7433602B60C7F8F81FC8
:1030900021681C4841F40071216001681A4C0EF54A
:1030A0007F4E0EF1E80E07F5883706F5803605F5F8
:1030B000803541F000710160CEF8002047F6FF71C5
:1030C0000822396033602B602260FFF7F1FD192080
:1030D000FFF718FF00F05EFE40F21310BDE8F84065
:1030E000FFF710BF04E100E00480034014800340B8
:1030F0001C800340248003402C8003403480034024
:10310000008003400480044000900C40088003408D
:103110000C800340431E032B14D872B60A4951F8A1
:10312000230068B170B4094C058834F81320466850
:1031300041F82360521B24F8132062B670BC70471C
:1031400062B6704700207047D431FF1F6033FF1F05
:10315000013803280BD872B6074B53F8203043B11F
:1031600000205B680130002BFBD162B67047002065
:1031700070471846F9E700BF2832FF1F30B472B617
:103180002B4A13781D0706D52A4B196A002936D019
:10319000996A002941D053781C0706D5254B196C34
:1031A00000293ED0996C002939D09378190705D5AC
:1031B000204B196E002936D0996E89B1D3781B0740
:1031C00007D51C4BD3F880207AB3D3F8882011217F
:1031D0003AB162B6184B00221A7030BC00F062BEE1
:1031E0000D21154C154D227843F8315003EBC103E6
:1031F0000830013A5860227062B630BC7047042231
:103200000D4C0F4D217843F8325003EBC2030830C8
:103210004A1E5860227062B6EFE70521E1E70921F6
:10322000DFE70822ECE70C22EAE71022E8E700BF1C
:10323000047F00000000FF1F5132FF1FC800400044
:1032400088004000431E032B1DD81B4A400140F05C
:10325000100030B4104472B6184CE25C032A1BD83C
:10326000DFE802F00212151703220D88E25410F075
:10327000080F14BFC823882343EA054308310360BD
:10328000416062B630BC704708300222EDE705228B
:10329000EBE708300422E8E7094A52F8230038B186
:1032A000084A52F82300416042F8231062B6E9E769
:1032B00042F82310034AF7E70000FF1F6032FF1FA8
:1032C0002832FF1F3832FF1F2DE9F04FDFF818B307
:1032D000DFF818A387B044E0AE4F4FEA930807EB3E
:1032E000C809013ED9F8042003F00803F6B2A2F1A0
:1032F000080003F0FF04002B40F0048157F8383039
:103300001B0C99B222F8081C002B00F0F280A24B93
:1033100022F8064C42F8044C53F82620002A00F00C
:103320006E819E4D55F8263058609D4C45F826001C
:1033300034F81630194424F8161000F093FD0028D4
:1033400000F05681974A984B19F0080F00F10800D9
:1033500018BF1346C9F8040047F8383008238BF823
:1033600000309BF80040E4B261071BD58F4B1B78FF
:10337000ABB18F490A7802F0FF032AB1013BDBB2FF
:103380000B70002B00F0EF848A490A7802F0FF03EB
:103390002AB1013BDBB20B70002B00F0F780042355
:1033A0008BF8003004F0080303F0FF02002B00F05C
:1033B000D6809AF80030DBB21E098DD19C08DFF868
:1033C000D49159F8342009EBC401C2F38302013AC5
:1033D00049680C2A7ED8DFE802F081817D7D7D7D01
:1033E0007D7D477D7D7D07000868734D4A68734F7A
:1033F000734E286081B240F281606A4B6A604FF080
:10340000010E0022814249F834303A60C9F8102098
:10341000C9F8182086F800E05E4C00F2F480B1F59F
:10342000D06F80F07883B1F5817F00F0628300F285
:103430008782802900F0EC82822940F01E83A988CF
:1034400001F07F01042900F218835E485E4C890078
:103450000844227062700278930740F1798384F8FF
:1034600000E04FF0020ED8E2544F3A6842B3574B97
:10347000534E5749188834780D784028864645F0D1
:10348000020828BF4FF0400E002C84F00104347075
:10349000CEEB00000CBF8824C82409EBC80680B21C
:1034A00085F0010544EA0E447260188049F83840FE
:1034B00072440D7018B9BEF1400F18BF00223A6077
:1034C0003D4B1A88B2F5A06F04D100219A7859704B
:1034D000404B1A70404A012313703FE7364A158863
:1034E00042F22100854200F0FF812E4A49F8342043
:1034F000F0E72C4A2C4B19F0080F18BF134647F879
:1035000038302BE700F0CEFC344A354952F82630EB
:10351000002B00F0B68158688C5D42F8260003F15C
:103520000802C9F80420032C05D8DFE804F0120FC4
:10353000150204228A551A8819F0080F0CBF882337
:10354000C82343EA024347F8383007E702228A5586
:10355000F1E703228A55EEE705228A55EBE7E007FB
:1035600000F11A82210600F14982A20706D51D4A00
:103570001D4913780220DBB213700870E30602D5F0
:10358000194B10221A7007B0BDE8F08F00F0F6FD5D
:1035900005E700BF0000FF1FD431FF1F8031FF1F70
:1035A0006033FF1FC8004000880040005C32FF1FEE
:1035B000E531FF1F6432FF1F4832FF1F7C31FF1FC0
:1035C000E431FF1FC02007405432FF1F9031FF1F1E
:1035D0005032FF1F98200740942007402832FF1FD9
:1035E0006032FF1F8820074080200740902007405E
:1035F000AB4A47F83800137801331370AEE643F84E
:103600002600A84D91E642F22100814200F035816A
:1036100000F2AF81B1F5086F00F01B82B1F5106FB9
:1036200040F02B82226AA049A8780870120600F1A7
:103630004583D9F828209D49130600F13A83D9F82B
:1036400030209A49150600F12F83D9F83820974980
:10365000140600F12483D9F840209449100600F1A3
:103660001983D9F848209149120600F10E83D9F840
:1036700050208E49130600F10383D9F858208B4956
:10368000150600F1F882D9F860208849140600F187
:103690002983D9F868208549100600F11E83D9F8DE
:1036A00070208249120600F11383D9F878207F49EF
:1036B000130600F10883D9F880207C49150600F133
:1036C0001C83D9F888207949140600F11083D9F8B1
:1036D00090207649100600F1C882D9F898207349E5
:1036E000120600F1BC827248724A73490190734815
:1036F0006C4D734C0497002305960295804617463F
:103700000E461D460394386828B1446800F0CAFB91
:103710002046002CF9D100233B60029B30681A46FA
:10372000002342F8253028B1446800F0BBFB204656
:10373000002CF9D100223260019A98F8003011462D
:10374000002241F8042B039A0191023B4FF0000143
:1037500022F81510032B09D8DFE813F04B01040001
:103760004B0104004FF0010388F800300135042DAF
:1037700007F1040706F1040608F10108C3D1514C12
:10378000514B2278464D049F059E002129701A70E6
:10379000130700F14F8262784C49DFF810810A70FC
:1037A00010074FF00001C9F83010C9F8381000F1C7
:1037B0002B824749A2780A700021C9F85010C9F835
:1037C00058101107DFF8E48000F1DC81E27841490C
:1037D000364C0A7000211207C9F87010C9F8781029
:1037E00000F1B98133780193002183F00102C9F817
:1037F0009010C9F898100020029080468446044634
:1038000035490D7845F0020E09EBCE030393019B79
:10381000002B039B5C600CBF8824C82444EA080387
:1038200085F0010449F83E3032700C70DFF87CE01E
:103830002A4BDFF8A480002840F02681BCF1400F1D
:103840001BD144F0020C09EBCC03029CDFF85CE0D6
:103850005C60002A40F02E81020442F088029DF84C
:1038600004304EF83C20044433700D702346402849
:1038700003D100201A4A3B6010801A4A01231370BA
:1038800028E68B5D032B00F22D8101A252F823F074
:103890005D3300005D330000E7390000ED390000C2
:1038A0005132FF1F8031FF1F5C32FF1F0000FF1FDE
:1038B0003832FF1FD431FF1F2832FF1F6032FF1F35
:1038C0006033FF1F047F0000C4200740C82007406A
:1038D000CC200740D02007405032FF1FE431FF1FAB
:1038E0009031FF1F94200740928892B9B14A0D7819
:1038F0004878157050708D78C8789570D0701068C1
:103900000D79157186284D7989795571917100F07D
:10391000A580A949A94E0A78307882F001050028CF
:1039200042F002020D700CBF8821C82149F8321004
:1039300009EBC20280F00100002130705160D4E533
:1039400040F20232914240F08D80A98801F07F015F
:10395000042900F292806A88002A40F08E809848FC
:10396000CDF804E089000844017841F002010170BB
:1039700041E742F2212081427BD1A988002940F011
:10398000E480904B904A9148AC781D681560CDF862
:1039900004E00A4604702EE78D4B8E4886491A6172
:1039A0004FF0020E80F800E0854F0A708A491960D6
:1039B00099608A4E8A4D8B4C9A610D213970FF2196
:1039C0003170DFF840E229702270874D874A8EF807
:1039D00000109F27012406F8047C5D600470DA6003
:1039E00007B0BDE8F08F00238B55B7E401238B555A
:1039F000B4E44FF0000388F80030B7E67049784B24
:103A000080220D2008701A70A2077FF5B7ADAEE5D1
:103A1000774C4FF0020E22706270EA88724580F097
:103A2000A38165490D78402A944645F0020E28BFCF
:103A30004FF0400C04EB0C0309EBCE000293012382
:103A400044604FEA0C48CCEB020001930022C824EA
:103A5000E4E6684A664C12782270DEE7664A0F2177
:103A6000117056E7B1F5A06F07D101230022019331
:103A7000C1E642F221329142F7D0514A0F2313702E
:103A8000544A0123137025E540287FF6DAAE44F04E
:103A900002040EEBC401029E4E60BAB19DF8041000
:103AA000564A19703346403888F8005040334EF873
:103AB0003420DFE69DF8043033700204029B0D7061
:103AC00042F0C80203444EF83C20D0E69DF80410B2
:103AD0001970029B404A88F80050403840334EF835
:103AE0003420C7E619F0080F0CBF022303238B55BF
:103AF00034E4A98801F07F010429BED86A88002A2D
:103B0000BBD12F48CDF804E089000844017821F0AA
:103B1000020101706FE63A4A5468002CADD0688803
:103B2000B5F804E003E00C325468002CA5D01388EB
:103B30008342F8D153887345F5D1000A03280CBF9E
:103B400094F800E0B2F808E067E7CDF804E052E648
:103B50004FF0020E61E700F085F9002800F0F180D7
:103B600008301D4AC4F88400C4F8802000F07AF9B7
:103B7000002800F0E0800830204AC9F88C00C9F81D
:103B800088202FE600F06EF9002800F0E68008306B
:103B9000114AC8F86400C8F8602000F063F90028F2
:103BA00000F0D5800830154AC9F86C00C9F86820C3
:103BB0000CE600BF6833FF1F5032FF1FE431FF1FC8
:103BC000C02007407831FF1F7033FF1F7432FF1F82
:103BD0000000FF1F94200740880040008820074015
:103BE00080200740982007409431FF1FE831FF1FD5
:103BF0005432FF1F5C32FF1FE531FF1FC800400039
:103C0000087F00008C20074000F02CF9002800F00D
:103C10008C8008305D4AC8F84400C8F8402000F0A5
:103C200021F900287BD00830594AC9F84C00C9F85E
:103C30004820BEE500F016F900286AD00830534A43
:103C4000C9F82400C9F8202000F00CF900285AD047
:103C500008304F4AC9F82C00C9F828209BE5D1F854
:103C60009C00083800F01EF93DE5D1F894000838B2
:103C700000F018F931E5C86D083800F013F902E5D5
:103C8000486D083800F00EF9F7E4C86C083800F009
:103C900009F9ECE4486C083800F004F9E1E4C86B79
:103CA000083800F0FFF8D6E4486B083800F0FAF85E
:103CB000CBE4C86A083800F0F5F8C0E4606A083858
:103CC00000F0F0F8B5E4C86F083800F0EBF8F2E463
:103CD000486F083800F0E6F8E7E4C86E083800F0EE
:103CE000E1F8DCE4486E083800F0DCF8D1E4D1F803
:103CF0008C00083800F0D6F8E9E4D1F884000838E0
:103D000000F0D0F8DDE42A78C9F8280001322A70E2
:103D100041E52A78C9F8200001322A7094E72A7810
:103D2000C9F8480001322A7043E52A78C8F84000F3
:103D300001322A7073E72A78C9F8880001322A70A4
:103D400050E52A78C4F8800001322A700EE72A78FC
:103D5000C9F8680001322A7038E52A78C8F860008E
:103D600001322A7019E700BEBEF1400FF44628BFA9
:103D70004FF0400C04EB0C0302930123CCEB0E003C
:103D80004FEA0C48002201933AE500BF880040004A
:103D9000C80040002DE9F041274C00F091FD0022C1
:103DA00004F1A00023461A605A60083383424FF0A2
:103DB0000001F8D12148224A0368DFF89CE0214E37
:103DC000214D224FDFF894C0DFF8948043F4802324
:103DD0000360136843F04073136003238EF80030D0
:103DE000A023337002F5C922C4F3072300F528305D
:103DF0002B708030C4F3074310323B70240EFF2336
:103E00000470134D8CF80030124888F8003013709D
:103E1000012306F8AC3C4FF400140EF8441C702645
:103E2000102107F82C3C2E70046082F8F810AEF1D7
:103E3000440EBDE8F08100BF0000FF1F3480044045
:103E400000D80040402107409C200740B020074098
:103E500035E400E004E100E0442107408020074011
:103E60008820074072B60D480268B2FA82F30B2B25
:103E700010DC4FF00041D94022EA0102026062B634
:103E8000074803EBC303DB00C2180021C1501046F2
:103E90005160704762B60020704700BF0422FF1FC8
:103EA000D013FF1F0D4B0E4AC31AA2FB03231B099D
:103EB0000B2B0CD80B4A127852B972B60A484FF045
:103EC0000041026821FA03F31A43026062B67047A8
:103ED000064A1278002AF0D0FFF750B9D013FF1F1E
:103EE000398EE3385132FF1F0422FF1F5C32FF1F5F
:103EF00038B50F4D286878B143880288C11801335E
:103F000093420C7A02D24380204638BDFFF7CAFFA5
:103F1000002320462B6038BD064B1B782BB10320B5
:103F2000FFF7F8F828600028E6D14FF0FF3038BDE1
:103F30007032FF1F5C32FF1F10B5094C206818B1AA
:103F400043881844007A10BD064B1B782BB1032020
:103F5000FFF7E0F820600028F2D14FF0FF3010BDED
:103F60007032FF1F5C32FF1F044B054A1B689088AC
:103F70001BB11A885B88D31A184470477032FF1F30
:103F80006033FF1F0B4B1B789BB110B50A4C2068A8
:103F900048B1FFF787FF002303202360FFF7BAF83B
:103FA00030B1FFF77FFF0320FFF7B4F80028F8D106
:103FB00010BD70475C32FF1F7032FF1F2DE9F04FBC
:103FC000DFF8F89083B0012289F80020019169B3ED
:103FD000DFF8EC80354F019E8346D8F80000B0B37F
:103FE000334D4488C4F14001B14228BF314604EB4F
:103FF000010E00221FFA8EFE2A70761AA0F802E047
:1040000000F1080251B1013C224459441BF8014B14
:1040100002F8014F8B45F9D1B0F802E0BEF13F0F35
:104020000BD8244A05211170002ED6D10198002307
:1040300089F8003003B0BDE8F08F402202800146CD
:104040000420FFF7FFF80022C8F80020E9E73A78DB
:1040500022B3194C164D4FF0010A07E0013C16D06F
:104060002A78A2B900F090FB3A78BAB10420FFF7A1
:104070006FF80728F2D889F800A0FFF7F3FEC8F818
:1040800000000028ADD10D4B013C1870E8D1012390
:104090004FF0FF302B7003B0BDE8F08F00234FF0DE
:1040A000FF3089F8003003B0BDE8F08F5C32FF1FAD
:1040B0006C32FF1F6432FF1F214801006532FF1F71
:1040C0006832FF1F00B583B002AB012103F8010D78
:1040D0001846FFF773FF03B05DF804FB38B50E4DCB
:1040E0000E4C28680123237028B1408800232370D8
:1040F000C0F1400038BD0A4B1B7813B90020207076
:1041000038BD0420FFF724F80728F7D8FFF7AAFEE8
:1041100028600028E9D1F1E76832FF1F6532FF1FF0
:104120005C32FF1FF8B5114B1B788BB1104E114D4F
:10413000346801272F7064B10F4A63880027177015
:10414000214623800420FFF77DF8376000232B7081
:10415000F8BDFFF787FE084B28B1014604201C700C
:10416000FFF770F8F2E71F70F0E700BF5C32FF1F47
:104170006832FF1F6532FF1F6432FF1F38B50E4BD8
:104180001B7873B90D4C216861B103F0FF054B88B2
:104190000B800420FFF756F8256038BD084B01223C
:1041A0001A7038BDFFF75EFE0028F7D00146BDE863
:1041B00038400420FFF746B86532FF1F6832FF1F02
:1041C0006432FF1FB1F5607FF0B428BF4FF4607117
:1041D00072B6134A134C144B10600022228003F174
:1041E000700443F8042FA342FBD1B1B10F4E00235A
:1041F00001275D0903F01F0456F8252007FA04F48F
:10420000013322438B4246F82520F2D1002343801C
:1042100001338B4200F58270F9D162B6F0BC704771
:104220007C32FF1FF632FF1F8032FF1F8432FF1FD8
:10423000084B1A785AB90848084910B4D0240470B9
:10424000012210460A601A705DF8044B7047002086
:10425000704700BF8032FF1F40E400E008E100E04B
:104260001A491B4A1B48F8B50B681B4D046843F0FC
:1042700080730B60136843F0010313602E6814B958
:1042800015E064699CB1237A002BFAD023682F686B
:104290001B68204698472B68E188DB1B1B099AB2F4
:1042A0008B42A28088BFE2806469002CEBD10A4B6C
:1042B0000A4A1B6810880A4C9B1B1B0999B283424F
:1042C000218001D91180F8BDF8BD00BFFCED00E0F0
:1042D000001000E07832FF1F041000E0F432FF1FEE
:1042E000F832FF1FF0B572B699B902688AB1037946
:1042F0000F2B0ED8284C218841FA03F5ED070AD57B
:1043000003F1007303F59063B2EB431F03D162B670
:10431000F0BD214C2188002341FA03F212F0010282
:1043200007D00133102BF7D162B60022037102606F
:10433000F0BD01259D402943218062B6174E184DDE
:10434000184FDFF868E0D9B20171346844F0020414
:1043500034602C6844F002042C60A6F5802640F2FC
:104360008244A5F5802503F100733C6003F590635A
:10437000223E243D0C4C8EF800105B0131702970F8
:10438000217003601A605A609A60DA601A615A619B
:104390009A61DA61F0BD00BFFA32FF1F408004402D
:1043A0003C800440008000401F8000401A80004094
:1043B00003790F2B12D80A4A10B4137072B6094948
:1043C00004790A880123A34022EA03030B8062B622
:1043D000102200235DF8044B02710360704700BF98
:1043E0001A800040FA32FF1F10B4EFF3108272B649
:1043F000437F33B9017F012908D0032910D001235D
:10440000437702B962B65DF8044B7047114C2168DE
:10441000A1B1114943610B68836108605861EEE7FF
:104420000E4C216881B10E4943610B6883610860BD
:1044300058610C4B4FF080511960E0E7064B416129
:10444000816120601860DAE7054B4161816120607D
:104450001860EEE70833FF1F0433FF1FFC32FF1F15
:104460000033FF1F04ED00E070B5EFF3108272B669
:104470000C4C206880B10C4E00254369236073B159
:104480009D6102B962B6457783689847EFF3108261
:1044900072B620680028F0D102B962B670BD3360F0
:1044A000EFE700BFFC32FF1F0033FF1FFFF7DCBF49
:1044B000024A136801331360704700BF7831FF1F51
:1044C000F8B50E4671B17AB10746144600253B682F
:1044D00016F8011B1B6838469847013C0544F6D185
:1044E0002846F8BD0846F8BD1046F8BD00B5064A96
:1044F000036812885B6883B001A9ADF8042002222A
:10450000984703B05DF804FBCC7E0000F0B5074689
:104510008BB0002A33D0012A08BF0A2251B32124CC
:1045200000E0F4B2B1FBF2F502FB1511C8B20929A3
:1045300000F1300198BFC8B20AA988BF37302144C2
:1045400088BFC0B201F8240C661E2946002DE8D1B0
:1045500033B1013CE4B20AAB23442D2203F8242CEE
:104560003B6801AA11195B683846C4F122029847DA
:104570000BB0F0BD30228DF825202124E8E7036838
:10458000C9B21B6898470BB0F0BD00BFFFFFFFFF2B
:104590002DE9F04357EC106B85B005460C4610EE44
:1045A000102A3B4610EE100A394602F037FD00286B
:1045B00040F0B28027F00049304649464FF0FF32C4
:1045C000594B02F02BFD90B9304649464FF0FF326F
:1045D000554B02F005FD50B92B6854495B682846DD
:1045E000032298478046404605B0BDE8F0834FF06F
:1045F00060424F4B3046394602F006FD002872D12A
:104600004FF060424B4B3046394602F0DFFC002849
:1046100069D1002200233046394602F0D7FC002839
:1046200064D18146002C67D0434900204FF0000838
:104630003BA3D3E9002308F1010802F055FA5FFA21
:1046400088F39C42F4D802460B463046394602F0C5
:1046500099F80F46064602F0F7FC804602F0CEF9C4
:1046600002460B463046394602F08AF84B4606466B
:104670000F460A2241462846FFF748FF0F2C28BF65
:104680000F2404F101092E2380465FFA89F98DF881
:10469000003001240022294B3046394602F024FA2A
:1046A0000F46064602F0D0FC04AB2344C0B200F132
:1046B000300203F8102C02F0B1F902460B463046E6
:1046C000394602F05DF80134E4B24C4506460F4627
:1046D000E0D12B6822465B682846694698474046E9
:1046E00005B0BDE8F0832B68154977E707F1004373
:1046F0001F464FF0010995E700220F4B304639461F
:1047000002F040F802F0A0FC4B4601460A2228467F
:10471000FFF7FCFE804666E72B680A495EE700BFAC
:10472000000000A09999B93FFFFFEF7FD87E0000FD
:10473000FFFFEF41FFFFEFC10000E03F000024401A
:10474000D47E0000D07E000008B5FBF7D7FEFBF753
:1047500077FF00F019F8FAE702F01ABD02F020BD69
:10476000FFF710BCFFF7E8BBFFF7C2BBFFF7FCBBCE
:10477000FFF7D8BCFFF7B2BC08461146FFF71EBCD6
:104780000846FFF79FBC00BF2DE9F843314E337850
:1047900093B1314F3A787AB90122D9073A7036D4B9
:1047A0009A0719D400225B073A7005D52B4B1A687B
:1047B00012B1EFF305820AB1BDE8F883EFF310817F
:1047C00072B6186818B1264C2278002A2ED000291B
:1047D000F2D162B6BDE8F883DFF8908098F8002047
:1047E000002ADFD0DFF88890002405E0013498F833
:1047F0000030E4B2A34212D959F824502B6828465D
:104800001B6998470028F1D02B699847EEE7FFF71E
:10481000ABFBC8B9134B1B781BB93378C0E73378AF
:10482000C0E7337803F0FE033370B9E745691D60D4
:10483000012323705DB1AA6101B962B600254577F5
:10484000836898472570B7E700F07CF8E2E7064BED
:104850001D60F1E71822FF1F0D33FF1F0833FF1FF4
:104860000C33FF1FBE22FF1F0433FF1F2833FF1F1F
:104870001033FF1FF0B44D1E2E46002400E001341B
:10488000B0FBF2F302FB1300092800F130078ABFE6
:104890003730F8B2C0B206F8010F1846002BEED13F
:1048A0000A1953704CB1107815F8016F2870013354
:1048B000E01A834202F80169F5DB0846F0BC704754
:1048C00010B584B072B6FEF7ABFA184A184B194906
:1048D0001160702280211A701A46197013781B0615
:1048E000FCD5154B1C68FEF7B5FA62B6134B9C421B
:1048F0009CBF04EB840464002046114C01A90A22E9
:10490000FFF7B8FF01A92046002311F8012B01335E
:104910003AB10A2B20F8022FF7D11623237004B0E6
:1049200010BD5B00DBB2237004B010BD0400024078
:1049300000000240000007410C0002407F969800F2
:10494000A822FF1F704700BF38B51D4604460B0163
:1049500001608260002128461A4602F0E1FE65608F
:1049600038BD00BF2DE9F00F4FEA930B84B04568C6
:104970008468006892464FEA0B1202920190084642
:10498000029903F003020AEB010305F1100705F198
:10499000040905F1080805F10C0C039394ED004A95
:1049A000D4ED013AD4ED024A94ED035AD4ED045A01
:1049B00017ED043A1434D9ED001AD8ED007A9CEDC5
:1049C000007ABBF1000F00F0AC805D465146034613
:1049D00093ED002A23EE836A04EE026A04EEA16AD4
:1049E00005EE276A05EE876A63EE826A81ED006A4A
:1049F000D3ED012A44EE226A44EE836A45EE066A4C
:104A000045EEA76A23EEA27AC1ED016AD3ED021A40
:104A100004EE217A04EE827A05EE267A05EE867A95
:104A200063EEA17A81ED027A93ED033A44EE037AC4
:104A300044EEA27A45EE077A45EEA67A1033C1ED30
:104A4000037A1031013DC3D1029B039DC018002A97
:104A50004ED0531ED907164630D5B0EC011A63EE7E
:104A6000836A44EE016A44EEA16A45EE276A45EE88
:104A7000876AF0EE431AB0EE677AE5EC016A1E46EB
:104A8000F0EE667AB0EE413A18E0D0ED010A23EE7E
:104A9000A20A04EE200A04EE830A05EE260A05EEB9
:104AA000A70AB0EE667A85ED010AF0EE407AF0EEE4
:104AB000621AB0EE603A081D1D1D013E0146F1EC80
:104AC000012A63EE836A44EE226A44EEA16A45EE4F
:104AD000276A45EE876A2B46013EE3EC016AD4D192
:104AE000B0EE677AF0EE431AF0EE667AB0EE623A14
:104AF00011EE900A07ED043A17EE901A49F8100BE0
:104B0000019848F8101B17EE103A1037411E4CF868
:104B1000103B019101D0504640E704B0BDE8F00FD2
:104B20007047554693E700BFF0B49708DFED537A1E
:104B300077D090ED002AD1ED002A42EE227A90ED56
:104B4000011AD1ED011A41EE217A90ED020AD1ED60
:104B5000020A40EE207A7C1ED0ED036A91ED037AC2
:104B6000264604F0010C46EE877A00F1100501F1AB
:104B70001004002E52D0BCF1000F1BD095ED003A6E
:104B8000D4ED003A43EE237A95ED012AD4ED012AC3
:104B900042EE227A95ED021AD4ED021A41EE217A04
:104BA000D5ED030A94ED037A10351034013E40EE42
:104BB000877A33D094ED003AD5ED002A42EE837A1D
:104BC000D5ED011A94ED012A41EE827AD5ED020A63
:104BD00094ED021A40EE817A95ED030A94ED037A82
:104BE00040EE077A95ED046AD4ED046A46EE267A23
:104BF00095ED055AD4ED055A45EE257A95ED064A10
:104C0000D4ED064A44EE247A95ED073AD4ED073AFE
:104C100020352034023E43EE237ACBD13F01C01928
:104C2000C91912F0030225D0013AF0EC013AB1ECB7
:104C3000014A144643EE847A02F00102D4B13AB13B
:104C4000F0EC016AB1EC010A013C46EE807A11D029
:104C500005460A46F5EC015AB2EC016A45EE867A41
:104C6000D0ED014A91ED015A281D111D023C44EE80
:104C7000857AEDD1C3ED007AF0BC704700000000EA
:104C80002DE9F0432DED028B8BB055EC104B00F06D
:104C9000D7FA3B4BB0EE408AF0EE608A93F90060A1
:104CA000731C0ED022462B462046294602F0B6F948
:104CB000074630B9002200232046294602F090F929
:104CC00040B9B0EE480AF0EE680A0BB0BDEC028BBA
:104CD000BDE8F0832B4B0897CDE90245CDE90445AB
:104CE0000193DEB9284F4FF0604620462946002246
:104CF0000023CDE9066702F05FF9002837D00223D0
:104D00000093684601F0FAF9C8B1089BE3B99DED3C
:104D1000060B0BB0BDEC028BBDE8F083DFF87090A2
:104D20004FF000082046294600220023CDE90689DD
:104D300002F042F968B102239E420093E1D102F0F1
:104D4000F9F922230360E0E702F0F4F9089B03601D
:104D5000DDE70123022E00930BD102F0EBF92123B2
:104D600003600A4801F0CCF98DED060BCDE7012375
:104D70000093684601F0C2F90028F2D1EDE700BFC8
:104D8000BF22FF1F5C7F0000FFFFEFC7A47B000076
:104D90000000F0FFFFFFFFFF2DE9F04F2DED028B2C
:104DA000DFF824A38BB057EC106B55EC114B00F0DF
:104DB000EBFA9AF90080B0EE408AF0EE608AB8F122
:104DC000FF3F48D022462B462046294602F026F9CE
:104DD000834600283FD132463B463046394602F0F2
:104DE0001DF98146002840F0908030463946002267
:104DF000002302F0E1F8002836D0002200232046EC
:104E0000294602F0D9F88346B8B19FEDA57B01226F
:104E1000A94BCDF820900092CDE90267CDE9044579
:104E20008DED067B0193B8F1000F5BD09FED9E0BDB
:104E30000BB0BDEC028BBDE8F08F45EC104B01F0E0
:104E400055F940B1002200232046294602F0BEF861
:104E5000002840F0C580B0EE480AF0EE680A0BB0BA
:104E6000BDEC028BBDE8F08FB0EE480AF0EE680AA8
:104E700001F03CF98046002861D04FF000084FF067
:104E8000000951EC180B42464B4602F095F80028F9
:104E9000E1D047EC106B01F029F90028DBD045EC9C
:104EA000104B01F023F90028D5D09AF90030824A3E
:104EB000019204210022022BCDE90267CDE90445CD
:104EC000CDE906890091089203D0684601F016F9F1
:104ED00070B902F02FF92223036009E09FED707B87
:104EE0008DED067B684601F009F9002800F08E8000
:104EF000089B1BB102F01EF9089B03609DED060B99
:104F00000BB0BDEC028BBDE8F08F002200232046E1
:104F1000294602F051F800289DD09FED630B664BA7
:104F2000CDF820B00122B8F1020FCDE90267CDE93A
:104F300004458DED060B8DE80C00D3D18FE747ECCF
:104F4000106B01F0D3F8002897D045EC104B01F01E
:104F5000CDF8002891D053EC182B18EE100A194602
:104F600002F05CF800287CD103239AF900800093BA
:104F7000514B0890CDE90267CDE904450193B8F1A2
:104F8000000F48D1DFF844914FF060480022002321
:104F900030463946CDE9068902F018F8002894D049
:104FA0000022464B2046294601F09EFD04460D4650
:104FB00045EC104B01F0ACF8204653EC102B294681
:104FC00001F0FAFF002849D13D4B9AF900804FF0DB
:104FD0006042CDE90623B8F1020F7FF476AF78E79F
:104FE000354A9AF90030CDF820B00121CDE90267A9
:104FF000CDE904458DE80600002B3FF46FAF314941
:105000000020022BCDE906017FF46CAF02F092F88C
:10501000212303606CE79FED267B002200233046AE
:1050200039468DED067B01F0D1FF0028D3D0002258
:10503000224B2046294601F057FD04460D4645EC1B
:10504000104B01F065F8204653EC102B294601F077
:10505000B3FF18B91B4B0022CDE906239AF9008053
:10506000B9E7154B9AF90090CDF820800122CDE9DF
:105070000267CDE904458DE80C00B9F1000F3FF45B
:105080002DAF002200231046194601F057FEB9F15A
:10509000020FCDE90601B9D024E700BFAFF30080CD
:1050A0000000000000000000000000000000F03FD1
:1050B000000000000000F07F647F00000000E03F7F
:1050C000FFFFEFC70000F0FFBF22FF1FFFFFEF470A
:1050D0002DE9F0432DED028B8BB055EC104B00F019
:1050E000DBFE294BB0EE408AF0EE608A93F9006057
:1050F000731C12D022462B462046294601F08EFF13
:10510000074650B94FF000084FF0000920462946E5
:1051100042464B4601F05AFF40B9B0EE480AF0EE65
:10512000680A0BB0BDEC028BBDE8F083174B089703
:105130000122CDE90445CDE902458DE80C00B6B168
:1051400042464B464046494601F0F8FD022ECDE965
:1051500006010ED101F0EEFF21230360089B73B915
:105160009DED060B0BB0BDEC028BBDE8F083CDE9E5
:105170000689684600F0C2FF0028EFD1EAE701F097
:10518000D9FF089B0360EBE7BF22FF1F687F000089
:1051900010B52DED028B8AB0B0EE408A00F04CFFC6
:1051A000244B93F90040631C09D0B4EE488AF1EE19
:1051B00010FA04D6B5EEC08AF1EE10FA03D40AB0A4
:1051C000BDEC028B10BD01231B4A009318EE100AA0
:1051D00000230192089301F033FC0022CDE9040181
:1051E000CDE902010023BCB11046194601F0A6FD2D
:1051F000022CCDE9060111D101F09CFF21230360AF
:10520000089B8BB9DDE9060101F03EFF00EE100AB4
:105210000AB0BDEC028B10BDCDE90623684600F054
:105220006DFF0028ECD1E7E701F084FF089B0360E5
:10523000E8E700BFBF22FF1F707F0000FFFFFFFFF6
:105240002DE9F04355EC104BB5F5801F83B02B468C
:1052500021DA10EE102A25F000410A4364D0002D17
:105260006DDB29460022444B10EE100A01F03CFC95
:105270000B460D4641498B4204466FF035020FDD67
:1052800022462B462046294601F07CFA41EC100BC1
:1052900003B0BDE8F08339498B424FF00002EFDCE8
:1052A0001815A0F2FF3010444FEAD0794844C3F3F8
:1052B000130801F0B3FBC9F57F73033348EA0355C4
:1052C00045EC104B06460F4601F03EF83046394695
:1052D00023A3D3E900238DED000B01F005FC9DED28
:1052E000000B04460D4620A3D3E9002351EC100B1C
:1052F00001F0FAFB02460B462046294601F042FA2D
:105300001BA3D3E9002304460D463046394601F07D
:10531000EBFB02460B462046294601F033FA41ECEE
:10532000100B03B0BDE8F0830022002300201449D5
:1053300001F004FD41EC100B03B0BDE8F08310EE6A
:10534000102A2B462046294601F01AFA0022002393
:1053500001F0F4FC41EC100B9AE700BFAFF30080C2
:10536000362BF111F3FE593D0EE526157BCBDB3FC5
:1053700000609F501344D33F00005043FFFFEF7F76
:10538000000050C3FFFFFFFF2DE9F04F51EC110B60
:1053900021F0004858EA000493B03CD053EC102BA5
:1053A0006D4E23F00044B44210EE10AA1D462BDCD3
:1053B000894611EE10EA26D0B04525DC664EB04590
:1053C00077D0002D16461F46CDE9000175DB4FF062
:1053D000000BBEF1000F2DD15F4B984500F0898086
:1053E0005E4B98455ED0B9F1804F00F0DE835C4B98
:1053F00099451FD1002D1DDB47EC106B13B0BDE8A4
:10540000F04F00F049BD5AB104F1404404F5801456
:1054100054EA0A0306D19FED4A0B13B0BDE8F08FA2
:10542000A045CBDD4F4813B0BDE8F04F00F068BE9B
:105430004FF0000B47EC106B00F050FE51EC100BDE
:10544000BAF1000F1ED0ED0F05F1FF3A5BEA0A0337
:1054500063D0454B984540F38D8003F10473984524
:1054600040F33884414B9C4262DDB9F1000F62DDAC
:1054700035A3D3E900231046194601F035FB41EC72
:10548000100BCAE724B1354B25F040429A42DAD1DD
:10549000B9F1000FC0F2CB83002DC0F2748341EC50
:1054A000100BBAE7B9F1000FC0F27A8447EC106B29
:1054B000B3E7BEF1000F84D0A6E72D4B984529DC59
:1054C000A3F15473984582DD4FEA2853A3F2FF33CA
:1054D000142B40F37F84C3F134032EFA03F202FA53
:1054E00003F39E457FF473AF02F00102C2F1020B99
:1054F0006FE704F1404303F5801353EA0A038AD0AF
:105500001A4B9C4240F38583B9F1000F13DB9DEDEC
:10551000000B82E74FF0020B5BE732463B4610463A
:10552000194601F02DF902460B4601F007FCB6E7DB
:10553000B9F1000F9CDB9FED060B6EE7AFF3008027
:10554000000000000000F03F9C7500883CE4377EBE
:1055500000000000000000000000F07F0000F03FAD
:105560000000E03FA47B00000000E041FFFFEF3FB0
:10557000FFFF3F43B4F5801F4FF0000205DAD64B22
:1055800001F0B2FA6FF034020C462315D34EC4F387
:105590001304A3F2FF33134444F07F55B4421A4678
:1055A0000D9345F4401540F34983CD4B9C4240F3A5
:1055B0002D849FEDB37B8DED087B8DED0E7B9FEDF4
:1055C000B27B13468DED067B01330D93A5F5801557
:1055D0004FF00008DDE906232946CDE90A0101F074
:1055E000CFF8DDE9062306460F46DDE90A0101F0A2
:1055F000C9F802460B460020BA4901F09FFB03465A
:105600000C46CDE9103402460B463046394601F0CF
:105610006BFA6B1043F0005303F5002303EB08050E
:105620000A4600230146CDE902120293DDE9028910
:105630000024CDE904122B4622464046494601F09B
:1056400053FA02460B463046394601F099F8DDE937
:10565000062306460F462046294601F091F80246E9
:105660000B46DDE90A0101F08BF842464B4601F09A
:105670003BFA02460B463046394601F081F8DDE937
:10568000102301F031FADDE90445CDE90601224697
:105690002B462046294601F027FA7DA3D3E90023B3
:1056A00004460D4601F020FA7BA3D3E9002301F064
:1056B00069F822462B4601F017FA79A3D3E90023B3
:1056C00001F060F822462B4601F00EFA76A3D3E9EA
:1056D000002301F057F822462B4601F005FA74A387
:1056E000D3E9002301F04EF822462B4601F0FCF9E5
:1056F00071A3D3E9002301F045F8224606460F4680
:105700002B462046294601F0EFF902460B4630466B
:10571000394601F0E9F9424604460D464B46DDE9BB
:10572000040101F02FF8DDE9062301F0DDF922463E
:105730002B4601F027F8424606460F464B464046A8
:10574000494601F0D1F90022674BCDE90A0101F089
:1057500019F832463B4601F015F802980D4604460A
:1057600022462B464046494601F0BEF900228046BB
:1057700089465D4B2046294601F002F8DDE90A23FF
:1057800000F0FEFF02460B463046394600F0F8FFB7
:10579000DDE9042301F0A8F9224606460F462B4610
:1057A000DDE9060101F0A0F902460B463046394614
:1057B00000F0E8FF06460F4602460B4640464946C3
:1057C000CDE9048900F0DEFF02983DA3D3E9002370
:1057D00004460D4601F088F9DDE904238046894638
:1057E0002046294600F0CCFF02460B46304639469B
:1057F00000F0C6FF34A3D3E9002301F075F934A308
:10580000D3E9002306460F462046294601F06CF9ED
:1058100002460B463046394600F0B4FFDDE90E2360
:1058200000F0B0FF06460D980F4601F0F7F832463B
:1058300004460D463B464046494600F0A3FFDDE9DD
:10584000082300F09FFF22462B4600F09BFF0298A2
:1058500022462B46CDE9020100F092FFDDE9082344
:1058600000F08EFF42464B4600F08AFF02460B4690
:105870003046394600F084FF8046894636E000BF56
:105880000000000000000000000000000000F03FE9
:10589000EF4E454A287ECA3F65DBC9934A86CD3F15
:1058A00001411DA96074D13F4D268F515555D53FFB
:1058B000FFAB6FDBB66DDB3F033333333333E33F93
:1058C000000000E009C7EE3FFD033ADC09C7EE3FE8
:1058D000F5015B14E02F3EBE000040438E980300AC
:1058E00079B60B000000F03F000008400BF1FF33D9
:1058F00053EA0A0300F088819FEDD77B8DED067B8C
:10590000DDE900AB53465C46CDE90034002300934B
:10591000DDE90045504622462B46594600F030FF4F
:10592000DDE9022301F0E0F8524606460F465B46E9
:105930004046494601F0D8F802460B463046394603
:1059400000F020FF2246804689462B46DDE9020111
:10595000CDE9048901F0C8F80B46024606460F4619
:105960004046494600F00EFFD54B994204460D468D
:105970008A4640F3238101F13F4303F5E0030343EB
:1059800040F01882B6A3D3E90023DDE9040100F05A
:10599000F9FE3246804689463B462046294600F0BD
:1059A000EFFE02460B464046494601F02DFB00281B
:1059B00040F00082A8464FEA28534FF48012A3F229
:1059C000FE3342FA03F35344C3F30A52BD4DA2F22D
:1059D000FF321541C3F3130B0020C2F1140423EA74
:1059E00005014BF4801BBAF1000F02460B464BFA3F
:1059F00004FB30463946B8BFCBF1000B00F0C0FEC7
:105A000002460B4606460F46DDE9040100F0BAFEE9
:105A10004FEA0B5A002494A3D3E9002320460D46F5
:105A200001F062F83246804689463B4620462946C8
:105A300000F0A6FE02460B46DDE9040100F0A0FEE0
:105A40008BA3D3E9002301F04FF88BA3D3E9002304
:105A500006460F462046294601F046F802460B4608
:105A60003046394600F08EFE06460F4602460B468B
:105A70004046494600F086FE42464B4604460D46E7
:105A800000F07EFE02460B463046394600F078FEB6
:105A90002246804689462B462046294601F024F8B6
:105AA00077A3D3E9002306460F4601F01DF876A33D
:105AB000D3E9002300F064FE32463B4601F014F8BF
:105AC00073A3D3E9002300F05DFE32463B4601F0AC
:105AD0000BF871A3D3E9002300F052FE32463B4697
