:0200000460009A
:100000004643464200000156000000000103030081
:1000100000000000000000000000000000000000E0
:1000200000000000000000000000000000000000D0
:1000300000000000000000000000000000000000C0
:1000400000000000010408000000000000000000A3
:100050000000200000000000000000000000000080
:100060000000000000000000000000000000000090
:100070000000000000000000000000000000000080
:10008000EB04180A063204260000000000000000FD
:10009000050404240000000000000000000000002F
:1000A0000000000000000000000000000000000050
:1000B0000604000000000000000000000000000036
:1000C0000000000000000000000000000000000030
:1000D00020041808000000000000000000000000DC
:1000E0000000000000000000000000000000000010
:1000F0000000000000000000000000000000000000
:10010000D8041808000000000000000000000000F3
:100110000204180804200000000000000000000095
:1001200000000000000000000000000000000000CF
:10013000600400000000000000000000000000005B
:1001400000000000000000000000000000000000AF
:10015000000000000000000000000000000000009F
:10016000000000000000000000000000000000008F
:10017000000000000000000000000000000000007F
:10018000000000000000000000000000000000006F
:10019000000000000000000000000000000000005F
:1001A000000000000000000000000000000000004F
:1001B000000000000000000000000000000000003F
:1001C000000100000010000001000000000000001D
:1001D000000001000000000000000000000000001E
:1001E000000000000000000000000000000000000F
:1001F00000000000000000000000000000000000FF
:10020000FFFFFFFFFFFFFFFFFFFFFFFFFFFFFFFFFE
:10021000FFFFFFFFFFFFFFFFFFFFFFFFFFFFFFFFEE
:10100000D10020432914006000000000000000000F
:10101000201000600010006000300160000000003F
:1010200000000060003C010000000000FFFFFFFF27
:10103000FFFFFFFFFFFFFFFFFFFFFFFFFFFFFFFFC0
:10104000FFFFFFFFFFFFFFFFFFFFFFFFFFFFFFFFB0
:10105000FFFFFFFFFFFFFFFFFFFFFFFFFFFFFFFFA0
:10106000FFFFFFFFFFFFFFFFFFFFFFFFFFFFFFFF90
:10140000884207D0904205D251F8043B40F8043B93
:101410008242F9D8704700BF884204D2002340F8C6
:10142000043B8142FBD87047654B4FF42A01654A63
:1014300065482DE9F0475A641864644A99639546F3
:10144000BFF34F8FBFF36F8F00F068F9604B082038
:10145000604A6149C3F854016048FFF7D1FF604A10
:1014600060496148FFF7CCFF60496148FFF7D4FF4E
:10147000604C61494FF470000023604A086044F8F2
:1014800023200133B02BFAD15D4B80215D4A03F854
:10149000011B9342FBD14E4D4FF080385A494FF01B
:1014A000FF325A4B0026DFF8A0A1DFF8A0911C60A4
:1014B000C5F80481C5F800A1C5F8F480C5F8F0901E
:1014C0000B68534F43F4E0230B60FB693C4923F066
:1014D0007F0343F04003FB617B6A23F07F0343F00B
:1014E00040037B628A66CA660A674A6700F01CF995
:1014F000484A494B6320A2630321E363474A484BB0
:10150000106000F160401E6042F8041C00F6A170FB
:101510004449454AC3F8082D0B68444A43F0807398
:101520000B601368424943F00103136003680B60CA
:1015300000F06CF9C5F804813E48C5F800A1C5F873
:10154000F480C5F8F09000F0F3FAF96E3A4A41F4ED
:1015500040513A4BF9661660C2F80861C2F818614A
:10156000C2F82861C2F838619A6BD20708D442F6F3
:101570001562334959651A659A6B42F001029A6304
:101580002E4A304C936843F00113936000F09EFAAA
:1015900000F0DEFA00F06CF900F0C2F82368132BBB
:1015A000FCD900F0F3F92368B3F5967FFBD300F084
:1015B000B9F800F0C9FA00F0C3FA30BFFDE700BF88
:1015C00000C00A40AFAAAAAA070020000000072016
:1015D00000800D40F8F30000E81E006000000000ED
:1015E000C01A0020E412016000000020A02E00209C
:1015F000C01A00200018002088ED00E07DB1000036
:1016000000E400E0A0E400E024ED00E008ED00E0EC
:1016100000C00F4091A7000095A7000014E000E073
:1016200018E000E0FCED00E000002020001000E0E9
:10163000902D00200046C3230040084000400D408C
:101640000000C056942D00201B1018200C0D111303
:1016500010B41BB9134B1B6F9B0420D400F03F0048
:10166000104B22F0604221F0604140F489101C468A
:101670001867C3F88010C3F890201A6F22F48052C4
:101680001A67236F074A002BFBDAD2F87011064B5A
:101690000B40C2F87031136F23F4803313675DF889
:1016A000044B704700800D40FF7F7FFFB1F5607FE6
:1016B000F0B428BF4FF4607172B60025134B144F7D
:1016C000144E2C4603F170023860358043F8044F05
:1016D0009342FBD1B9B100230F4E01275D0903F0FE
:1016E0001F04013356F8252007FA04F48B4242EA1E
:1016F000040246F82520F1D100234380013300F590
:1017000082708B42F9D162B6F0BC70474428002049
:1017100040280020D02D002048280020704700BF1E
:10172000704700BF704700BFF0B5244A0020244B2B
:101730004FF0100C234C1126DFF8C8E01227206070
:101740000125C2F800C0C3F800E01660DFF8B8E079
:101750001D4EC3F800E01D4917601E6041F01501E1
:101760001B4F1C4E17601E601B4F1C4E17601E60E7
:101770001B4F11601B4E1C491F6016601B4F1960E8
:101780001B4E1C4917601E601B4F11601B4E1C49ED
:101790001F60166019602560BFF34F8FBFF36F8F16
:1017A000C3F8B001BFF34F8FBFF36F8F52F8883C7F
:1017B00043F4403342F8883CF0BD00BF9CED00E0AC
:1017C000A0ED00E094ED00E009001000A02E002044
:1017D0001300200021000207140000202500081338
:1017E000090000101600202027000B1317000040EE
:1017F00033001013180000602F000B071900007051
:101800002F000B133F00001025000803F0B4174A07
:1018100040274FF480314FF480564FF400554FF479
:10182000404443F24200136913F0020F06D0946162
:1018300051619061136913F0020FF8D113F4005F46
:1018400001D15561EFE713F4805F01D15661EAE7FA
:10185000002BE8DA13F4803F01D09161E3E75B06E7
:1018600001D45761DFE7F0BC704700BF00800D4036
:10187000394A03203949F3EE095A13689FED386A53
:1018800023F00103DFED376AF0B413600024106128
:10189000D1F8E030344FD8B2C3F30B211B0D334ED7
:1018A00007EE100A05EE101A07EE903A304BB8EE2C
:1018B000C55A304DB8EEC77A3060F8EEE77A296045
:1018C0002D4937EE466A2D4E77EEC57A2C4877EED5
:1018D000666A2C4D37EE657A26EE276AC7ED007AE8
:1018E00066EEA76A176867EE277A83ED007AC6EE80
:1018F000075A86EE876AC7EE876A35EE857AFCEE70
:10190000C77A36EE057A17EE903ABCEEC77A47EA08
:10191000035376EE857A136017EE103AD2F8107101
:10192000FCEEE77A01EA0341394317EE903AC2F838
:101930001011C3F30B03D2F810110B43C2F810318E
:10194000136843F0020313603470C0F840510E4B2B
:101950000122F0BC1A60704780810D4000441F4096
:101960000000AA420000B442882D0020802D0020F3
:10197000842D00207C2D00200000FF0F40E400E0BB
:101980000018002041B3000008E100E0304B40F6B1
:10199000617270B5C3F8202140F2044500F0DCF814
:1019A0002C492D48D1F880202C4C42F003022C4BBE
:1019B000C1F88020C0F86051226813401BB9D0F8EC
:1019C000A8319A071AD0244B4FF00041234A5163A3
:1019D0001A46D3F8401141F00201C3F84011D2F881
:1019E00040319B07FBD44FF400301E491B4B4FF096
:1019F0000042086019209A6300F0B2F81A4D0022E4
:101A0000164B4FF08041144C0A26996328461A6001
:101A10001146C4F8A8614FF4607200F08DF84FF4DD
:101A2000810640F243114FF48000104B104A2E60A3
:101A30002864C4F85851C4F84811C3F804220D4A68
:101A40004FF4003101231160C4F8403170BD00BF74
:101A500000800D4000C00F4000002E4000900D405F
:101A6000001C1E008CE200E0000000200018002096
:101A7000B5B500000CE100E008B50E4B1B6E9B07EE
:101A800000D4FBBE72B60C4B00200C4AC3F84001D8
:101A900003F160430A49A3F55F2311649D46BFF338
:101AA0004F8F084A03F5E04307491268184619604A
:101AB0009368984700441F4000002E4000C00A4031
:101AC000030020001C002000000012EB114B124903
:101AD000D86E0A4640F4403030B4D86640F23765DC
:101AE000D86EA02440F44070D8664D648C64936C2A
:101AF0001B06FCD4094B40F23760A0211A465864FB
:101B00009964936C13F08003FBD1054A137030BCC9
:101B1000704700BF00C00F4000400C4000800C40E8
:101B2000FE2D0020F8B500BFF8BC08BC9E467047EB
:101B30005FF800F001A800005FF800F069EE000017
:101B40005FF800F0F5AC00005FF800F025E8000059
:101B50005FF800F095AE00005FF800F019C60000D5
:101B60005FF800F0C5AA000045000000190600005B
:101B70003D0C0000550C00006D0C0000850C0000B1
:101B80009D0C0000B50C0000CD0C0000E50C000021
:101B9000FD0C0000150D00002D0D0000450D00008E
:101BA0005D0D0000750D00008D0D0000A50D0000FD
:101BB000BD0D0000D50D0000ED0D0000050E00006C
:101BC000390E0000690E0000810E0000990E000021
:101BD000B10E0000C90E0000D92200007D91000066
:0C1BE0006D920000F594000025A00000AC
:101BEC0024035400650065006E007300790020002A
:101BFC004D004900440049002F004100750064006D
:101C0C0069006F0018035400650065006E007300D6
:101C1C0079006400750069006E006F00040309040C
:101C2C0009025501060100C032080B000202020134
:101C3C000009040000010202010005240010010546
:101C4C002401010104240206052406000107058273
:101C5C000310001009040100020A0000000705032C
:101C6C000240000007058302400000090402000244
:101C7C0001030000072401000125000624020101D4
:101C8C0000062402020200092403010301020100E0
:101C9C0009240302040101010009050402400000AB
:101CAC000000052501010109058402400000000027
:101CBC000525010103080B030301010000090403BE
:101CCC000000010100000A240100013E000204058D
:101CDC000C24020102060002030000000924030286
:101CEC0001010001000C24020301010002030000A9
:101CFC00000A240631030101020200092403040234
:101D0C00060031000904040000010200000904046B
:101D1C00010101020000072401020301000B24024F
:101D2C00010202100144AC0009058509B400010050
:101D3C000007250100000000090405000001020055
:101D4C00000904050102010200000724010303013C
:101D5C00000B2402010202100144AC000905050528
:101D6C00B40001008607250100000000090586115A
:101D7C00030001050000000009025501060100C026
:101D8C0032080B00020202010009040000010202E9
:101D9C0001000524001001052401010104240206A0
:101DAC000524060001070582031000050904010043
:101DBC00020A000000070503020002000705830267
:101DCC0000020009040200020103000007240100C4
:101DDC00012500062402010100062402020200096A
:101DEC00240301030102010009240302040101017F
:101DFC00000905040200020000000525010101098B
:101E0C0005840200020000000525010103080B03F4
:101E1C0003010100000904030000010100000A2471
:101E2C000100013E000204050C240201020600021E
:101E3C00030000000924030201010001000C24022C
:101E4C000301010002030000000A24063103010112
:101E5C0002020009240304020600310009040400F4
:101E6C000001020000090404010101020000072422
:101E7C0001020301000B2402010202100144AC0018
:101E8C0009058509B40004000007250100000000C5
:101E9C000904050000010200000904050102010209
:101EAC000000072401030301000B240201020210AD
:101EBC000144AC0009050505B400040086072501A2
:101ECC000000000009058611040004070000000052
:0C1EDC000A060002EF02014001000100B4
:101EE80000000000000000000000000000000000EA
:101EF80000000000000000000000000000000000DA
:101F080010B5054C237833B9044B13B10448AFF32B
:101F180000800123237010BD181F0020000000005E
:101F2800F4F30000084B10B51BB108490848AFF39B
:101F380000800848036803B910BD074B002BFBD08D
:101F4800BDE81040184700BF000000001C1F00201B
:101F5800F4F30000C01A00200000000070B5002152
:101F680082B0054608F0C8FEA0B304460AF0F0F8AF
:101F7800064648B3D4F80832002B1DDD581CB11CA6
:101F8800231D9FED197A04EB8000DFED186AF3EC4E
:101F9800017A47F6A67267EE877AF4EEC77AF1EE11
:101FA80010FA05D5F4EEE67A114AF1EE10FA13DAD2
:101FB800834221F8022FEAD12846002231460AF04E
:101FC80045F930460AF018F9204602B0BDE87040DD
:101FD80008F054BE02B070BDFDEEE77ACDED017A8F
:101FE800BDF90420E4E700BF004CFF46004CFFC6E3
:101FF8005A80FFFFF0B5002600F12405DFF86CE0F9
:1020080001272C4605613346C0F800E03546477283
:102018000672C66000E0046944F823500133447A2C
:102028009C42F8DC0F4B1C680CB918E01C4663692D
:10203800002BFBD1606100230B4C017602624361E7
:102048008380C3808372C361046039B11C4600E099
:10205800026A42F8234001338B42F9D1F0BD18607F
:10206800E9E700BF442800204C06002010060020A5
:10207800F8B504461F4A0020012704F12405226010
:10208800034604F128062A46014667722561207234
:10209800E06000E0226942F823100133627A9A4234
:1020A800F8DC154B1A680AB922E01A465369002B66
:1020B800FBD15461002301252046104F6361194666
:1020C800A3805022E380A372E361A362266225768F
:1020D80040F82C7B0EF038FE4FF07E53084A20461D
:1020E800C4F88050E36223646365A366E267F8BDC1
:1020F8001C60DFE71006002044280020600700204D
:1021080000442C472DE9F0473F4D40F2EE283F4C64
:102118002E683F4FDFF8589104E0B3F5FA6F15D8F1
:102128000CF0FEFE0CF0FCFE237843B13B78DB0795
:1021380005D52B68D9F800209B1A0E2B06D82B68DA
:1021480022789B1B002AE8D14345E9D9314C4FF44A
:10215800FA700AF027FC552120462F4E09F02EF977
:102168002E4A2F4B4FF4FA70E261402523620AF0A1
:1021780019FC0A212B480FF0A7F8202008F026FDAB
:1021880029482A4900F12C02294B2A4C0663012AC6
:102198008163C3632849294B4464294F294E2A4C3B
:1021A800C7640665C0F88020C16241630364836424
:1021B800256005D900F19003042184300CF02AFF32
:1021C80022480021224C00F12C02224B224F234EA0
:1021D800012A234DC4620163224C23494363234BE4
:1021E8008763C6634564C4640165C0F880200364DE
:1021F800836407D900F1900304218430BDE8F047D7
:102208000CF008BFBDE8F087942D0020112E0020A7
:10221800102E0020DC250020283A073F990B0000EB
:10222800F907000000002020A42B00207CA1F6BEA6
:10223800DCB8D93E6B99A03F283A873E6B99203F7E
:10224800608CA0BFD99982BE88E100E0D42A002022
:1022580014FFB03E14FFB0BEF4FC9C3FD8019EBEF4
:1022680035CAFEBF30CAFE3F75947DBF35CA7E3F72
:102278006C2E0020000000002DE9F843884C8948A6
:1022880023782DED028B002B00F0AA80836B002BA6
:1022980040F0BD80844C23682A2B40F29D808349FE
:1022A8000A88013292B2022A00F0D7800A80DFF849
:1022B800288207EE903A98ED005BB8EE677B85EED2
:1022C800076BB1EEC60BB4EE400BF1EE10FA40F01E
:1022D800DA80B5EE400BF1EE10FA00F0B680744BE0
:1022E80083ED000B0CF0BAFFB3EE046B714E724B2A
:1022F80096ED007A9FED661BB5EE407AA0EE061BC0
:10230800F1EE10FA83ED001B00F09A80B7EEC77A61
:10231800B4EEC71BF1EE10FA00F19280674D95ED0F
:10232800007AB5EE407AF1EE10FA00F08480B7EE4C
:10233800C77AB4EEC71BF1EE10FA7CDCB2EE048B60
:10234800DFF8A8915E4F81EE081BB0EE480B0CF049
:10235800FBFFD9F800305B4A013397ED007B06EEAE
:10236800903AC9F8003030EE077BB8EE666B82ED24
:10237800000B87EE060B87ED007B0CF06FFF20EE5D
:10238800080B514A0023DFF868C10020002192F8A9
:1023980000E023608CED000BC8E90001BEF1000FDE
:1023A8001AD01370B7EEC00BD6F800E00124474AE4
:1023B800C9F80030C2F800E0454BD5F800E0DFF876
:1023C80034C1444AC3F800E000238CED000A1480AD
:1023D80033602B60C7E90001BDEC028BBDE8F883D0
:1023E800836B002B3FF456AF08F0FEFC3A4AB7EE79
:1023F800C00A2D4C3949236892ED007B0133A0EEC9
:10240800007B236081ED000B82ED007B44E708F040
:10241800EBFC334AB7EEC00A3049138801339BB24C
:10242800C72B138081ED000BD6D90023BDEC028B9E
:102438002370BDE8F883F7EEC17BC5ED007A7DE730
:10244800F7EEC17BC6ED007A68E79FED137B184B6A
:10245800B0EE470B83ED007B44E7224B002218784F
:102468000A8040B901222048114600781A700AF003
:1024780065FB23681BE71C4811461A7000780AF0B0
:102488005DFB236813E7B0EE460B0DF09DF820E7DF
:102498000000000000405F408DEDB5A0F7C6B03EDB
:1024A800D5160020981E0020B02C0020DE2D00201C
:1024B800101F0020AC2C0020E81E0020A82C0020B3
:1024C800081F0020D81E0020FD2D0020A02C002071
:1024D8009C2C0020DA2D0020001F0020F81E002070
:1024E800E02D0020002E0020B8160020B42C00207B
:1024F800F01E0020A42C00202DE9F043624D00209E
:102508000122624E05F1240783B06A7203462C4605
:102518003A4601462F612872E8602E6000E0226981
:1025280042F8231001336A7A57489A42F7DC584F29
:102538003A680AB9A4E01A465369002BFBD15561E1
:102548000024544B50482B606C61AC80EC80AC721A
:102558002C762C62EC6108F009FD4F4B4FF0020E0F
:102568002246A44603F1180198461E6008461C72CC
:10257800DC6083F809E0196101E0D8F8100040F840
:1025880022C00132597A44489142F6DC3968404AFF
:1025980009B977E011464A69002AFBD14B6100244A
:1025A8003E4F3F4A5C619C80DC809C723A481A60CE
:1025B8000BF030FEDFF8189107F1280201213846A8
:1025C800FFF718FDDFF80C81364B4846364E3B6066
:1025D800FFF74EFD4046FFF74BFD06F12802304657
:1025E8000121FFF707FD314B8022314918461C7243
:1025F800B28500225C72DC603160B463B48783E822
:1026080020020023C6E90C2308F0A4FB294B184636
:10261800C3F80090C3F804801C725C72DC6008F098
:1026280099FB254B18465E60C3F800801C725C72EB
:10263800DC6008F08FFB214B18461C725C72DC6072
:1026480083E8A00008F086FB22463946124B009426
:102658001B4809F0A1FE1B4A1B4919480EF040F817
:10266800012322463946009318480B4B09F094FE83
:10267800144A1549154803B0BDE8F0430EF030B8C8
:1026880038605DE710608AE7742C0020100600208F
:1026980044280020F0060020A02D0020942A0020C5
:1026A8004006002054070020981E0020B82C002067
:1026B800FC060020C82C0020D82C0020E82C002084
:1026C800F82C00201011002081A500000C2D0020FE
:1026D800A42B0020D42A0020F0B5BD4D83B02B7860
:1026E800042B00F08781052B32D0022B01D003B0D8
:1026F800F0BDB848B84E00F1140E04783746427859
:102708003146FF23747007F8022F11F8012F0824AF
:10271800534004E0D3B2621E12F0FF0409D05A00FD
:102728001B06F7D582F03103621E12F0FF04DBB2FC
:10273800F5D1B942E9D1023006F8033F8645DCD12C
:102748001B22A649A64808F08FFD2C7003B0F0BDE7
:10275800A44B0821A14C1B6801939DF807009DF824
:102768000620C34320706270DBB204E00139C3B2B3
:1027780011F0FF010CD013F0800F4FEA4300F5D0A1
:102788005B00013983F0310311F0FF01DBB2F2D1B4
:102798005A40082304E0013BCAB213F0FF030CD0EF
:1027A80012F0800F4FEA4201F5D05200013B82F04F
:1027B800310213F0FF03D2B2F2D19DF8056008216F
:1027C8009DF80400F343A270E670DBB2207104E0C8
:1027D800D3B24A1E12F0FF010CD013F0800F4FEA5B
:1027E8004302F5D05B004A1E83F0310312F0FF016B
:1027F800DBB2F2D14340082204E0013ACBB212F036
:10280800FF020CD013F0800F4FEA4301F5D05B00B4
:10281800013A83F0310312F0FF02DBB2F2D1724ABF
:1028280008216371136801939DF807009DF806203D
:10283800C343A071E271DBB204E00139C3B211F005
:10284800FF010CD013F0800F4FEA4300F5D05B0076
:10285800013983F0310311F0FF01DBB2F2D15A40A4
:10286800082304E0013BCAB213F0FF030CD012F0B6
:10287800800F4FEA4201F5D05200013B82F031024D
:1028880013F0FF03D2B2F2D19DF8056008219DF83C
:102898000400F34322726672DBB2A07204E0D3B282
:1028A8004A1E12F0FF010CD013F0800F4FEA4302CA
:1028B800F5D05B004A1E83F0310312F0FF01DBB252
:1028C800F2D14340082204E0013ACBB212F0FF02F1
:1028D8000CD013F0800F4FEA4301F5D05B00013AAA
:1028E80083F0310312F0FF02DBB2F2D13F4A082134
:1028F800E372136801939DF807009DF80620C3430F
:1029080020736273DBB204E00139C3B211F0FF0136
:102918000CD013F0800F4FEA4300F5D05B0001396B
:1029280083F0310311F0FF01DBB2F2D15A400823E2
:1029380004E0013BCAB213F0FF030CD012F0800F81
:102948004FEA4201F5D05200013B82F0310213F008
:10295800FF03D2B2F2D19DF8056008219DF804006A
:10296800F343A273E673DBB2207404E0D3B24A1EC9
:1029780012F0FF010CD013F0800F4FEA4302F5D09C
:102988005B004A1E83F0310312F0FF01DBB2F2D183
:102998004340082604E0D3B2721E12F0FF060CD0A2
:1029A80013F0800F4FEA4302F5D05B00721E83F0EC
:1029B800310312F0FF06DBB2F2D1122207490848B0
:1029C800637408F051FC0A4B2E701E8003B0F0BDF2
:1029D800FF2D0020680B0020532A0020542A0020D5
:1029E800DC250020A42C0020A02C00209C2C0020FA
:1029F800DA2D00201D4B08221D4C1B8823FA02F1FA
:102A0800D8B2CB4321706070DBB204E0013ACBB29C
:102A180012F0FF020CD013F0800F4FEA4301F5D0FB
:102A28005B00013A83F0310312F0FF02DBB2F2D10E
:102A38004340082604E0D3B2721E12F0FF060CD001
:102A480013F0800F4FEA4302F5D05B00721E83F04B
:102A5800310312F0FF06DBB2F2D103220449054824
:102A6800A37008F001FC2E7003B0F0BDDA2D002031
:102A7800542A0020DC250020F8B51E4D00241E4EE7
:102A8800D5F8AC20D5F8B03034709A421B4F0BD033
:102A9800184808F07DFBD5F8AC10D5F8B020A3B2E3
:102AA80001349142F854F3D13A787B78144943EAD7
:102AB80002231BB25A1E0B80042A06D8DFE802F054
:102AC800060A0D16030005233370F8BD0D4B40228E
:102AD8001A60F8BD02233370F8BD03240A490020A8
:102AE8000A4B0122347008801A70F8BD0423337031
:102AF800F8BD00BFDC250020FF2D0020542A00204F
:102B0800D82D002008E100E0DA2D0020FD2D00205E
:102B180010B5044609F030FD204610BD024A0349AD
:102B280003480DF0DDBD00BF10110020310C00007E
:102B38000C2A0020024A034903480DF0D1BD00BF0A
:102B480010110020310C000090290020024A03498E
:102B580003480DF0C5BD00BF10110020310C000066
:102B6800C0280020024A034903480DF0B9BD00BF40
:102B780010110020310C0000E8280020024A034907
:102B880003480DF0ADBD00BF10110020310C00004E
:102B980098290020024A034903480DF0A1BD00BF4F
:102BA80010110020310C0000A0290020024A03491E
:102BB80003480DF095BD00BF10110020310C000036
:102BC800B8290020024A034903480DF089BD00BF17
:102BD80010110020310C0000C8280020024A0349C7
:102BE80003480DF07DBD00BF10110020310C00001E
:102BF800F0280020024A034903480DF071BD00BFC8
:102C080010110020310C0000A8290020024A0349B5
:102C180003480DF065BD00BF10110020310C000005
:102C2800D0280020024A034903480DF059BD00BFCF
:102C380010110020310C0000F8280020024A034936
:102C480003480DF04DBD00BF10110020310C0000ED
:102C580000290020024A034903480DF041BD00BF86
:102C680010110020310C000064290020024A034999
:102C780003480DF035BD00BF10110020310C0000D5
:102C8800CC290020024A034903480DF029BD00BFA2
:102C980010110020310C0000D4290020024A0349F9
:102CA80003480DF01DBD00BF10110020310C0000BD
:102CB800F4290020024A034903480DF011BD00BF62
:102CC80010110020310C000008290020024A034995
:102CD80003480DF005BD00BF10110020310C0000A5
:102CE800DC290020024A034903480DF0F9BC00BF63
:102CF80010110020310C0000042A002010B5054CEA
:102D080004F1080009F038FC2046BDE8104009F03D
:102D180033BC00BF1029002010B5084C0021204604
:102D280009F0DAFB04F10800002109F0D5FB044A98
:102D380004490020BDE810400DF0D2BC1029002045
:102D4800101100201D0E0000024A034903480DF02F
:102D5800C7BC00BF10110020310C0000B0290020B2
:102D6800024A034903480DF0BBBC00BF1011002004
:102D7800310C0000E4290020024A034903480DF001
:102D8800AFBC00BF10110020310C0000EC2900205E
:102D9800024A034903480DF0A3BC00BF10110020EC
:102DA800310C000020290020024A034903480DF095
:102DB80097BC00BF10110020310C00006C290020C6
:102DC80000207047704700BF036D0BB101207047AA
:102DD800406D003018BF0120704700BF10B5044691
:102DE800806D18B10DF0BEFC0023A365236D2BB1D7
:102DF80004F11800BDE8104005F02CBD636D002BF0
:102E0800F6D110BDF0B5002395B04FF47A74234F76
:102E18001A460546183104A88DF804308DF80C3090
:102E2800129313930294009705F068FD129B53B315
:102E38005C20002609F070FF9DF804300446184A0B
:102E480004A918302373029B22602361154A9DF858
:102E58000C30A2602375666005F0BAFC63684FF415
:102E68007A71114A0133A760A6652E712E732C6101
:102E78006360A9602A600D4B04A8009305F0EAFC82
:102E8800284615B0F0BD139B002BD1D1064A2B71F3
:102E9800AC602B732B612A60EDE700BF9807002018
:102EA800BC070020180800206C070020EC05002053
:102EB800036D13B1184603F0CFBD406D08B101F0A2
:102EC8003DBB4FF0FF307047836C00B583B063B1F2
:102ED800184601220DF1070103F0F0FC01280CD17E
:102EE8009DF8070003B05DF804FBC06C28B101220F
:102EF8000DF1070101F048FAF0E74FF0FF30F1E774
:102F0800036DF0B50C4683B02BB318460DF10602DD
:102F180001A903F009FBD8B1BDF80430BDF80620BB
:102F280003B9AAB102F01F06C3F343155912C2F33D
:102F3800451703F01F037600013D01F5EA61D2123F
:102F480026706571A17123716770A27003B0F0BD1E
:102F5800002003B0F0BD406D0028F9D00DF1060245
:102F680001A901F091F9D6E7036D9BB11A7812F027
:102F7800700F00D1704710B504460021184603F0C1
:102F8800C1FE606D28B100220023BDE8104001F0A9
:102F9800EBBA10BD406D0028ECD090F8313013F03A
:102FA800500FE7D00022002301F0DEBA38B5846D57
:102FB8000CB1204638BD05464FF480700DF0CAFBB1
:102FC8000146A86580B1286D0C7028B14FF4807255
:102FD80005F04CF9AC6DECE7686D40B14FF48072C8
:102FE80002F0C4FEAC6DE4E7024CAC65E1E70C46C8
:102FF800DFE700BFFC2D00208A79A2F150031B06F1
:1030080021D402F26C72F0B54B7985B0046D0133AE
:103018000D798E784F78DBB209784CB10391204650
:10302800029704210196009503F08CFF05B0F0BDCE
:10303800406D0028FAD0039104218DE8E00002F0E9
:1030480085F805B0F0BD0020704700BFD0B5046D0D
:103058008CB1012B08BF002A01D30020D0BD114636
:10306800204603F04FFE0028F7D0204603F0D6FF95
:103078000028F2D0D0BD446D002CEED0204601F0DF
:1030880073FA0028E9D02046BDE8D04002F02CB9F8
:10309800036DF0B50C4683B02BB318460DF106024C
:1030A80001A903F051FAD8B1BDF80430BDF80620E3
:1030B80003B9AAB102F01F06C3F343155912C2F3AC
:1030C800451703F01F037600013D01F5EA61D212AE
:1030D80026706571A17123716770A27003B0F0BD8D
:1030E800002003B0F0BD406D0028F9D00DF10602B4
:1030F80001A901F0DBF8D6E7036D13B1D869002107
:103108007047436D13B118695969704718461946D5
:10311800704700BF036D13B1586900217047436DB4
:1031280013B193E80300704718461946704700BF6B
:10313800036D13B1184603F0C1BB406D08B101F02F
:1031480023B94FF0FF307047836C13B1184603F072
:1031580083BCC06C08B101F0F1B94FF0FF30704783
:10316800036D33B11B7813F0700F14BF01200020DA
:103178007047406D30B190F8313013F0500F14BFE4
:1031880001200020704700BF8A79A2F150031B0676
:1031980021D402F26C72F0B54B7985B0046D01331D
:1031A8000D798E784F78DBB209784CB103912046BF
:1031B800029702210196009503F0C4FE05B0F0BD08
:1031C800406D0028FAD0039102218DE8E00001F05B
:1031D800BDFF05B0F0BD0020704700BF036963B1B3
:1031E8001A68074992698A4208D1186D08B103F034
:1031F800A3BE586D08B101F035BE70471846104798
:1032080025130000036D13B1184603F095BE406DF9
:1032180008B101F027BE7047836C13B1184603F05C
:103228008BBEC06C08B101F01DBE704703698BB13D
:103238000E4810B41C68E468844211D1186D18B1A6
:103248005DF8044B03F026BF586D28B15DF8044BB8
:1032580002F0BCB80020704700205DF8044B7047AE
:10326800184623465DF8044B184700BFD1130000E9
:10327800036973B11A68084952698A4207D1186DFF
:1032880008B103F0E9BB586D18B101F057B91846F9
:1032980010474FF0FF307047D10F0000836C13B117
:1032A800184603F0F7BEC06C08B102F08FB870473B
:1032B800036D13B1184603F0EDBE406D08B102F07E
:1032C80085B8704700B5836C83B08DF8071043B19B
:1032D800184601220DF1070103F0DCFE03B05DF88A
:1032E80004FBC06C0028F9D001220DF1070102F09F
:1032F8006DF803B05DF804FB10B5036982B08DF872
:103308000710BBB11968104ACC68944215D1186DE2
:1033180030B101220DF1070103F0BCFE02B010BD6F
:10332800586D0028FAD001220DF1070102F04EF87D
:1033380002B010BD184602B010BD01220DF1070100
:103348001846A04702B010BDD1130000036923B38B
:103358001968134A10B58C6882B0944214D1186D5C
:1033680048B101220DF1070103F0A8FA90B19DF8C8
:10337800070002B010BD586D0028F8D001220DF1E9
:10338800070101F001F8F1E7184601220DF10701E4
:10339800A047EBE74FF0FF30EBE74FF0FF30704707
:1033A80051120000826C62B1137803F0080303F035
:1033B800FF000BB3D3695069181A48BF6FF000407B
:1033C8007047C16CC9B191F8313003F0080303F0BC
:1033D800FF008BB1D1E90423D1E9000130B4101A00
:1033E8004FF000056FF0004463EB01018D4208BF08
:1033F800844200D2204630BC70470846704700BF60
:10340800026D62B1137803F0080303F0FF000BB3F9
:10341800D3695069181A48BF6FF000407047416D72
:10342800C9B191F8313003F0080303F0FF008BB104
:10343800D1E90423D1E9000130B4101A4FF0000596
:103448006FF0004463EB01018D4208BF844200D253
:10345800204630BC70470846704700BF0069002806
:103468002FD00368184A1B6993420ED1026D6AB1C6
:10347800137803F0080303F0FF0013B3D36950690E
:10348800181A48BF6FF0004070471847416DC9B11E
:1034980091F8313003F0080303F0FF008BB1D1E954
:1034A8000423D1E9000130B4101A4FF000056FF081
:1034B800004463EB01018D4208BF844200D22046DC
:1034C80030BC70470846704721150000D0B4039CF3
:1034D80016461F4634B1012C1ED0022C0DD00020F8
:1034E800D0BC7047046DDCB1012B08BF002AF6D2AE
:1034F80020461146D0BC03F005BC036DB3B1DA69B0
:10350800B61847F10007012F08BF002EE7D2314651
:103518001846D0BC03F0F6BB036D93B15A69EFE7C8
:10352800406D0028DBD0D0BC01F01EB8436D002BE5
:10353800D5D01846D3E9042392197B41D0BC01F0B9
:1035480013B8436D002BCAD01846D3E9002392194B
:103558007B41E8E738B504460C4B806D236018B111
:103568000DF000F90023A365236D04F118054BB194
:10357800284605F06FF9064B2846A36005F06AF95E
:10358800204638BD636D002BF2D1F4E7BC0700205C
:10359800EC05002038B504460E4B806D236018B149
:1035A8000DF0E0F80023A365236D04F118056BB155
:1035B800284605F04FF9084B2846A36005F04AF95C
:1035C80020465C2109F0ACFB204638BD636D002B1A
:1035D800EED1F0E7BC070020EC05002070B5254BC4
:1035E8000546046903601CB16668013E66600EB159
:1035F800284670BD2368204ADB6A93422CD1A06D0F
:1036080010B10DF0AFF8A665236D5BB304F1180097
:1036180005F020F92C69002CEAD02368174A5B686A
:1036280093421CD1164BA06D236018B10DF09AF887
:103638000023A365236D04F11806BBB1304605F0DD
:1036480009F9104B3046A36005F004F920465C21C7
:1036580009F066FB284670BD20469847DAE7204601
:103668009847C5E7636D002BD0D1D3E7636D002B76
:10367800E4D1E6E76C070020FD0E0000B516000057
:10368800BC070020EC05002070B5294B04460569ED
:1036980003601DB16E68013E6E602EB12046142194
:1036A80009F03EFB204670BD2B68224ADB6A934234
:1036B80030D1A86D10B10DF055F8AE652B6D7BB308
:1036C80005F1180005F0C6F82569002DE6D02B682D
:1036D800194A5B68934220D1184BA86D2B6018B12A
:1036E8000DF040F80023AB652B6D05F11806DBB132
:1036F800304605F0AFF8124B3046AB6005F0AAF83B
:1037080028465C2109F00CFB2046142109F008FB2F
:10371800204670BD28469847D6E728469847BDE713
:103728006B6D002BCCD1CFE76B6D002BE0D1E2E7BE
:103738006C070020FD0E0000B5160000BC07002035
:10374800EC05002010B4047F4160022CC26003D055
:103758005DF8044B08F02ABF83685DF8044B1847EE
:1037680070B440F20125046825611BB31E46F1B10F
:103778000D780131013B6566256FAD0706D4656F8D
:10378800013EEDB212B11570013204686569ED07AA
:10379800F2D5002BEBD16EB101680B6F9B07FCD4FF
:1037A8004B6FDBB20AB113700132013EF3E790F8B8
:1037B8003C50DFE770BC7047F0B5304C304BA06C24
:1037C800656C0179226CD97729791977017919778C
:1037D800FAB1B2F5004F18D22B6892B2D98B0E0409
:1037E8003BD4DA83D98B89B2D9820368D98B09048F
:1037F8002CD4DA830021DA8B92B2DA82216402793E
:103808001F4BDA762A79DA76F0BD1E4B134423640F
:10381800F5E7E06C0F25236840F2013E01684FF49C
:103828007C579D6503260D681749DA618D42C3F8F8
:1038380010E05F6184F83D6017D1037F4260022B7E
:10384800C26017D0BDE8F04008F0B0BED98BC2F313
:10385800080201F47E410A43CBE7D98BC2F308067C
:1038680001F47E413143D983BCE72B461146BDE8BC
:10387800F04018478368BDE8F04018471C11002045
:1038880000800E400180FFFF651800004368F0B516
:1038980093E88200DFF8FCE1B8260A680225754C37
:1038A80022EA0702744F0A60DEF818201440734AAF
:1038B80027430F24CEF81870077C1F443F7C02EB87
:1038C8000717BF683E60477C1F4497F8207002EBDB
:1038D8000717BF683E60877C1F4497F8307002EB7B
:1038E8000717BF683E600F685E683E430E60017C44
:1038F8005E1803EB8101367C4F6902EB06114968BB
:103908000F60417C5E1803EB810196F820604F6AD6
:1039180002EB061149680F60817CD3F83CE05E1821
:1039280003EB8101DF6996F83060496B02EB061200
:10393800DE6A52681160817C0268194491F8381077
:10394800CEF80010017C1944097E3960417C0B4493
:1039580093F82830336015619465C37C002B29D017
:1039680072B6C37CDC0706D5454A436911680B402B
:1039780083621360C37C990706D5424A836911683C
:103988000B40C3621360C37C5A0706D53E4AC3691D
:1039980011680B4003631360C37C1F0706D53B4ABD
:1039A800036A11680B4043631360C37CDE064BD483
:1039B80062B60268364D8368AB424CD0354B8560A1
:1039C8009B69354CC3F30116C3F38261334B54F83A
:1039D80026400131B4FBF1F1A3FB01431B0D29D1B2
:1039E800C36000260325072401211661556213646C
:1039F80014661161C37CE3B1DD0703D5284B826AE5
:103A08001A60C37C9C0703D5264BC26A1A60C37C24
:103A1800590703D5244B026B1A60C37C1A0703D5D8
:103A2800224B426B1A60C37CDB0602D5826B204BAB
:103A38001A60F0BDB1FBF3F1A94288BF0133B3F5B9
:103A4800817F0AD31B4BCBE71B4A436A11680B40A3
:103A580083631360ACE7C368C3E7022B98BF0023F6
:103A6800BED9023B5C08210443EA042301F47F0128
:103A78000B43B5E7CFFFFFE310000008E80800207C
:103A880080E100E084E100E088E100E08CE100E012
:103A980000093D0000C00F40D408002083DE1B430E
:103AA80000E100E004E100E008E100E00CE100E0F2
:103AB80010E100E0FF7F7F0090E100E00BB1FFF72D
:103AC8004FBE7047436893E806000968114200D169
:103AD800704710B502680446002005211061227C59
:103AE8001344187C09F036F86268637C0521134496
:103AF80093F8200009F02EF86268A37C052113448E
:103B0800BDE8104093F8300009F024B82DE9F843D7
:103B1800DDF82080099FB3B116460C46054603EB35
:103B2800010904E020460134C0474C450BD02B68FE
:103B38003246214628461B6998473A4631460028AE
:103B4800F0D1BDE8F8830120BDE8F8832DE9F843FA
:103B5800DDF82080AAB11F460C46054602EB010994
:103B680001E04C450DD02B68414620465E6AB847B7
:103B78002146024628460134B0470028F1D1BDE865
:103B8800F8830120BDE8F8830020704700207047C3
:103B9800002070474FF0FF30704700BF704700BFEC
:103BA800012BF0B5054695B03BD0022B01F104017D
:103BB80040F20223684618BF002304F045FF129B19
:103BC800002B37D05C2004AF09F0A6F89DF804203C
:103BD80004461F4B0026DFF888E022733946029A14
:103BE8001830A3609DF80C3022612375C4F800E0FA
:103BF800666004F0EDFD63684FF47A71154801338F
:103C0800154AA6652E712E732C61A0606360A960A9
:103C18002A60124B3846009304F01CFE284615B063
:103C2800F0BD44F202230431684604F00DFF129BF4
:103C3800002BC7D1139B002BC4D14FF47A71064ACD
:103C48002B7104AF2B732B61A9602A60E1E700BFD9
:103C580018080020980700206C070020EC050020B9
:103C6800BC07002070B5D0F884448EB01646C4B1A5
:103C7800002504F589640A46684621462B468DF8D6
:103C880000508DF801508DF8025002F087FD08B9F8
:103C98000EB070BD32462146684602F013FF0EB0E2
:103CA80070BDD0F888040028F2D000F589650A466E
:103CB8002346684629468DF831408DF832408DF804
:103CC800334000F0B1FE0028E2D03246294668466B
:103CD80001F0E4F90EB070BD30B5D0F884448FB06F
:103CE800A4B100250A466846214601238DF80050F4
:103CF8008DF801508DF8025002F0B6FD08B90FB0EA
:103D080030BD684603F07CFE0FB030BDD0F88804A3
:103D18000028F4D00A460123014668468DF8314050
:103D28008DF832408DF8334000F0FCFE0028E6D0D4
:103D3800684600F061FF0FB030BD00BF30B5D0F865
:103D480084448FB0A4B100250A46684621462B4614
:103D58008DF800508DF801508DF8025002F084FD66
:103D680008B90FB030BD684602F09EFF0FB030BDF5
:103D7800D0F888040028F4D00A462346014668464D
:103D88008DF831408DF832408DF8334000F0CAFE8E
:103D98000028E6D0684600F08FFF0FB030BD00BFA6
:103DA80030B5D0F884448FB07CB100250A46012391
:103DB80004F5896168468DF800508DF801508DF83A
:103DC800025002F083FC0FB030BDD0F88804002800
:103DD800F9D00A46012300F5896168468DF831401B
:103DE8008DF832408DF8334001F0ECF80FB030BD5B
:103DF80030B5D0F884448FB074B100250A466846BF
:103E080021462B468DF800508DF801508DF8025050
:103E180002F02AFD0FB030BDD0F888040028F9D090
:103E28000A462346014668468DF831408DF83240EF
:103E38008DF8334000F076FE0FB030BDF8B590F83D
:103E4800D034002B46D0D0F884240446002A46D02B
:103E5800D369D0F890045F1E00283ED00368DB6B5E
:103E6800984730B1D4F8900430B303681B6C984776
:103E7800A0B1D4F884240026002A4AD0104604F0C1
:103E8800B1FB05463EB1D4F89004A8B103680021FF
:103E98005B6C984780B1D4F8842410E0D4F890047F
:103EA80050B1036801215B6C984728B1D4F8842489
:103EB8000126002AE2D12CE00025D4F884247B1BBB
:103EC800F2B190794FF4007202FA00F080B2A0FBD0
:103ED8000301F8BD00200021F8BD0646CEE7D0F862
:103EE8008834F3B1D3F83074D4F890040028B5D1ED
:103EF8001946A3B10646084602F048F90546C1E747
:103F0800D4F88824002AE5D0D2F83C04A3FB0001A9
:103F1800F8BDD4F888140029EDD11546B2E71D463E
:103F2800CDE71F46E0E700BF90F8D03463B1D0F882
:103F3800842462B191794FF40073D0698B400138C1
:103F48009BB2A3FB00017047002000217047D0F806
:103F58008824002AF8D0D2F83034D2F83C04A3FBE5
:103F6800000170472DE9F041D0F8905492B04DB15E
:103F78001F462B6804462846DB699847B0F5405F22
:103F8800064603D8002012B0BDE8F0814FF4007057
:103F98000CF0E0FB80460028F4D0B6F1806F07AE45
:103FA80002463B462946304644D804F007F80746FF
:103FB80040460CF0D7FB002FE4D02B6828461B6A3C
:103FC800984794F8C054FF2D38D094F8C18401AABA
:103FD800D4F8C4C404ABD4F8C8E404F594678DF8E5
:103FE80004508DF80580CDF808C0CDF80CE007CA5C
:103FF80083E807008DF81180CDF814C0CDF818E0DB
:104008008DF8105093E8070086E80700384696E8D0
:104018000E0005F027FA94F8B134C4F890742BB95F
:1040280001233946201D1A4604F09AFC012012B0DB
:10403800BDE8F08101F0A2FB0746B9E704F294431A
:1040480084F8C05494F8CC141D46184605F062FF55
:10405800C4F89054284605F0DDFA0028E6D101237B
:10406800D4F89014201D1A4604F07AFCDEE700BF4D
:104078002DE9F041D0F890648AB00446002E48D06B
:1040880090F8D034002B4AD190F8D134FE2B5AD076
:1040980090F8D204272835D994F8C064FF2E71D03F
:1040A80094F8C18403ADD4F8C4C406ABD4F8C8E40A
:1040B80004F594678DF800608DF80180CDF804C090
:1040C800CDF808E09DE8070085E807008DF80D8029
:1040D800CDF810C0CDF814E08DF80C6095E8070015
:1040E80083E8070038460ECB05F0BCF994F8B134E4
:1040F800C4F890746BB901233946201D1A4604F0A0
:104108002FFC07E008F020FD003018BF0120002830
:10411800C2D1002084F8D0040AB0BDE8F08190F83C
:10412800D134FE2B16D094F8D204272805D808F0ED
:104138000BFD003018BF0120ECE73368304606A9B4
:104148009B6C9847E6E71B4B9868C0F340400028F3
:10415800DFD0A1E7336830465B6D9847431C0546BE
:10416800E1D048B994F8D134FE2BD2D126200321CE
:1041780008F0F0FC2846CDE7012084F8D0040AB006
:10418800BDE8F08104F2944594F8CC1484F8C06436
:10419800284605F0BFFEC4F89054284605F03AFAC0
:1041A8000028B6D10123D4F89014201D1A4604F033
:1041B800D7FBAFE700800042F0B4184B0024184E3C
:1041C800FF25072117482927174AC3F89464174E73
:1041D80018601846C3F8A824C3F8AC1483F8B1745F
:1041E800C3F8A064C3F88444C3F88844C3F890446F
:1041F80083F89C4483F89D4483F8B54483F8BC4411
:1042080083F8CC4483F8D04483F8D15483F8D2544B
:10421800074A0849F0BC0CF063BA00BFC41F00206D
:104228006C0800203C08002000093D0058060020CA
:1042380010110020BD1C0000F0B500F1240385B06A
:1042480005460E4601AC174693E8070084E80700C8
:1042580072012146286A01F025FF012806D13A4655
:104268002146286A01F0E2FE05B0F0BD002005B045
:10427800F0BD00BF10B5044600F0F4FD002384F83B
:10428800313084F8333010BD38B50D46144600F18E
:1042980024010022006A01F0C9FE034628B14289C0
:1042A80001202A801B89238038BD38BD38B50D46CA
:1042B800144600F124010022006A01F0B7FE03460B
:1042C80028B1C28901202A809B89238038BD38BD46
:1042D80090F831200AB10020704738B50D461146D4
:1042E800382204460CF030FD40230120256284F872
:1042F800313084F8330038BDF0B40C78202C03D169
:1043080011F8014F202CFBD00E461E4F1160916012
:104318003578344601362F2D18BF002D22D0A5F14F
:1043280022041F2DE4B28CBF002101211D2C0ED9BF
:104338000124A14213D205F0BF013C290FD05C2D06
:104348000DD02E2DE4D0202DE2D09660E0E727FA9C
:1043580004F404F0010484F00104A142EBD300202A
:10436800F0BC7047202D01D02F2D05D114F8011F66
:104378002029FBD02F29F9D01C601146F0BC01F090
:104388005BBD00BF010100312DE9F04F90F83330DB
:1043980083B00546DE0760D55C060E46914640F1BF
:1043A800BD80D5E90001D5E9042310EB090A41F1E4
:1043B800000B5B4508BF5245C0F0B680B9F1000F4D
:1043C80074D0AA464C4640F2FF17FAE806012B6A59
:1043D800D3F8382402EA0008C8F3080BB8F1000F34
:1043E8006AD150EA010279D195F8312051064CBFC3
:1043F800D3F83414E969A9614FEA58200239D3F88F
:104408002C24BC4293F845E4024401FA0EF111440D
:104418002ED9BBF1000F2BD1D3F81C22914227D003
:10442800B4F5806F61D34FF0010C4FEA54280CFAB1
:104438000EFEC0EB0E00804528BF804691423DD855
:1044480001EB0800824239D203F504700191009310
:1044580006F0CAF9009B019980BB95F832304FF0FD
:10446800FF3043F0020385F8323003B0BDE8F08F27
:1044780003F50470002206F087F90028EDD0CBF58B
:10448800007800EB0B013046A04528BFA046424605
:1044980008F0A8FB404600214644D5E900238018CF
:1044A8005941B4EB0804C5E9000190D10024C4EBDC
:1044B800090003B0BDE8F08FA9699DE7D3F814029D
:1044C80032464346D0F800E0DEF814B0D84700285A
:1044D800C3D04FEA482800214046DDE795F833204D
:1044E800520610D5A969013185E7D3F8140232467E
:1044F80003681B6998470028AFD04FF4007000216B
:104508004FF40078C8E718465246A96901F0AAFD99
:104518000028A2DB0BD02B6AA9696DE790F831302F
:1045280018073FF53EAF49E7C0EB020946E795F8A3
:10453800313013F0500FBAD18FE700BFF0B583B018
:104548000122044685690DF10701D0E90067FFF7EC
:104558001BFF0128A5610CBF9DF807004FF0FF3035
:10456800C4E9006703B0F0BD2DE9F04F90F831E0E1
:1045780085B004468569BEF1000F36D016461F4641
:10458800D0E90001994208BF904265D056EA070376
:1045980030D10023A3610120C4E9006705B0BDE85C
:1045A800F08F10F1FF3241F1FF3322FA0CFC03FACD
:1045B80008F823FA0AFA50EA01034CEA080C4CEA14
:1045C8000A0C4BD0E34549D3CCEB0B0BA94604F1BD
:1045D80018085D464246002DDDD0A169013D206ADC
:1045E80001F040FD0028F5DC4D460020A56105B02E
:1045F800BDE8F08F1EF0080F27D1236A16F1FF38A7
:1046080093F845C447F1FF39C24603930CF1090CEE
:10461800CB4694F833905FFA8CFC19F0400FCCF13C
:1046280020082AFA0CF2CDE900AB019BACF1200A74
:1046380003FA08FB23FA0AF342EA0B0242EA030BE5
:10464800AFD0E3695B44A361A5E7D4E90423BB4287
:1046580008BFB242C9D3D0E70120C8E71EF0400F17
:1046680002D1E369A361B1E7039BD3F83434F9E7D6
:104678002DE9F04F8FB08146019390F831302BB976
:1046880091F831300C4613F0500F08D1002318462A
:1046980089F8313089F833300FB0BDE8F08F019BCD
:1046A800154603F00303012B06D0022B00F0FF8010
:1046B800002BEBD1012200E00222019B03F008034A
:1046C80013430293002D40F0DD8003270026029B50
:1046D800B34643F040030393202206A92046FFF780
:1046E80053FEF0B12028D1D19DF81830180645D4D2
:1046F800BBF1000F04D12268D4F818A0A2F1200859
:10470800BB4503D20BF1010B5FFA8BFB002B00F0CA
:10471800D080202206A920460026FFF735FE002873
:10472800E0D1019B9905B1D5029B9A07AED5002D22
:10473800ACD0BB4580F0C6802B465E4655469A46AF
:104748000AE02028A2D11EB92268A569A2F1200892
:10475800DEB2B74240F2B380202206A92046FFF716
:1047680013FE731C0028ECD12046D4F818B000F0D2
:10477800A9FB00288AD0C4F818B0EAE756BBBB45A5
:1047880038BF4FF0000B852BA6D13146382248465A
:1047980001260CF0D9FA9DF81C309DF81920D9068D
:1047A80089F8302003F0370258BF42F0080289F830
:1047B80031202368226AA169203BC9F82020C9F862
:1047C8002830C9F8241094F83330C3F3801389F8DB
:1047D8002C3081E7C02B29D0C12B9AD12A4606A9B3
:1047E800484601F09DFA002867D0AB89002B7FF47A
:1047F80073AFAA686B689A427FF46EAF019B1F057E
:104808003FF544AF019B13F4884F40F0AB8099F813
:1048180033309E0700F1A680019B5B053FF536AF5C
:10482800019B580400F1BC80012035E79DF8193040
:104838009DF808209B0789F8332003D59DF80C3094
:1048480089F833300B99DDE90823C9F81C10DDE934
:104858000C01C9E90423C9E90201002DCED09DF855
:104868001B304FF000002A6929689A42A8816960C4
:104878007FF44FAFBDF81C60AB8AF61AB6FA86F61D
:10488800760929E72B69664F0E33A7FB0337D4E96E
:104898000023FF08134307F10207FFB23FF416AFE6
:1048A800002100220023A161C4E900230EE70322AE
:1048B80003E7002D7FF435AFE8E606460CE75346DC
:1048C800AA461D4694F833B03822002148460CF019
:1048D8003BFACBF3801B0823226A002689F82CB008
:1048E800C9F824A0C9F8288089F831302B68C9F89C
:1048F80020206B60AE818FB307F1FF3834465FFA32
:1049080088F8012221464846FFF796FC834600288E
:104918003FF4BCAE90F90030002BFFF6B7AE202272
:1049280000210CF011FA002E43D0012C5ED0C123D7
:104938005C460BF11E0A8BF80030AB8928461BB980
:104948006A68AB689A4205D005F056FF24F8020F52
:10495800A245F2D10136F4B2BC42D2D3484600F0A7
:1049680081FA99E699F8313013F0110F7FF48EAE81
:10497800019B5D057FF554AF99F833309C077FF5AF
:1049880085AE002200234846FFF7EEFD00283FF4DD
:104998007DAE484600F0A8FC00283FF477AE43E718
:1049A8004846D9E90423FFF7DFFD00287FF43CAF30
:1049B8006CE685238BF800301A4B89F830808BF829
:1049C80001801B681BB30DF113020DF1160105A838
:1049D8009847BDF81410BDF816209DF81330ABF8B1
:1049E8000A10ABF808208BF81430B3E7029BC022FA
:1049F8008BF8014063F07F038BF8002089F833308F
:104A08002B698BF80330AB8AABF80430A2E745F288
:104A18002163ABF80A30ABF80E30ABF8123099E7E7
:104A2800898888883C2800202DE9F043064697B0FD
:104A380000200D4696F8311001928DF851008DF83E
:104A480052008DF85300ADF8140029B9994695F82D
:104A5800313013F0500F03D1002017B0BDE8F083B8
:104A6800137814462F2B32D04FF00008214601ABA3
:104A780002AA3046FFF740FC0028EDD0019B1B78C6
:104A8800002B39D02946002302AA3046FFF7F0FD53
:104A98000028E1D0344608AF06F1300E2068103403
:104AA80054F80C1C3D4654F8082C103754F8043CB4
:104AB80074450FC5F2D1206808AD3860304600F063
:104AC800D1F986F8318086F83380019CCEE701342D
:104AD800019421782F29FAD0B9B108A838220021E9
:104AE8002F6A05460CF030F94022012310978DF803
:104AF80051208DF85330B7E74B4602AA2946304675
:104B0800FFF7B6FD17B0BDE8F083382230462C6AAF
:104B18000CF01AF940230120346286F8313086F807
:104B280033009AE719B101F58961FFF77DBF08469F
:104B3800704700BFF0B490F8314024B991F8313093
:104B480013F0500F02D10020F0BC7047D1E9006784
:104B5800002706F01F0656EA0703F4D1134622463B
:104B6800F0BCFFF785BD00BF8169F8B50446006A4F
:104B780001B10131012201F0A9F9012806462ED917
:104B880001230146206A1A4601F0FAF9074630B3B4
:104B9800A3693BB394F83320510612D5591C8E42B1
:104BA80026D022F04002E16984F8332005E0206A2B
:104BB80001F09CFA294690B1A3694D1C99422A46F6
:104BC800F5D34FF0FF323146206A01F08FFA30B149
:104BD800A16969B13246206A01F088FA40B9002714
:104BE8003846F8BD94F8333043F0400384F8333046
:104BF800A6613846F8BD00BF90F833309A073BD518
:104C0800C1692DE9F0410546A9B9002408E00378F7
:104C1800E4B203F07F03037095F83030A3422DD33C
:104C28002146012228460134FFF706FB0028EED171
:104C38000020BDE8F0815B06006A37D590F845246E
:104C48000023D5E90267093216F1FF36D2B247F1DF
:104C5800FF37C2F1200EA2F1200426FA02F207FA69
:104C68000EFE27FA04F442EA0E022243013201F052
:104C780087F90028C9D1DBE70020704700232C6A98
:104C880085F83130204685F8333005F0ADFD002831
:104C9800CED004F5047005F0A7FD0028C8D0D4F8DC
:104CA80040040368BDE8F0411B6A184701F030FA78
:104CB8000028AAD1BCE700BF90F83130D90601D44A
:104CC8000020704710B5002288B000230446FFF783
:104CD8004BFC06E0202819D19DF800301A0615D49F
:104CE80033B1202269462046FFF74EFB0028F1D158
:104CF80094F833300822204643F0020384F8312028
:104D080084F83330FFF778FF08B010BD002008B0F2
:104D180010BD00BF2DE9F043002583B00746DFF83A
:104D28004091A846002229463846FFF785FA0446EE
:104D380030B10378C02B74D0C12B2CD0852B09D06F
:104D480097F83230002043F0010387F8323003B07F
:104D5800BDE8F08397F83130D9F8006003F03703E5
:104D6800838086B10DF103020DF1060101A8B04759
:104D7800BDF80620BDF804309DF80310A2816175C6
:104D88002282E38163823A6A92F8103243F0010387
:104D980082F8103223784FEAC830A3F18506002242
:104DA800012140EA5808B6FA86F613FA88F376091C
:104DB8001FFA83F80A444FEAC83303211F2A43EA3B
:104DC80058030AD8A05C012A10FA83F31FFA83F863
:104DD80001D1002EEED10121ECE7013597F83030F2
:104DE800EDB2AB429ED2012207F12401386A01F0EC
:104DF8001DF90028A4D03C6AA0F80280204605F0DE
:104E0800F3FC00289CD004F5047005F0EDFC0028A4
:104E180096D0D4F8400403681B6A984700288FD0BE
:104E280095E797F8333013F0400F437814BF43F0F9
:104E3800020323F002034370386AF969D7E90423AF
:104E48006161C4E90223D7E90223C4E9062390F883
:104E5800103243F0010380F8103223789BE700BF3B
:104E68003C28002090F8312092B138B590F83320D2
:104E780011060FD4056A0446284605F0B5FC88B922
:104E880094F83230002043F0010384F8323038BD02
:104E98000120704702F07F0280F83320BDE83840D7
:104EA800FFF738BF05F5047005F09EFC0028E7D031
:104EB800D5F8400403681B6A98470028E0D0012011
:104EC80038BD00BFF8B590F8313005465A064FD4C2
:104ED80080682B6AD3F83C341844B0F1806F01D352
:104EE8000020F8BD2846FFF73FFE0028F8D0286AC2
:104EF8000122AE6990F84534023ED0F82C149E4049
:104F080012FA03F30E4415D000243119052200F5D6
:104F18000470013405F038FC4FF4007200210028B9
:104F2800DED00BF011FF286A012390F84524934046
:104F3800A342EAD895F831305B0614D495F833309B
:104F4800002763F07F0385F83330D0F83C64D5E957
:104F58000223D5E9040192197B4180197941C5E9F9
:104F68000223C5E904012846BDE8F840FFF77ABFE7
:104F7800006A01F0B9F9ACE710B591F8314014F0C6
:104F8800500F01D1002010BD40F602230446FFF760
:104F98006FFB0028F6D01023204684F83130FFF745
:104FA80091FF0028EED0A169002320460022E1618C
:104FB800FFF7DAFAC123204684F83330BDE8104001
:104FC800FFF750BF2DE9F041064696B000200C4689
:104FD80096F831100192ADF814008DF851008DF853
:104FE80052008DF8530029B9984694F8313013F0DF
:104FF800500F03D1002016B0BDE8F0811378114698
:105008002F2B34D001AB02AA3046FFF775F90028E0
:10501800F0D0019B1B78002B37D0002302AA214631
:105028003046FFF725FB48B9B8F1000FE2D021461A
:1050380002AA3046FFF7A0FF0028DBD0344608AFAD
:1050480006F1300E2068103454F80C1C3D4654F814
:10505800082C103754F8043C74450FC5F2D1206869
:1050680008AC38603046FFF705F90199CAE7013105
:1050780001910B782F2BFAD0216A08A8FFF728F99D
:105088000028B7D008AC0199BCE702AA21463046EF
:10509800FFF772FF16B0BDE8F08100BFF0B590F8D9
:1050A80031409DB0002314F0180F8DF831308DF881
:1050B80032308DF833308DF869308DF86A308DF8DC
:1050C8006B3003D00B6A046A9C4202D000201DB0EA
:1050D800F0BD044640F601236846FFF7A5FC00280A
:1050E800F4D0254604F1300E0EAF2868103555F877
:1050F8000C1C3E4655F8082C103755F8043C7545ED
:105108000FC6F2D1286809AA04F1240338609DF873
:10511800305007CA83E8070094F83330204684F8F3
:10512800305063F07F0384F83330FFF79BFE00288C
:10513800CCD00021022208230EA815918DF86B20EF
:105148008DF86930FFF758FDC1E700BF2DE9F04F32
:1051580090F8314083B01F4624079DF830A09DF891
:1051680034909DF838B09DF83C3004D5A2F2BC725A
:1051780094B27F2C04D90026304603B0BDE8F08FE6
:105188007A1E0B2AF7D80AF1FF321E2AF3D8BBF190
:105198003B0F98BFB9F1170F8CBF012600263B2B98
:1051A80088BF46F00106002EE5D1019305468846E2
:1051B800FFF758FE019B0028DDD0591013F0010FAE
:1051C8004AEA471708F0010341EA4B11B24647EA99
:1051D800442708BF4FF0000B41EAC92918BF4FF018
:1051E800640B3446BFB21FFA89F901930022514675
:1051F8002846FFF721F80028BDD00278852A4FD02D
:10520800BAD3A2F1C0010129B6D84FEAC43EA2F12F
:10521800850300214EEA5404B3FA83F34FF0010EDC
:1052280012FA84F45B09A4B27144E2034FF0030E4E
:105238001F2942EA54020AD8445C012914FA82F26E
:1052480094B201D1002BEFD14FF0010EECE70AF137
:10525800010395F830205FFA83FA5245C6D201223D
:1052680005F12401286A00F0E1FE002883D02D6AA8
:105278004480284605F0B8FA00283FF47CAF05F5CD
:10528800047005F0B1FA00283FF475AFD5F8400472
:1052980003681B6A9847064600283FF46CAF6BE723
:1052A80095F83120296A02F03702019B828091F833
:1052B800102242F0010281F8102213B1A0F81090D8
:1052C800478218F0020F04D080F814B0A0F80890B4
:1052D800478118F0040F04D080F815B0A0F80C909E
:1052E800C781027891E700BF90F833309A0718D544
:1052F800F0B5C56983B08DB103F04003044603F0EF
:10530800FF0683B98169002942D10195C161294607
:10531800206A00F0FDFE38BB002000E0012003B049
:10532800F0BD00207047006AA16990F84524D4E9CF
:105338000267093216F1FF36D2B247F1FF37C2F1E0
:10534800200EA2F1200326FA02F207FA0EFE27FA2F
:1053580003F342EA0E021A430132B1B1013D4B1C7C
:10536800691A01930A4402BB94F833302046D4E901
:10537800006763F07F03C4E9026784F83330C4E947
:105388000467FFF76FFD03B0F0BD0195E161EAE73F
:1053980002AA006A42F8046D00F064FE0028BBDB34
:1053A8000AD1019D002DDFD0B1E70023019900F05B
:1053B800E7FD0028D8D1AFE74FF0FF32A169206A96
:1053C80000F094FE0028ECD1A6E700BF2DE9F04FCD
:1053D80090F8333083B004469D07009240F1B380C3
:1053E8001A07884600F1A880009B002B00F01D8159
:1053F8002146009D4FF0010AF1E8062393460191EA
:10540800206AA169D0F8386406EA0B06C6F30809D1
:1054180056BB002900F0CC8094F833305B0640F18D
:10542800E08090F84524E3690932D4E902BCD2B29D
:105438001BF1FF3BC2F1200EA2F120074CF1FF3C0B
:105448002BFA02F20CFA0EFE2CFA07F742EA0E02C9
:105458003A431A449142C0F0C1802046FFF784FBCA
:10546800002870D0206AA169760A0239D0F82C7415
:1054780090F845E4374401FA0EF13944B9F1000FC8
:105488006BD1B5F5007F2CBF00220122002A64D120
:10549800B5F5806FC0F090800AFA0EFE6B0AD0F85E
:1054A8001CC2C6EB0E06B34228BF334661454FEA1D
:1054B800432708D85E18B44505D24FF0FF3680F868
:1054C8001022C0F81C62D0F8140242460668B66A78
:1054D800B047002837D038460021B844ED1BD4E93E
:1054E8000023D4E9046712EB000B43EB010C67457A
:1054F80008BF5E45C4E900BC07D294F8331061F0D8
:105508007F01C4E904BC84F83310002D7FF478AF20
:105518005A466346D4E90201994208BF904278D3BB
:10552800434B1B68002B7ED094F83330009863F00F
:105538007F0384F833300DE0D0E90423FFF714F833
:1055480000287FF451AF94F83230002043F0010373
:1055580084F8323003B0BDE8F08FB9F1000F25D1DF
:10556800D4E90423D4E900679F4208BF964234BFB8
:105578000122052200F5047005F006F90028E2D0A2
:10558800C9F5007748444146AF4228BF2F46B94481
:105598003A4607F027FBB9F5007F9CD1206A00F551
:1055A800047005F021F9002895D1CCE70122E1E744
:1055B800E169F1B1A16157E7D0F81C32994221D0D5
:1055C800D0F81402424603685B6A98470028BAD0AC
:1055D8004FF4007000214FF400777EE70131A1619C
:1055E80042E7019A00F03EFD0028ACDB7FF43AAFB9
:1055F80033E72046FFF7B8FA0028A4D0A169206A4B
:10560800E16131E74FF0FF3380F81022C0F81C3217
:10561800D6E794F83310009861F07F01C4E90223BB
:1056280084F8331096E7009894E7D4E9002371E7EB
:105638003C28002070B5044608460D460BF0F0FBE8
:1056480023680246294620465B68BDE87040184733
:1056580083680146C3F3080363B100200A69D05484
:105668000133B3F5007FF9D1C8680A69036809688E
:105678005B6A184701207047826803460069C2F3D5
:10568800080230B4815440F2FF145D689868A24261
:1056980001EB750100F101005960986002D001200A
:1056A80030BC7047D868196802684D1C546A1D6080
:1056B8001A69234630BC184738B50C46C9B20546A6
:1056C800FFF7DAFF00B938BD210A2846BDE838409F
:1056D800FFF7D2BF2DE9F8430023804601601E463C
:1056E80083604360B0B205F095F9B0428146054643
:1056F8000DD001464046FFF7DFFFA0B30136B6F5EF
:10570800803FEFD34046BDE8F843FFF7A1BF741CC4
:10571800B4F5803F14D1C6F580374FF48034B7F51F
:10572800007F1AD2A9B240460135FFF7C5FFD0B1B4
:10573800A542F7D32E46E2E70134B4F5803FEAD01C
:10574800A0B205F067F9A042F6D0A71BB7F5007F15
:1057580003D2A642E6D34E46C4E74FF6FF71404651
:10576800FFF7AAFF10B90020BDE8F883B9B2404698
:10577800FFF7A2FF0028F6D02646C0E72DE9F04F34
:1057880081461F460B6889B0C9F80C100846C9F84D
:1057980010200E46DB6915469847B0F5801F12D2D7
:1057A800002F69D03B681522AE4938465B68984798
:1057B8003B6838460F22AC495B680024984720466E
:1057C80009B0BDE8F08F04460023012201E09442AD
:1057D80003D901335200DBB2F9D11C2B51D9012274
:1057E800A3F10B0848FA02F85FFA88F102FA08F206
:1057F8000691049201220133134102FA03F303FADA
:1058080002F205939B0001920293029B00214FF440
:1058180000722846E31A8A464FF0010B23FA08F370
:10582800039303FA08F8019B98440BF08DFAFF23C1
:105838000722FE2085F8BFB185F8C2214AF6552E09
:1058480085F8C301514685F8C4312A4685F8C53123
:10585800304685F8C0B185F8C1A1019BD6F800C0D3
:10586800C5F8C631C5F8CA81DCF82430A5F8FEE1D0
:105878009847D0B9002F9BD10024204609B0BDE835
:10588800F08F1A2B4FF0080800F22D824FF40043D6
:10589800CDF8188002934FF4804301934FF480733E
:1058A80004934FF400530593AFE751464FF4007249
:1058B80028460BF049FA059B762201982B65902122
:1058C8006B654FF0410C039B4FF0540E6A704FF01C
:1058D8004502EB659DF818302864A865202085F8F6
:1058E8006D306FF01403EA704FF05802C5F844A009
:1058F800C5F848804FF00908C5F84CA06C664FF011
:105908004604A5F86AA085F86EB04FF0040B85F838
:1059180070A04FF4807A2B7005F17703A97005F217
:10592800FD112A71F42228726872A8726FF07F0044
:105938006C7185F806C085F807E0C5F860B0A5F871
:1059480068A085F86C8085F86F0003F8012F9942EC
:10595800FBD14FF000084AF655234446A5F8FE311E
:10596800A8F16A03012B06D9B8F1700F03D015F816
:10597800083003EB740408F10108B8F5007FEFD193
:1059880033682A46019930465B6A984700283FF4F5
:1059980071AF33682A46019930465B6A0C319847E3
:1059A80000283FF467AF019B42460021284603F1D7
:1059B800010A0BF0C9F9019A4AF65523CDF81C9053
:1059C80005F2FF1802F1090B6A1EA5F8FE3191468F
:1059D80006924B4613F8012F984502EB7404F9D14F
:1059E80033682A46514630465B6A984700283FF498
:1059F80041AF33682A460AF10C0130465B6A984782
:105A080000283FF437AF0AF1010AD345E1D1019BE1
:105A18004FF4007200212846DDF81C9003F10B0AB0
:105A28000BF092F9069B13F8012F984502EB7404CA
:105A3800F9D133682A46594630465B6A98470028A8
:105A48003FF418AF33682A460BF10C0130465B6A05
:105A5800984700283FF40EAF0BF10103534505D0DA
:105A68009B46DFE77C0B0020E00B00202B1F05F591
:105A7800FE7243F8044F9A42FBD1336851462A46D6
:105A880030465B6A984700283FF4F4AE33680BF160
:105A98000D012A4630465B6A9847044600283FF4C1
:105AA800E9AE2FB13B680C22974938465B689847A6
:105AB800039B4FF40072002128464FEA8308059B98
:105AC80008F207289B46019B9B440BF03DF94FEADF
:105AD8005823F82005F11301FF229E462B46287013
:105AE80003F8012F9942FBD17346002B31D03B1CA0
:105AF8004FF0000ACDF818904FEA983818BF0123E4
:105B0800F1460593234654469A4605E0002C00F0DA
:105B1800F0800134A14519D001227C493846B4FBF4
:105B2800F8F308FB134323B9059B13B13B685B6883
:105B3800984733682A4604EB0B0130465B6A98475E
:105B48000028E3D1002F7FF433AE95E65446DDF804
:105B58001890002F35D03B6802226D4938465B68A3
:105B68009847039B03F10708049B4FEAD80808F2FB
:105B7800FF1A4FEA5A2A9A453FF61AAE4FF40072B6
:105B8800002128460BF0E0F807232B70BAF1000F2C
:105B98007CD04FF0000B07E0BBF1000F00F0B080A5
:105BA8000BF1010BDA456FD033682A46029930466B
:105BB8005B6A594498470028EED1002F7FF4F8AD6E
:105BC8005AE6039B03F10708049B4FEAD80808F23A
:105BD800FF1A4FEA5A2A9A453FF64EAE4FF4007222
:105BE800394628460BF0B0F807232B70BAF1000F9E
:105BF800CFD1019B48464FEA430A049B0AEB0301B5
:105C0800FFF768FD00283FF437AED9F80830049A4A
:105C1800B3EB422F3FF630AE049B4FF400720021E5
:105C280028460AEB430A0BF08FF8032281238221CE
:105C380002202A7085F820300023686385F8401018
:105C4800D9F804106A656964D9F80820C5F838805D
:105C5800AA65049AEB65002A3DD0984607E0B8F19A
:105C6800000F31D008F10108049B984533D0336800
:105C78002A460AEB080130465B6A98470028EED1AD
:105C8800002F7FF495ADF7E5002FB2D0019B384681
:105C980020494FEA430AFFF7CDFC049B48460AEB2C
:105CA8000301FFF717FD00283FF482ADD9F808304B
:105CB800049AB3EB422F3FF67BAD002FACD01649C8
:105CC8003846FFF7B7FCA7E74FF40072414628466D
:105CD8000BF03AF8C6E7002F3FF471AD38460F498C
:105CE800FFF7A8FC6BE54FF48072CDF8188004929A
:105CF80080E54FF40072214628460BF025F808E7A6
:105D080085F800B04CE700BF940B0020A40B0020DE
:105D1800BC0B0020A80B0020C00B0020D00B0020DB
:105D28002DE9F0410C46154601F11E08AB892846BD
:105D380034F8026F1BB96A68AB689A420ED004F057
:105D48005BFD04F067FE0746304604F063FE8742B9
:105D580009D14445EAD10120BDE8F081B6FA86F0C0
:105D68004009BDE8F0810020BDE8F0812DE9F84F39
:105D780090F831308946002B45D090F83030804675
:105D8800012B53D9013A8A4602274FF0000B8E188F
:105D9800002239464046FEF74FFAA0B30378C12BDC
:105DA80031D1044600F11E0519E000F510539BB2ED
:105DB800B3F5806F27D24FEA8B2B1E4BC0F3090037
:105DC8000BEA0303184300F580305146324604F0CD
:105DD8008BFD8246B8B1AC424FF0000B1FD034F8AF
:105DE800020FBBF1000FE0D100F520539BB2B3F5D1
:105DF800006F0ED30028E8D1C9EB0A0000238AF807
:105E08000030BDE8F88F0023184689F80030BDE857
:105E1800F88FB3F5806FF6D2AC428346DFD10137F5
:105E280098F83030FFB2BB42B2D2E5E78A4600208C
:105E3800E4E700BF00FC0F00F8B50D4600234FF65D
:105E4800FF762A681946AB811C466A602B6116E00A
:105E580004F0D2FCB04221D004F0DCFD2B69E2034F
:105E6800A9890712013342EA54022B6152FA80F0E1
:105E7800C0F34E0343EAC03017FA80F4A4B22846B0
:105E88000029E5D16A68AB689A42E1D12869AC82F9
:105E98000138FE288CBF00200120F8BD0020F8BD85
:105EA80038B50C46D0F82414154600F504700122C4
:105EB80001EBD41104F068FC034628B1A4000120CA
:105EC800C4F308041D5138BD38BD00BF2DE9F84F93
:105ED800804691468B46002943D08F1ED8F830342F
:105EE8009F423AD207F007050123C7F3C80A03FA0D
:105EF80005F5EDB23E463C46D8F82C140022404643
:105F080001EB143104F040FCC0B110F80A100AE0AB
:105F18004A4529D0A74210D0D8F83024944216D246
:105F280013F0FF050CD001340D424FEA4503A4EBF2
:105F38000602EDD0A7422646EED10120BDE8F88F33
:105F48000AF1010A0125BAF5007FDED101E0002639
:105F580034464FF0000A0125CEE700270125BA464E
:105F6800C8E7D0F82074B9E7BBF1000F04D1B9F144
:105F7800010F08BFC8F82064B01CBDE8F88F00BF47
:105F88002DE9F047023915469A46D0F830244B19C6
:105F9800934238D88046BAF1000F37D1D0F8203470
:105FA800994238BFC0F8201401F007040122D8F83C
:105FB8002C34C1F3C80602FA04F403EB1139E4B235
:105FC800012249464046914404F0DEFBD8B18719C6
:105FD80000F5007017F8012B224282EA04024FEA0A
:105FE800440414BF0126002656450CD0013D07F88D
:105FF800012C17D014F0FF04EED1874226464FF04B
:106008000104E7D1DCE70020BDE8F087D0F82004E0
:106018008342C9D98142C7D8934228BF0023C8F810
:106028002034C1E70120BDE8F08700BF70B50E46F7
:106038000446D0F8385400F504704968336829409C
:10604800D4F82C54023B94F8454405EB5121A34065
:10605800194404F099FB18B17368C3F30803184492
:1060680070BD00BF38B5D0F8303401338B4216D339
:106078000C46D0F82414154600F50470002201EBF4
:10608800D41104F081FB50B1A100C1F308014358B9
:106098005A1C02D02B60012038BD002038BD4FF0BB
:1060A800FF3038BD70B54C680D46D0F83834064618
:1060B800A1182340696090F845441A440934E4B2B1
:1060C80022FA04F43CB12B7A3BB12B6801332B60E4
:1060D800013C002CF7D1012070BD2A4629683046C2
:1060E800FFF7C0FF0128F3D070BD00BF01290DD90B
:1060F800D0F830340133994210B403D900205DF848
:10610800044B70475DF8044BFFF7CABE0020704788
:106118002DE9F0410C4682B005468846214601AA81
:106128002846FFF79FFF012C0746C0F3C0162146FB
:10613800284626D9324626BBD5F8303401339C424E
:106148001FD8FFF7ADFE04F1010E41463346C8EBF8
:106158000E02B0B1284647B1019CA645DED0FFF734
:106168000FFF70B1019CA046D8E7621C3B46414630
:106178002846C8EB0202FFF703FF10B102B0BDE8E2
:10618800F081002002B0BDE8F08100BF2DE9F8439E
:1061980000248046D0F82C6400F504772546314663
:1061A80000223846013604F0EFFA28B300F1FF3E2A
:1061B800D8F830C405F580591EF8010FFF2813D010
:1061C80048B10822012318424FEA430118BF01349D
:1061D800013ACBB2F7D10835AC4509D94D45DED0E7
:1061E8001EF8010FFF28EBD108350834AC45F5D867
:1061F800C4EB0C00BDE8F883BDE8F8832DE9F04155
:10620800002304464FF0FF3600F504771546C0F822
:10621800401441601A46C4F814123846194684F8E6
:106228004434237084F81032E660C4F81C6204F029
:10623800ABFA042D0DD8064658B16DB90522294987
:10624800F01C0AF05BFE034618B996F86C20092A80
:106258001AD00020BDE8F0816B1E00EB031393F801
:10626800BE2112F07F02F4D193F8C231002BF0D096
:1062780000EB05153846D5F8B651294604F084FADE
:1062880006460028DAD1E4E7326D4FF001080146EE
:10629800204602EB050E4246C4F824E4776DC4F8A4
:1062A8002874B76D3D44C4F82C54F56DC4F83054C7
:1062B800356EC4F8345496F86D50C4F8203405F19E
:1062C800090384F8455408FA03F35D1EC4F83C3406
:1062D800C4F83854FFF7FAFD4023404684F84434A4
:1062E800BDE8F081F00B002070B582B0D0F834140E
:1062F8000546002402AE46F8041D01E009D00199C4
:1063080032462846FFF7AEFE002804F10104F5DA0C
:10631800002495F845040930C0B204FA00F002B030
:1063280070BD00BF38B50D460446242200210AF08E
:106338000BFDA560EB79102B05D0202B08D00C2B7A
:1063480001D0002038BD202301202370A07038BD63
:10635800402301202370A07038BD00BF024638B525
:1063680052F8105F04468068294602F0AFF850B131
:1063780055B123690135AB42A37818BF03F0BF03B9
:1063880063F07F03A37038BDA37843F04003F7E7B9
:10639800F8B5037803F020032BB903F0FF04416933
:1063A800194B994202D900263046F8BD0546FFF739
:1063B800D5FF06460028F6D0A8682F698379023FE2
:1063C800426901799F40174441B913E00AF0BCFCC7
:1063D8000134A868E4B20379A3420AD90522E11975
:1063E800283004F0D1F94FF4007200210028EDD1D3
:1063F800D9E783794FF40072696902FA03F311FA55
:1064080083F36B61D0E700BFFFFD1F0010B50446A2
:1064180080680A462830A16904F0B6F920B1A3883B
:1064280003F00F0300EB431010BD00BF30B590F927
:10643800023083B00446002B19DBA56805F128005B
:1064480004F0D2F930B96378002043F00103637097
:1064580003B030BD05F50E7004F0C6F90028F2D07F
:10646800286803681B6A98470028ECD0F0E70121E8
:10647800FFF7CCFF05460028E5D00378E52BE2D0EE
:1064880023781B0701D5E369C361236A0B491A0CFA
:106498006B830B68AA8263B10DF103020DF106014B
:1064A80001A89847BDF80430BDF806202B836B82FD
:1064B800EA82A37803F07F03A370BEE73C2800209C
:1064C80010B50378044623B9002301202370A37074
:1064D80010BDFFF7ABFF00232370A37010BD00BFF2
:1064E80070B5037805460C46BBB928460021FFF76E
:1064F8008DFF0346A8B1066801205D689968DA68CF
:1065080026606560A160E2601E695D699969DA6963
:1065180026616561A161E26170BDFFF787FF002810
:10652800E3D1002070BD00BF30B589B00D461446D8
:106538006946FFF7D5FF28B1BDF81020BDF80E3029
:106548002A80238009B030BD30B589B00D46144685
:106558006946FFF7C5FF28B1BDF81820BDF8163009
:106568002A80238009B030BD2DE9F0410C7888B02D
:1065780014F0700F03D1002008B0BDE8F08140F698
:10658800022305460C4601F077F80028F3D00122D3
:1065980010232846AA702B70FFF7FAFE0028EAD0CD
:1065A8002A692B782A62002B7FD101212846FFF720
:1065B8002DFF07460028DED0102300687968EE46D4
:1065C800FB724FF02E0CBA6808AEFB68B7F814805F
:1065D800AEE80F00BA69FB693869796906F820CD19
:1065E8000DF10A0C7F8BAEE80F003346202203F82A
:1065F800012F6345FBD1A86801222B6A90F806E0B9
:106608002830023B50F8141C03FA0EF3194404F026
:10661800BBF886460028AED0ADF814804FF02E089F
:10662800ADF81A7037460FCECEF80000CEF8041039
:10663800CEF80820CEF80C308DF801800FCECEF8B9
:106648001000CEF81410CEF81820CEF81C30236AAB
:106658001A0CADF81A30ADF814200FCFCEF8200080
:10666800CEF82410CEF82820CEF82C300FCFCEF854
:106678003000CEF83410CEF83820CEF83C30AC6874
:1066880004F1280004F0B0F800283FF474AF04F5D2
:106698000E7004F0A9F800283FF46DAF2068036875
:1066A8001B6A08B0BDE8F04118476B6933B1AB7895
:1066B800002223F020032A616A61AB702846FFF7A5
:1066C800B5FE00283FF457AF6FE700BF2DE9F04152
:1066D800064694B000200C4631780192ADF81400BB
:1066E8008DF82C008DF82D008DF82E0021B99846D4
:1066F800237813F0700F03D1002014B0BDE8F081A7
:10670800137811462F2B2ED0002701AB02AA304652
:1067180001F004F902AA214600230028ECD0019DCB
:1067280030462D78002D30D000F0A6FF48B9B8F1DA
:10673800000FE1D0214602AA3046FFF715FF0028D6
:10674800DAD035460BAC96F800E00FCD0FC40FCD6C
:106758002D680FC42560BEF1000F12D137700BAC45
:10676800B7700199D1E7013101910B782F2BFAD03D
:10677800A1680BA8FFF7D6FD0028BDD00BAC019986
:10678800C2E73046FFF752FEE8E702AA2146304644
:10679800FFF7EAFE14B0BDE8F08100BF2DE9F04133
:1067A800064694B000200D46317801928DF8080015
:1067B8008DF809008DF80A00ADF8380021B998461F
:1067C8002B7813F0700F03D1002014B0BDE8F081CE
:1067D800137811462F2B2AD0002702E00199377031
:1067E800B77001AB0BAA304601F098F80BAA2946FE
:1067F80000230028E8D0019C3046247834B300F008
:106808003BFF354602AC0028DED096F800E00FCDFD
:106818000FC40FCDD5F800C002AD0FC4C4F800C036
:10682800BEF1000FDAD03046FFF700FED6E701319F
:1068380001910B782F2BFAD08BB1A96802A8FFF72A
:1068480071FD0028C0D002AD0199C5E743460BAAE7
:106858002946304600F010FF14B0BDE8F081A96861
:106868003046FFF75FFDB0E719B101F58961FFF721
:1068780095BF0846704700BF38B5CB6843B9027862
:106888000AB1184638BD8968BDE83840FFF74ABDE7
:106898000D462422002104460AF056FA012310224C
:1068A800A37018462270AA68EB68A260236238BDFC
:1068B80003780BB100207047FFF734BD2DE9F04F86
:1068C800837883B00546DF0740F190800F46017852
:1068D80091460E0700F193808C0608D582684369BB
:1068E8005289C3EB42139BB2994528BF9946B9F127
:1068F800000F00F0AA806B6988064E464FF000082A
:1069080005F1100AAA68C3F3080440D5116A01EB1F
:106918005321002C54D1B6F5007F51D3536B9942C3
:106928004ED0B6F5806F73D328784FEA562B800681
:1069380005D41079C8EB0000834528BF83469942E7
:106948004FEA4B240DD801EB0B00834209D202F128
:1069580028000191009203F047FF009A019900284E
:1069680044D0D06A5B463A46D0F800E0DEF814B06E
:10697800D84700283AD06B69361B274423446B61FB
:1069880063D02978C3F30804AA688806BED492F8AD
:10699800058008EA5328002C38D1B8F1000F35D10A
:1069A800002B3FD148064CBF136A2B6A2B619179A3
:1069B800023B50698B4008EB00011944002CAAD017
:1069C80002F12800002203F0DFFE78B1C4F500735D
:1069D80001193846B34228BF33461A461C4606F00A
:1069E80001F9C8E72B7813F0700F2FD16B784FF0AF
:1069F800FF3043F002036B7003B0BDE8F08FC3694A
:106A080042699B1A994528BF994670E72B69CEE7DA
:106A1800D06A3A4603681B6998470028E6D04FF4C5
:106A28000074A8E7090705D5AB785B0602D52B6982
:106A38000133BBE710462969524601F0CFFC002814
:106A4800D4DBCFD0AA682B69B1E70026C6EB0900D2
:106A580003B0BDE8F08F00BF70B582B001220446D4
:106A680046690DF107010569FFF728FF01286661EE
:106A78000CBF9DF807004FF0FF30256102B070BDD4
:106A8800436930B5C3F3431583B00446B5FA85F2BC
:106A980052098A4207D220334361A068383000EB9C
:106AA800451003B030BD01220DF10701FFF706FFC5
:106AB80040B2012803D163691F336361EDE7002009
:106AC800EFE700BF2DE9F04305789BB0002415F0EF
:106AD800180F8DF820408DF821408DF822408DF850
:106AE80044408DF845408DF8464004D086680346FA
:106AF8008D68AE4203D000201BB0BDE8F0831D4670
:106B080090460E46FFF792FCAE4611AFBEE80F0066
:106B18000FC7BEE80F00DEF800E00FC72146284681
:106B2800C7F800E0FFF772FC86460028E3D000684B
:106B38006F46DEF80410DEF80820DEF80C3095F811
:106B480000C00FC70CF0080CDEF81000DEF81410B7
:106B5800DEF818200CF0FF09DEF81C300FC7BCF176
:106B6800000F00F096804246314640F6012308A8FF
:106B7800FFF714FE0028BED00E9A0026BDF8243078
:106B88000121AA612846AB809DF823200B9BEA705F
:106B9800EB608DF820608DF82260FFF737FC002845
:106BA800A9D01AAB9DF80B2053F85B7DC272D3F8BD
:106BB80004E0C0F80D709F68C0F811E0C0F81570C7
:106BC800D3F80CE01F8A9B7CC0F819E0A0F81D7070
:106BD800C377002C3BD0AF68A31E3246BE7907F1BD
:106BE80028007969B340194403F0CEFD002882D00B
:106BF80006466F4656F8200F7168B268F3680FC7EB
:106C080030697169B269F3690FC72146A86801F054
:106C1800BFFC00283FF46FAFA96801222B6A8C796A
:106C280001F12800023B4969A340194403F0ACFD77
:106C3800074600283FF45FAF6C460FCC3862796294
