:1000000000000320D101000039A30000F1A200008C
:10001000F1A20000F1A20000F1A20000F1A2000094
:10002000F1A20000F1A20000F1A2000039A300003B
:1000300039A30000F1A20000B59D0000B99D0000A9
:1000400039A3000039A3000039A3000039A3000040
:1000500039A3000039A3000039A3000039A3000030
:1000600039A3000039A3000039A3000039A3000020
:1000700039A3000039A3000039A3000039A3000010
:1000800039A3000039A3000039A3000039A3000000
:1000900039A3000039A3000039A3000039A30000F0
:1000A000ED990000F999000039A3000039A3000080
:1000B00039A3000039A3000039A3000039A30000D0
:1000C00039A3000039A3000039A3000039A30000C0
:1000D00039A3000039A3000039A3000039A30000B0
:1000E00039A3000039A3000039A3000039A30000A0
:1000F00039A3000039A3000039A3000039A3000090
:1001000039A3000039A3000039A3000039A300007F
:1001100039A300004DA9000039A3000039A3000055
:1001200039A3000039A3000039A3000039A300005F
:1001300039A3000039A3000039A3000039A300004F
:10014000699B000039A3000039A3000039A3000017
:1001500039A3000039A3000039A3000039A300002F
:1001600039A3000039A30000059A000039A300005C
:1001700039A3000039A3000039A3000039A300000F
:1001800039A3000039A3000039A3000039A30000FF
:1001900039A3000039A3000039A3000039A30000EF
:1001A00039A3000039A3000039A30000119A000010
:1001B00039A3000039A3000039A3000039A30000CF
:1001C00039A3000039A3000039A3000039A30000BF
:1001D0005C4B4CF2205210B51A804DF628121A8052
:1001E00000BF00BF0AF0ACF8574B4FF030621A6006
:1001F000564A9A60564ADA60564B4FF470021A60BB
:10020000554B564A1A60564B1A78110703D51A787F
:1002100042F008021A70534B5349AA221A70534AEB
:10022000534B8B4204D252F8040F43F8040BF8E707
:10023000504B514900228B4202D243F8042BFAE77B
:100240004E494F4A002352F8230041F8230001335E
:10025000742BF8D14B4B4C4A802103F8011B93427D
:10026000FBD14A4B454A1A60494B8A221A70A3F5C2
:10027000805324225A70A0221A709A799207FCD5D2
:100280009A79D406FCD4434A937903F00C03082BE3
:10029000FAD1414B60221A7002331A78802AFCD1BD
:1002A0003C4B01221A715D225A719A799006FCD555
:1002B0009979384A4906FBD5384B394919600021EC
:1002C000596020231370937903F00C030C2BFAD19F
:1002D000344B354A1A60354A354C136813F4807331
:1002E00003D123604FF4A8531360324B324A1A6093
:1002F00000225A60072243F8042C304AC3F80C2D20
:1003000062B60AF01BF92368DA0705D52C480AF013
:1003100001F92C4B2C4A1A602C4B1B785B0609D533
:10032000284C294B22689A4204D125480AF0F2F859
:10033000002323600AF00AF80DF022FE09F0FCFE0B
:10034000FEE700BF0E20054030800440823F0400DD
:100350000100002B88ED00E0002008E0030000858C
:1003600002D0074000E007403C2BFF1F88F600004A
:100370003017FF1F402BFF1F6836FF1F0012FF1FA3
:100380000000000000E400E064E400E008ED00E0AC
:10039000005006400040064001E007404480044011
:1003A0000000060204800440C010070010D0034083
:1003B00014D0034014E000E01FBF02000000202022
:1003C000CBFFC2631CE00340A5C3945A00F0074072
:1003D000FFFFFFFFFFFFFFFFFFFFFFFFFFFFFFFF2D
:1003E000FFFFFFFFFFFFFFFFFFFFFFFFFFFFFFFF1D
:1003F000FFFFFFFFFFFFFFFFFFFFFFFFFFFFFFFF0D
:10040000FFFFFFFFFFFFFFFFFFFFFFFFDEF9FFFF23
:1004100010B5054C237833B9044B13B10448AFF33E
:1004200000800123237010BD402BFF1F000000003F
:1004300084F60000084B10B51BB108490848AFF31B
:1004400000800848036803B910BD074B002BFBD0A0
:10045000BDE81040184700BF00000000442BFF1FFC
:1004600084F600003C2BFF1F0000000070B51F4BFE
:10047000036004460021012004F124020B4660724F
:1004800022612172E16004F1280600E0226942F84D
:100490002310627A01339A42F8DC154B1A680AB9C4
:1004A00021E01A465369002BFBD1546120460021FC
:1004B0000125104B26626161A180E180A172E1619A
:1004C000A1622576502240F82C3B0EF07BF84FF0CD
:1004D0007E53094AC4F88050E267E362236463658F
:1004E000A366204670BD1C60E0E700BF9CEB0000E7
:1004F0006C34FF1F7CEC0000A6552C472DE9F0431F
:10050000584D594C2E68594FDFF8D09183B040F2C6
:10051000EE2804E0B3F5FA6F15D80BF07DF80BF078
:100520007BF8237843B13B78DB0705D52B68D9F8F6
:1005300000209B1A0E2B06D82B6822789B1B002AC2
:10054000E8D14345E9D94FF4FA700AF0F5F8484B81
:10055000484F494E494C01224FF47A701A700AF004
:10056000EBF80A21464809F0B1FA202000F0B6FB6A
:100570004448454A4549464BC26300F12C02016399
:1005800083634449444B4764012AC6640465C0F848
:100590008020C16241630364836405D900F1900344
:1005A000042184300BF0F2F83C483D4A3D4C3E4B70
:1005B0008263002100F12C023C4F3D4EC462016376
:1005C0003C4C3D494363012A3C4BC7634664C464C9
:1005D0000165C0F880200364836405D900F19003AD
:1005E000042184300BF0D2F82B680193019C34492C
:1005F0002B680093334B009A0C6033481A6001213A
:100600000AF006FF314809F0F5FB2D2130480AF0C9
:10061000FFFE2E4809F0EEFB01212B480AF0F8FE00
:100620002A4809F0E7FB39212A480AF0F1FE274859
:1006300009F0E0FB012124480AF0EAFE234809F012
:10064000D9FB2F2124480AF0E3FE204809F0D2FB11
:1006500001211D480AF0DCFE1C4809F0CBFB03B069
:10066000BDE8F0830035FF1FE435FF1FFC35FF1F99
:100670003417FF1F7A899E3FAF7B9EBF1EBA74BEA0
:100680000002FF1F782BFF1F590DDA3ECB08073FF2
:100690008730F6BECB08873E7A891E3FBC2CFF1FF1
:1006A00068049D3FB9F3B03EB9F3B0BE8E189EBE4C
:1006B00055CAFEBF4FCAFE3FB4947DBF55CA7E3FA8
:1006C000C42DFF1F042EFF1FA0EB00004422FF1FBC
:1006D000A4EB0000D4EB000010EC00006036FF1F1C
:1006E0002DE9F04FBC4B2DED028B1A7885B0002A16
:1006F0003BD0BA4DBA4CAA6B002119705AB9B74811
:1007000000F00AFC10EE100A0DF0BAF8AB6BC4E969
:100710000001002BF3D0B148B24D00F0FDFB10EE0C
:10072000100A0DF0ADF806460F4602460B46C4E926
:1007300000670DF0F9F802460B46D5E900010CF010
:1007400041FFA94A1368C5E9000101331360A74CB2
:10075000A74A23680093009B11685B1A7C2B0AD878
:1007600005B0BDEC028BBDE8F08F9C4B9B6B002B62
:10077000EDD09B4CCFE7236801939B49019B13600D
:100780000868DFF860920DF059F802460B46D9E987
:1007900000010DF0F3F941EC100B0BF0B9FB002256
:1007A000002351EC100BB0EE408AF0EE608A0DF0A1
:1007B00023FB08B19FED828BB0EE480AF0EE680A89
:1007C0008C4BDFF87C8283ED008B0BF07BF90022F1
:1007D00051EC100B884B0DF0A7F8884B00220CF061
:1007E000F1FED8ED007A864BF5EE407A06460F46CC
:1007F000F1EE10FAC3E9006740F0D0800DF064FB21
:10080000C8F800007F4DD5ED007AF5EE407AF1EEA4
:1008100010FA40F0B580304639460DF055FB28609F
:100820000022794BDFF81CA2DFF81CB230463946B3
:100830000DF0A4F99FED640B41EC110B0BF0CCF91A
:10084000724B51EC100B83ED000BDAE900230CF036
:10085000B9FEDBF80030013306460F461846CAE9F8
:100860000067CBF800300CF0E9FF02460B4630463B
:1008700039460DF083F941EC100B0BF023F90022FF
:10088000614B594F51EC100B0DF04EF82368604A44
:100890000293029E5F4C1368DFF850E19FED4C7BA2
:1008A000F31AC4E9000141F288340026A34289ED1D
:1008B000007B3E605BD9DEF800300393039B13603E
:1008C000554B564F564E574C00221A70CBF800200D
:1008D0000DF0FAFA544BD8F80020296838603260DD
:1008E000216001220D2151481A800AF091FD5048E3
:1008F00009F080FA08214F480AF08AFD38680CF0A8
:10090000BFFF41EC100B0221494809F0C9FA4848E1
:1009100009F070FA082148480AF07AFD30680CF0B6
:10092000AFFF41EC100B0221414809F0B9FA4048F1
:1009300009F060FA082141480AF06AFD20680CF0CD
:100940009FFF41EC100B0221394809F0A9FA384801
:1009500009F050FA002300200021CAE90001C8F87C
:1009600000302B6005B0BDEC028BBDE8F08F2A4B48
:100970001A78002AA5D105B0BDEC028BBDE8F08F36
:1009800017EE900A0CF07CFF02460B4630463946C3
:100990000DF05AFA00283FF443AF3CE717EE900AF7
:1009A0000CF06EFF02460B46304639460DF02EFA2B
:1009B00000283FF427AF304639461FE7AFF30080E9
:1009C000000000A0F7C6B03E000000000000244078
:1009D00000000000000000003417FF1F782CFF1FEC
:1009E000E02DFF1F602BFF1FDC2DFF1F0035FF1FB9
:1009F000C42DFF1FF02DFF1F0000344000405F405A
:100A0000702BFF1FB82CFF1F00002440102EFF1F6B
:100A1000042EFF1F902DFF1F702CFF1FD82DFF1FCE
:100A2000082EFF1F5C2CFF1FC02DFF1F40EC000095
:100A30004422FF1F50EC00005CEC000068EC00005A
:100A4000682BFF1FF82DFF1F482CFF1F2DE9F043D7
:100A5000524E534F37600021012006F1240285B029
:100A60000B46707232613172F160344600E02269E7
:100A700042F82310727A494801339A42F7DCDFF8D2
:100A80003481D8F800200AB982E01A465369002B55
:100A9000FBD156610024434B40487461B480F4801C
:100AA000B47234763462F4613F4D336000F0E6FA9C
:100AB0003E48FFF7DBFC3E48FFF7D8FC012105F17B
:100AC00024036972224620462F602C72EC602B6151
:100AD000294600E00B6943F822006B7A324C013260
:100AE0009342F7DCD8F80020324B0AB953E01A469B
:100AF0005369002BFBD155612F4B30492B4F1E60A2
:100B0000002401262E4A296218465F601C726C611F
:100B1000AC80EC80AC72EC61AC625C72DC602E7616
:100B200080234FF000084FF000092A60C5E90C89C6
:100B3000AC63AC87AB8500F095F9224B1C4E1F606F
:100B400018461C725C72DC605E6000F08BF91E4B14
:100B500018461E605D601C725C72DC6000F082F9F9
:100B60001A4B1B4E1A680092009F1A680192019D51
:100B70001A68029202981B680393164C1649174B89
:100B8000039A3760256008601A6005B0BDE8F083FD
:100B9000C8F800007EE71C60AEE700BF982DFF1F7D
:100BA0009CEB0000ACEC0000782CFF1F782BFF1FA3
:100BB000BC2CFF1F6C34FF1F4C2CFF1FA02CFF1FF1
:100BC000A0EC0000C82DFF1F602CFF1F0035FF1F89
:100BD000C42DFF1F002EFF1FE82DFF1F042EFF1F37
:100BE00038B50021054600F01BF9B8B1D5F88030C2
:100BF00083B1012B044607D0021DD0F808321146FC
:100C000005F184000AF0D0FD28460022214600F0BC
:100C1000E1F82046BDE8384000F0B8B838BD00BF64
:100C2000154B1A782AB3B0F5761F4FF0000270B555
:100C30001A709ABF4FF4057343434FF0FF330446D5
:100C4000184609F0D3FB06467CB10C4D00F5057340
:100C5000002280210132A24243F8101C43F80C1CF0
:100C600043F8085C03F50573F4D1054B30461E606C
:100C700070BD034B186870473517FF1FA6552C47EA
:100C8000302EFF1FC029F0B428BFC02172B6114B0F
:100C9000114E1860002333607360B360F3603361FA
:100CA0007361012799B15D0903F01F0456F82520EF
:100CB00007FA04F4013322438B4246F82520F2D18F
:100CC0000023437001338B4200F50570F9D162B601
:100CD000F0BC7047382EFF1F182EFF1F10B50446BA
:100CE000FFF79EFF20B12146BDE81040FFF7CABFC5
:100CF00010BD00BF70B472B6204B186820B9586898
:100D000028B30433202200E000221D4E3478B0FACC
:100D100080F54FF00041E9400134E4B220EA0100DF
:100D20003470186062B64FF40571531B01FB03F277
:100D3000144B1549186802F580436C330122C254E4
:100D40000A78A242184438BF0C7070BC704798688B
:100D500020B9D86828B10C336022D6E70833402286
:100D6000D3E7186920B9586928B11433A022CCE719
:100D700010338022C9E762B6E7E700BF182EFF1FD5
:100D8000342EFF1F382EFF1F352EFF1F427872B6FC
:100D90000378012B03D9013B037062B6704770B42E
:100DA00056110A4D0A4C55F826102378D2434FF0BD
:100DB000004002F01F0220FA02F21143013B45F805
:100DC0002610237062B670BC704700BF182EFF1F3C
:100DD000342EFF1FC369B3B130B401E0DB688BB1BF
:100DE000187A9042FAD158685C7A006A50F8245018
:100DF000002DF3D140F82410087801300870DB682A
:100E0000002BEDD130BC7047037E8B4206D9036ABC
:100E1000002253F8210043F821207047002070473A
:100E200038B5037E8B421AD9036A53F82140002259
:100E300043F821209CB12378012B0ED9FFF75AFFEC
:100E4000054628B14FF40072211D043009F07CF9E9
:100E50002378013B2370284638BD204638BD00204A
:100E600038BD00BF4368427A1B7E9A420ED872B6E4
:100E70000168CA690AB90AE01A46D368002BFBD197
:100E8000D060426801230B72137262B67047C8616A
:100E9000F7E700BF70B5044608460D460DF010FC9C
:100EA00023680246294620465B68BDE87040184723
:100EB00030B583B00023002101930446FFF7A4FF5F
:100EC000C8B1011D01ABA28D054608460AF04EFDD2
:100ED00001980CF0D5FC0B460246D4E90C010CF04D
:100EE00071FBA36B0133C4E90C01A3632846FFF730
:100EF0004DFF03B030BDA38F002BFAD0142104485E
:100F00000AF086FA034808F075FF03B030BD00BF51
:100F100080EC00004422FF1F10B5044672B6D0E9F1
:100F20000C010CF0D1FFD4ED0E7A06EE900A0021F0
:100F300000200023C4E90C01A363B8EE677A62B60F
:100F4000A38D07EE903AF8EE677A67EE877A86EE21
:100F5000A77AB1EEC70AB4EE400AF1EE10FA00D15A
:100F600010BDB0EE470A0BF033F8F9E730B41F4A72
:100F70001F4B11681F4809691279027003F500724E
:100F800091421D4929D21D4A0868147803EB80025A
:100F900003EBC00034BB1A4B1B68E3B1194D0C685E
:100FA0002988B1EB540F16D804EBD47401EB640418
:100FB0009FED157A2C8003EB8101043152F8083B38
:100FC0001B1207EE903AF8EEE77A904267EE877AC6
:100FD000E1EC017AF2D830BC704708681A4603EB9E
:100FE0008000D8E7094B01241C60D4E73C2EFF1F8A
:100FF000400CFF1F1F8000403817FF1F4A2EFF1FA5
:10100000442EFF1F482EFF1F0000003408E200E0BE
:1010100038B50546FFF76EFE014672B6114B124A0F
:101020001C88126894420CDAD0B1104C226822B1AC
:1010300062B6BDE83840FFF7A9BE20601A8062B6EC
:1010400038BD0A48002204681A80016062B628464A
:101050002146FFF7BFFE2046BDE83840FFF796BEA9
:1010600062B638BD482EFF1F3817FF1F442EFF1FE2
:1010700010B5044608F020FE204610BDF8B52C4CF3
:101080002C4E2D4F2D4D2046012108F0AFFD2C4B4D
:101090002C492D4A18682D4B1268086001201A60EF
:1010A00000F014F92A4B2B4A2B484FF48061196049
:1010B000236800211A60998022791E6102F1804222
:1010C00040F20226DE809F6102F504324FF4807602
:1010D0000627DE82DE839F8304268C27D9609E60EC
:1010E0009E82117017702B681C4E43F0124343F020
:1010F00001032B6003681A4D43F01043036008F0AE
:101100001BFD2279174B184C187053119B0003F1EB
:101110006043174602F1100003F5614302F01F021D
:101120000121377001FA02F245F820401A60F8BD3B
:101130003C2EFF1F400CFF1F00FCFFFF80F0024011
:101140003C17FF1F4017FF1F3817FF1F4417FF1FD3
:1011500014B00440A0F0024000F002401B800040A8
:101160000012FF1F4A2EFF1F6D0F0000024A0349A5
:1011700003480CF01BBA00BF3017FF1F71100000AE
:101180003C2EFF1F184A4FF0804313601368002B5A
:10119000FCDBF0B5154C1648DFF884E01549164A1B
:1011A000164B174E174D184F4FF2FE0CC4F800C0E7
:1011B000002404600120CEF80000DFF868E0C1F8E8
:1011C00000E04FF480311160104A1A60104B336018
:1011D0002C6038600F4C1048104F776745F8541C4E
:1011E00022600360F0BD00BF00F1024004F1024044
:1011F00060F0024008F002400CF0024010F00240A3
:1012000014F00240E0F0024084F002401B0F0100A5
:10121000000F0F0F90F0024094F0024003000047CF
:1012200004F0024003000007184A4FF080431360A7
:101230001368002BFCDBF0B5154C1648DFF884E092
:101240001549164A164B174E174D184F4FF2FE0C04
:10125000C4F800C0002404600120CEF80000DFF8CC
:1012600068E0C1F800E04FF480311160104A1A6064
:10127000104B33602C6038600F4C1048104F77676C
:1012800045F8541C22600360F0BD00BF00F102402D
:1012900004F1024060F0024008F002400CF002400D
:1012A00010F0024014F00240E0F0024084F00240EE
:1012B0001B1F0100001F1F1F90F0024094F002400E
:1012C0000100004704F0024001000007124B1349DF
:1012D0001A6842F4004210B51A600A68104C42F0D5
:1012E00002020A601A6842F002021A602368002BA8
:1012F0000EDB0C4B1B68002B0ADB50B9FFF742FFDB
:1013000009480A490A4A4FF4C06303600B6013603E
:1013100010BDFFF789FFF3E73C80044040800440A4
:1013200000F0024080F0024008B004400CB00440DD
:1013300018B00440024A034903480CF037B900BF13
:101340003017FF1F711000004C2EFF1F024A034987
:1013500003480CF02BB900BF3017FF1F71100000BD
:10136000542EFF1F38B5074D074C08482A46214622
:101370000CF01CF92A4621460548BDE838400CF01F
:1013800015B900BF3017FF1F711000005C2EFF1F42
:10139000642EFF1F024A034903480CF007B900BF3F
:1013A0003017FF1F711000006C2EFF1F024A034907
:1013B00003480CF0FBB800BF3017FF1F711000008E
:1013C000742EFF1F024A034903480CF0EFB800BF18
:1013D0003017FF1F711000007C2EFF1F024A0349C7
:1013E00003480CF0E3B800BF3017FF1F7110000076
:1013F000842EFF1F024A034903480CF0D7B800BFF0
:101400003017FF1F711000008C2EFF1F024A034986
:1014100003480CF0CBB800BF3017FF1F711000005D
:10142000942EFF1F024A034903480CF0BFB800BFC7
:101430003017FF1F711000009C2EFF1F024A034946
:1014400003480CF0B3B800BF3017FF1F7110000045
:10145000A42EFF1F024A034903480CF0A7B800BF9F
:101460003017FF1F71100000AC2EFF1F024A034906
:1014700003480CF09BB800BF3017FF1F711000002D
:10148000B42EFF1F024A034903480CF08FB800BF77
:101490003017FF1F71100000BC2EFF1F024A0349C6
:1014A00003480CF083B800BF3017FF1F7110000015
:1014B000C42EFF1F024A034903480CF077B800BF4F
:1014C0003017FF1F71100000CC2EFF1F024A034986
:1014D00003480CF06BB800BF3017FF1F71100000FD
:1014E000D42EFF1F024A034903480CF05FB800BF27
:1014F0003017FF1F71100000DC2EFF1F0020704707
:10150000704700BF036D0BB101207047406D003084
:1015100018BF0120704700BF10B50446806D18B198
:101520000CF05EFD0023A365236D2BB104F11800C0
:10153000BDE8104005F034BD636D002BF6D110BD41
:10154000F0B5002395B01A460546183104A84FF4AB
:101550007A74224F8DF804308DF80C301293139367
:101560000294009705F070FD129B002B2BD05C209D
:1015700008F03AFF04461A4B9DF80400029A1949F4
:10158000236000269DF80C302073A160226104A91D
:10159000237504F11800666005F0D4FC6368124AF4
:1015A000A76001334FF47A71A6652E712E732C61FA
:1015B0006360A9602A600D4B009304A805F0F0FC5D
:1015C000284615B0F0BD139B002BD0D1064A2B71D5
:1015D000AC602B732B612A60EDE700BF00ED0000CB
:1015E00050ED0000B8EC000024ED0000DCEC000041
:1015F000036D13B1184603F055BE406D08B101F0FC
:10160000AFBC4FF0FF30704700B5836C83B063B15F
:10161000184601220DF1070103F074FD01280CD1D9
:101620009DF8070003B05DF804FBC06C28B10122EF
:101630000DF1070101F0C0FBF0E74FF0FF30F1E7DB
:10164000F0B5036D83B00C462BB318460DF10602BE
:1016500001A903F0BBFBD8B1BDF80430BDF80620EA
:1016600003B9AAB102F01F06C3F343155912C2F31E
:1016700045177600013D01F5EA6103F01F03D21220
:1016800026706571A17123716770A27003B0F0BDFF
:10169000002003B0F0BD406D0028F9D00DF1060226
:1016A00001A901F019FBD6E7036D9BB11A7812F07E
:1016B000700F00D1704710B504460021184603F0A2
:1016C00013FF606D28B100220023BDE8104001F037
:1016D0005FBC10BD406D0028ECD090F8313013F0A5
:1016E000500FE7D00022002301F052BC38B5846DC2
:1016F0000CB1204638BD05464FF480700CF068FCF4
:101700000146A86580B1286D0C7028B14FF4807235
:1017100005F06CF9AC6DECE7686D40B14FF4807288
:1017200002F08EFFAC6DE4E7024CAC65E1E70C46DD
:10173000DFE700BFE42EFF1F8A79A2F150031B06EA
:1017400020D4F0B54B79046D0D798E784F780978F7
:10175000013385B002F26C72DBB244B103918DE8C3
:10176000E0002046042103F0D7FF05B0F0BD406D36
:101770000028FAD003918DE8E000042102F0AAF9D4
:1017800005B0F0BD00207047D0B5046D8CB1012BC1
:1017900008BF002A01D30020D0BD1146204603F027
:1017A000A3FE0028F7D0204604F01EF80028F2D04F
:1017B000D0BD446D002CEED0204601F0E9FB00289E
:1017C000E9D02046BDE8D04002F032BAF0B5036D52
:1017D00083B00C462BB318460DF1060201A903F0A5
:1017E00005FBD8B1BDF80430BDF8062003B9AAB195
:1017F00002F01F06C3F343155912C2F345177600D2
:10180000013D01F5EA6103F01F03D21226706571F4
:10181000A17123716770A27003B0F0BD002003B006
:10182000F0BD406D0028F9D00DF1060201A901F0CC
:1018300063FAD6E7036D13B1D86900217047436D91
:1018400013B118695969704718461946704700BFA7
:10185000036D13B1586900217047436D13B193E8CC
:101860000300704718461946704700BF036D13B157
:10187000184603F047BC406D08B101F09DBA4FF027
:10188000FF307047836C13B1184603F00BBDC06C7A
:1018900008B101F065BB4FF0FF307047036D33B105
:1018A0001B7813F0700F14BF012000207047406DAB
:1018B00030B190F8313013F0500F14BF01200020E8
:1018C000704700BF8A79A2F150031B0620D4F0B5FF
:1018D0004B79046D0D798E784F780978013385B096
:1018E00002F26C72DBB244B103918DE8E000204655
:1018F000022103F011FF05B0F0BD406D0028FAD0C1
:1019000003918DE8E000022102F0E4F805B0F0BD9B
:1019100000207047036963B11A68074992698A42D7
:1019200008D1186D08B103F0F1BE586D08B101F08F
:101930007DBF70471846104751190000836C13B1E2
:10194000184603F0E3BEC06C08B101F06FBF7047EA
:10195000036D13B1184603F0D9BE406D08B101F014
:1019600065BF704703698BB110B41C680D48E4680B
:10197000844211D1186D18B15DF8044B03F070BFAB
:10198000586D28B15DF8044B02F0C2B900207047D1
:1019900000205DF8044B7047184623465DF8044B61
:1019A000184700BFE9190000036973B11A680849B4
:1019B00052698A4207D1186D08B103F073BC586DA3
:1019C00018B101F0CDBA184610474FF0FF307047FC
:1019D000F1150000836C13B1184603F041BFC06CD1
:1019E00008B102F095B97047036D13B1184603F0C2
:1019F00037BF406D08B102F08BB9704700B5836CFA
:101A000083B08DF8071043B1184601220DF107018C
:101A100003F026FF03B05DF804FBC06C0028F9D08A
:101A200001220DF1070102F073F903B05DF804FB28
:101A300010B5036982B08DF80710BBB11968104A60
:101A4000CC68944215D1186D30B101220DF1070117
:101A500003F006FF02B010BD586D0028FAD0012235
:101A60000DF1070102F054F902B010BD184602B0A2
:101A700010BD184601220DF10701A04702B010BDAC
:101A8000E9190000036923B310B51968124A8C687C
:101A9000944282B014D1186D48B101220DF10701B2
:101AA00003F030FB90B19DF8070002B010BD586DF7
:101AB0000028F8D001220DF1070101F07DF9F1E7CE
:101AC000184601220DF10701A047EBE74FF0FF3068
:101AD000EBE74FF0FF3070476D180000026D62B108
:101AE000137803F0080303F0FF0003B3D3695069D0
:101AF000181A48BF6FF000407047416DC1B191F8AE
:101B0000313003F0080303F0FF0083B1D1E904236F
:101B1000D1E90001101A30B463EB010100256FF028
:101B200000448D4208BF844200D2204630BC70473A
:101B300008467047826C62B1137803F0080303F023
:101B4000FF0003B3D3695069181A48BF6FF0004013
:101B50007047C16CC1B191F8313003F0080303F054
:101B6000FF0083B1D1E90423D1E90001101A30B498
:101B700063EB010100256FF000448D4208BF8442F1
:101B800000D2204630BC704708467047006970B3E9
:101B90000368184A1B6993420ED1026D6AB113782B
:101BA00003F0080303F0FF000BB3D3695069181A60
:101BB00048BF6FF0004070471847416DC1B191F8C0
:101BC000313003F0080303F0FF0083B1D1E90423AF
:101BD000D1E90001101A30B463EB010100256FF068
:101BE00000448D4208BF844200D2204630BC70477A
:101BF00008467047DD1A0000D0B4039C16461F4605
:101C000034B1012C1ED0022C0DD00020D0BC704766
:101C1000046DDCB1012B08BF002AF6D22046114624
:101C2000D0BC03F061BC036DB3B1DA69B61847F1FB
:101C30000007012F08BF002EE7D231461846D0BC5E
:101C400003F052BC036D8BB15A69EFE7406D002879
:101C5000DBD0D0BC01F09CB9406D0028D5D0D0E9D4
:101C6000042392197B41D0BC01F092B9406D002849
:101C7000CBD0D0E9002392197B41EAE738B504467E
:101C8000806D0C4B236018B10CF0AAF90023A365FA
:101C9000236D04F118054BB1284605F081F9064B78
:101CA000A360284605F07CF9204638BD636D002B03
:101CB000F2D1F4E750ED0000DCEC000038B504464A
:101CC000806D0E4B236018B10CF08AF90023A365D8
:101CD000236D04F118056BB1284605F061F9084B36
:101CE000A360284605F05CF920465C2108F080FBE3
:101CF000204638BD636D002BEED1F0E750ED0000BB
:101D0000DCEC000070B50469244B036005461CB18F
:101D10006668013E66600EB1284670BD2368204AA1
:101D2000DB6A93422CD1A06D10B10CF059F9A66575
:101D3000236D5BB304F1180005F032F92C69002C17
:101D4000EAD02368174A5B6893421CD1A06D164BFA
:101D5000236018B10CF044F90023A365236D04F14E
:101D60001806BBB1304605F01BF9104BA360304696
:101D700005F016F920465C2108F03AFB284670BDB4
:101D800020469847DAE720469847C5E7636D002B61
:101D9000D0D1D3E7636D002BE4D1E6E724ED00005A
:101DA00019150000BD1C000050ED0000DCEC000027
:101DB00070B50569284B036004461DB16E68013E8D
:101DC0006E602EB12046142108F012FB204670BD33
:101DD0002B68224ADB6A934230D1A86D10B10CF017
:101DE000FFF8AE652B6D7BB305F1180005F0D8F850
:101DF0002569002DE6D02B68194A5B68934220D1F3
:101E0000A86D184B2B6018B10CF0EAF80023AB65F5
:101E10002B6D05F11806DBB1304605F0C1F8124B09
:101E2000AB60304605F0BCF828465C2108F0E0FACB
:101E30002046142108F0DCFA204670BD2846984759
:101E4000D6E728469847BDE76B6D002BCCD1CFE78E
:101E50006B6D002BE0D1E2E724ED000019150000C6
:101E6000BD1C000050ED0000DCEC000010B4047F4D
:101E70004160022CC26003D05DF8044B07F038BF0C
:101E800083685DF8044B18472DE9F0410468E56864
:101E900015F0807F794D256052D1DF0740F1B38086
:101EA000002900F0E3800D78012B18BF45F00045B4
:101EB0006563013190F82C8003F1FF3C48EA082863
:101EC000BCF1000F00F0A88021B14D7811F8028B11
:101ED00045EA082845682E7ABCF1020F06F1FF3664
:101EE0004FEA06360CBF48F0805548F01045B6B2B0
:101EF0006563ACF1020C08E00AB114700132013BD9
:101F000005F47045B54216D90468E56A15F0F00F7E
:101F1000F6D0A46B13F0010F17464FEA242EEBD135
:101F20001AB107F802EB54703A4605F47045B54211
:101F3000A3F10203E8D8BCF1000F6DD00468C3E739
:101F4000DD074CD5002900F089800D78012B18BFE2
:101F500045F000456563013103F1FF3E90F82CC068
:101F6000BEF1000F41D029B191F801C00D780231C6
:101F700045EA0C2C45682E7ABEF1020F06F1FF36B9
:101F80004FEA06360CBF4CF080554CF01045B6B207
:101F90006563AEF1020E08E00AB114700132013B34
:101FA00005F47045B54215D90468E56A15F0F00FDF
:101FB000F6D013F0010F1746A46BEDD122B107F84C
:101FC000024B241254703A4605F47045B542A3F111
:101FD0000203E9D8BEF1000F07D00468C3E79E46AC
:101FE00090F82CC0BEF1000FBDD11BB30468E16AAC
:101FF00011F0F00FFBD0A16BDC071DD50AB11170F9
:102000000132013BF1E790F82C809C4648EA082811
:10201000BCF1000F7FF458AF63B10468E16A11F0BE
:10202000F00FFBD0DE07A16B0FD50AB111700132A2
:10203000013BF1E7BDE8F0812AB114460D1204F826
:10204000021B55702246023BCFE72AB114460D12FF
:1020500004F8025B51702246023BDDE790F82C50F9
:10206000012B18BF45F00045656375E790F82C50CB
:10207000012B18BF45F0004565631BE700041F8076
:10208000F0B4464B464A986B5C6B01791170454938
:1020900022790A701A6B00790870002A46D05968B4
:1020A000C9688A423ED82168CC8B240402F1FF30F3
:1020B00065D4C0F30E00C883C88B80B2C882996B08
:1020C0000968C88B000452D4C2F30E00C883C88BC1
:1020D000002480B212F1FF32C88218BF01221C63B3
:1020E000596B2E4809680D6800F12C04A54236D0C2
:1020F0000068C46814F0804F0C680D6815BF248810
:1021000024780235013544F000440D604463996B36
:10211000254B09791970214912B14A6B12791A704D
:10212000F0BC7047521A1A630122D9E7D86B1968BC
:1021300005681E4C0A63CC62CC682D681C4E24F0E6
:1021400080440327B542CC6083F82D701FD1037FF4
:102150004260022BC2601ED0F0BC07F0C9BD01680E
:1021600090F82C00CC6840F000404863CFE7CC8B5F
:10217000C2F3080004F47E442043C883A7E7CC8B55
:10218000C0F3080004F47E442043C88394E72B4640
:102190001146F0BC18478368F0BC18478817FF1F2A
:1021A0001F8000401C8000401B80004000000FFF8B
:1021B0006D1E0000F0B4464B464A986B5C6B01798B
:1021C0001170454922790A701A6B00790870002A4B
:1021D00046D05968C9688A423ED82168CC8B24040D
:1021E00002F1FF3065D4C0F30E00C883C88B80B203
:1021F000C882996B0968C88B000452D4C2F30E00E0
:10220000C883C88B002480B212F1FF32C88218BF85
:1022100001221C63596B2E4809680D6800F12C04DB
:10222000A54236D00068C46814F0804F0C680D6871
:1022300015BF248824780235013544F000440D6030
:102240004463996B254B09791970214912B14A6B86
:1022500012791A70F0BC7047521A1A630122D9E73A
:10226000D86B196805681E4C0A63CC62CC682D686F
:102270001C4E24F080440327B542CC6083F82D70B7
:102280001FD1037F4260022BC2601ED0F0BC07F05A
:102290002FBD016890F82C00CC6840F000404863E6
:1022A000CFE7CC8BC2F3080004F47E442043C883FC
:1022B000A7E7CC8BC0F3080004F47E442043C88316
:1022C00094E72B461146F0BC18478368F0BC1847CA
:1022D0004817FF1F1F8000401C8000401B800040EB
:1022E00000000FFF6D1E000090E80C00F0B41C68A9
:1022F00059682568164F174E29432160164D174916
:102300001760D66015611160417A154A5C180C316E
:1023100094F82C4053F8215002EBC40149680D6039
:10232000017A5C1803EB8101247ECD6902EBC401C4
:1023300049680D60817A581803EB810390F84000DA
:10234000596C02EBC002F0BC53681960704700BFC3
:1023500001401F00011000380110007800001F80AC
:1023600064F3000070B4417A44680E4B05680E4E69
:102370002144002291F82C1003EBC10149680A6046
:10238000017A2144097E03EBC10149680A60817A20
:10239000214491F8401003EBC1035B681A602E6082
:1023A00070BC704764F3000001401F00F0B4254B7F
:1023B0004568AB4211D0437A2B4493F82C60B1426C
:1023C00009D005F12B02002312F8014F8C421AD0DC
:1023D0000133042BF8D1F0BC70470B292CD007290E
:1023E00009D01C29E7D1184A137823F0030343F0DE
:1023F00002031370DFE7144A137823F0030343F05A
:1024000001031370D7E795E806000968114210D060
:102410000E4A02EBC60600277468E918276091F897
:102420002C1002EBC10203F10C01546855F8212075
:1024300022604372F0BC7047034A137823F0030311
:102440001370B8E768EE0000FF34FF1F64F300006C
:10245000F0B4244B4568AB4210D0037A2B441E7E67
:10246000B14209D005F11702002312F8014F8C4246
:102470001AD00133042BF8D1F0BC70470C292AD0B4
:10248000082909D02729E8D1174A137823F00C032B
:1024900043F008031370E0E7134A137823F00C03AA
:1024A00043F004031370D8E795E806000968114269
:1024B0000ED00E4A02EBC606E918746800272760A2
:1024C000097E02EBC10205EB83055268E9691160E0
:1024D0000372F0BC7047044A137823F00C031370A6
:1024E000BBE700BF68EE0000FF34FF1F64F300008D
:1024F000284A43689A4270B415D0827A1A4492F8F6
:10250000402091420DD093F840408C423FD093F848
:1025100041408C421DD093F842408C4208BF0221BA
:1025200018D070BC70470D292BD00E2909D01B295B
:10253000E3D1194C227822F0300242F020022270BE
:10254000DBE7154C227822F0300242F010022270B4
:10255000D3E701211D685C682D6825420FD00F4C20
:1025600004EBC202002655685A182E6092F84020EB
:1025700004EBC20403EB810362685B6C136081723D
:10258000CFE7054C227822F030022270B5E7002117
:10259000E0E700BF68EE0000FF34FF1F64F30000B7
:1025A0000BB1FFF771BC70472DE9F843DDF82080CF
:1025B000099FB3B116460C46054603EB010904E03A
:1025C00020460134C0474C450BD02B68324621468B
:1025D0001B69284698473A4631460028F0D1BDE8A5
:1025E000F8830120BDE8F8832DE9F843DDF8208069
:1025F000AAB11F460C46054602EB010901E04C4515
:102600000DD02B68414620465E6AB84721460246F7
:102610002846B04701340028F1D1BDE8F8830120F5
:10262000BDE8F88300207047002070470020704705
:102630004FF0FF30704700BF704700BFF0B5012B6F
:1026400095B005463AD0022B01F1040140F2022375
:10265000684618BF002304F09DFD129B002B36D066
:102660005C2007F0C1FE04469DF804601E481F4927
:10267000029A9DF80C30206004AF2673A1600026FA
:10268000394604F1180022612375666004F05AFC93
:1026900063681748174AA66501334FF47A712E71A3
:1026A0002E732C61A0606360A9602A60124B0093B6
:1026B000384604F075FC284615B0F0BD44F20223FC
:1026C0000431684604F066FD129B002BC8D1139BB1
:1026D000002BC5D14FF47A71064A2B712B732B61F5
:1026E000A9602A6004AFE1E750ED0000B8EC0000FB
:1026F00000ED000024ED0000DCEC000070B5D0F827
:1027000084448EB01646C4B1002504F589640A4697
:102710002B46214668468DF800508DF801508DF803
:10272000025002F063FC08B90EB070BD324621467B
:10273000684602F0EDFD0EB070BDD0F888040028A8
:10274000F2D000F589650A462346294668468DF889
:1027500031408DF832408DF8334000F06BFE002898
:10276000E2D032462946684601F06AF90EB070BDE3
:1027700010B5D0F884448EB0A4B10A46684621460C
:10278000012300248DF800408DF801408DF80240AF
:1027900002F08EFC08B90EB010BD684603F0F6FCDE
:1027A0000EB010BDD0F888040028F4D00A460123EA
:1027B000014668468DF831408DF832408DF833403F
:1027C00000F0A8FE0028E6D0684600F00BFF0EB02F
:1027D00010BD00BF30B5D0F884448FB0A4B100253F
:1027E0000A462B46214668468DF800508DF8015068
:1027F0008DF8025002F05CFC08B90FB030BD68469D
:1028000002F044FE0FB030BDD0F888040028F4D0A8
:102810000A462346014668468DF831408DF832401D
:102820008DF8334000F076FE0028E6D0684600F0D0
:1028300037FF0FB030BD00BF10B5D0F884448EB064
:102840007CB10A46012304F58961684600248DF8AD
:1028500000408DF801408DF8024002F063FB0EB09D
:1028600010BDD0F888040028F9D00A46012300F5ED
:10287000896168468DF831408DF832408DF83340DB
:1028800001F086F80EB010BD30B5D0F884448FB09A
:1028900074B100250A462B46214668468DF8005043
:1028A0008DF801508DF8025002F002FC0FB030BDDF
:1028B000D0F888040028F9D00A4623460146684625
:1028C0008DF831408DF832408DF8334000F022FE13
:1028D0000FB030BDF8B590F8CC34002B46D0D0F80E
:1028E00084240446002A46D0D369D0F890045F1EA1
:1028F00000283ED00368DB6B984730B1D4F89004D1
:1029000030B303681B6C9847A0B1D4F88424002628
:10291000002A4AD0104604F021FA05463EB1D4F808
:102920009004A8B1036800215B6C984780B1D4F88B
:10293000842410E0D4F8900450B1036801215B6C4A
:10294000984728B1D4F884240126002AE2D12CE04B
:10295000D4F8842400257B1BF2B190794FF40072E7
:1029600002FA00F080B2A0FB0301F8BD00200021B4
:10297000F8BD0646CEE7D0F88834F3B1D3F830740A
:10298000D4F890040028B5D11946A3B106460846EC
:1029900002F05EF80546C1E7D4F88824002AE5D0A5
:1029A000D2F83C04A3FB0001F8BDD4F88814002938
:1029B000EDD11546B2E71D46CDE71F46E0E700BF63
:1029C00090F8CC3463B1D0F8842462B19179D069A5
:1029D0004FF400738B409BB20138A3FB000170479A
:1029E000002000217047D0F88824002AF8D0D2F8BF
:1029F0003034D2F83C04A3FB000170472DE9F041CC
:102A0000D0F8905492B04DB11F462B680446DB6954
:102A100028469847B0F5405F064603D8002012B01C
:102A2000BDE8F0814FF400700BF0D2FA8046002828
:102A3000F4D0B6F1806F07AE3B4630464246294699
:102A400043D803F07DFE074640460BF0C9FA002F3D
:102A5000E4D02B6828461B6A984794F8BC54FF2D95
:102A600037D094F8BDC4D4F8C0E4D4F8C4748DF859
:102A700004508DF805C0CDF808E0039701AB93E84A
:102A8000070004AB83E807008DF810508DF811C0E3
:102A9000CDF814E0069793E8070086E8070004F5F0
:102AA000946596E80E00284605F07CF894F8AD345D
:102AB000C4F890542BB901232946201D1A4604F06E
:102AC000F5FA012012B0BDE8F08101F0EFFA0746F7
:102AD000BAE784F8BC5404F2944594F8C814284624
:102AE00005F082FDC4F89054284605F031F900281D
:102AF000E7D101231A46D4F89014201D04F0D6FA29
:102B0000DFE700BFF0B5D0F890548BB004468DB32A
:102B100090F8CC349BBB90F8CE043F284AD994F867
:102B2000BC54FF2D5CD094F8BDE4D4F8C074D4F844
:102B3000C4648DF800508DF801E0019702969DE87D
:102B4000070003AB83E807008DF80C508DF80DE00B
:102B50000497059693E8070006AB83E8070004F5A1
:102B600094650ECB284605F01DF894F8AD34C4F8F2
:102B70009054C3B1002084F8CC040BB0F0BD90F8A1
:102B8000CD34FE2B1BD094F8CE043F2805D807F097
:102B90009BFD003018BF0120EDE72B6828469B6C99
:102BA00006A99847E7E7012329461A46201D04F0A5
:102BB0007DFAE0E707F088FD0028DBD0AFE72B685F
:102BC00028461B6A98472B6828465B6D9847431C2C
:102BD000D9D0003018BF012084F8CC040BB0F0BD70
:102BE00084F8BC5404F2944594F8C814284605F0BF
:102BF000FBFCC4F89054284605F0AAF80028B9D187
:102C000001231A46D4F89014201D04F04FFAB2E7BD
:102C1000F0B4164B164C174DC3F8944429270024E2
:102C2000C3F8A854FF251448144E83F8AD7483F8F4
:102C30009C4483F89D4483F8B14483F8C84483F8E6
:102C4000CD5483F8CE541860C3F8A064C3F884440C
:102C5000C3F88844C3F8904483F8B84483F8CC445C
:102C6000074A08491846F0BC0AF0A0BCE82EFF1F2E
:102C7000C8F000000320003860EF000058F00000AA
:102C80003017FF1F39260000F0B500F12403054678
:102C90000E46174693E8070085B001AC84E80700AC
:102CA00072012146286A01F061FE012806D13A46E8
:102CB0002146286A01F020FE05B0F0BD002005B0D5
:102CC000F0BD00BF10B5044600F0B0FD002384F84D
:102CD000313084F8333010BD38B50D46144600F15C
:102CE00024010022006A01F007FE20B143892B80F5
:102CF00003892380012038BD38B50D46144600F104
:102D000024010022006A01F0F7FD20B1C3892B8065
:102D100083892380012038BD90F831200AB100203A
:102D2000704738B504460D46114638220BF04AFC70
:102D30004023012084F8313084F83300256238BD07
:102D400070B40D460978202903D115F8014F202CC5
:102D5000FBD0184915600EE0A4F12206F6B21D2E34
:102D600020D904F0BF063C2E0ED05C2C0CD02E2CAB
:102D700002D0202C00D095602C782E46013564B10D
:102D80002F2C06D01F2CE7D8002070BC704716F8F7
:102D9000014F202CFBD02F2CF9D01E60114670BCA7
:102DA00001F0B2BC21FA06F6F607DAD5002070BCB5
:102DB000704700BF010100312DE9F04F90F833302A
:102DC000DE0783B004465AD55D060E46934640F1B1
:102DD000B780D4E90001D4E9042310EB0B0841F1DA
:102DE00000094B4508BF4245C0F0B080BBF1000F61
:102DF0006ED0A146F9E806015D46276AD7F8383457
:102E00000340C3F3080A002B68D150EA010275D1D0
:102E100094F8312051064CBFD7F83424E269A261FE
:102E2000D7F82C0497F845E45B0A023A191802FA1D
:102E30000EF21144BAF1000F2CD1B5F5007F29D361
:102E4000D7F81C22914225D0B5F5806F5DD34FF0A5
:102E5000010808FA0EF8C3EB08034FEA5528984515
:102E600028BF984691423BD808EB01039A4237D2DB
:102E700007F50470019106F069F8019980BB94F898
:102E800032304FF0FF3043F0020384F8323003B0A9
:102E9000BDE8F08F07F50470002206F027F800283F
:102EA000EDD0CAF50078A84528BFA84600EB0A0176
:102EB0004246304607F048F942460023D4E9000173
:102EC00080185941B5EB08054644C4E9000194D186
:102ED0000025C5EB0B0003B0BDE8F08FA2699FE7AA
:102EE000D7F81402036832465F694346B8470028A2
:102EF000C5D04FEA482842460023DFE794F8332044
:102F0000520610D5A269013289E7D7F81402036886
:102F100032461B6998470028B1D04FF40072002355
:102F20004FF40078CAE738464A46A169019301F098
:102F3000FDFC0028A3DB0CD0276AA269019B6FE788
:102F400090F8313018073FF544AF4FE7C0EB020B64
:102F50004CE794F8313013F0500FBAD18FE700BF2F
:102F6000F0B583B001220DF107010446D0E90067F6
:102F70008569FFF721FF012808BF9DF80700A561BB
:102F800018BF4FF0FF30C4E9006703B0F0BD00BFC9
:102F90002DE9F04F90F831E0856983B00446BEF129
:102FA000000F1BD0D0E90001994208BF904216469D
:102FB0001F463BD056EA070307D10023A361012037
:102FC000C4E9006703B0BDE8F08F1EF0080F0AD017
:102FD000D4E90423BB4208BFB24204D2A561002059
:102FE00003B0BDE8F08F236A019393F845C494F8C9
:102FF00033A00CF1090C5FFA8CFC16F1FF3247F19B
:10300000FF33CCF1200803FA08FB22FA0CF242EA63
:103010000B02ACF1200B23FA0BF31AF0400F42EA3B
:10302000030205D0E3691A44A261C8E70120D7E78B
:1030300010F1FF3941F1FF3A29FA0CFC0AFA08F8BD
:103040004CEA080C2AFA0BFB4CEA0B0C624553467F
:1030500017D21EF0400F16BF019BE369D3F834343A
:10306000A361904604F118094A46B8F1000FA6D0B2
:10307000A169206A01F05AFC002808F1FF38F3DC4E
:10308000ACE750EA0103E4D0CCEB0202E9E700BF71
:103090002DE9F04F0C468FB090F831100193814626
:1030A00021B994F8313013F0500F07D1002089F87E
:1030B000310089F833000FB0BDE8F08F019B03F0B9
:1030C0000303012B154606D0022B00F0FE80002BD7
:1030D000ECD1012200E00222019B03F0080313431C
:1030E0000293002D40F0DD800327029B002643F071
:1030F0004003B3460393202206A92046FFF75CFE57
:10310000F0B12028D2D19DF81830180645D4BBF173
:10311000000F04D12268D4F818A0A2F12008BB4502
:103120003CBF0BF1010B5FFA8BFB002B00F0CF8053
:10313000202206A920460026FFF73EFE0028E0D107
:10314000019B9905B2D5029B9A07AFD5002DADD052
:10315000BB4580F0C5802B465E4655469A460AE040
:103160002028A3D11EB92268A569A2F12008DEB2E9
:10317000B74240F2B280202206A92046FFF71CFE8B
:10318000731C0028ECD12046D4F818B000F07EFB68
:1031900000288BD0C4F818B0EAE756BBBB4538BF4F
:1031A0004FF0000B852BA6D13146382248460BF054
:1031B00009FA9DF81C309DF8192089F83020D906AD
:1031C00003F0370258BF42F0080289F83120236823
:1031D000216AA269C9F82420203BC9F82010C9F847
:1031E000283094F83330C3F3801389F82C3001264B
:1031F00081E7C02B29D0C12B9AD12A4606A948467F
:1032000001F0F8F9002866D0AB89002B7FF473AF8A
:10321000AA686B689A427FF46EAF019B1F053FF569
:1032200045AF019B13F4884F40F0AC8099F83330E0
:103230009E0700F1A780019B5B053FF537AF019B1F
:10324000580400F1BD80012035E79DF819309DF844
:10325000082089F833209B0744BF9DF80C3089F87B
:103260003330DDE90823DDE90C01C9E904230B9BB8
:10327000C9F81C30C9E90201002DCED09DF81B30E1
:103280002A69296869604FF000009A42A8817FF49A
:103290004FAFBDF81C60AB8AF61AB6FA86F676090F
:1032A00029E72B69614F0E33A7FB0337D4E90023CD
:1032B000FF0802371343FFB23FF417AF0023002289
:1032C000C4E900230023A3610FE7032204E7002DD4
:1032D0007FF436AFEAE606460DE75346AA461D469A
:1032E00094F833603822002148460BF06BF9C6F39E
:1032F00080160823226A89F82C60C9F824A0C9F82E
:10330000288089F831302B68C9F8202000266B60AE
:10331000AE819FB307F1FF38DFF814A1B3465FFA1F
:1033200088F8012259464846FFF7AEFC04460028BB
:103330003FF4BCAE90F90030002BFFF6B7AE202270
:1033400000210BF03FF9002E43D0BBF1010F59D003
:10335000C123A34623701E34AB8928461BB96A6873
:10336000AB689A4205D005F0F9FD2BF8020F5C45D9
:10337000F2D101365FFA86FBBB45D2D3484600F056
:1033800055FA98E699F8313013F0110F7FF48EAEAC
:10339000019B5D057FF553AF99F833309C077FF5AE
:1033A00085AE002200234846FFF7F2FD00283FF4D7
:1033B0007DAE484600F03CFC00283FF477AE42E783
:1033C000D9E904234846FFF7E3FD00287FF43BAF2B
:1033D0006CE68523237089F8308084F80180DAF860
:1033E0000030EBB10DF113020DF1160105A898475D
:1033F000BDF81410BDF816209DF8133061812281AC
:103400002375B6E7029B84F801B063F07F03C02206
:10341000227089F833302B69E370AB8AA380A8E768
:1034200045F221636381E3816382A2E7898888880A
:103430001034FF1F2DE9F041044696B094F8315046
:10344000019200208DF851008DF852008DF8530044
:10345000ADF8140035B9984691F8313013F0500F9B
:103460000E4603D1002016B0BDE8F08113782F2B53
:10347000154624D0002716E0019D2D782046002D0A
:1034800032D0FFF705FE342221460028EAD008A8F2
:1034900006F05AFE204600F0C9F9019D84F831700B
:1034A00008AE84F83370294601AB02AA2046FFF724
:1034B00047FC002302AA31460028DDD1D2E70135BE
:1034C000019529782F29FAD0B9B1382208A800210E
:1034D000376A0BF077F84022012308AE10978DF879
:1034E00051208DF85330C5E7434602AA31462046A5
:1034F000FFF7CEFD16B0BDE8F08138222046356AD0
:103500000BF060F840230120256284F8313084F804
:103510003300A8E719B101F58961FFF78BBF0846B1
:10352000704700BFF0B490F8314024B991F83130C1
:1035300013F0500F02D10020F0BC7047D1E90067B2
:10354000002706F01F0656EA0703F4D11346224669
:10355000F0BCFFF79DBD00BF8169F8B50446006A65
:1035600001B10131012201F019F9012806462FD9D4
:10357000012301461A46206A01F06AF9074638B36A
:10358000A06994F8333030B35A0613D5421C9642E2
:1035900025D023F0400284F83320E36905E0206A57
:1035A00001F008FAA0B1A0692B465D1C83421946C0
:1035B0002A46F4D34FF0FF323146206A01F0FAF97F
:1035C00030B1A16959B13246206A01F0F3F930B93E
:1035D00000273846F8BD43F0400384F83330A66135
:1035E0003846F8BD90F833309A0739D5C1692DE9CE
:1035F000F0410546A9B9002407E0037803F07F03F2
:10360000037095F83030A3422CD32146012228467E
:10361000FFF73AFB0134E4B20028EED10020BDE808
:10362000F0815B06006A35D5D5E9026790F845342C
:103630000933DBB216F1FF3647F1FF37C3F120043F
:1036400026FA03F207FA04F4203B27FA03F3224395
:103650001A430132002301F0FBF80028CBD1DDE74B
:10366000002070472C6A0023204685F8313085F809
:10367000333005F06BFC0028D0D004F5047005F061
:1036800065FC0028CAD0D4F840040368BDE8F041C6
:103690001B6A184701F0A0F90028ACD1BEE700BFB3
:1036A00090F83130D90601D40020704710B50022BF
:1036B00088B000230446FFF76BFC06E0202819D1F0
:1036C0009DF800301A0615D433B1202269462046F1
:1036D000FFF772FB0028F1D194F83330082243F051
:1036E000020384F8333084F831202046FFF77AFF54
:1036F00008B010BD002008B010BD00BF2DE9F04398
:103700000026494F83B08046344600223146404669
:10371000FFF7BAFA054630B10378C02B6DD0C12B44
:1037200069D0852B09D098F8323043F0010388F82E
:103730003230002003B0BDE8F08398F83130D7F87C
:10374000009003F037038380B9F1000F10D00DF122
:1037500003020DF1060101A8C847BDF80620BDF817
:1037600004309DF803106975AA812A82EB816B826F
:10377000D8F8202092F8103243F0010382F810327A
:1037800095F800E00021E203685C42EA540310FA75
:1037900083F301299CB201F1010126D01F29F2D93E
:1037A000013698F83030F6B2B342AED2012208F1B9
:1037B0002401D8F8200001F09FF80028B3D0D8F8F1
:1037C00020504480284605F0C1FB0028ABD005F509
:1037D000047005F0BBFB0028A5D0D5F840040368B1
:1037E0001B6A984700289ED0A4E7BEF1850F0CBF46
:1037F00004210221C7E79E46C4E798F8333013F04E
:10380000400F437814BF43F0020323F002034370D8
:10381000D8E90423C0E90223D8E90223D8F81C1010
:103820004161C0E90623A3E71034FF1F90F831205F
:1038300092B138B590F8332011060FD4056A0446CA
:10384000284605F083FB88B994F8323043F0010331
:1038500084F83230002038BD0120704702F07F022A
:1038600080F83320BDE83840FFF748BF05F5047005
:1038700005F06CFB0028E7D0D5F8400403681B6A0C
:1038800098470028E0D0012038BD00BFF8B590F877
:1038900031305A06054650D480682B6AD3F83C3440
:1038A0001844B0F1806F01D30020F8BD2846FFF71F
:1038B00053FE0028F8D0286AAB6990F84524D0F868
:1038C0002C64023B934001211E4411FA02F315D0EF
:1038D00000243119052200F5047005F007FB0134BE
:1038E0004FF4007200210028DED00AF06BFE286A37
:1038F00090F8452401239340A342EAD895F831304B
:103900005B0615D495F8333063F07F0385F83330C8
:10391000D5E90223D0F83C64D5E9040192194FF0AF
:1039200000077B4180197941C5E90223C5E90401FB
:103930002846BDE8F840FFF779BF006A01F032F988
:10394000ABE700BF10B591F8314014F0500F01D132
:10395000002010BD40F602230446FFF799FB002823
:10396000F6D0102384F831302046FFF78FFF00286F
:10397000EED0A369E361204600230022FFF708FB95
:10398000C12384F833302046BDE81040FFF74EBF16
:10399000F0B5044697B094F8316001920020ADF87C
:1039A00014008DF851008DF852008DF8530036B98F
:1039B0001F4691F8313013F0500F0D4602D1002010
:1039C00017B0F0BD13782F2B114624D001AB02AAFB
:1039D0002046FFF7B5F9002302AA29460028EED0B9
:1039E000019E3678204626B3FFF752FB40B9002FE0
:1039F000E5D0294602AA2046FFF7A4FF0028DED022
:103A00002146342208A806F09FFB2046FFF75AF90A
:103A100008AD0199DAE7013101910B782F2BFAD02B
:103A2000296A08A8FFF778F90028C8D0019908ADDD
:103A3000CCE702AA29462046FFF784FF17B0F0BD65
:103A400030B590F831309DB0002413F0180F8DF888
:103A500031408DF832408DF833408DF869408DF853
:103A60006A408DF86B4003D00B6A056A9D4202D014
:103A700000201DB030BD054640F601236846FFF723
:103A8000D9FC0028F4D0342229460EA806F05CFBAD
:103A900009AB93E8070005F1240383E8070095F8D4
:103AA00033309DF8302085F8302063F07F0385F8AF
:103AB00033302846FFF7BAFE0028D9D00222082367
:103AC0000EA815948DF86B208DF86930FFF78AFDEC
:103AD000CFE700BF2DE9F84F90F831509DF82890BE
:103AE0009DF82C709DF830A09DF834802C0776D579
:103AF000A2F2BC7295B27F2D71D85A1E0B2A6ED8D5
:103B000009F1FF321E2A6AD8172F68D8BAF13B0F85
:103B100065D8B8F13B0F62D804469B460E46FFF7C6
:103B200085FE00285BD04FEA680249EA4B1942EA59
:103B30004A1A49EA452518F0010F4AEAC7274FF00B
:103B4000000AADB2BFB20CBFD1464FF06409D346F4
:103B500006F00108002251462046FFF795F800289C
:103B60003DD090F800E0BEF1850F41D037D3AEF1E3
:103B7000C003012B33D800214FEACB3210F801C02B
:103B800042EA5B031CFA83F301291FFA83FB01F16C
:103B9000010127D01F29EFD90AF1010A94F830302A
:103BA0005FFA8AFA5345D5D2012204F12401206A32
:103BB00000F0A2FE98B1246AA0F802B0204605F0F9
:103BC000C5F960B104F5047005F0C0F938B1D4F856
:103BD000400403681B6A984708B1BDE8F88F0020CD
:103BE000BDE8F88FBEF1850F0CBF04210221C3E7A9
:103BF00094F83130226A03F03703838092F8103250
:103C000043F0010382F81032B8F1000F01D00782AF
:103C10004582B20703D580F8149007814581730768
:103C200003D580F815908781C58190F800E0A2E760
:103C300090F833309A0718D5F0B5C56983B08DB1C7
:103C400003F04003044603F0FF0083B9A169002993
:103C500041D10195E1612946206A00F0BDFE30BBEB
:103C6000002000E0012003B0F0BD00207047206A72
:103C7000A16990F84534D4E902670933DBB216F143
:103C8000FF36C3F1200E47F1FF3726FA03F207FA99
:103C90000EFE203B42EA0E0227FA03F31A430132DA
:103CA000B1B1013D6D1A01312A44019102BBD4E941
:103CB000000194F8333063F07F03C4E90201C4E9E2
:103CC000040184F833302046FFF7B0FD03B0F0BDA7
:103CD0000195E161EAE702AA42F8040D206A00F0CA
:103CE00025FE0028BCDB0AD1019D002DDFD0B2E704
:103CF0000023019900F0ACFD0028D8D1B0E74FF0C7
:103D0000FF32A169206A00F055FE0028ECD1A7E738
:103D10002DE9F04F90F8333083B09D0704460092B0
:103D200040F1AA801A07894600F19F80009B002B72
:103D300000F01C812146F1E80623DDF800800191A6
:103D40004FF0010BCA46206AD0F838541540C5F32D
:103D5000080945BBA169002900F0C28094F83330FE
:103D60005B0640F1D680D4E9026790F84524E36908
:103D70000932D2B216F1FF3647F1FF37C2F1200EF9
:103D8000D64007FA0EFE203A46EA0E0627FA02F25D
:103D9000164333449942C0F0B9802046FFF7DCFB5C
:103DA000002869D0206AA669D0F82C7490F845E400
:103DB0006D0A023EE91906FA0EF63144B9F1000F18
:103DC00040F08780B8F5007F60D2D4E90423D4E9BD
:103DD0000067B8F5007F454628BF4FF400759F4245
:103DE00008BF964234BF0122052200F5047005F099
:103DF0007DF8002840D048442A465146A94406F0A0
:103E0000A3F9B9F5007F00F09C8028460021D4E991
:103E10000023D4E9046712184B419F4208BF964221
:103E2000AA44C5EB0808C4E9002307D294F833106C
:103E3000C4E9042361F07F0184F83310B8F1000F66
:103E400081D1D4E90201994208BF9042C0F082803A
:103E5000484B1B68002B00F0878094F833300098A3
:103E600063F07F0384F833300DE0D0E90423FFF7DB
:103E70008FF800287FF45AAF94F8323043F00103F2
:103E800084F83230002003B0BDE8F08FB8F5806FC1
:103E90002AD30BFA0EF35D1BD0F81C224FEA5823ED
:103EA000AB4228BF2B4691424FEA432508D8CE1893
:103EB000B24205D24FF0FF3280F81092C0F81C22B7
:103EC000D0F8140206685246B66AB04700289CD162
:103ED000D2E7C9F50075454528BF4546012284E76C
:103EE000E669F6B1A6615FE7D0F81C32994221D0AD
:103EF000D0F81402036852465B6A98470028BBD08A
:103F00004FF4007000214FF4007580E74E1CA6614D
:103F10004AE7019A00F00AFD0028ADDB7FF442AFCA
:103F20003BE72046FFF718FB0028A5D0A669E6610D
:103F3000206A39E74FF0FF3380F81092C0F81C3246
:103F4000D6E7206A00F5047005F000F800287FF439
:103F50005CAF91E794F83310009861F07F01C4E9F9
:103F6000022384F833108EE700988CE7D4E900230D
:103F700067E700BF1034FF1F8368C3F308038BB1EA
:103F800000210269D1540133B3F5007FF9D1C36830
:103F90000269016810B41C68646A184623465DF81B
:103FA000044B18470120704782680346C2F3080299
:103FB000006930B481545D68986840F2FF1401EBE9
:103FC00075010130A2425960986002D0012030BCD6
:103FD0007047D868196804681A69646A4D1C1D60C6
:103FE000234630BC184700BF38B50C46C9B2054659
:103FF000FFF7DAFF00B938BD210A2846BDE838408E
:10400000FFF7D2BF2DE9F8430026804601608660A5
:104010004660B0B205F0B2F8B042814605460DD018
:1040200001464046FFF7E0FFA0B30136B6F5803FFA
:10403000EFD34046BDE8F843FFF79EBF741CB4F5CC
:10404000803F14D1C6F58037B7F5007F4FF4803438
:104050001AD2A9B24046FFF7C7FF0135D0B1A54239
:10406000F7D32E46E2E70134B4F5803FEAD0A0B2A0
:1040700005F084F8A042F6D0A71BB7F5007F03D265
:10408000A642E6D34E46C4E74FF6FF714046FFF71F
:10409000ABFF10B90020BDE8F883B9B24046FFF786
:1040A000A3FF0028F6D02646C0E700BF2DE9F04F59
:1040B00014460A68C160046189B08146D269084625
:1040C0000E461F469047B0F5801F11D25FB13B6886
:1040D000AA495B681522384698473B68A8495B683F
:1040E00038460F2298470025284609B0BDE8F08FD2
:1040F00005460123022201E095424FD90133DBB28C
:10410000202B4FEA4202F7D1A3F10B0252100121FA
:10411000D0B291400690049101334FF001085B103A
:1041200008FA03F303FA08F105939B000191029347
:10413000029BEB1AD34003FA02F80393019B4FF45E
:1041400000720021204698444FF0010B0AF03AFA21
:104150004FF0000AFF230721FE2284F8C21184F8E1
:10416000C32184F8BFB184F8C0B184F8C1A184F838
:10417000C43184F8C53133680199C4F8C6114AF6D0
:1041800055225B6AC4F8CA81A4F8FE215146224632
:1041900030469847B0B9002F9FD1A4E71C2BB3D865
:1041A00008221A2B069200F29D814FF400430293DD
:1041B0004FF4804301934FF4807304934FF4005302
:1041C0000593B5E74FF40072514620460AF0FAF91C
:1041D000019B23649021A365039B059AC4F8488042
:1041E0004FF0EB0E76204FF05808E365A1709DF874
:1041F000183022654FF0450162656566412284F8FA
:104200006D305425202384F800E060704FF0040ED8
:104210004FF480704FF0090CE17084F80480802125
:104220004FF04608A27123726372A37284F86F1074
:10423000C4F844A0C4F84CA0A4F86AA084F86EB0F6
:1042400084F870A084F80580E571C4F860E0A4F8F3
:10425000680084F86CC004F1770304F2FD11F422C5
:1042600003F8012F9942FBD14AF655220023A4F806
:10427000FE211D464FF0010802E0013308F101085C
:10428000A3F16A02012A04D9702BF6D0E25C02EB9A
:104290007505B8F5007FF0D1336801995B6A224655
:1042A0003046984700283FF476AF336801995B6A3F
:1042B00022460C313046984700283FF46CAF424606
:1042C000002120460AF07EF94AF65523019AA4F807
:1042D000FE31631ECDF81C9002F1010A02F1090BB8
:1042E000069304F2FF1899464B4613F8012F9845A0
:1042F00002EB7505F9D1336822465B6A51463046B8
:10430000984700283FF447AF336822465B6A0AF1BA
:104310000C013046984700283FF43DAF0AF1010AEE
:10432000D345E1D14FF4007200212046DDF81C9006
:104330000AF048F9019B03F10B0A069B13F8012FC1
:10434000984502EB7505F9D1336822465B6A5946F8
:104350003046984700283FF41EAF336822465B6A18
:104360000BF10C013046984700283FF414AF0BF1D5
:104370000103534506D09B46DFE700BF88EF0000EE
:10438000ECEF0000231F04F5FE7243F8045F934234
:10439000FBD1336851465B6A224630469847002875
:1043A0003FF4F9AE33680BF10D015B6A22463046EB
:1043B000984700283FF4EFAE2FB13B6887495B6810
:1043C0000C2238469847039B4FF400720021204688
:1043D0009D000AF0F7F80199059AF8230A4405F2BE
:1043E0000725904623704FEA552B234604F113010D
:1043F000FF2203F8012F9942FBD14FF0000A234618
:10440000AD0B54469A4604E0002C64D00134A34519
:1044100018D0B4FBF5F305FB134333B901227049FF
:10442000384617B13B685B689847336852465B6A09
:1044300004EB0801304698470028E5D1002F7FF4AF
:104440004CAE50E654468FB33B6866495B68022227
:1044500038469847039D049B0735ED0805F2FF1881
:104460004FEA582898453FF638AE4FF400720021C5
:1044700050460AF0A7F807238AF800304FF0000AE8
:1044800007E0BAF1000F00F083800AF1010AD0457D
:104490002CD0336802995B6A2246514430469847D3
:1044A0000028EED1002F7FF418AE1CE6039D049B7C
:1044B0000735ED0805F2FF184FEA582898453FF6F2
:1044C00012AE4FF40072394650460AF07BF80723CB
:1044D0008AF80030D2E74FF40072214650460AF0C5
:1044E00071F893E74FF48071049115E6002F61D0C5
:1044F000019B3D4938464FEA4308FCF7CBFC049B3F
:10450000484608EB0301FFF77DFD00283FF4E5ADC9
:10451000D9F80830049AB3EB422F3FF6DEAD3349A9
:104520003846FCF7B7FC4FF40072002120460AF031
:1045300049F803230221822281202370616384F8D9
:10454000200084F84020D9F804206264636504994F
:10455000D9F80820A265002308EB4109A563E365AB
:10456000984607E0B8F1000F1DD0049B08F1010840
:10457000984510D0336822465B6A09EB0801304643
:10458000984705460028EDD1002F7FF4A6ADAAE597
:1045900084F800A079E7002F3FF4A6AD384614490F
:1045A000FCF778FCA0E54FF40072414620460AF083
:1045B00009F8DAE7019B4FEA4308049B484608EBF9
:1045C0000301FFF71FFD00283FF48DADD9F8083037
:1045D000049AB3EB422F3FF686ADA4E7A0EF0000AC
:1045E000B0EF0000C8EF0000B4EF0000CCEF000017
:1045F000DCEF00002DE9F0410C46154601F11E08E4
:10460000AB8934F8026F28461BB96A68AB689A42D6
:104610000ED004F0A3FC04F0B1FD0746304604F0D0
:10462000ADFD874209D14445EAD10120BDE8F081C2
:10463000B6FA86F04009BDE8F0810020BDE8F081BF
:104640002DE9F84F90F831308946002B45D090F88D
:104650003030012B804652D9013A8E188A46022703
:104660004FF0000B002239464046FEF70DFBA0B389
:104670000378C12B31D1044600F11E0519E000F585
:1046800010539BB2B3F5806F27D21E4B4FEA8B2B92
:10469000C0F309000BEA0303184300F580305146CC
:1046A000324604F0D1FC8246B8B1AC424FF0000B68
:1046B0001ED034F8020FBBF1000FE0D100F52053FB
:1046C0009BB2B3F5006F0DD30028E8D1C9EB0A0007
:1046D00000238AF80030BDE8F88F002089F8000038
:1046E000BDE8F88FB3F5806FF7D2AC428346E0D1D6
:1046F000013798F83030FFB2BB42B3D2E6E78A46C2
:104700000020E5E700FC0F00F8B50A684A600023C6
:104710000E461F468B810B611C464FF6FF7516E057
:1047200004F01CFCA84221D004F028FDE30343EA76
:10473000540454FA80F33169B789C3F34E0204126A
:1047400042EAC33314FA83F40131A4B23161304632
:10475000002FE5D17268B3689A42E1D13069B48222
:104760000138FE288CBF00200120F8BD0020F8BDD4
:1047700038B50C46D0F82414154601EBD41100F5D9
:104780000470012204F0B2FB034628B1A400C4F374
:10479000080401201D5138BD38BD00BF2DE9F84F78
:1047A000804691468B46002944D08F1ED8F830347D
:1047B0009F423BD207F00705012303FA05F5EDB24E
:1047C000C7F3C80A3E463C46D8F82C14002201EB39
:1047D0001431404604F08AFBC0B110F80A100AE018
:1047E0004A452AD0A74210D0D8F83024944217D294
:1047F00013F0FF050CD001340D424FEA4503A4EB42
:104800000602EDD0A7422646EED10120BDE8F88F82
:104810000AF1010ABAF5007F4FF00105DDD101E090
:10482000002634464FF0000A0125CDE70027BA469E
:104830000125C7E7D0F82074B8E7BBF1000F04D119
:10484000B9F1010F08BFC8F82064B01CBDE8F88FAB
:104850002DE9F04702398046D0F8300415468A1811
:10486000824238D89A46D8F82034BAF1000F35D1B0
:10487000994238BFC8F8201401F007040122D8F883
:104880002C3402FA04F4E4B203EB1139C1F3C80684
:10489000012249464046914404F028FBD8B18719CB
:1048A00000F5007017F8012B224214BF01260026E4
:1048B000564582EA04024FEA44040CD0013D07F851
:1048C000012C15D014F0FF04EED1B84226464FF06B
:1048D0000104E7D1DCE70020BDE8F0879942CBD89E
:1048E0009A42C9D9824228BF0022C8F82024C3E7CF
:1048F0000120BDE8F08700BFF8B50E4696E8280015
:10490000D0F83814D0F82C4490F845742940023B74
:1049100004EB5121BB40194400F5047004F0E6FAA1
:1049200018B17368C3F308031844F8BD38B5D0F85C
:10493000303401338B4215D30C46D0F8241415467D
:1049400000F5047001EBD411002204F0CFFA48B155
:10495000A100C1F3080143585A1C1ABF01202B6063
:10496000002038BD4FF0FF3038BD00BF70B50D4698
:104970004968D0F8383406468818686096F8454487
:104980000B4009341A44E4B222FA04F43CB12B7A05
:104990003BB12B6801332B60013C002CF7D1012087
:1049A00070BD2A4629683046FFF7C0FF0128F3D0C2
:1049B00070BD00BF01290DD9D0F8303401339942C0
:1049C00010B403D900205DF8044B70475DF8044B28
:1049D000FFF7CEBE002070472DE9F0410C4682B0B3
:1049E00005460E4601AA21462846FFF79FFFB0F173
:1049F000000821464FF00002284625DB012C23D970
:104A0000D5F8303401339C421ED8FFF7B1FE671C45
:104A100031460023BA1BB8B12846B8F1000F08D0C0
:104A2000019CA742DED0FFF713FF68B1019C264628
:104A3000D8E7621C921B434631462846FFF708FF21
:104A400010B102B0BDE8F081002002B0BDE8F081F5
:104A50002DE9F8430024D0F82C64804600F5047753
:104A60002546314600223846013604F03FFA30B37D
:104A700000F1FF3ED8F830C41EF8010FFF2805F5FD
:104A8000805913D048B10822012318424FEA43014C
:104A900018BF0134013ACBB2F7D10835AC450AD979
:104AA0004D45DED01EF8010FFF28EBD10835AC458F
:104AB00004F10804F4D8C4EB0C00BDE8F883BDE8A9
:104AC000F88300BFF8B5044600234FF0FF3600F529
:104AD0000477C0F840144160C0F8141215463846F7
:104AE00084F84434237084F81032E660C4F81C6201
:104AF0001A46194604F0FAF9042D0CD8064650B1AE
:104B00005DB905222649F01C09F048FE18B996F84F
:104B10006C30092B19D00020F8BD6B1E00EB03137D
:104B200093F8BE2112F07F02F5D193F8C231002B29
:104B3000F1D000EB05153846D5F8B651294604F0FA
:104B4000D5F906460028DCD1E5E7336D2B44C4F8DF
:104B50002434736DC4F82834B36D1D44C4F82C5448
:104B6000F36DC4F83034336EC4F8343496F86D30D5
:104B700084F845340125093305FA03F35A1EC4F8B5
:104B800020040146C4F83C34C4F8382420462A46A0
:104B9000FFF704FE402384F844342846F8BD00BFE4
:104BA000FCEF000070B582B002AED0F8341446F8C5
:104BB000041D0546002403E004F1010407D0019917
:104BC00032462846FFF7B2FE0028F5DA002495F8B1
:104BD00045040930C0B204FA00F002B070BD00BF55
:104BE00038B504460D462422002109F0EBFCA560EF
:104BF000EB79102B05D0202B08D00C2B01D00020F6
:104C000038BD202301202370A07038BD402301202F
:104C10002370A07038BD00BF024638B552F8105F4F
:104C200004462946806802F00FF850B155B1236957
:104C30000135AB42A37818BF03F0BF0363F07F03D5
:104C4000A37038BDA37843F04003F7E7F8B50378C5
:104C500003F020032BB903F0FF044169194B99427B
:104C600002D900273846F8BD0546FFF7D5FF0746AD
:104C70000028F6D0A8682B69817946690279023B41
:104C80008B401E4442B913E009F09CFCA868013433
:104C90000379E4B2A3420AD90522A119283004F00D
:104CA00025F94FF4007200210028EDD1D9E7817970
:104CB00068694FF4007202FA01F310FA83F36B6132
:104CC000D0E700BFFFFD1F0010B5044680680A460C
:104CD0002830A16904F00AF920B1A38803F00F037A
:104CE00000EB431010BD00BF70B590F90230002BEF
:104CF00082B0044619DBA56805F1280004F026F906
:104D000030B9637843F001036370002002B070BDD6
:104D100005F50E7004F01AF90028F2D0286803682F
:104D20001B6A98470028ECD0F0E70121FFF7CCFF81
:104D300005460028E5D00378E52BE2D023780E4A1B
:104D40001B0744BFE369C361236A166843831B0CD6
:104D5000838266B10DF103020DF1060101A8B0478F
:104D6000BDF80430BDF806202B836B82EA82A3785D
:104D700003F07F03A370BEE71034FF1F10B5037864
:104D8000044623B900232370A370012010BDFFF750
:104D9000ABFF00232370A37010BD00BF38B50378AC
:104DA00004460D465BB920460021FFF78DFF50B148
:104DB00001462022284605F0C7F9012038BDFFF73B
:104DC00093FF0028EFD1002038BD00BF30B589B077
:104DD0000D4669461446FFF7E1FF28B1BDF81020E3
:104DE000BDF80E302A80238009B030BD30B589B0BF
:104DF0000D4669461446FFF7D1FF28B1BDF81820CB
:104E0000BDF816302A80238009B030BD2DE9F0416D
:104E10000C7814F0700F88B003D1002008B0BDE802
:104E2000F08140F6022305460C4601F011F80028F7
:104E3000F3D001221023AA702B702846FFF706FF3B
:104E40000028EAD02B782A692A62002B59D1012147
:104E50002846FFF739FF06460028DED01023C3722C
:104E600031462022684605F06FF9B17E307D777DAE
:104E7000F67E2E2241EA06268DF800206B4640EA97
:104E800007270DF10A01202203F8012F8B42FBD1E5
:104E9000A8682B6A82794169023B93401944283003
:104EA000012204F023F880460028B6D0202269466B
:104EB000ADF81470ADF81A6005F046F9236AADF844
:104EC0001A302E241B0C694608F1200020228DF890
:104ED0000140ADF8143005F037F9AC6804F1280052
:104EE00004F034F8002898D004F50E7004F02EF881
:104EF000002892D0206803681B6A08B0BDE8F04122
:104F000018476B6933B1AB78002223F02003AB70F4
:104F10002A616A612846FFF7E7FE00283FF47DAF6B
:104F200095E700BF2DE9F041064694B0357801922F
:104F30000020ADF814008DF82C008DF82D008DF8B0
:104F40002E002DB998460B7813F0700F0C4603D144
:104F5000002014B0BDE8F08113782F2B11462BD020
:104F6000002701AB02AA304601F0BAF802AA214696
:104F700000230028ECD0019D2D783046002D2DD047
:104F800000F066FF48B9B8F1000FE1D0214602AA4F
:104F90003046FFF73BFF0028DAD035460FCD0BAC8B
:104FA0000FC40FCD0FC433782A68226093B93770CD
:104FB000B77001990BACD4E7013101910B782F2B1D
:104FC000FAD0A1680BA8FFF70BFE0028C0D001990A
:104FD0000BACC5E73046FFF787FEE8E702AA21469B
:104FE0003046FFF713FF14B0BDE8F0812DE9F04122
:104FF000064694B03578019200208DF808008DF8AF
:1050000009008DF80A00ADF838002DB998460B78E4
:1050100013F0700F0C4603D1002014B0BDE8F081EE
:1050200013782F2B114626D0002703E00199377003
:10503000B77002AC01AB0BAA304601F051F80BAAD5
:10504000214600230028E7D0019D2D7830460DB37E
:1050500000F0FEFE354602AC0028DDD00FCD0FC4B7
:105060000FCD0FC433782A682260002BDED0304683
:10507000FFF73AFEDAE7013101910B782F2BFAD0D6
:105080008BB1A16802A8FFF7ABFD0028C4D001993D
:1050900002ACC9E743460BAA2146304600F0D8FED1
:1050A00014B0BDE8F081A1683046FFF799FDB4E780
:1050B00019B101F58961FFF799BF0846704700BF34
:1050C00038B5CB6843B902780AB1184638BD89684B
:1050D000BDE83840FFF784BD04460D462422002178
:1050E00009F070FA012310222270A370A968EA68FF
:1050F0002262A160184638BD03780BB100207047CA
:10510000FFF76EBD2DE9F04F8378DF0783B00546CA
:1051100040F192800F4601780E07914600F195808C
:105120008C0608D5826843695289C3EB42139BB24F
:10513000994528BF9946B9F1000F00F0AC806B6922
:10514000AA6888064E464FF0000805F1100AC3F31E
:10515000080B40D5116A01EB5321BBF1000F55D16B
:10516000B6F5007F52D3536B99424FD0B6F5806F9E
:1051700074D3287880064FEA562B05D41079C8EBF3
:105180000000834528BF834699424FEA4B240DD83F
:1051900001EB0B00834209D202F128000191009239
:1051A00003F0D4FE009A0199002845D0D06A026825
:1051B0005B46D2F814B03A46D84700283CD06B6919
:1051C000361B234427446B6165D02978AA6888067A
:1051D000C3F3080BBED492F8058008EA5328BBF14C
:1051E000000F39D1B8F1000F36D1002B40D149065C
:1051F0004CBF146A2C6A2C6191795069023C8C4036
:1052000008EB00012144BBF1000FA9D002F12800F6
:10521000002203F06BFE78B1CBF50074B44228BFD6
:10522000344600EB0B012246384604F08DFFC6E7FA
:105230002B7813F0700F2FD16B784FF0FF3043F0C5
:1052400002036B7003B0BDE8F08FC36942699B1A1B
:10525000994528BF99466EE72C69CDE7D06A036867
:105260003A461B6998470028E6D04FF40074A6E739
:105270000B0705D5AB785C0602D52C690134BAE77B
:1052800010462969524601F069FC0028D4DBCFD0D2
:10529000AA682C69B0E70026C6EB090003B0BDE898
:1052A000F08F00BF70B582B001220DF107010446F6
:1052B00046690569FFF726FF012808BF9DF807002A
:1052C000666118BF4FF0FF30256102B070BD00BFAE
:1052D00030B54369C3F3431583B0044605B189B9BA
:1052E00001220DF107012046FFF70CFF40B2012813
:1052F0000BD163691F336361A068383000EB451040
:1053000003B030BD20334361F6E7002003B030BD69
:105310002DE9F04105789AB0002415F0180F8DF8AA
:1053200020408DF821408DF822408DF844408DF8C2
:1053300045408DF8464004D086688D68AE420346ED
:1053400003D000201AB0BDE8F0811D4690460E46FD
:10535000FFF7CAFCAE46BEE80F0011AF0FC7BEE8AC
:105360000F000FC7DEF800303B6021462846FFF7EC
:10537000ABFC0028E5D001462022684604F0E4FE9C
:105380002A7802F0080202F0FF03002A74D0424695
:10539000314640F6012308A8FFF728FE0028D0D0A8
:1053A0000E98BDF824109DF823200B9BA861A980BE
:1053B0000027EA70EB60012128468DF820708DF8F7
:1053C0002270FFF781FC06460028BAD013220DF1A7
:1053D0000D010D3004F0B8FE9DF80B30F3724CB3A4
:1053E000A86882794169A31E934019443A4628303F
:1053F00003F07CFD0028A4D000F1200120226846A3
:1054000004F0A2FE2146A86801F080FC002898D094
:10541000A8682B6A82794169023B9340194428307D
:10542000012203F063FD00288BD069462030202242
:1054300004F08AFE00210222082311A819918DF898
:1054400046208DF8443000F0A1FE00283FF479AFEB
:10545000AC6804F1280003F079FD00283FF471AF37
:1054600004F50E7003F072FD00283FF46AAF206867
:1054700003681B6A984765E74246314608A8FFF76C
:1054800051FD00283FF45DAF109C89E70378DA06F0
:105490001AD5436910B5044633B18378002223F04E
:1054A000200383700261426101212046FFF710FF53
:1054B00060B103786BB1E52BF6D02E2BF4D0C37A14
:1054C0001B07F1D4002010BD002070476378002B2B
:1054D000F8D1A378082243F00203A370227020467B
:1054E000BDE8104000F052BE2DE9F0410378076995
:1054F0000446B3B10D464169A9422BD045B9837822
:10550000056123F02003A37065610120BDE8F081EF
:1055100018070AD49A060BD5A3685B89B5EB431F1D
:1055200034D927610020BDE8F081E2699542F8D8BE
:10553000D4F808E0A2789EF806000930C0B26E1ECA
:1055400012F0400F26FA00F607D0236A1E442661A7
:105550001346D6E70120BDE8F0814A1E22FA00F08A
:10556000864215D25B064CBFDEF82030236A2361E9
:1055700004F1100807E02169A06801F0EFFA0028A3
:1055800006F1FF36CDDD4246002EF4D1A378B8E710
:105590000029E7D0361AEBE72DE9F0410D46904699
:1055A0000021242204461F469DF8186009F00AF8DD
:1055B000A8682B6AE36000F1380208F00F0302EBE1
:1055C0004312A060A4F80480D17A0D0712D401F030
:1055D00017012170D37AE67013F0180F08BF41F05D
:1055E000080107F0030308BF2170012B07D0022B2D
:1055F00029D01BB300202070A070BDE8F0810223E9
:10560000A370217811F0110FF4D159B207F480651D
:1056100007F008030B43DBB2A370B2F814E0518B20
:10562000466BA66141EA0E4185B1D1B963F07F03B3
:10563000A3707B040ED40120BDE8F08117F48065CF
:10564000D8D10121E4E70323A370DAE72162D3690B
:10565000E361EEE7E1692046FFF746FF0028EAD163
:10566000C8E701F053FB0028C4D0A378DEE700BFF1
:1056700003781BB90B7813F0700F01D1002070472D
:105680002DE9F0434D6915F01F0683B031D19046E6
:105690000C460746B14601E0002665690021204618
:1056A000FFF716FE28B303781BB32E2BF4D0E52B9F
:1056B000F2D0C17A01F0080202F0FF0E42B10F29C8
:1056C000EAD15A06E9D503F01F0690F80D90E4E7F9
:1056D0009EB1421E0A3012F8011F4FEACE1343EA70
:1056E0005E0E51FA8EFE90425FFA8EFEF3D1CE45E9
:1056F00003D0002003B0BDE8F08300964346C5F315
:105700004F1221463846FFF747FFF3E703780BB106
:10571000FFF7EABA012070472DE9F04F90F800C07A
:1057200081B01CF0080F9DF828709DF82C809DF822
:1057300030909DF8346053D0A2F2BC7294B27F2CAA
:105740004ED85A1E0B2A4BD87A1E1E2A48D8B8F1BA
:10575000170F45D8B9F13B0F42D83B2E40D81D4614
:105760008A468346FFF7C0FA002839D001215846FF
:10577000FFF7AAFAA0B347EA4515711045EA442499
:105780001AF0010F41EA4919A4B249EAC82818BF22
:1057900044821AF0020F1FFA88F807D016F00106AB
:1057A00018BF642646730482A0F80E801AF0040F16
:1057B00018BF0483DBF8084018BFA0F8168004F176
:1057C000280003F0C3FB58B104F50E7003F0BEFBD4
:1057D00030B1206803681B6A01B0BDE8F04F18477C
:1057E000002001B0BDE8F08F83789B071AD5036ACB
:1057F000B3B110B5016982B00446F1B901930162F9
:105800001946A06801F082FAA8B1A37822786169EC
:10581000E16163F07F03A370EAB9012002B010BD1B
:1058200001207047002070476FF070422169A06826
:1058300001F05CFA58B90020F0E702AA002342F810
:10584000043D806801F08AF90028F4DBECD1019B6B
:10585000002BDAD0D4E72046FFF746FADEE700BF98
:105860002DE9F84383789C0705465ED590461A07D4
:105870000F4655D46A69D343984556D8B8F1000FFE
:105880003ED04646A868437913EA5224C2F3080979
:1058900061D1B9F1000F78D12969002900F0B280F7
:1058A000AB785B0648D5EB69934245D94B1C2B611D
:1058B0008279436901399140B6F5007F194472D26B
:1058C000B6F5007F344628BF4FF40074AB7813F070
:1058D000200F0CBF01220522283003F007FB20B364
:1058E000484422463946A14404F02EFCB9F5007F15
:1058F00000F099806A69361B224427446A61C1D14D
:10590000EB699342C0F0A180554B1B68002B00F05F
:10591000A480AB7863F07F03AB704046BDE8F883AA
:10592000C169FFF7E1FD0028A4D16B7843F00103C2
:105930006B700020BDE8F88305F1100201F00EF94C
:105940000028F2DB04D12846FFF766F90028ECD0E6
:105950002B69A86859E02B6981794269023B03FAF7
:1059600001F111442144B9F1000F15D1B6F5007FC2
:1059700019D26A69EB69B6F5007F344628BF4FF447
:1059800000749A42A2D30522A6E72B698179426965
:10599000023B03FA01F11144C9F50074B44228BF77
:1059A0003446012298E7B6F5806F1ED30379D0F80C
:1059B00034E01B1B720A934228BF13468E454FEA00
:1059C000432409D35A18964506D24FF0000E4FF0E3
:1059D000FF3280F828E04263C06A0268D2F828905B
:1059E0003A46C847002885D19FE7436B8B4213D0C6
:1059F000C06A03683A465B6A9847002895D04FF41E
:105A0000007477E72B6AB3B12B6181794269023B5D
:105A100003FA01F11144A9E700224FF0FF3380F8A7
:105A200028204363E4E7A868283003F08FFA0028B1
:105A30007FF460AF79E72846FFF7EEF800283FF4DF
:105A400074AF2B692B62A868DFE7AB78EA6163F07B
:105A50007F03AB704046BDE8F8834046BDE8F8835D
:105A60001034FF1F2DE9F04F0746154606468A46BB
:105A700099460FCF8DB003AC0FC40FCF0FC43B6856
:105A80002A68236000236A60AB81B9F1000F35D02A
:105A9000CDF804904FF00108C8EB0A0189B2490122
:105AA00003A8FFF721FD58B3002103A8FFF710FC5E
:105AB000074628B30024E2B23946304600F0A8FE7B
:105AC000AB898346013428461BB96B68AA689342A8
:105AD0001AD003F043FA8146584603F04FFB834641
