:1000000000000320D1010000C92C0000812C000059
:10001000812C0000812C0000812C0000812C00002C
:10002000812C0000812C0000812C0000C92C0000D4
:10003000C92C0000812C00007D4400008145000097
:10004000C92C0000C92C0000C92C0000C92C0000DC
:10005000C92C0000C92C0000C92C0000C92C0000CC
:10006000C92C0000C92C0000C92C0000C92C0000BC
:10007000C92C0000C92C0000C92C0000C92C0000AC
:10008000C92C0000C92C0000C92C0000C92C00009C
:10009000C92C0000C92C0000C92C0000C92C00008C
:1000A000D1290000DD290000C92C0000C92C000066
:1000B000C92C0000C92C0000C92C0000B14B000065
:1000C000C92C0000DD4C0000C92C0000094E0000C6
:1000D000C92C0000014F0000C92C0000C92C0000F1
:1000E000C92C0000C92C0000C92C0000C92C00003C
:1000F000C92C0000C92C0000C92C0000C92C00002C
:10010000C92C0000C92C0000C92C0000C92C00001B
:10011000C92C00008D310000C92C0000C92C000042
:10012000C92C0000C92C0000C92C0000C92C0000FB
:10013000C92C0000C92C0000C92C0000C92C0000EB
:1001400031420000C92C0000F94F0000C92C00000A
:10015000C92C0000C92C0000C92C0000C92C0000CB
:10016000C92C0000C92C0000E9290000C92C00009E
:10017000C92C0000C92C0000C92C0000C92C0000AB
:10018000C92C0000C92C0000C92C0000C92C00009B
:10019000C92C0000C92C0000F1500000C92C00003F
:1001A000C92C0000C92C0000C92C0000C92C00007B
:1001B000C92C0000C92C0000C92C0000C92C00006B
:1001C000C92C0000C92C0000C92C0000C92C00005B
:1001D0005C4B4CF2205210B51A804DF628121A8052
:1001E00000BF00BF02F074FD574B4FF030621A6041
:1001F000564A9A60564ADA60564B4FF470021A60BB
:10020000554B564A1A60564B1A78110703D51A787F
:1002100042F008021A70534B5349AA221A70534AEB
:10022000534B8B4204D252F8040F43F8040BF8E707
:10023000504B514900228B4202D243F8042BFAE77B
:100240004E494F4A002352F8230041F8230001335E
:10025000742BF8D14B4B4C4A802103F8011B93427D
:10026000FBD14A4B454A1A60494B8A221A70A3F5C2
:10027000805324225A70A0221A709A799207FCD5D2
:100280009A79D406FCD4434A937903F00C03082BE3
:10029000FAD1414B60221A7002331A78802AFCD1BD
:1002A0003C4B01221A715D225A719A799006FCD555
:1002B0009979384A4906FBD5384B394919600021EC
:1002C000596020231370937903F00C030C2BFAD19F
:1002D000344B354A1A60354A354C136813F4807331
:1002E00003D123604FF4A8531360324B324A1A6093
:1002F00000225A60072243F8042C304AC3F80C2D20
:1003000062B602F0C9FD2368DA0705D52C4802F071
:1003100059FD2C4B2C4A1A602C4B1B785B0609D5D7
:10032000284C294B22689A4204D1254802F04AFD04
:100330000023236007F0AEFC02F0D0FC04F03EF98D
:10034000FEE700BF0E20054030800440823F0400DD
:100350000100002B88ED00E0002008E0030000858C
:1003600002D0074000E00740DC57FF1F1C8B000055
:10037000C04BFF1FE057FF1F9464FF1F0044FF1F87
:100380000000000000E400E064E400E008ED00E0AC
:10039000005006400040064001E007404480044011
:1003A0000000060204800440C010070010D0034083
:1003B00014D0034014E000E01FBF02000000202022
:1003C00025B3B15D1CE00340A5C3945A00F007407B
:1003D000FFFFFFFFFFFFFFFFFFFFFFFFFFFFFFFF2D
:1003E000FFFFFFFFFFFFFFFFFFFFFFFFFFFFFFFF1D
:1003F000FFFFFFFFFFFFFFFFFFFFFFFFFFFFFFFF0D
:10040000FFFFFFFFFFFFFFFFFFFFFFFFDEF9FFFF23
:1004100010B5054C237833B9044B13B10448AFF33E
:1004200000800123237010BDE057FF1F0000000073
:10043000188B0000084B10B51BB108490848AFF3F2
:1004400000800848036803B910BD074B002BFBD0A0
:10045000BDE81040184700BF00000000E457FF1F30
:10046000188B0000DC57FF1F0000000010B5044689
:1004700003F088FE204610BDF8B5294DDFF8B8E03E
:1004800095F8583095F85900002298428EF80020CF
:1004900040D0244E194694469842294403F101075E
:1004A00094B285BFFBB2097EFF214FF0010C83425D
:1004B000315502F101021946EED1BCF1000F2BD1EA
:1004C00032787378184943EA02231BB25A1E0B8014
:1004D000042A07D8DFE802F019150B0703000523EB
:1004E0008EF80030F8BD04238EF80030F8BD0F48B8
:1004F0000F4A0323002401218EF80030048011707C
:10050000F8BD02238EF80030F8BD0A21094802F038
:1005100077FAFEE7034ED3E785F85830D0E700BFFF
:10052000B84CFF1FB059FF1F0858FF1FA859FF1FE5
:100530008858FF1F645FFF1FAA59FF1F002310B4D4
:10054000114C4172026104600372C36041B11946EB
:1005500000E0026942F82310427A01339A42F8DC43
:100560000A4B1A680AB90CE01A465369002BFBD1F2
:100570005061002343618380C38083725DF8044B24
:1005800070471860F5E700BF8C8600007860FF1F99
:10059000F0B5324D324C334F87B02846552102F02A
:1005A00061F9314B314A3249C5F8A820C5F8A41089
:1005B00001264FF47A701E7002F01CFC40212D4879
:1005C0002D4D03F0AFFC2D4B2D495D6205F12D55EE
:1005D000D9612C4A2C499A6105F51A25204601AAB1
:1005E00001910391294B029705F27C450021049566
:1005F000059300F09FFD264B0193314601AA20464A
:100600000393244E244B254D029604950593244FC5
:10061000244E254D00F08EFD244B019301AA204667
:1006200002210393049605950297214E214D00F077
:1006300081FD214B019301AA204603211F4C039306
:1006400002960495059400F075FD1D4A1D4B126835
:100650000192019A1A6007B0F0BD00BFB84CFF1FAD
:10066000EC58FF1F7C01AB86C44BFF1F79040000D0
:10067000050C00000002FF1F00B76D5B1858FF1F3C
:1006800080442841006E5C44427FAA3C8358613913
:100690003603630E6D06C61C9C5264033EBA27F6F1
:1006A000826BEB288129160E84ADC003C1B5751489
:1006B000DDF7E236E064F31FEE7B711BDA8AD20DC0
:1006C0006C5FFF1FAC59FF1F2DE9F04F944B2DEDD0
:1006D000028B1A7883B0002A3BD0924D924CAA6AC2
:1006E000002119705AB98F4800F084FC10EE100AEE
:1006F00006F098FCAB6AC4E90001002BF3D08948EE
:100700008A4D00F077FC10EE100A06F08BFC0646CE
:100710000F4602460B46C4E9006706F0D7FC0246C6
:100720000B46D5E9000106F01FFB814A1368C5E9B5
:100730000001013313607F497F4A0B680093009BDF
:1007400010681B1A222B0AD803B0BDEC028BBDE83F
:10075000F08F744B9B6A002BEDD0734CCFE70B6886
:100760000193734F019B13603868DFF8C08106F076
:1007700037FC02460B46D8E9000106F0D1FD41ECFA
:10078000100B04F09DFF0022002351EC100BB0EE83
:10079000408AF0EE608A06F001FF08B19FED5C8BA5
:1007A000B0EE480AF0EE680A644BDFF8C89183EDBA
:1007B000008B04F05DFD002251EC100B604B06F045
:1007C00085FC00225F4B06F0CFFA5F4B002206F05B
:1007D000CBFAD9ED007A5D4BF5EE407A04460D4632
:1007E000F1EE10FAC3E9004540F0828006F01EFFEA
:1007F000C9F80000564ED6ED007AF5EE407AF1EEDB
:1008000010FA68D12046294606F010FF3060002219
:10081000504BDFF864A1DFF864B12046294606F0AA
:100820007FFD9FED3D0B41EC110B04F0ADFD4A4CFB
:10083000DAE9002384ED000B51EC100B06F094FA7A
:10084000DBF80030013304460D461846CAE900457E
:10085000CBF8003006F0C4FB02460B462046294682
:1008600006F05EFD41EC100B04F002FD0022394B56
:1008700051EC100B06F02AFC384A394B92F800E094
:1008800000240025C3E900010023C8E900453B60BE
:10089000BEF1000F3FF458AF1370CBF8003006F0F4
:1008A000C5FE304B3049D9F800C0D6F800E02F4FD4
:1008B0002F4A1860C1F800C000230121CAE9004591
:1008C000C7F800E01180C9F80030336003B0BDEC18
:1008D000028BBDE8F08F17EE900A06F0A3FB0246EC
:1008E0000B462046294606F081FE00288FD089E776
:1008F00017EE900A06F096FB02460B462046294664
:1009000006F056FE00283FF475AF204629466DE7F5
:10091000000000A0F7C6B03E000000000000244028
:10092000C44BFF1FB858FF1FF859FF1F0058FF1F87
:10093000F459FF1F6C5FFF1FAC59FF1F185AFF1FB0
:100940000000344000005E40000014401058FF1FBB
:10095000E858FF1F00002440505AFF1F8858FF1F0F
:100960008859FF1FF059FF1F485AFF1F7058FF1F7B
:10097000A859FF1F0C58FF1F205AFF1F5458FF1F74
:100980002DE9F04F844C854D2268DFF85C82C5F874
:100990000080002385B06B722B612B72EB600AB96B
:1009A000F6E01A465369002BFBD1556100277C4EB7
:1009B0007C4B7A486F61AF80EF80AF722B6000F0A4
:1009C000E1FD022006F118023B4639463772F76016
:1009D000C6F8008070723261374600E03A6942F82A
:1009E0002310727A6E4801339A42F7DC22686A4B10
:1009F0000AB9CFE01A465369002BFBD15661DFF8E4
:100A0000EC81694B6648336000247461B480F480E3
:100A1000B47203F055FF08F1340202214046FFF79B
:100A20008DFD624F6249634B634A6448C8F8001009
:100A30004FF48051C8F81820C8F81C0007F198023C
:100A4000C8F82010C8F8243001213846C8F82840DA
:100A5000C8F82C40C8F83040FFF770FD3B46584AB4
:100A600043F8142B07F19401224643F8042F8B42DC
:100A70004FF00004F9D1DFF878A1DFF87891DFF8C2
:100A800078B10AF1180201215046FFF757FD4D4B8E
:100A9000CAF80030002200234846CAE9082389E842
:100AA0002001CAF8284089F8084089F80940C9F8A7
:100AB0000C4089F8104003F031FB434A4349444D50
:100AC000484607F0D5F8DFF83491CBF80080584657
:100AD000CBF804708BF808408BF80940CBF80C4039
:100AE0008BF8104003F01AFB374A3849DFF81081C1
:100AF000584607F0BDF8484689E8800489F8084060
:100B000089F80940C9F80C4089F8104003F006FB49
:100B10002D4A2E49484607F0ABF84046C8F8007009
:100B2000C8F8046088F8084088F80940C8F80C4004
:100B300088F8104003F0F2FA234A2449404607F0AF
:100B400097F8012328466B722F606E602C72EC6060
:100B50002C7403F0E3FA28461B4A1C491D4E1E4C18
:100B600007F086F81D4B1E491A680092009F1A680C
:100B70000192019D1A68029202981B680393039ADE
:100B8000184B3760256008601A6005B0BDE8F08F2B
:100B900025600BE7186032E77860FF1F9059FF1F50
:100BA000285AFF1FD08600000C8A0000EC58FF1F57
:100BB000C486000080F9855A00B28E04E8728E0463
:100BC000B8860000AC860000C04BFF1F6D0400001B
:100BD000A058FF1FAC59FF1F5858FF1F6C5FFF1F25
:100BE0004C5AFF1F005AFF1F8C8600001858FF1F29
:100BF000B858FF1F5C58FF1F045AFF1F7458FF1F8F
:100C00008C58FF1FF0B5C14D2B78042B83B000F03A
:100C10007281052B2FD0022B01D003B0F0BDBC4850
:100C2000BC4E00F1140E374643780278727031469C
:100C300007F8023FFF2311F8012F0824534013F057
:100C4000800F04F1FF324FEA430318BF83F03103F2
:100C500012F0FF04DBB2F2D1B942ECD1023086458A
:100C600006F8033FDFD11B22AB49AC4801F07CFD05
:100C70002C7003B0F0BDAA4BA74C1B6801939DF8E4
:100C800007209DF806002270D343DBB26070082273
:100C900004E0013A12F0FF02CBB20CD013F0800F47
:100CA0004FEA4301F5D05B00013A83F0310312F0C3
:100CB000FF02DBB2F2D14340082204E0013A12F015
:100CC000FF02CBB20CD013F0800F4FEA4301F5D0F6
:100CD0005B00013A83F0310312F0FF02DBB2F2D184
:100CE0009DF805209DF80400A370D343E270DBB2A9
:100CF0002071082204E0013A12F0FF02CBB20CD0BE
:100D000013F0800F4FEA4301F5D05B00013A83F006
:100D1000310312F0FF02DBB2F2D14340082204E0BB
:100D2000013A12F0FF02CBB20CD013F0800F4FEA61
:100D30004301F5D05B00013A83F0310312F0FF026A
:100D4000DBB2F2D1774A6371136801939DF80720F3
:100D50009DF80600A271D343DBB2E071082204E0E3
:100D6000013A12F0FF02CBB20CD013F0800F4FEA21
:100D70004301F5D05B00013A83F0310312F0FF022A
:100D8000DBB2F2D14340082204E0013A12F0FF0244
:100D9000CBB20CD013F0800F4FEA4301F5D05B00CB
:100DA000013A83F0310312F0FF02DBB2F2D19DF879
:100DB00005209DF804002372D3436272DBB2A07257
:100DC000082204E0013A12F0FF02CBB20CD013F07B
:100DD000800F4FEA4301F5D05B00013A83F0310305
:100DE00012F0FF02DBB2F2D14340082204E0013AE4
:100DF00012F0FF02CBB20CD013F0800F4FEA430188
:100E0000F5D05B00013A83F0310312F0FF02DBB250
:100E1000F2D1454AE372136801939DF807209DF8CB
:100E200006002273D343DBB26073082204E0013A68
:100E300012F0FF02CBB20CD013F0800F4FEA430147
:100E4000F5D05B00013A83F0310312F0FF02DBB210
:100E5000F2D14340082204E0013A12F0FF02CBB283
:100E60000CD013F0800F4FEA4301F5D05B00013A3C
:100E700083F0310312F0FF02DBB2F2D19DF80520BE
:100E80009DF80400A373D343E273DBB220740822FD
:100E900004E0013A12F0FF02CBB20CD013F0800F45
:100EA0004FEA4301F5D05B00013A83F0310312F0C1
:100EB000FF02DBB2F2D14340082604E0D3B2721E37
:100EC00012F0FF060CD013F0800F4FEA4302F5D06A
:100ED0005B00721E83F0310312F0FF06DBB2F2D129
:100EE00012220D490D48637401F03EFC0F4B2E7029
:100EF0001E8003B0F0BD0D4B074C1B881A0AD8B2F8
:100F0000D3432270DBB26070082216E0AA59FF1F9B
:100F100090860000AF59FF1FB059FF1FB84CFF1F4C
:100F2000F059FF1F485AFF1F7058FF1FA859FF1F95
:100F3000013A12F0FF02CBB20CD013F0800F4FEA4F
:100F40004301F5D05B00013A83F0310312F0FF0258
:100F5000DBB2F2D14340082604E0D3B2721E12F095
:100F6000FF060CD013F0800F4FEA4302F5D05B0070
:100F7000721E83F0310312F0FF06DBB2F2D10322BE
:100F800003490448A37001F0EFFB2E7003B0F0BDDD
:100F9000B059FF1FB84CFF1F2DE9F04100218046DA
:100FA00003F08EF8F8B1D8E90823011D00F5827E20
:100FB0000F684E688D68103151F8044CC7FBC72389
:100FC000C6FBC623C5FBC523C4FBC4238E45EFD88F
:100FD000D8F828100131C8E90823C8F82810BDE85E
:100FE000F04103F029B8D8F828300133C8F8283088
:100FF000BDE8F081F8B572B6002200230025D0E9E3
:101000000867846A8562C0E9082362B6E401224663
:101010002B463046394606F067FC06F027FC07EE03
:10102000900AB1EEE70AB4EE400AF1EE10FA04D1EC
:10103000DFED087A80EE270AF8BD22462B463046BF
:10104000394606F051FC06F011FC00EE100A04F0DF
:1010500097FBEDE700FEFF462DE9F04F83B000213E
:101060000446009003F038F8019000285ED000F5A7
:10107000827900F1040A04F13808A8F1200B58F82D
:10108000042C58F80C4C58F8106C58F8147C58F88C
:10109000081C9BE80058C2F30D0355461A46234628
:1010A0005446C246B04628683BFB00223CFB132254
:1010B0003EFB032237FB112238FB012222F38F363D
:1010C000C2F30D023BFB10223CFB00223EFB13232C
:1010D00037FB063338FB113323F38F31C6EA014166
:1010E00045F8041BA945C3F30D020346DBD8D046DF
:1010F000A246044658F8040C48F8081C134600F0B1
:101100000040034348F80C4C48F8043C08F1200820
:101110000028B2D102469DE81100214602F0B6FF38
:10112000204603B0BDE8F04F02F086BF03B0BDE833
:10113000F08F00BF032917D870B418304C01031981
:1011400072B691B911680151D0681169DC695668AD
:1011500095689D6004F0004440424A425E60DC6154
:10116000D8601A6162B670BC704753F8041C41F035
:10117000004143F8041CE5E72DE9F04F83B08846B1
:10118000846A0190D0F81CC0D0F824A0C16A076B13
:10119000DDF8309008F580702646834638F902EB7A
:1011A0004FEA0E3E5CFB17F401EB84045AFB17F583
:1011B0007644C4EB6606A6EB85065CFB16F007EBEF
:1011C00080005CFB10F104EB81015AFB10F5C1EBD0
:1011D0000E07A7EB85055CFB15F700EB87070C44B2
:1011E00024F34F34384420F34F30354425F34F3542
:1011F000C34522F8024B764623F8020B29F8025B1E
:10120000CCD1019A1346C3F828E0D162176303B02A
:10121000BDE8F08F2DE9F04F85B0884681690191D6
:1012200001460C460390006A0290D1F824B08F6A00
:10123000206BC96ADDF838A0DDF83C9008F58074B1
:10124000009432F9026B029C06FB04F626F0784506
:1012500005F10065ED0055FB15F5284C55FB14F51F
:10126000ED00013CF616C6F106062C443441019D02
:1012700055FB14F4224D38F902CBAC42A8BF2C46E2
:1012800024024FEA0C3C54FB10F601EB86065BFB94
:1012900010F107EB0C0EC6EB6E0EAEEB810E54FB9D
:1012A0001EF500EB850554FB15F106EB81015BFB98
:1012B00015F0C1EB0C07A7EB800754FB17F405EB07
:1012C00084000E4426F34F36054425F34F35BE44C3
:1012D0002EF34F3E009C23F8026B44452AF8025B34
:1012E000674629F802EBACD1039A1346C3F828C02D
:1012F000D162106305B0BDE8F08F00BFABAAAA2A87
:10130000E71052002DE9F043002183B0044602F0BB
:10131000D7FE01210546204602F0D2FE0646002DEA
:101320003CD002F035FE074600283CD002F030FEEB
:101330008046002842D002F02BFE8146002851D082
:10134000002E45D0021D08F10403019200932046AF
:101350003B1D321D291DFFF75DFF304602F06CFE7C
:10136000284602F069FE00223946204602F08EFE31
:10137000384602F061FE01224146204602F086FE18
:10138000404602F059FE20460222494602F07EFE07
:10139000484603B0BDE8F04302F04EBE0028F8D145
:1013A00003B0BDE8F083284602F046FE002EF7D0D9
:1013B000304603B0BDE8F04302F03EBE284602F0DE
:1013C0003BFE384602F038FE002EE9D03046F0E70A
:1013D000031D00933A1D08F10403291D2046FFF761
:1013E000CBFEBDE7284602F027FE384602F024FE79
:1013F000404602F021FE002ED2D03046D9E700BF91
:1014000010B5044602F0BCFF204610BD024A034955
:10141000034806F02DBC00BFC04BFF1F01140000A5
:10142000585AFF1F38B5074D074C08482A46214631
:1014300006F01EFC2A4621460548BDE8384006F065
:1014400017BC00BFC04BFF1F01140000605AFF1FF4
:10145000685AFF1F1A4A1B4B11681B48096970B470
:1014600099421279027008D2184A12782AB3184A9F
:101470000121116003F5807402E01C46A3F580731E
:10148000144A154912680D68AAB1A5B1134E3088E7
:10149000402810D841000A44403029440232023129
:1014A000308033F9040B22F8020F9C4233F9020C0E
:1014B00021F8020FF5D870BC704703F58074DFE7A0
:1014C0007C5CFF1F745BFF1F1F800040745CFF1F6C
:1014D00008E200E0845CFF1F785CFF1F705AFF1F6A
:1014E000F8B5064602F054FD0446E8B102F050FD9E
:1014F000054600283AD072B61F4B1A887F2A19D8A1
:10150000002C31D01D490A6842B162B6204602F073
:1015100093FD2846BDE8F84002F08EBD18480C60E7
:101520001A80056062B6F8BD054672B6124B1A887D
:101530007F2AE5D9114A12491768146000220C6805
:101540001A800D6062B63946304602F09FFD38467B
:1015500002F072FD30462146012202F097FD20463E
:10156000BDE8F84002F068BD62B6F8BD204602F062
:1015700063FD2C46BFE700BF705AFF1F845CFF1F4E
:10158000785CFF1FF8B5284C284E294F294D20467E
:10159000012102F08FFE00F0B1F8274B274A2848BE
:1015A0004FF480611960236800211A6099802279C4
:1015B0001E6102F1804240F20116DE809F6102F559
:1015C00004324FF480760627DE82DE839F83022674
:1015D0008C27D9609E609E82117017702B68194EFF
:1015E00043F0124343F001032B600368164D43F0B0
:1015F0001043036002F004FE2279144B144C18705F
:1016000053119B0003F16043174602F1100003F5EC
:10161000614302F01F020121377001FA02F245F81E
:1016200020401A60F8BD00BF7C5CFF1F745AFF1F8A
:1016300000FEFFFF80F0024014B00440A2F0024020
:1016400000F002401B8000400044FF1F745CFF1F3D
:1016500055140000024A0349034806F009BB00BFC5
:10166000C04BFF1F011400007C5CFF1F024A0349AE
:10167000034806F0FDBA00BFC04BFF1F0114000075
:10168000885CFF1F024A0349034806F0F1BA00BF15
:10169000C04BFF1F01140000905CFF1F024A03496A
:1016A000034806F0E5BA00BFC04BFF1F011400005D
:1016B000985CFF1F024A0349034806F0D9BA00BFED
:1016C000C04BFF1F01140000A05CFF1F024A03492A
:1016D000034806F0CDBA00BFC04BFF1F0114000045
:1016E000A85CFF1F024A0349034806F0C1BA00BFC5
:1016F000C04BFF1F01140000B05CFF1F284B29499D
:101700001A68294842F400421A600A6842F002024C
:101710000A601A6842F002021A600368002B3EDB7E
:10172000224B1B68002B3ADB214A4FF080431360A9
:101730001368002BFCDBF0B51E4C1F48DFF8A8E057
:101740001E491F4B1F4A204F204E214D4FF2FE0CC9
:10175000C4F800C0002404600120CEF80000DFF8C7
:101760008CE0C1F800E04FF480311960194B136030
:10177000DFF87CE0184A3A603460286000F18E405F
:10178000CEF80000154CB9671548164946F8503C8C
:101790004FF4C0632A61236003600B60F0BD7047A3
:1017A0003C8004404080044000F0024080F0024051
:1017B00000F1024004F1024060F0024008F00240F3
:1017C0000CF0024010F0024014F00240E0F0024041
:1017D00084F002401B1F0100001F1F1F08B00440BF
:1017E0000CB0044018B0044004F0024001000007AF
:1017F00088F00240024A0349034806F039BA00BFA4
:10180000C04BFF1F01140000B85CFF1F024A0349D0
:10181000034806F02DBA00BFC04BFF1F01140000A3
:10182000C05CFF1F024A0349034806F021BA00BF0B
:10183000C04BFF1F01140000C85CFF1F024A034990
:10184000034806F015BA00BFC04BFF1F011400008B
:10185000D05CFF1F024A0349034806F009BA00BFE3
:10186000C04BFF1F01140000D85CFF1F024A034950
:10187000034806F0FDB900BFC04BFF1F0114000074
:10188000E05CFF1F10B4047F4160022CC26003D0F3
:101890005DF8044B02F090BD83685DF8044B184777
:1018A000F0B4464B464A986B5C6B01791170454920
:1018B00022790A701A6B00790870002A46D059689C
:1018C000C9688A423ED82168CC8B240402F1FF30DB
:1018D00065D4C0F30E00C883C88B80B2C882996BF0
:1018E0000968C88B000452D4C2F30E00C883C88BA9
:1018F000002480B212F1FF32C88218BF01221C639B
:10190000596B2E4809680D6800F12C04A54236D0A9
:101910000068C46814F0804F0C680D6815BF2488F7
:1019200024780235013544F000440D604463996B1E
:10193000254B09791970214912B14A6B12791A7035
:10194000F0BC7047521A1A630122D9E7D86B1968A4
:1019500005681E4C0A63CC62CC682D681C4E24F0CE
:1019600080440327B542CC6083F82D701FD1037FDC
:101970004260022BC2601ED0F0BC02F01DBD0168A7
:1019800090F82C00CC6840F000404863CFE7CC8B47
:10199000C2F3080004F47E442043C883A7E7CC8B3D
:1019A000C0F3080004F47E442043C88394E72B4628
:1019B0001146F0BC18478368F0BC1847C84BFF1F9E
:1019C0001F8000401C8000401B80004000000FFF73
:1019D0008518000000207047704700BF064B074A7B
:1019E000DA620221002259609A7083F8242083F879
:1019F000302083F832207047E85CFF1F70870000BA
:101A00002049214A0B6843F080030B60114613689C
:101A1000DB07FCD40B689B07F9D41C4B30B44FF0A8
:101A20008072184D186000E0A2B12968184B154C5F
:101A30000B40013A002BF7D062B1012B0AD1236889
:101A400013F0800F23680FD043F0011323600320AD
:101A500030BC70470B4A136843F4702343F0010312
:101A60001360012030BC704713F48030236804D029
:101A700043F0011323600520F4E743F001032360E2
:101A8000F0E700BF30100B4024100B400C100B404F
:101A900001000E0070B50D4D0D480E4E00232B6059
:101AA000FFF7AEFF40F2E73403463268520701D534
:101AB00007480BB1184670BD2B60FFF7A1FF013C32
:101AC0000346F2D1002808BF052070BD08100B4066
:101AD0000000DB0C24100B40F8B5384B1A780AB123
:101AE0000320F8BD5B78064603B94902344D354CF6
:101AF000354B36484FF6FF774FF481322F60216027
:101B00001A60FFF77DFF0028EBD1314B31491B688C
:101B10001C3406F1400206F510702B68284F43F084
:101B2000200613F4E00F2E603ED123681E05FCD57D
:101B30000B6842F8403C0B6842F83C3C0B6842F8AA
:101B4000383C0B6842F8343C0B6842F8303C0B6878
:101B500042F82C3C0B6842F8283C0B6842F8243CC5
:101B60000B6842F8203C0B6842F81C3C0B6842F8BA
:101B7000183C0B6842F8143C0B6842F8103C0B68A8
:101B800042F80C3C0B6842F8083C0B6842F8043CF5
:101B900040328242C1D1002009490B68084A9B07A4
:101BA000FBD50D4B1360F8BD43F4E00343F0200375
:101BB0003B60FFF76FFF0120EEE700BF3C5DFF1FBA
:101BC00030100B4008100B4004100B4010003A116D
:101BD00010100B4020100B4022000001F8B52B4BD9
:101BE0001A780AB10320F8BD5B78044603B94902AC
:101BF000274D28482A68284B2A604FF4813201601B
:101C000026481A60FFF7FCFE0028ECD1244B254E35
:101C10001B68294604F500770B681D4AD806FBD5DA
:101C20002B6813F4E00F1AD104F1400254F8043B7E
:101C30003360A242FAD10B68DFF854E043F010039E
:101C40000B600B6813F4E00013D19742E4D1104904
:101C50000B680F4A9B07FBD5134B1360F8BD136845
:101C600043F4E00343F010031360FFF713FF012078
:101C7000EDE7DEF8003043F4E00343F01003CEF864
:101C80000030FFF707FF0120E1E700BF3C5DFF1FC9
:101C900030100B4008100B4004100B4000003A18A5
:101CA00010100B4020100B401200000110B5012154
:101CB000007801F099F8114A1378C3B11049CB7A32
:101CC00000241846147093B1DA0703D50D4AC86989
:101CD000106018469C0703D50B4B0A6AC87A1A6035
:101CE000420705D4030702D5084B8A6A1A6010BD63
:101CF000074B4A6AC87A1A60F4E700BF505DFF1FBD
:101D0000C84BFF1F00E100E004E100E00CE100E04F
:101D100008E100E0234B1A781AB10078002101F0A5
:101D200063B870B4204A2149D47A096801251D702E
:101D3000002C26D072B6D47AE607234606D51C4D71
:101D4000D3682E683340D3612B602346A50706D5A0
:101D5000184D14692E68D37A344014622C605C07E5
:101D600006D5154D54692E68D37A344054622C60E0
:101D70001B0705D5114C936925682B40936223609E
:101D800062B61368DA688A4207D00D4C1C600D4AAF
:101D9000D96041F080441C611A600078002170BC59
:101DA00001F022B8505DFF1FC84BFF1F4C5DFF1FA5
:101DB00080E100E084E100E088E100E08CE100E007
:101DC00001403F0000003F80F0B41248124A03680F
:101DD00082B016460093009F4FF00045FF24136821
:101DE00043F480631360D5625463D36A002BFCDA3A
:101DF000B36BDBB2FF2B09D003680193019BDB1BA4
:101E00008B42ECD3002002B0F0BC7047012002B03E
:101E1000F0BC70476C5FFF1F00C00240F8B50D4674
:101E20004FF4967116460446FFF7CEFF284B1A680A
:101E30004FF0004042F4806245F040011A60D862E1
:101E40001A465963D36A002BFCDA214918204FF057
:101E500000470A6826FA00F342F48062DBB20A60A7
:101E6000CF624B63CB6A002BFCDA083810F1080F05
:101E7000EFD155B3082D0CBF8721FF21144B1A68F1
:101E80004FF0004042F480621A60D8621A465963EB
:101E9000D36A002BFCDA0E4A002716464FF00045A5
:101EA000FF21136843F480631360D5625163D36AE2
:101EB000002BFCDAB36BD8B21B06607000D4F8BDFF
:101EC0000137B7F5807FECD1F8BD9521D6E700BF8B
:101ED00000C00240F0B41549154A0B6882B016469E
:101EE0000093009F4FF00045FF24136843F4806384
:101EF0001360D5625463D36A002BFCDAB36BDBB298
:101F0000FF2B43700AD10B680193019BDB1BB3F5D8
:101F1000967FEAD9002002B0F0BC7047A3F1FE0022
:101F2000B0FA80F0400902B0F0BC70476C5FFF1F50
:101F300000C00240F8B58378032B0E46044618BF54
:101F40004E021546FFF7E6FE324611212046FFF706
:101F500065FF18B92046FFF7BDFF20B92046FFF7FF
:101F6000A5FE0020F8BD204B2049214A1A608E466C
:101F700059631A4659631E46596305F5FD70A91C3D
:101F800005F5FE77D36A13F0F00FFBD0C6F834E006
:101F9000B36B01F8013C1B1201F8023C02318F4285
:101FA000F0D105F50075A8420DD20F4A1646D36A46
:101FB00013F0F00FFBD0B36B191200F8021BA8420C
:101FC00000F8013CF3D3084B0949084A1960194647
:101FD0005A63CB6A044A13F0F00FFAD02046936B91
:101FE000FFF764FE0120F8BD00C00240FFFF009033
:101FF00000041F80F0B4314E33684FF0004743F4C3
:10200000806333603D46F762344671633346511C4A
:1020100002F20127E26A002AFCDA1A6811F8016C60
:1020200042F480621A60DD625E63E26A002AFCDAD2
:102030001A6811F8026B42F480628F421A60DD6206
:102040005E63E7D11D49CA6A1C4B002AFBDA1A6895
:102050004FF0004542F48062FF241A601946DD62A9
:102060005C63CB6A154A002BFBDA13684FF000451E
:1020700043F48063FF2413601146D5625463CB6A36
:102080000E4A002BFBDA13684FF0004543F48063DF
:10209000FF2413601146D5625463CB6A074A002BB4
:1020A000FBDA936BDBB203F01F024370A2F1050071
:1020B000B0FA80F04009F0BC704700BF00C0024099
:1020C00070B5044671B18378032B0D4618BF4D02DD
:1020D0001646FFF71FFE2A4618212046FFF79EFEF0
:1020E000054620B12046FFF7E1FD002070BD3246D5
:1020F000FE212046FFF77EFF0028F3D04FF4167133
:102100002046FFF761FE0028ECD02A460D2120462C
:10211000FFF784FE0028E5D10B4B1A684FF000450D
:1021200042F48062FF201A601946DD625863CB6A70
:10213000054A002BFBDA936B13F0FF0FD2D1204638
:10214000FFF7B4FD012070BD00C00240014B024A00
:102150001A6070474C5DFF1F0320003838B590F9B6
:102160000530002B03DBBDE8384000F079B90446A8
:102170000121006900F0B4F9F8B1257D104B13EB93
:1021800045151AD0A3790F4A012B9CBFA369EB61B7
:10219000E36912686B831B0CAB8232B105F1160147
:1021A00005F1180090472B8B6B82637903F07F0356
:1021B0006371BDE8384000F053B9002038BD00BF5E
:1021C000605DFF1F545DFF1F10B500F1080204465B
:1021D0000121006A00F02CFA50B1E3693BB9637940
:1021E000A268E26163F07F036371012010BD0120EA
:1021F00010BD00BFF8B5837913B182698A4201D25C
:102200000020F8BD022B0F4605461AD007B32B6AF3
:10221000E9681C7C4A1E04F109037C1EDA40DC409C
:10222000A24211D9EB69AB6005F1080606E0A96886
:10223000286A00F0C5F9013C0028E1D03246002CA4
:10224000F5D1EF600120F8BD0029EBD0A41AEBE72F
:10225000AF60EF600120F8BD2DE9F04F8B4681792A
:1022600085B001290746019205D001233B7100206A
:1022700005B0BDE8F08F42799107F6D5530708D530
:10228000FC68B9698C4200F0B480FFF7B3FF002806
:10229000EBD0019BFC68002B4AD0DFF8A491DFF85B
:1022A000A4A1DDF80480386A0679013E06EA5426C6
:1022B00016F0FF06C4F3080443D1002C41D1B968DD
:1022C000002973D1FA69002A00F08380BA60C4F54E
:1022D0000075ADB245453AD9057C4169023AAA403C
:1022E0000E4416441FFA88F51CB9F868BA69904282
:1022F0004FD23046012100F0F3F80028B5D04C440D
:1023000004EB050E74450DD00BF1FF31621E0EF18A
:10231000FF3611F8010F02F8010F9642F9D1C4EB14
:102320000E04A344FC68B8EB05082C44FC60BAD149
:10233000BB69A34262D27A79BC6142F080027A71B1
:1023400065E0C4F50075ADB24545BA68C4D8017CF6
:102350004069023A8A400644B5F5007F1644C3D16D
:10236000DAF80020964204BF4FF0FF32CAF800208E
:102370002F4A10680278FE2A314633D05A46FFF7BA
:102380009FFE00283FF471AF0BF5007B4FF4007502
:10239000C8E700F065F800283FF467AF2549CAF8A0
:1023A00000600A7842F001020A70A8E703AA00F070
:1023B00007F900283FF45CAF386A1F4B90F82050B3
:1023C000039A4FF6F871102D18BF19468A42FFF490
:1023D0007DAF3846FFF7F8FE00283FF446AF386A75
:1023E000BA6874E75846FFF7F9FBB0FA80F0400985
:1023F000C7E7019B002B7FF450AF08E00F4B7A79C1
:102400001B6823B1019B13B142F080027A7112075D
:1024100009D5BB79002B3FF428AF3846FFF79EFE65
:1024200000283FF422AF019805B0BDE8F08F00BF4F
:102430005C5DFF1F605FFF1FF8FFFF0F545DFF1F14
:10244000605DFF1F084CFF1F00B583B002AB012287
:1024500003F8011D1946FFF7FFFE03B05DF804FB0A
:1024600070B51A4C23780BB9012070BD184D194B6B
:10247000286819680378FE2B17D0174AFFF720FE4B
:1024800088B1164E316819B900232370012070BD40
:1024900028680378FE2B0FD00F4AFFF711FE10B10A
:1024A00000233360F0E7002070BD0B48FFF796FB78
:1024B000B0FA80F04009E3E70748FFF78FFBB0FA76
:1024C00080F040090028EBD1EDE700BF605FFF1FFF
:1024D0005C5DFF1F084CFF1F605DFF1F585DFF1F05
:1024E00070B5124D2B6883420E4611D00446FFF79B
:1024F000B7FF08B9002070BD0D4B18680378FE2B9C
:102500000CD00C4A2146FFF715FD0028F2D02C60B4
:10251000094B197831431970012070BD21460548D7
:10252000FFF7DAFAB0FA80F04009EEE7084CFF1F37
:102530005C5DFF1F605DFF1F605FFF1FF8B590F8D7
:102540002030C469102B1A4B05460E4617461B68EF
:1025500016D004EBD1149C4216D106F07F06154A22
:1025600042F826701449287E0A78012842F00102B8
:102570000A7018D9A968114A0B4413600120F8BDEC
:1025800004EB11249C4208D000212046FFF7A8FF4D
:1025900050B195F82030102B07D1F6B2054A2346EA
:1025A00022F81670DEE70120F8BD2346D5E700BF0C
:1025B000084CFF1F605DFF1F605FFF1F585DFF1F1E
:1025C000C36801338B4218D370B590F82030102BBC
:1025D000154B044616460D46C0691B680FD000EB2C
:1025E000D11098420FD105F07F01104B53F82130E4
:1025F00023F070433360012070BD0020704700EB72
:102600001120984207D00021FFF76AFF50B194F8DB
:102610002030102BE7D1E9B2044B33F8113033608E
:10262000012070BD002070BD084CFF1F605DFF1FC2
:102630002DE9F04F176883B06FB301374FF0000AF0
:10264000C36803F1010813B38B46064691463C4626
:10265000002505E01C461F46F3680135AB4216D93C
:10266000A04538BF0224214601AA304638BF27467C
:10267000FFF7A6FF631CD91B48B1019A002AE9D1D4
:102680008B4510D01C46F3680135AB42E8D80020DA
:1026900003B0BDE8F08FA1F1010ABAFA8AFA07681F
:1026A0004FEA5A1ACCE7012CF1D9F36801339C4266
:1026B000EDD86FF0704221463046FFF73FFF00280B
:1026C000E5D0A74214D2013C012CE0D9F3680133D4
:1026D0009C42DCD8621C21463046FFF72FFF0028C1
:1026E000D5D0A74204F1FF3402D0012CEED1CEE7C1
:1026F000D9F8001059B10129C9D9F36801339942B9
:10270000C5D83A463046FFF719FF0028BFD0C9F8B0
:102710000070BAF1000F01D0013737600120B7E730
:1027200090F8592090F85800101A704790F85830D7
:1027300090F859209A4205D95A1C034480F8582031
:10274000187E70474FF0FF30704700BF90F8583048
:1027500090F859209A4286BF1B18187E4FF0FF3020
:10276000704700BF704700BF38B50546B0F89E00FF
:1027700090B195F89D301446C3F1410294420CD8B3
:1027800005F15B001844224600F070F995F89D3081
:10279000234485F89D30204638BD01201446287119
:1027A000EEE700BFB0F89E306BB190F89D30402B43
:1027B00007D8C218013380F89D30012082F85B10E1
:1027C0007047012303710020704700BF0023426956
:1027D00080F8583080F8593080F89C3080F89D306F
:1027E00080F89E3080F89F3006CA30B40D680469C6
:1027F000C0F8A4302A43C0F8A8300A60A370426928
:1028000090F8A1301649146813441D7A5B7B01EBE4
:10281000C5051B026D6803F4E06343F064032B609D
:1028200090F8A23013449D7CDB7D01EBC5011B02B7
:10283000496803F4E06343F064030B602168536864
:10284000194205D003692C225A70036904229A7137
:10285000036920225A71036980229A7030BC704744
:102860000488000038B50C46FFF7B0FF6400036928
:10287000E4B21C7003690122C02180F89F20997086
:102880004369197F4B119B0003F1604301F01F0165
:1028900003F561438A401A6038BD00BF38B502694C
:1028A000D478E4B2E106054625D51023D37063063B
:1028B00020D504F0040404F0FF03002C5BD043494E
:1028C000D5F8A42000230B7085F89D30002A66D02F
:1028D000904795F89D30002B61D02B69D0229A70DB
:1028E0002B6995F85B201A712B69012285F89C20D1
:1028F0000222DA7038BD04F0400303F0FF00002B21
:10290000D7D19379DBB203F0600160294ED0937880
:1029100003F0100303F0FF01B3B114F0010437D149
:1029200095F89C3095F89D1099424CD9591C2B4430
:1029300085F89C1093F85B3013712B69D0229A7044
:102940002B690222DA70D5E785F8A010937943F05D
:10295000200393712B6995F859101A793F29D2B247
:10296000C6D81A4800780028C2D06818013185F806
:1029700059100276BCE72A6985F85930C023937054
:102980002B69124A1979012111700222DA70B1E71C
:10299000C02393702B691A790222DA70AAE7012208
:1029A000002385F89D2085F85B3096E703F0DF0370
:1029B0009371D5F8A83023B185F8580095F85900DF
:1029C00098472A69A3E71471B7E700BF615FFF1F4B
:1029D0000148FFF763BF00BFB84CFF1F0148FFF776
:1029E0005DBF00BF644DFF1F0148FFF757BF00BF29
:1029F0000C4CFF1F014B00221A607047645FFF1FE1
:102A000003680329D8BF4FF4FA51994223D0F0B498
:102A100072B6124B4CF220544DF628121C801A80CC
:102A200000BF00BF00BF0E4F0E4E0F4C112523F804
:102A30000E5C0A0C8BB200253A803380258062B68A
:102A40004FF4807300BF00BF00BF013BFAD10160AB
:102A5000F0BC084670470846704700BF0E2005408E
:102A6000042005400620054016200540844641EA22
:102A7000000313F003036DD1403A41D351F8043BF6
:102A800040F8043B51F8043B40F8043B51F8043B48
:102A900040F8043B51F8043B40F8043B51F8043B38
:102AA00040F8043B51F8043B40F8043B51F8043B28
:102AB00040F8043B51F8043B40F8043B51F8043B18
:102AC00040F8043B51F8043B40F8043B51F8043B08
:102AD00040F8043B51F8043B40F8043B51F8043BF8
:102AE00040F8043B51F8043B40F8043B51F8043BE8
:102AF00040F8043B51F8043B40F8043B403ABDD257
:102B0000303211D351F8043B40F8043B51F8043BF8
:102B100040F8043B51F8043B40F8043B51F8043BB7
:102B200040F8043B103AEDD20C3205D351F8043B87
:102B300040F8043B043AF9D2043208D0D2071CBF53
:102B400011F8013B00F8013B01D30B88038060467C
:102B5000704700BF082A13D38B078DD010F00303F2
:102B60008AD0C3F10403D21ADB071CBF11F8013B62
:102B700000F8013B80D331F8023B20F8023B7BE7B1
:102B8000043AD9D3013A11F8013B00F8013BF9D2DC
:102B90000B7803704B7843708B7883706046704776
:102BA00030B42948294A2A4B2A4D6024E121047077
:102BB00011701B78284C082B30D00A2B2748284945
:102BC00037D00C2B0CBF35225D2212232A602360E4
:102BD00002600B60234B24491B78244ABBB10123BC
:102BE0000B601360224B23491B78234A012B26D903
:102BF000042B0FD9082B1ED9102B94BF86238723B3
:102C00000B6013601D4B01221A7030BC70470B60C3
:102C10001360E7E784230B601360F3E700F58E2071
:102C20000F490830212213232A60236002600B60C1
:102C3000D0E73922F7E785230B601360E2E78023B2
:102C40000B601360DEE700BF004007400140074013
:102C5000104EFF1F08B003400CB0034008B00B40FB
:102C60000CB00B40695FFF1F20B0034020B00B4049
:102C7000114EFF1F24B0034024B00B40685FFF1FBC
:102C800008B5104C08E0236859050DD423681A05CF
:102C90000FD42368DB0411D423685803F3D500F064
:102CA00075FA23685905F1D501F082FF23681A05EA
:102CB000EFD502F013F82368DB04EDD502F0A4F899
:102CC000EAE700BF3480044008B5FFF7D9FF00BF32
:102CD000014B10221A80704700200540704700BF4A
:102CE000094908B50B6830B16A461844A2F500528C
:102CF000904202D20860184608BD04F0C5FF0C23BC
:102D000003604FF0FF3008BD144EFF1FFEE700BF09
:102D1000084A1378802B01D0002070470649074BE2
:102D200007480860002119701378802BFCD001201F
:102D3000704700BF03E007404480044001E00740C3
:102D400000002822094A1378012B01D00020704787
:102D500003F1804303F5FC23602119701378802B65
:102D6000FCD1034B034A1A600120704703E007407F
:102D7000448004400000060210B4114B53F8302088
:102D800092F8804234B1012379B182F880305DF845
:102D9000044B704703EBC0035B681A6851B922F01B
:102DA00002021A605DF8044B704782F800315DF84A
:102DB000044B704742F003021A605DF8044B704701
:102DC0000488000030B4054B054D064C002210214C
:102DD0001A602A602060196030BC704714D003402C
:102DE00004D0034000D003403F2801D8FFF7C4BF00
:102DF000704700BF2DE9F843054672B6224F234BBA
:102E0000234A1B683C68126862B6520102D5322B15
:102E100088BF0134B5B3C3F52F3303F21F331D4E02
:102E2000DFF86890DFF868809B084FF47A72A6FBA1
:102E3000031302FB04F404EB930472B6D9F80010F8
:102E40003A68D8F800E062B6C1F52F3303F21F33B9
:102E50009B08A6FB03031EF0806FC4EB93034FF4A3
:102E60007A7002D0322988BF013200FB0233B3F5F9
:102E70007A7F04D3013D05D004F57A74DDE701F0D3
:102E8000FFFDDAE7BDE8F8836C5FFF1F18E000E0A4
:102E900004ED00E0176CC116F8B54E4B4E48DFF854
:102EA0005CC14E4C4E49DFF858E14E4E4E4D4F4FEF
:102EB0004FF000621A604FF080521A604FF00052DB
:102EC0001A604FF080421A604FF000421A600022F0
:102ED000026028234EF6FF70CCF80000CEF80030D8
:102EE00023600EF5012E0B6033602B6006F5002683
:102EF0003B6005F50025A36207F500278B6204F50A
:102F0000012401F5012106F6E87605F6E87507F5D6
:102F10007F6710310EF1100E203433602B60CEF835
:102F200000303B600B602360314CBB618B61092139
:102F30002160A7F5002704F58054203F08343A604B
:102F40002060BB60E36047F8041C04F5FD2407F52E
:102F5000FE27043704F2FC7422603860A360FB6033
:102F600044F8041C083404F6FC74C7F8FC2F2060F5
:102F7000A4F5E124A4F2DC7433602B60C7F8F81FD9
:102F800021681C4841F40071216001681A4C0EF55B
:102F90007F4E0EF1E80E07F5883706F5803605F509
:102FA000803541F000710160CEF8002047F6FF71D6
:102FB0000822396033602B602260FFF7F1FD192091
:102FC000FFF718FF00F0AEFE40F21310BDE8F84026
:102FD000FFF710BF04E100E00480034014800340C9
:102FE0001C800340248003402C8003403480034035
:102FF000008003400480044000900C40088003409F
:103000000C800340431E042B14D872B60A4951F8B1
:10301000230068B170B4094C058834F81320466861
:1030200041F82360521B24F8132062B670BC70472D
:1030300062B6704700207047CC5FFF1F8464FF1F9B
:1030400030B472B62B4B1A78140705D52A4A116A88
:1030500031B3916A002944D05A78110705D5264A20
:10306000116C002943D0916C49B39A78120706D5A8
:10307000214A116E002938D0916E00292FD0DB78BB
:103080001B0706D51C4AD2F8A03063B3D2F8A8308B
:103090001BB362B6194B00221A7030BC00F0CABED6
:1030A0000423164C164D217842F8335002EBC3032B
:1030B00008304A1E5860227062B630BC704709243E
:1030C0000E49104D0B7842F8345002EBC402083020
:1030D000013B50600B7062B6EFE71524F0E70D245A
:1030E000EEE70524ECE71423DBE70C23D9E70823FC
:1030F000D7E700BF108A00000000FF1F5560FF1FC8
:1031000088004000C8004000431E042B1DD81B4A05
:10311000400140F0100030B4104472B6184CE25C2C
:10312000032A1BD8DFE802F00212151703220D88CC
:10313000E25410F0080F14BFC823882343EA054364
:1031400008310360416062B630BC7047083002222B
:10315000EDE70522EBE708300422E8E7094A52F8D8
:10316000230038B1084A52F82300416042F8231086
:1031700062B6E9E742F82310034AF7E70000FF1FB1
:103180006460FF1F2460FF1F3860FF1F2DE9F04FB0
:10319000DFF840A3DFF840B389B049E0DFF80C83E3
:1031A0004FEA930908EBC907013E7A68F6B2022E8E
:1031B000A2F1080000F01D81032E00F03981042ED9
:1031C00000F04E811D0700F1358158F839301B0C95
:1031D00099B222F8081C002B00F02181A84C54F869
:1031E0002650002322F8063C42F8043C002D00F053
:1031F0006C82A44D55F826305860A34C45F8260043
:1032000034F81630194424F8161000F0F3FD0028A5
:1032100000F054829D4A9E4B17F0080F00F1080001
:1032200018BF1346786048F8393008238AF8003010
:103230009AF80040E4B262071AD5964B1B78A3B106
:1032400095490A7802F0FF0322B1013BDBB20B7013
:1032500003B900BE91490A7802F0FF032AB1013B8D
:10326000DBB20B70002B00F0FF8104238AF80030E2
:1032700004F0080303F0FF02002B00F03C819BF8F0
:103280000030DBB21E0989D19C08DFF8209259F882
:10329000342009EBC401C2F38302013A49680C2AC5
:1032A0007CD8DFE802F07F7F7B7B7B7B7B7B4B7B6B
:1032B0007B7B070008687A4B4A68744949F83410E8
:1032C000784F794E5A6040F2816182B200251860D1
:1032D0008A424FF001003D60C9F81050C9F81850FB
:1032E0000795307040F2298140F601318A4200F0A2
:1032F000428300F2578240F621118A4200F0AD81EC
:1033000000F29682B2F5086F00F0F982B2F5106F04
:1033100040F05D82624B5F4A644C9978117004F111
:10332000A00503E00834A54200F04283236A1B068F
:10333000F8D5606A083800F07DFDF3E7594F396829
:1033400031B35B4B584E5B4A188834781578402867
:10335000864645F0020828BF4FF0400E002C84F04E
:1033600001043470CEEB00000CBF8824C82409EBA4
:10337000C80680B285F0010544EA0E4471601880E9
:1033800049F8384071441570002800F00581396013
:10339000434B1A88B2F5A06F00F00381464A01231F
:1033A000137042E73E4A45481568854200F0A08107
:1033B0003B4801F041FBA8B13E4A3B4E11783078C2
:1033C00081F00105002841F0020115700CBF882230
:1033D000C82249F8312009EBC10180F00100002228
:1033E00030704A60294A49F83420334A0123137067
:1033F0001BE719077FF5E9AE01F070FA00283FF4EA
:1034000014AF87F0080700042D4B2E4A7B6040F074
:1034100080003860937883F00103937005E71B4ABE
:103420001B4B17F0080F18BF134648F83930FCE65D
:103430001B0777D500F0FEFC234A224C52F82630B9
:10344000002B00F046815968A05D42F8261003F178
:1034500008027A60032843D8DFE800F09B40989583
:103460001C077FF5B2AE87F00807184A7A60184B40
:10347000144A3B60137983F001031371D5E600BF52
:10348000CC5FFF1F745FFF1F8464FF1FC8004000F4
:10349000880040006060FF1FE15FFF1F7460FF1F36
:1034A0004C60FF1F705FFF1FE05FFF1F0000FF1FEA
:1034B000885FFF1F5460FF1F94200740210900030D
:1034C0008846FF1F6460FF1F2460FF1FD045FF1F59
:1034D0008000030080200740902007400222A25570
:1034E0001A8817F0080F0CBF8823C82343EA024349
:1034F00048F8393099E6E00700F1B980210600F17B
:103500002681A20706D5B54AB54913780220DBB259
:1035100013700870E30602D5B14B10221A7009B07F
:10352000BDE8F08F58F83900000C01F017F9AD4AEA
:10353000AD4B7A6048F8393077E6B2F5D06F80F05D
:10354000FD8140F221218A4200F0878000F209814A
:10355000822A00F0DC812DD9B2F5817F40F094837E
:10356000A24B9A8802F07F02052A00F23081598826
:10357000002940F02C819E49920011440A7822F0E3
:1035800002020A7003E20422A255A9E70522A2550D
:10359000A6E70322A255A3E7BEF1400F18BF002102
:1035A000F5E600219A785970924B1A70924A0123DD
:1035B00013703AE6802A40F00A818C4B8F49DA88F2
:1035C0000D7002204D700790824280F06D81402A7C
:1035D00096F800C00792144628BF40248CF00103DF
:1035E000101B0A19019302922304854A9DF8045086
:1035F00035701578BCF1000F45F002080CBF4FF094
:10360000880E4FF0C80E4EEA030E09EBC80349F8C6
:1036100038E085F0010E596082F800E07949002811
:1036200000F01D81402840F21D81774B029E4EF034
:10363000020E03EBCE035E60019B002B00F04D8178
:103640001570714A714C42F83E40334681F800C013
:10365000403840336E4A3B601080674A0123137044
:10366000654A01231370E0E500F03CFCFDE5664B84
:10367000614863491A614FF0020E80F800E05C4F28
:103680000A70644919609960544E554D594C9A61BD
:103690000D213970FF213170DFF890E1297022701F
:1036A0005D4D5E4A8EF800109F27012406F8047CC9
:1036B0005D600470DA6009B0BDE8F08F584A48F8E0
:1036C0003900137801331370AFE544F82600554DE7
:1036D00093E5A35D032B00F20B8101A252F823F0C6
:1036E0002B3200002B3200009F370000993700007A
:1036F0005268B2F5802F7FF45BAE0A78A92A7FF476
:1037000057AE4A78452A7FF453AE8A78C22A7FF4AE
:103710004FAECA786B2A7FF44BAE394A394E1078D7
:10372000357880F00107002D40F0020017700CBFC3
:103730008822C82285F0010549F8302009EBC00035
:10374000394A3570002605254660157030E628494F
:10375000234B80220D2008701A70A2077FF5DAAE85
:10376000D1E640F221318A423FF477AF00F29280F5
:1037700040F202318A422AD11C4B9A8802F07F0221
:10378000052A24D8598811BB1949920011440A7896
:1037900042F002020A70FAE00123A35545E5002336
:1037A000A35542E548F2A1218A4200F0DA8100F2F5
:1037B000CF8148F2A1118A4200F0D38148F2A211D0
:1037C0008A4204D1094BDA88022A00F2D781084ADA
:1037D0000F231370084A0123137041E78820074024
:1037E00080200740D445FF1F8000B4004C60FF1FBD
:1037F000C020074098200740942007405860FF1FD2
:103800005460FF1FE05FFF1F0000FF1FC800400063
:10381000885FFF1F880040008C5FFF1FE45FFF1F71
:103820005560FF1F745FFF1FE15FFF1F8C20074083
:1038300040F621218A4235D040F681218A42C6D104
:10384000A94B07909A88022A00F01882032ABED159
:10385000A64AA749A44B14780C70DA88B4E6402C29
:103860007FF4FBAE4EF0020E09EBCE03029C5C60CF
:10387000019BA04933BB2346040444F0880441F86B
:103880003E4086F800C01570034440287FF4E5AE42
:103890000020DFE640F221418A423FF4DEAEB2F57D
:1038A000A06F94D100200146402896F800C004463D
:1038B00028BF40248CF001030A190193001B230444
:1038C000029292E62346040444F0C80486F800C03D
:1038D0001570034441F83E40D7E71570854A864C81
:1038E00081F800C033464038403342F83E40B1E6EC
:1038F00017F0080F0CBF02230323A35595E47F4A5A
:103900007B49794B14780790DA880C705CE6764B2B
:103910009A8802F07F02052A3FF659AF7849744C25
:10392000714B25709200114465700A7870499507B3
:1039300048BF20700220DA88079045E6714A516836
:1039400000293FF444AF684B5C889D8804E00C324A
:10395000516800293FF43BAF1388A342F7D1538845
:10396000AB42F4D1240A032C00F094815E4B108901
:103970000790DA8828E65C4B9A88022A00F05D817D
:10398000032A7FF424AF584B584A598811705E4A75
:10399000157845F0020109EBC10085F0010E82F8AF
:1039A00000E0C824002249F831404260327054E6F9
:1039B000564C574A57495848584D01940023584C83
:1039C00002940596039580461C4604970E461546BC
:1039D000286828B1476800F02DFA3846002FF9D141
:1039E00000232B60039B30681A46002342F82430E2
:1039F00028B1476800F01EFA3846002FF9D1019B24
:103A000000221B78326048F8042B029A4FF0000124
:103A1000023B22F81410032B07D8DFE803F0600202
:103A20006002019B4FF001021A70019B01340133C7
:103A3000052C05F1040506F104060193C8D1394DA2
:103A4000394C2A78394B049F059E002110072170BC
:103A50001A7000F1DD8036496A780A700021C9F8D1
:103A60003010C9F838101107DFF8888000F1BB80EA
:103A7000AA783049DFF87C800A7000211207C9F863
:103A80005010C9F8581000F1998029792A4A2B481A
:103A9000ED7815700B0701704FF00002284D294892
:103AA000C9F88450C9F88C50C9F87020C9F878203A
:103AB000C9F89020C9F89820C9F88000C9F8880092
:103AC0000C4D64D4084B2048204CC9F8B0000021AC
:103AD000DA88C9F8B810C9F8B440079874E5019BB2
:103AE0004FF000021A70A0E74C60FF1F2761FF1F14
:103AF0005860FF1F0000FF1F880040006060FF1F2C
:103B0000C0200740188A00005460FF1F6460FF1F38
:103B1000CC5FFF1F2460FF1F3860FF1F745FFF1F13
:103B20008464FF1F108A00005560FF1FC4200740F7
:103B3000C8200740CC200740D0200740D4200740B1
:103B4000D445FF1F8000B40080000300D045FF1F54
:103B500048F2A1318A4204D048F2A1418A427FF45E
:103B600036AE674C6749204607AA00F031FF0028AF
:103B70003FF42DAEE2880798624925E5614944206B
:103B8000AC24087003208D704C7007901CE500F089
:103B900031F9002800F0AD8008305B4AC5F8A40078
:103BA000C5F8A02000F026F9002800F09C8008301D
:103BB000564AC9F8AC00C9F8A82083E700F01AF902
:103BC00000287ED00830504AC8F86400C8F8602049
:103BD00000F010F900286ED008304C4AC9F86C008B
:103BE000C9F8682051E700F005F9002875D00830C1
:103BF000454AC8F84400C8F8402000F0FBF8002807
:103C000065D00830414AC9F84C00C9F848202FE770
:103C100000F0F0F8002848D008303B4AC9F82400EA
:103C2000C9F8202000F0E6F8002838D00830374ADC
:103C3000C9F82C00C9F828200DE79A7834490A7091
:103C4000002A3FF4A4AE334C334AA778A2F108050A
:103C5000002F18BF15462A6812F080017FF497AE36
:103C6000DFF8BC80B022404604F0FCFA87F0010780
:103C70002A4AC5F80480A7702A6088E6244A2149A8
:103C800014780C70DA889FE440F221139A423FF4D2
:103C9000E4AC9CE51A4B0878DA88079094E4227823
:103CA000C9F8280001322270D5E62278C9F8200030
:103CB00001322270B6E72278C9F86800013222701A
:103CC000E3E62278C8F860000132227080E72278AB
:103CD000C9F8480001322270CAE62278C8F84000CC
:103CE0000132227089E72278C9F8A80001322270D7
:103CF000E8E62278C5F8A0000132227052E700BF42
:103D00004C60FF1F5860FF1F88004000C800400043
:103D10002661FF1F6460FF1F7800FF1F8000B00056
:103D20008846FF1F2DE9F041274C01F053FA00228D
:103D300004F1A80023461A605A60083383424FF00A
:103D40000001F8D12148224A0368DFF89CE0214EA7
:103D5000214D224FDFF894C0DFF8948043F4802394
:103D60000360136843F04073136003238EF8003040
:103D7000A023337002F5C922C4F3072300F52830CD
:103D80002B708030C4F3074310323B70240EFF23A6
:103D90000470134D8CF80030124888F8003013700E
:103DA000012306F8AC3C4FF400140EF8441C7026B6
:103DB000102107F82C3C2E70046082F8F810AEF148
:103DC000440EBDE8F08100BF0000FF1F34800440B6
:103DD00000D80040402107409C200740B020074009
:103DE00035E400E004E100E0442107408020074082
:103DF0008820074072B60D480268B2FA82F30F2B92
:103E000010DC4FF00041D94022EA0102026062B6A4
:103E1000074803EBC303DB00C2180021C150104662
:103E20005160704762B60020704700BF184EFF1FF8
:103E30003C47FF1F0D4B0E4AC31AA2FB03231B096D
:103E40000F2B0CD80B4A127852B972B60A484FF0B1
:103E50000041026821FA03F31A43026062B6704718
:103E6000064A1278002AF0D0FFF7EAB83C47FF1F55
:103E7000398EE3385560FF1F184EFF1F6060FF1F2B
:103E800038B5164D2868E0B101884488A14213DD99
:103E900003191B7A83B104F10803C2180C1B002319
:103EA00002E012F8011F21B10133A342F9D12046EB
:103EB00038BD1C46204638BDFFF7BCFF00202860F7
:103EC00038BD074B1B780BB9002038BD0220FFF727
:103ED00099F828600028D7D1F6E700BF7060FF1F6F
:103EE0006060FF1F0D4B1B78BBB910B50C4C2168EF
:103EF00003F0FF024B883F2B07DC07330B4401F133
:103F0000470003F8012F8342FBD140230B8001209F
:103F1000FFF7FAF80023236010BD70476960FF1FA8
:103F20006C60FF1FB1F5607FF0B428BF4FF4607183
:103F300072B6134A134C144B10600022228003F116
:103F4000700443F8042FA342FBD1B1B10F4E0023FC
:103F500001275D0903F01F0456F8252007FA04F431
:103F6000013322438B4246F82520F2D100234380BF
:103F700001338B4200F58270F9D162B6F0BC704714
:103F80008060FF1FFA60FF1F8460FF1F8860FF1FB3
:103F9000F0B472B6234F244E3C8806F1700306EB52
:103FA0008400984212D256F8241099B9021D06F1E5
:103FB0007305631CAD1A03EB950503E052F8041B6F
:103FC00041B90133AB421C461046F7D162B600201E
:103FD000F0BC7047B1FA81F34FF00042DA4021EAB9
:103FE0000201016001B9013410493C800A880132A4
:103FF00094B20C8062B6801B8010C3EB401000EBC3
:10400000801083000A480B49006803F5FB531C33FA
:104010000125C5540D88AA42184488BF0C80F0BC05
:10402000704700BFFA60FF1F8860FF1FFC60FF1F22
:104030008060FF1F7C60FF1F428872B60378012BEF
:1040400003D9013B037062B67047531170B40C4C36
:104050000C4D54F823102E88D2434FF0004002F04C
:104060001F0220FA02F21143074A44F82310B34218
:1040700038BF2B801388013B138062B670BC704739
:104080008860FF1FFA60FF1FFC60FF1FC368B3B1A9
:1040900030B401E0DB688BB1187A9042FAD15868ED
:1040A0005C7A006950F82450002DF3D140F82410B8
:1040B000087801300870DB68002BEDD130BC704708
:1040C000437A8B4206D90369002253F8210043F852
:1040D000212070470020704738B5437A8B421AD9A7
:1040E000036953F82140002243F821209CB1237832
:1040F000012B0ED9FFF74CFF054628B14FF4807213
:10410000211D0430FEF7B2FC2378013B23702846C2
:1041100038BD204638BD002038BD00BF037C23BB1E
:104120004368427A5B7A9A421FD830B472B6046808
:10413000E3682BB3DA6832B119688C4216D01346A3
:10414000DA68002AF8D1D8600023C360A37A01336B
:10415000A37202684168012313728A7A1A448A7230
:1041600042681372037462B630BC70475D68416880
:104170008D42E4D1198903899942F4D01346DFE7CF
:10418000E060E1E7037C10B5002B32D04368427A4F
:104190005B7A9A422DD872B60268D36843B39842CC
:1041A00002D129E0984202D0DB68002BFAD14368A3
:1041B000417A1B69044653F8210048B1FFF73CFFE0
:1041C00072B66368627A1B69002143F82210226884
:1041D000937A013B937223689A7A02B91A726268E1
:1041E000937A013B937263689A7A1AB1002323741D
:1041F00062B610BD1A72F9E7C368D360D7E700BF93
:10420000084B1A785AB90848084910B4D0240470E9
:10421000012210460A601A705DF8044B70470020B6
:10422000704700BF8460FF1F40E400E008E100E049
:104230001A491B4A1B48F8B50B681B4D046843F02C
:1042400080730B60136843F0010313602E6814B988
:1042500015E064699CB1237A002BFAD023682F689B
:104260001B68204698472B68E188DB1B1B099AB224
:104270008B42A28088BFE2806469002CEBD10A4B9C
:104280000A4A1B6810880A4C9B1B1B0999B283427F
:10429000218001D91180F8BDF8BD00BFFCED00E020
:1042A000001000E07860FF1F041000E0F860FF1FBE
:1042B000FE60FF1FF0B572B699B902688AB1037942
:1042C0000F2B0ED8284C218841FA03F5ED070AD5AB
:1042D00003F1007303F59063B2EB431F03D162B6A1
:1042E000F0BD214C2188002341FA03F212F00102B3
:1042F00007D00133102BF7D162B6002203710260A0
:10430000F0BD01259D402943218062B6174E184D0E
:10431000184FDFF868E0D9B20171346844F0020444
:1043200034602C6844F002042C60A6F5802640F22C
:104330008244A5F5802503F100733C6003F590638A
:10434000223E243D0C4C8EF800105B013170297028
:10435000217003601A605A609A60DA601A615A61CB
:104360009A61DA61F0BD00BF0061FF1F4080044028
:104370003C800440008000401F8000401A800040C4
:1043800003790F2B12D80A4A10B4137072B6094978
:1043900004790A880123A34022EA03030B8062B652
:1043A000102200235DF8044B02710360704700BFC8
:1043B0001A8000400061FF1F10B4EFF3108272B644
:1043C000437F33B9017F012908D0032910D001238D
:1043D000437702B962B65DF8044B7047114C21680F
:1043E000A1B1114943610B68836108605861EEE730
:1043F0000E4C216881B10E4943610B6883610860EE
:1044000058610C4B4FF080511960E0E7064B416159
:10441000816120601860DAE7054B416181612060AD
:104420001860EEE71461FF1F1061FF1F0461FF1F9A
:104430000861FF1F04ED00E070B5EFF3108272B663
:104440000C4C206880B10C4E00254369236073B189
:104450009D6102B962B6457783689847EFF3108291
:1044600072B620680028F0D102B962B670BD336020
:10447000EFE700BF0461FF1F0861FF1FFFF7DCBF0C
:10448000184A30B41468002C27D0036821688B4286
:104490000ED2CB1A00218460C1602360E0601060FE
:1044A0000223037530BC704711688B42144608D351
:1044B000A2685B1A0360002AF6D18260C460A06023
:1044C000EEE7D268C2608460E060C568CB1A022261
:1044D000A8602360027530BC70478460C4601060BF
:1044E000DEE700BF0C61FF1FF8B5224E34682CB325
:1044F0002368002B3AD1204F1D4604E03468ECB10C
:104500002368002B32D1A36803B1DD6020693360DA
:10451000036825751B68BB4221D1037F4560022BD0
:10452000C46020D0FFF748FF6368002BE6D023600B
:104530002046FFF7A5FF3468002CE1D1EFF310838C
:1045400072B60E4A00211068116003B962B628B134
:104550008468FFF795FF20460028F9D1F8BD224670
:1045600000219847E0E783689847DDE7013B236037
:10457000E4E700BF0C61FF1F851800001C61FF1FEE
:10458000024A136801331360FFF7AEBF6C5FFF1F71
:10459000F8B50E4671B17AB10746144600253B685E
:1045A00016F8011B1B6838469847013C0544F6D1B4
:1045B0002846F8BD0846F8BD1046F8BD08B5FBF71B
:1045C000E7FFFCF781F800F05BFAFAE700EB830302
:1045D0009842F0B50AD32DE050F8044B21F8024B75
:1045E00083424FEA144422F8024B23D98C07F3D4B8
:1045F000A3F1080E704512D250F8087B50F8046CF5
:10460000340C2404BDB244EA174445EA064570451B
:1046100041F8045B42F8044BEED383420FD950F8C3
:10462000044B21F8024B83424FEA144422F8024B18
:10463000F5D8F0BDA3F1080E7045DDD3F0BDF0BD97
:104640002DE9F04100210446FFF746FD0121054612
:104650002046FFF741FD3B4B1B78044643BB15B199
:104660002846FFF7E9FC14B12046FFF7E5FC364C7D
:10467000206818B1FFF7E0FC00232360334C20686A
:1046800018B1FFF7D9FC00232360314C206818B122
:10469000FFF7D2FC002323602E4C206818B1FFF7EF
:1046A000CBFC002323602C4B00221A80BDE8F08154
:1046B00035B3002C2FD072B6234B1868D0B1234AE3
:1046C000116899B1224F234E1960D7F80080224B10
:1046D000156032683A60002234601A80FFF7ACFC43
:1046E0004046FFF7A9FC62B6BDE8F081194B1560A2
:1046F0001C60F8E71649184A1D600C601080F2E74C
:10470000FFF746FC054688B14FF480720021043063
:1047100003F0A8FDCDE7FFF73BFC044668B14FF47A
:1047200080720021043003F09DFDC4E7002CDBD033
:104730002046BDE8F041FFF77FBC2846BDE8F041C8
:10474000FFF77ABC2661FF1F2C61FF1F4861FF1F26
:104750004061FF1F3061FF1F2461FF1F514B2DE996
:10476000F04FB3F80080DFF850B14F4BDBF800405A
:1047700001221A704D4B83B08608C2461D68002C7A
:104780004ED0002D55D0002E5CD0C8F18007BE421F
:10479000C0F08380464B0193DFF82081DFF814914D
:1047A0000FBBD8F80030002B37D1D9F800204B468A
:1047B000002A32D1C8F800401D60FFF7E9FB04462B
:1047C000002845D0FFF7E4FB0546002849D0374BC9
:1047D000CBF800401860002E33D07F2E4FF0000A37
:1047E0004FF0800749D94FEA4A032A1D211D1A4478
:1047F000194401983B46FFF7E9FE019AD8F80030CA
:1048000002EB8702F61B019223B9D9F80020294B4D
:10481000002ACFD0234B57441F8003B0BDE8F08F50
:10482000FFF7B6FB04460028F7D0CBF80000002DB8
:10483000A9D1FFF7ADFB05460028EED01B4B186051
:10484000A1E7B046174BA3F8008003B0BDE8F08F96
:10485000164BCBF800001860124B188003B0BDE86F
:10486000F08F2046FFF7E8FB104BCBF800501D609F
:104870000C4B1D8003B0BDE8F08FD04653462A1D77
:10488000211D1A44194401983346FFF79FFE054B3A
:1048900046441E8003B0BDE8F08F054A01924FEAFE
:1048A0004803ECE74C61FF1F3861FF1F2061FF1FC9
:1048B000D445FF1F2861FF1F3461FF1F3C61FF1FAC
:1048C00003480449044A002303700B6013607047D7
:1048D0004461FF1F2C61FF1F4061FF1F354A2DE916
:1048E000F04F13680133082B83B051D81360B02305
:1048F00001934FF02C0A3049DFF8D0B04FF0000898
:104900000868C8EB0A03002849D0BBF800E02B4A2E
:10491000D2F80090CEF18002934228BF1346051DC5
:104920004FEA4E0209F10407154417444FEA88067E
:104930006BB1234A043E16441C4637F902CB35F8C6
:10494000022B013C42EA0C4246F8042FF5D19E446A
:10495000BEF17F0F984407D8ABF800E0C245CFD82E
:10496000019803B0BDE8F08F0091FFF765FB484662
:10497000FFF762FB134800990368134A0B6000239A
:1049800014680360ABF8003013600C4B1C60E5E763
:1049900000231360B42301934FF02D0AABE7084CBA
:1049A00001469A0004EB480003F05CFC019803B058
:1049B000BDE8F08F284EFF1F2C61FF1F4061FF1FD5
:1049C0008846FF1F4861FF1F3061FF1F2461FF1FE2
:1049D0000378A12B01D000207047C378012B12D09F
:1049E000022BF8D14378812B18D0822B1DD0832B3A
:1049F0000FD0842BEFD10120002308704B700223CD
:104A00001360012070470B48406808701846136017
:104A10007047FF200F2308704B70F0E7054B986834
:104A200008709B681B124B70E9E700230B704B70FA
:104A3000E5E700BF1C4EFF1F0378212B01D00020AB
:104A40007047C3784078012B0ED0022BF7D1012894
:104A5000F5D110B40B784C78074A03EB042393602C
:104A600010605DF8044B70470128E8D1024B0A78CA
:104A700083E80500704700BF1C4EFF1F704700BF52
:104A800038B52C4C237803B138BD01232370FFF7D0
:104A9000F7F9002842D100F07BF800283BD100F064
:104AA0000DF9002834D100F09FF970BB00F018FA1E
:104AB00040BB00F091FA10BB00F00AFBE0B9002304
:104AC0002370EFF30583002BDED1EFF3108172B674
:104AD000194B186828B3194C227812BB45691D6020
:104AE000012323700DB3AA6101B962B60025457791
:104AF000836898472570C7E700F0B8FBDFE700F050
:104B0000B3FBD9E700F0AEFBD3E700F0A9FBCDE79C
:104B100000F0A4FBC7E700F09FFBC0E7FFF7AEFF84
:104B2000B9E70029B0D162B638BD054B1D60002938
:104B3000DCD1DAE74E61FF1F1461FF1F1861FF1F10
:104B40001061FF1FF0B44D1E2E46002400E001341A
:104B5000B0FBF2F302FB1300092800F130078ABF13
:104B60003730F8B2C0B206F8010F1846002BEED16C
:104B70000A1953704CB1107815F8016F2870013381
:104B8000E01A834202F80169F5DB0846F0BC704781
:104B9000054A064B10781B78C0B2DBB2984238BF8A
:104BA0004030C01A704700BF5461FF1F5561FF1F9E
:104BB000F0B4384B1A7912F0300F2CD072B6997DC0
:104BC00001F0FF0200293DD062B6334F33493878F7
:104BD0000D78334E1C46C0B2EDB2431C402BE17938
:104BE00028BF0023AB4202F1FF32C9B21CBFF1540F
:104BF000184612F0FF02F0D12A4B1B68C2B23A707D
:104C00004BB1A84236BFC5F14005401B40192728CB
:104C1000C4BF01221A701F49CA78D2B2150616D431
:104C200052060DD51B4B1B795B0609D51E4B1F4940
:104C30001B6800220A7003B11A70164B3C22DA700E
:104C4000F0BC70474022D9795A7462B6E3E70B7919
:104C50001C06E5D5164B174E1C783378E4B2DBB250
:104C60009C420ED0144D01E0A3420AD00133402BE8
:104C700028BF00230879E85CC0B2C871087D072806
:104C8000F2D9DBB2034933700B79180644BF7C2399
:104C9000CB70C5E700A006405461FF1F5561FF1FA0
:104CA0009861FF1F5061FF1FDC61FF1FD861FF1F6C
:104CB000E061FF1FD961FF1F5861FF1F054A064BC6
:104CC00010781B78C0B2DBB2984238BF4030C01AAF
:104CD000704700BF5462FF1FE961FF1FF0B4384BFB
:104CE0001A7912F0300F2CD072B6997D01F0FF02C4
:104CF00000293DD062B6334F334938780D78334EB2
:104D00001C46C0B2EDB2431C402BE17928BF002302
:104D1000AB4202F1FF32C9B21CBFF154184612F087
:104D2000FF02F0D12A4B1B68C2B23A704BB1A842C5
:104D300036BFC5F14005401B40192728C4BF0122DA
:104D40001A701F49CA78D2B2150616D452060DD56C
:104D50001B4B1B795B0609D51E4B1F491B680022A4
:104D60000A7003B11A70164B3C22DA70F0BC70471F
:104D70004022D9795A7462B6E3E70B791C06E5D56F
:104D8000164B174E1C783378E4B2DBB29C420ED03F
:104D9000144D01E0A3420AD00133282B28BF002381
:104DA0000879E85CC0B2C871087D0728F2D9DBB287
:104DB000034933700B79180644BF7C23CB70C5E7D9
:104DC00000B006405462FF1FE961FF1F1462FF1F1D
:104DD000E461FF1F5862FF1FE861FF1F5C62FF1F55
:104DE0005562FF1FEC61FF1F054A064B10781B78C8
:104DF000C0B2DBB2984238BF4030C01A704700BF23
:104E00006462FF1F6562FF1F30B42B4B1A79940652
:104E10001FD52A48DA790378294901333F2B0978CD
:104E2000C8BF00238B42D2B203D0264CD9B2E25481
:104E30000170254A116861B1244A1278D2B29342B6
:104E400036BFC2F140029B1A9B18272BC4BF012317
:104E50000B70194AD378DBB2180611D45A060DD557
:104E6000154B1B795B0609D5194B1A491B680022A3
:104E70000A7003B11A70104B2C22DA7030BC7047E4
:104E800011790906EAD5144910480C780178C9B29D
:104E90008C420DD04A1C272A84BF00210A460F4DA0
:104EA000054C98BFD1B2AA5CD2B2E2710170D5E7CD
:104EB0006C21D170D2E700BF00C006406462FF1FC2
:104EC0006562FF1F9062FF1F6062FF1FD162FF1FBC
:104ED000D462FF1FD062FF1FD862FF1F6862FF1FEE
:104EE000054A064B10781B78C0B2DBB2984238BF37
:104EF0004030C01A704700BFE062FF1FE162FF1F31
:104F000030B42B4B1A7994061FD52A48DA790378E6
:104F1000294901333F2B0978C8BF00238B42D2B205
:104F200003D0264CD9B2E2540170254A116861B110
:104F3000244A1278D2B2934236BFC2F140029B1A81
:104F40009B18272BC4BF01230B70194AD378DBB2FF
:104F5000180611D45A060DD5154B1B795B0609D5D9
:104F6000194B1A491B6800220A7003B11A70104BC2
:104F70002C22DA7030BC704711790906EAD5144941
:104F800010480C780178C9B28C420DD04A1C272AEF
:104F900084BF00210A460F4D054C98BFD1B2AA5CD0
:104FA000D2B2E2710170D5E76C21D170D2E700BFB7
:104FB00000D00640E062FF1FE162FF1F0C63FF1F8D
:104FC000DC62FF1F4D63FF1F5063FF1F4C63FF1F19
:104FD0005463FF1FE462FF1F054A064B10781B78DD
:104FE000C0B2DBB2984238BF4030C01A704700BF31
:104FF0005C63FF1F5D63FF1F30B42B4B1A7994066F
:105000001FD52A48DA790378294901333F2B0978DB
:10501000C8BF00238B42D2B203D0264CD9B2E2548F
:105020000170254A116861B1244A1278D2B29342C4
:1050300036BFC2F140029B1A9B18272BC4BF012325
:105040000B70194AD378DBB2180611D45A060DD565
:10505000154B1B795B0609D5194B1A491B680022B1
:105060000A7003B11A70104B2C22DA7030BC7047F2
:1050700011790906EAD5144910480C780178C9B2AB
:105080008C420DD04A1C272A84BF00210A460F4DAE
:10509000054C98BFD1B2AA5CD2B2E2710170D5E7DB
:1050A0006C21D170D2E700BF00A00E405C63FF1FEF
:1050B0005D63FF1F8863FF1F5863FF1FC963FF1FE6
:1050C000CC63FF1FC863FF1FD063FF1F6063FF1F18
:1050D000054A064B10781B78C0B2DBB2984238BF45
:1050E0004030C01A704700BFD863FF1FD963FF1F4D
:1050F00030B42C4B5A6894021FD52B48DA680378D9
:105100002A4901333F2B0978C8BF00238B4204D0C2
:10511000274CD2B2D9B2E2540170264A116861B16B
:10512000254A1278D2B2934236BFC2F140029B1A8E
:105130009B18272BC4BF01230B701A4A93681802CF
:1051400002D55268110211D45A020DD5154B5B6875
:105150005B0209D5194B1A491B6800220A7003B17A
:105160001A70184B00221A6030BC7047164A124958
:1051700010780A78D2B290420DD00132272A84BF2B
:1051800000200246114D074C98BFD0B2AA5CD2B2A3
:10519000E2600870D8E70E480A4A00240121046042
:1051A0001160D1E700400C40D863FF1FD963FF1F97
:1051B0000464FF1FD463FF1F4564FF1F4864FF1F83
:1051C0004464FF1F580188434C64FF1FDC63FF1FCA
:1051D0005C01884310B584B072B6FDF799FD184A9A
:1051E000184B19491160702280211A701A461970E3
:1051F00013781B06FCD5154B1C68FDF7A3FD62B6A2
:10520000134B9C429CBF04EB840464002046114C69
:1052100001A90A22FFF796FC01A92046002311F8F4
:10522000012B01333AB10A2B20F8022FF7D11623B4
:10523000237004B010BD5B00DBB2237004B010BD5E
:105240000400024000000240000007410C00024040
:105250007F969800884FFF1F704700BF704700BFC0
:10526000704700BF704700BF704700BF704700BF66
:105270002DE9F0432DED028B8BB055EC104B00F077
:10528000D7FA3B4BB0EE408AF0EE608A93F90060AB
:10529000731C0ED022462B462046294602F0B0F958
:1052A000074630B9002200232046294602F08AF939
:1052B00040B9B0EE480AF0EE680A0BB0BDEC028BC4
:1052C000BDE8F0832B4B0897CDE90245CDE90445B5
:1052D0000193DEB9284F4FF0604620462946002250
:1052E0000023CDE9066702F059F9002837D00223E0
:1052F0000093684601F0FAF9C8B1089BE3B99DED47
:10530000060B0BB0BDEC028BBDE8F083DFF87090AC
:105310004FF000082046294600220023CDE90689E7
:1053200002F03CF968B102239E420093E1D102F001
:10533000ABFC22230360E0E702F0A6FC089B0360BD
:10534000DDE70123022E00930BD102F09DFC212307
:1053500003600A4801F0CCF98DED060BCDE701237F
:105360000093684601F0C2F90028F2D1EDE700BFD2
:105370009E4FFF1F848A0000FFFFEFC7948A000042
:105380000000F0FFFFFFFFFF2DE9F04F2DED028B36
:10539000DFF824A38BB057EC106B55EC114B00F0E9
:1053A000EBFA9AF90080B0EE408AF0EE608AB8F12C
:1053B000FF3F48D022462B462046294602F020F9DE
:1053C000834600283FD132463B463046394602F0FC
:1053D00017F98146002840F0908030463946002277
:1053E000002302F0DBF8002836D0002200232046FC
:1053F000294602F0D3F88346B8B19FEDA57B012280
:10540000A94BCDF820900092CDE90267CDE9044583
:105410008DED067B0193B8F1000F5BD09FED9E0BE5
:105420000BB0BDEC028BBDE8F08F45EC104B01F0EA
:1054300055F940B1002200232046294602F0B8F871
:10544000002840F0C580B0EE480AF0EE680A0BB0C4
:10545000BDEC028BBDE8F08FB0EE480AF0EE680AB2
:1054600001F03CF98046002861D04FF000084FF071
:10547000000951EC180B42464B4602F08FF8002809
:10548000E1D047EC106B01F029F90028DBD045ECA6
:10549000104B01F023F90028D5D09AF90030824A48
:1054A000019204210022022BCDE90267CDE90445D7
:1054B000CDE906890091089203D0684601F016F9FB
:1054C00070B902F0E1FB2223036009E09FED707BDD
:1054D0008DED067B684601F009F9002800F08E800A
:1054E000089B1BB102F0D0FB089B03609DED060BEF
:1054F0000BB0BDEC028BBDE8F08F002200232046EC
:10550000294602F04BF800289DD09FED630B664BB7
:10551000CDF820B00122B8F1020FCDE90267CDE944
:1055200004458DED060B8DE80C00D3D18FE747ECD9
:10553000106B01F0D3F8002897D045EC104B01F028
:10554000CDF8002891D053EC182B18EE100A19460C
:1055500002F056F800287CD103239AF900800093CA
:10556000514B0890CDE90267CDE904450193B8F1AC
:10557000000F48D1DFF844914FF06048002200232B
:1055800030463946CDE9068902F012F8002894D059
:105590000022464B2046294601F098FD04460D4660
:1055A00045EC104B01F0ACF8204653EC102B29468B
:1055B00001F0F4FF002849D13D4B9AF900804FF0EB
:1055C0006042CDE90623B8F1020F7FF476AF78E7A9
:1055D000354A9AF90030CDF820B00121CDE90267B3
:1055E000CDE904458DE80600002B3FF46FAF31494B
:1055F0000020022BCDE906017FF46CAF02F044FBE2
:10560000212303606CE79FED267B002200233046B8
:1056100039468DED067B01F0CBFF0028D3D0002268
:10562000224B2046294601F051FD04460D4645EC2B
:10563000104B01F065F8204653EC102B294601F081
:10564000ADFF18B91B4B0022CDE906239AF9008063
:10565000B9E7154B9AF90090CDF820800122CDE9E9
:105660000267CDE904458DE80C00B9F1000F3FF465
:105670002DAF002200231046194601F051FEB9F16A
:10568000020FCDE90601B9D024E700BFAFF30080D7
:105690000000000000000000000000000000F03FDB
:1056A000000000000000F07F8C8A00000000E03F56
:1056B000FFFFEFC70000F0FF9E4FFF1FFFFFEF4708
:1056C0002DE9F0432DED028B8BB055EC104B00F023
:1056D000DBFE294BB0EE408AF0EE608A93F9006061
:1056E000731C12D022462B462046294601F088FF23
:1056F000074650B94FF000084FF0000920462946F0
:1057000042464B4601F054FF40B9B0EE480AF0EE75
:10571000680A0BB0BDEC028BBDE8F083174B08970D
:105720000122CDE90445CDE902458DE80C00B6B172
:1057300042464B464046494601F0F2FD022ECDE975
:1057400006010ED102F0A0FA21230360089B73B971
:105750009DED060B0BB0BDEC028BBDE8F083CDE9EF
:105760000689684600F0C2FF0028EFD1EAE702F0A0
:105770008BFA089B0360EBE79E4FFF1F908A0000A7
:1057800010B52DED028B8AB0B0EE408A00F04CFFD0
:10579000244B93F90040631C09D0B4EE488AF1EE23
:1057A00010FA04D6B5EEC08AF1EE10FA03D40AB0AE
:1057B000BDEC028B10BD01231B4A009318EE100AAA
:1057C00000230192089301F02DFC0022CDE9040191
:1057D000CDE902010023BCB11046194601F0A0FD3D
:1057E000022CCDE9060111D102F04EFA212303600B
:1057F000089B8BB9DDE9060101F018FF00EE100AE5
:105800000AB0BDEC028B10BDCDE90623684600F05E
:105810006DFF0028ECD1E7E702F036FA089B036041
:10582000E8E700BF9E4FFF1F988A0000FFFFFFFFC1
:105830002DE9F04355EC104BB5F5801F83B02B4696
:1058400021DA10EE102A25F000410A4364D0002D21
:105850006DDB29460022444B10EE100A01F036FCA5
:105860000B460D4641498B4204466FF035020FDD71
:1058700022462B462046294601F076FA41EC100BD1
:1058800003B0BDE8F08339498B424FF00002EFDCF2
:105890001815A0F2FF3010444FEAD0794844C3F302
:1058A000130801F0ADFBC9F57F73033348EA0355D4
:1058B00045EC104B06460F4601F03EF8304639469F
:1058C00023A3D3E900238DED000B01F0FFFB9DED39
:1058D000000B04460D4620A3D3E9002351EC100B26
:1058E00001F0F4FB02460B462046294601F03CFA43
:1058F0001BA3D3E9002304460D463046394601F088
:10590000E5FB02460B462046294601F02DFA41EC04
:10591000100B03B0BDE8F0830022002300201449DF
:1059200001F0FEFC41EC100B03B0BDE8F08310EE7B
:10593000102A2B462046294601F014FA00220023A3
:1059400001F0EEFC41EC100B9AE700BFAFF30080D2
:10595000362BF111F3FE593D0EE526157BCBDB3FCF
:1059600000609F501344D33F00005043FFFFEF7F80
:10597000000050C3FFFFFFFF2DE9F04F51EC110B6A
:1059800021F0004858EA000493B03CD053EC102BAF
:105990006D4E23F00044B44210EE10AA1D462BDCDD
:1059A000894611EE10EA26D0B04525DC664EB0459A
:1059B00077D0002D16461F46CDE9000175DB4FF06C
:1059C000000BBEF1000F2DD15F4B984500F0898090
:1059D0005E4B98455ED0B9F1804F00F0DE835C4BA2
:1059E00099451FD1002D1DDB47EC106B13B0BDE8AE
:1059F000F04F00F049BD5AB104F1404404F5801461
:105A000054EA0A0306D19FED4A0B13B0BDE8F08FAC
:105A1000A045CBDD4F4813B0BDE8F04F00F068BEA5
:105A20004FF0000B47EC106B00F050FE51EC100BE8
:105A3000BAF1000F1ED0ED0F05F1FF3A5BEA0A0341
:105A400063D0454B984540F38D8003F1047398452E
:105A500040F33884414B9C4262DDB9F1000F62DDB6
:105A600035A3D3E900231046194601F02FFB41EC82
:105A7000100BCAE724B1354B25F040429A42DAD1E7
:105A8000B9F1000FC0F2CB83002DC0F2748341EC5A
:105A9000100BBAE7B9F1000FC0F27A8447EC106B33
:105AA000B3E7BEF1000F84D0A6E72D4B984529DC63
:105AB000A3F15473984582DD4FEA2853A3F2FF33D4
:105AC000142B40F37F84C3F134032EFA03F202FA5D
:105AD00003F39E457FF473AF02F00102C2F1020BA3
