:1000000000000320D10100003D390000F538000058
:10001000F5380000F5380000F5380000F53800002C
:10002000F5380000F5380000F53800003D390000D3
:100030003D390000F5380000255300002953000029
:100040003D3900003D3900003D3900003D390000D8
:100050003D3900003D3900003D3900003D390000C8
:100060003D3900003D3900003D3900003D390000B8
:100070003D3900003D3900003D3900003D390000A8
:100080003D3900003D3900003D3900003D39000098
:100090003D3900003D3900003D3900003D39000088
:1000A000F5350000013600003D3900003D39000003
:1000B0003D3900003D3900003D3900003D39000068
:1000C0003D3900003D3900003D3900003D39000058
:1000D0003D3900003D3900003D3900003D39000048
:1000E0003D3900003D3900003D3900003D39000038
:1000F0003D3900003D3900003D3900003D39000028
:100100003D3900003D3900003D3900003D39000017
:100110003D390000793E00003D3900003D390000C6
:100120003D3900003D3900003D3900003D390000F7
:100130003D3900003D3900003D3900003D390000E7
:10014000D95000003D3900003D3900003D39000024
:100150003D3900003D3900003D3900003D390000C7
:100160003D3900003D3900000D3600003D390000EA
:100170003D3900003D3900003D3900003D390000A7
:100180003D3900003D3900003D3900003D39000097
:100190003D3900003D3900003D3900003D39000087
:1001A0003D3900003D3900003D390000193600009E
:1001B0003D3900003D3900003D3900003D39000067
:1001C0003D3900003D3900003D3900003D39000057
:1001D0005C4B4CF2205210B51A804DF628121A8052
:1001E00000BF00BF03F0AEFB574B4FF030621A6008
:1001F000564A9A60564ADA60564B4FF470021A60BB
:10020000554B564A1A60564B1A78110703D51A787F
:1002100042F008021A70534B5349AA221A70534AEB
:10022000534B8B4204D252F8040F43F8040BF8E707
:10023000504B514900228B4202D243F8042BFAE77B
:100240004E494F4A002352F8230041F8230001335E
:10025000742BF8D14B4B4C4A802103F8011B93427D
:10026000FBD14A4B454A1A60494B8A221A70A3F5C2
:10027000805324225A70A0221A709A799207FCD5D2
:100280009A79D406FCD4434A937903F00C03082BE3
:10029000FAD1414B60221A7002331A78802AFCD1BD
:1002A0003C4B01221A715D225A719A799006FCD555
:1002B0009979384A4906FBD5384B394919600021EC
:1002C000596020231370937903F00C030C2BFAD19F
:1002D000344B354A1A60354A354C136813F4807331
:1002E00003D123604FF4A8531360324B324A1A6093
:1002F00000225A60072243F8042C304AC3F80C2D20
:1003000062B603F045FC2368DA0705D52C4803F0F4
:10031000CFFB2C4B2C4A1A602C4B1B785B0609D563
:10032000284C294B22689A4204D1254803F0C0FB8F
:100330000023236007F05CFF03F00AFB05F022F8BE
:10034000FEE700BF0E20054030800440823F0400DD
:100350000100002B88ED00E0002008E0030000858C
:1003600002D0074000E00740B432FF1FB091000008
:10037000B01DFF1FB832FF1F843CFF1F0012FF1F7C
:100380000000000000E400E064E400E008ED00E0AC
:10039000005006400040064001E007404480044011
:1003A0000000060204800440C010070010D0034083
:1003B00014D0034014E000E01FBF02000000202022
:1003C000D39457601CE00340A5C3945A00F0074043
:1003D000FFFFFFFFFFFFFFFFFFFFFFFFFFFFFFFF2D
:1003E000FFFFFFFFFFFFFFFFFFFFFFFFFFFFFFFF1D
:1003F000FFFFFFFFFFFFFFFFFFFFFFFFFFFFFFFF0D
:10040000FFFFFFFFFFFFFFFFFFFFFFFFDEF9FFFF23
:1004100010B5054C237833B9044B13B10448AFF33E
:1004200000800123237010BDB832FF1F00000000C0
:10043000AC910000084B10B51BB108490848AFF358
:1004400000800848036803B910BD074B002BFBD0A0
:10045000BDE81040184700BF00000000BC32FF1F7D
:10046000AC910000B432FF1F0000000010B504463C
:1004700004F0DCFD204610BD70B5002182B00546B9
:1004800000F028FFC8B3044604F0E2FC064670B34F
:10049000D4F80832002B22DD013304EB83009FEDFA
:1004A0001B7ADFED1B6A231DB11C08E0F4EEE67A2F
:1004B000F1EE10FA23DA834221F8022F0FD0F3EC89
:1004C000017A144A67EE877AF4EEC77AF1EE10FAF1
:1004D000ECD447F6A672834221F8022FEFD12846CA
:1004E0000022314604F032FD304604F005FD20467E
:1004F00002B0BDE8704000F0AFBE02B070BDFDEECE
:10050000E77ACDED017ABDF90420D4E7004CFF462F
:10051000004CFFC65A80FFFFF8B5204E204F3369CC
:10052000204DD3F83811D3F83421002491423C7087
:100530000FD0184602F0F4FC3369D3F83811D3F821
:1005400034211FFA84FE914205F80E0004F10104E3
:10055000EFD12A786B78144943EA02231BB25A1E62
:100560000B80042A06D8DFE802F0060A0D16030005
:1005700005233B70F8BD0D4B0D4A1A60F8BD0223F0
:100580003B70F8BD0B480C4A0323002401213B704B
:1005900004801170F8BD04233B70F8BDC439FF1FFF
:1005A000D833FF1F6C34FF1FE032FF1F0CED00E05B
:1005B0000400FA05D635FF1FD435FF1F70B4194B60
:1005C00003600025012600F124042B4646720461D5
:1005D0000572C56000E0046944F82350447A013391
:1005E0009C42F8DC104B1C680CB919E01C4663698E
:1005F000002BFBD1606100230C4C01760262436149
:100600008380C3808372C361046039B11C4600E0FB
:10061000026A42F8234001338B42F9D170BC704723
:100620001860E8E7F88B0000443BFF1F048C0000D3
:1006300070B51F4B036004460021012004F1240221
:100640000B46607222612172E16004F1280600E02D
:10065000226942F82310627A01339A42F8DC154B82
:100660001A680AB921E01A465369002BFBD154617C
:10067000204600210125104B26626161A180E180A6
:10068000A172E161A1622576502240F82C3B08F06E
:100690009FF84FF07E53094AC4F88050E267E36246
:1006A00023646365A366204670BD1C60E0E700BF5D
:1006B000F88B0000443BFF1F308C0000A6552C47F0
:1006C000F0B54FF4FA7087B0334C344F03F00EFAA4
:1006D000334B617B206904930122002312261325EA
:1006E0008DE8680005920393552302F079FB236996
:1006F0002C4A2D49C3F86812C3F86C224FF4FA70E3
:1007000003F0F4F90A212948294E2A4D2A4C04F015
:1007100069FB202000F048FD2848294A294B8263C4
:1007200000F12C0228490363012A284BC763466461
:10073000C5640465C0F88020C162416303648364BA
:1007400005D900F190030421843005F075F92048A3
:10075000204A21494263002300F12C021F4F204E02
:10076000204D214CC16203632049214B8763012A3C
:10077000C6634564C4640165C0F880200364836473
:1007800008D900F190030421843007B0BDE8F0409F
:1007900005F052B907B0F0BDC439FF1F590DDA3E5C
:1007A000A0860100190D0000190500000002FF1FBE
:1007B0007A899E3FAF7B9EBF1EBA74BEF032FF1F88
:1007C0008730F6BECB08073FCB08873E7A891E3FAD
:1007D000AC34FF1FB9F3B0BEB9F3B03E68049D3F1F
:1007E0008E189EBE55CAFEBF4FCAFE3FB4947DBF51
:1007F00055CA7E3FFFFFFFFF2DE9F84F2DED028B1D
:1008000004F0C2F9002840F01B819D4C9D482378DC
:10081000002B00F0D380836B002B40F0EE809A4CCD
:1008200020680B2840F2C680984A138801339BB297
:10083000072B00F00881138007F058F9DFF8888251
:1008400002460B46D8E9000107F0F0FA41EC100B24
:1008500005F0B6FC0022002351EC100BB0EE408AEC
:10086000F0EE608A07F020FC08B19FED818BB0EEBE
:10087000480AF0EE680A864BDFF85C9283ED008B45
:1008800005F076FA002251EC100B824B07F0A4F928
:10089000814B002206F0EEFFD9ED007A7F4BF5EE9A
:1008A000407A06460F46F1EE10FAC3E9006700F001
:1008B000C28017EE900A07F03BF902460B4630461D
:1008C000394607F0FBFB002840F0B380744DD5EDAE
:1008D000007AF5EE407AF1EE10FA00F0A48017EEFF
:1008E000900A07F025F902460B463046394607F0D4
:1008F00003FC002840F0978000226A4BDFF8DCA15F
:10090000DFF8DCB13046394607F090FA9FED5A0B1C
:1009100041EC110B05F0B8FA634EDAE9002386EDDD
:10092000000B51EC100B06F0A5FFDBF80030013393
:1009300006460F461846CAE90067CBF8003007F0B4
:10094000D5F802460B463046394607F06FFA41ECBF
:10095000100B05F00DFA0022524B51EC100B07F072
:100960003BF9524A524B92F800E000260027C3E9B7
:1009700000010023C8E900672360BEF1000F19D011
:100980001370CBF8003007F0D7FB4A4B4A49D9F82F
:1009900000C04A4C4A4AD5F800E01860CAE900672E
:1009A0000023C1F800C00121C4F800E01180C9F89B
:1009B00000302B60BDEC028BBDE8F88F836B002B01
:1009C0003FF42DAF00F000FD10EE100A07F0B0F874
:1009D0003C4E3D4D2C4C02460B46C6E9002307F029
:1009E000FBF80B460246D5E9000106F043FF2368F9
:1009F000C5E90001581C206013E700F0E5FC10EE8B
:100A0000100A07F095F8314A2E4D138801339BB236
:100A1000132BC5E900011380CCD9BDEC028B002358
:100A20002370BDE8F88F3046394607F085FB286013
:100A300062E73046394607F07FFBC9F8000045E71A
:100A400004F066F8E1E6224B187800211180214A73
:100A500030B901211078197003F03CF82068EBE6FA
:100A60001078197003F036F82068E5E6AFF30080DF
:100A7000000000A0F7C6B03E0000000000002440C7
:100A8000B41DFF1F0034FF1FD835FF1F6434FF1F44
:100A9000E035FF1F0000344000405F40E832FF1F98
:100AA0006834FF1F000024404836FF1FD435FF1F65
:100AB0008035FF1FD433FF1FCC33FF1FD033FF1F00
:100AC000D635FF1FC033FF1FD832FF1F5034FF1F22
:100AD000D535FF1FB81DFF1FE432FF1F3836FF1F3B
:100AE0005036FF1F2DE9F04F734D744F2F600021DA
:100AF000012005F1240285B00B4668722A61297233
:100B0000E9602C4600E0226942F823106A7A6A48BC
:100B100001339A42F7DCDFF8B081D8F800200AB937
:100B2000C5E01A465369002BFBD155610024644E81
:100B3000644B61486C61AC80EC80AC722C762C62AA
:100B4000EC612B6000F0F2FC022106F118037172D7
:100B50002246204637603472F4603361314600E04B
:100B60000B6943F82200737A554C01329342F7DC4B
:100B7000D8F80020544B0AB99CE01A465369002B60
:100B8000FBD15661DFF88091504BDFF880B14C48C3
:100B9000336000247461B480F480B47204F07AFD90
:100BA000012109F128024846DFF864A1484FDFF827
:100BB0006481FFF703FD474AC9F800205846FFF754
:100BC00037FD4548FFF734FD0AF128025046012160
:100BD000FFF7F4FC414ACAF8007000210020CAE97E
:100BE0000C018027104682E82008CAF83840AAF88D
:100BF0003C40AAF82C7014725472D46000F098FB38
:100C0000374A354BC2F800B0104653601472547224
:100C1000D46000F08DFB334A2F4BC2F804A010467D
:100C2000136014725472D46000F082FB2E4B2F4F6D
:100C30001C72184683E820025C72DC6000F078FBCE
:100C4000404688F8084088F80940C8F80C4088F801
:100C50001040C8F80090C8F8046004F0B3F9244AC2
:100C60002449404606F0FAFD012338467B723C7267
:100C7000FC603C74C7F800907E6004F0A3F938462D
:100C80001B4A1C491C4C06F0E9FD1C4B1C491A6808
:100C90000192019D1A68029202981B680393039ABD
:100CA000184B256008601A6005B0BDE8F08FC8F8E1
:100CB00000003BE71C6065E78835FF1FF88B0000EC
:100CC0001436FF1F608C0000443BFF1F789000002B
:100CD000548C0000108C0000AC34FF1F4034FF1F08
:100CE0005434FF1FC435FF1FDC33FF1FB035FF1F17
:100CF000B01DFF1F6D040000C833FF1FF839FF1F30
:100D00004036FF1FDC35FF1FE835FF1FF032FF1FA5
:100D10000034FF1FEC33FF1FF0B5C14D2B78042BBF
:100D200083B000F07281052B2FD0022B01D003B0CD
:100D3000F0BDBC48BC4E00F1140E37464378027833
:100D40007270314607F8023FFF2311F8012F082483
:100D5000534013F0800F04F1FF324FEA430318BFF2
:100D600083F0310312F0FF04DBB2F2D1B942ECD1CF
:100D70000230864506F8033FDFD11B22AB49AC4861
:100D800001F0C2FD2C7003B0F0BDAA4BA74C1B684C
:100D900001939DF807209DF806002270D343DBB233
:100DA0006070082204E0013A12F0FF02CBB20CD0CE
:100DB00013F0800F4FEA4301F5D05B00013A83F056
:100DC000310312F0FF02DBB2F2D14340082204E00B
:100DD000013A12F0FF02CBB20CD013F0800F4FEAB1
:100DE0004301F5D05B00013A83F0310312F0FF02BA
:100DF000DBB2F2D19DF805209DF80400A370D34327
:100E0000E270DBB22071082204E0013A12F0FF0226
:100E1000CBB20CD013F0800F4FEA4301F5D05B004A
:100E2000013A83F0310312F0FF02DBB2F2D143400A
:100E3000082204E0013A12F0FF02CBB20CD013F00A
:100E4000800F4FEA4301F5D05B00013A83F0310394
:100E500012F0FF02DBB2F2D1774A6371136801939B
:100E60009DF807209DF80600A271D343DBB2E07124
:100E7000082204E0013A12F0FF02CBB20CD013F0CA
:100E8000800F4FEA4301F5D05B00013A83F0310354
:100E900012F0FF02DBB2F2D14340082204E0013A33
:100EA00012F0FF02CBB20CD013F0800F4FEA4301D7
:100EB000F5D05B00013A83F0310312F0FF02DBB2A0
:100EC000F2D19DF805209DF804002372D34362728D
:100ED000DBB2A072082204E0013A12F0FF02CBB2AA
:100EE0000CD013F0800F4FEA4301F5D05B00013ABC
:100EF00083F0310312F0FF02DBB2F2D1434008224B
:100F000004E0013A12F0FF02CBB20CD013F0800FD4
:100F10004FEA4301F5D05B00013A83F0310312F050
:100F2000FF02DBB2F2D1454AE372136801939DF8E8
:100F300007209DF806002273D343DBB260730822BA
:100F400004E0013A12F0FF02CBB20CD013F0800F94
:100F50004FEA4301F5D05B00013A83F0310312F010
:100F6000FF02DBB2F2D14340082204E0013A12F062
:100F7000FF02CBB20CD013F0800F4FEA4301F5D043
:100F80005B00013A83F0310312F0FF02DBB2F2D1D1
:100F90009DF805209DF80400A373D343E273DBB2F0
:100FA0002074082204E0013A12F0FF02CBB20CD008
:100FB00013F0800F4FEA4301F5D05B00013A83F054
:100FC000310312F0FF02DBB2F2D14340082604E005
:100FD000D3B2721E12F0FF060CD013F0800F4FEA4E
:100FE0004302F5D05B00721E83F0310312F0FF065E
:100FF000DBB2F2D112220D490D48637401F084FC7A
:101000000F4B2E701E8003B0F0BD0D4B074C1B889C
:101010001A0AD8B2D3432270DBB26070082216E0FD
:10102000D833FF1F148C00006B34FF1F6C34FF1F7C
:10103000C439FF1FD433FF1FCC33FF1FD033FF1F32
:10104000D635FF1F013A12F0FF02CBB20CD013F0DD
:10105000800F4FEA4301F5D05B00013A83F0310382
:1010600012F0FF02DBB2F2D14340082604E0D3B213
:10107000721E12F0FF060CD013F0800F4FEA4302ED
:10108000F5D05B00721E83F0310312F0FF06DBB275
:10109000F2D1032203490448A37001F035FC2E70FD
:1010A00003B0F0BD6C34FF1FC439FF1F38B50021F9
:1010B000054600F01BF9B8B1D5F8803083B1012B9B
:1010C000044607D0021DD0F80832114605F184000D
:1010D00004F0C0FC28460022214600F0E1F820463A
:1010E000BDE8384000F0B8B838BD00BF154B1A78DD
:1010F0002AB3B0F5761F4FF0000270B51A709ABF90
:101100004FF4057343434FF0FF330446184604F091
:1011100043F906467CB10C4D00F505730022802191
:101120000132A24243F8101C43F80C1C43F8085C3F
:1011300003F50573F4D1054B30461E6070BD034BBB
:1011400018687047BC1DFF1FA6552C476C36FF1F43
:10115000C029F0B428BFC02172B6114B114E1860DF
:10116000002333607360B360F36033617361012700
:1011700099B15D0903F01F0456F8252007FA04F41D
:10118000013322438B4246F82520F2D100234370DD
:1011900001338B4200F50570F9D162B6F0BC70479F
:1011A0007436FF1F5436FF1F10B50446FFF79EFF2D
:1011B00020B12146BDE81040FFF7CABF10BD00BFF7
:1011C00070B472B6204B186820B9586828B304333D
:1011D000202200E000221D4E3478B0FA80F54FF056
:1011E0000041E9400134E4B220EA010034701860A3
:1011F00062B64FF40571531B01FB03F2144B154902
:10120000186802F580436C330122C2540A78A24266
:10121000184438BF0C7070BC7047986820B9D86803
:1012200028B10C336022D6E708334022D3E718698F
:1012300020B9586928B11433A022CCE7103380229A
:10124000C9E762B6E7E700BF5436FF1F7036FF1FDD
:101250007436FF1F7136FF1F427872B60378012B78
:1012600003D9013B037062B6704770B456110A4D42
:101270000A4C55F826102378D2434FF0004002F074
:101280001F0220FA02F21143013B45F82610237099
:1012900062B670BC704700BF5436FF1F7036FF1F28
:1012A000C369B3B130B401E0DB688BB1187A904206
:1012B000FAD158685C7A006A50F82450002DF3D1B6
:1012C00040F82410087801300870DB68002BEDD15D
:1012D00030BC7047037E8B4206D9036A002253F864
:1012E000210043F8212070470020704738B5037E65
:1012F0008B421AD9036A53F82140002243F8212077
:101300009CB12378012B0ED9FFF75AFF054628B16F
:101310004FF40072211D043002F0E2F92378013B02
:101320002370284638BD204638BD002038BD00BF98
:101330004368427A1B7E9A420ED872B60168CA6927
:101340000AB90AE01A46D368002BFBD1D060426884
:1013500001230B72137262B67047C861F7E700BFD2
:1013600030B583B00023002101930446FFF7B2FF9C
:10137000C8B1011D01ABA28D0546084604F04CFC26
:10138000019806F0D5FB0B460246D4E90C0106F0A5
:1013900071FAA36B0133C4E90C01A3632846FFF77C
:1013A0005BFF03B030BDA38F002BFAD0142104489B
:1013B00003F014FC034803F0D5FF03B030BD00BFB9
:1013C000348C0000A028FF1F10B5044672B6D0E987
:1013D0000C0106F0B1FED4ED0E7A06EE900A002163
:1013E00000200023C4E90C01A363B8EE677A62B65B
:1013F000A38D07EE903AF8EE677A67EE877A86EE6D
:10140000A77AB1EEC70AB4EE400AF1EE10FA00D1A5
:1014100010BDB0EE470A04F033FFF9E730B41F4ABD
:101420001F4B11681F4809691279027003F5007299
:1014300091421D4929D21D4A0868147803EB8002A5
:1014400003EBC00034BB1A4B1B68E3B1194D0C68A9
:101450002988B1EB540F16D804EBD47401EB640463
:101460009FED157A2C8003EB8101043152F8083B83
:101470001B1207EE903AF8EEE77A904267EE877A11
:10148000E1EC017AF2D830BC704708681A4603EBE9
:101490008000D8E7094B01241C60D4E77836FF1F91
:1014A000400CFF1F1F800040C01DFF1F8636FF1F1E
:1014B0008036FF1F8436FF1F0000003408E200E082
:1014C00038B50546FFF77CFE014672B6114B124A4D
:1014D0001C88126894420CDAD0B1104C226822B1F8
:1014E00062B6BDE83840FFF7B7BE20601A8062B62A
:1014F00038BD0A48002204681A80016062B6284696
:101500002146FFF7CDFE2046BDE83840FFF7A4BED8
:1015100062B638BD8436FF1FC01DFF1F8036FF1F17
:1015200010B5044603F080FE204610BDF8B52C4CE3
:101530002C4E2D4F2D4D2046012103F00FFE2C4B3C
:101540002C492D4A18682D4B1268086001201A603A
:1015500000F014F92A4B2B4A2B484FF48061196094
:10156000236800211A60998022791E6102F180426D
:1015700040F20226DE809F6102F504324FF480764D
:101580000627DE82DE839F8304268C27D9609E6037
:101590009E82117017702B681C4E43F0124343F06B
:1015A00001032B6003681A4D43F01043036003F0FE
:1015B0007BFD2279174B184C187053119B0003F1D7
:1015C0006043174602F1100003F5614302F01F0269
:1015D0000121377001FA02F245F820401A60F8BD87
:1015E0007836FF1F400CFF1F00FCFFFF80F0024019
:1015F000C41DFF1FC81DFF1FC01DFF1FCC1DFF1FE7
:1016000014B00440A0F0024000F002401B800040F3
:101610000012FF1F8636FF1F1D140000024A0349F7
:10162000034806F01BB900BFB01DFF1F21150000C5
:101630007836FF1F184A4FF0804313601368002B61
:10164000FCDBF0B5154C1648DFF884E01549164A66
:10165000164B174E174D184F4FF2FE0CC4F800C032
:10166000002404600120CEF80000DFF868E0C1F833
:1016700000E04FF480311160104A1A60104B336063
:101680002C6038600F4C1048104F776745F8541C99
:1016900022600360F0BD00BF00F1024004F102408F
:1016A00060F0024008F002400CF0024010F00240EE
:1016B00014F00240E0F0024084F002401B0F0100F1
:1016C000000F0F0F90F0024094F00240030000471B
:1016D00004F0024003000007184A4FF080431360F3
:1016E0001368002BFCDBF0B5154C1648DFF884E0DE
:1016F0001549164A164B174E174D184F4FF2FE0C50
:10170000C4F800C0002404600120CEF80000DFF817
:1017100068E0C1F800E04FF480311160104A1A60AF
:10172000104B33602C6038600F4C1048104F7767B7
:1017300045F8541C22600360F0BD00BF00F1024078
:1017400004F1024060F0024008F002400CF0024058
:1017500010F0024014F00240E0F0024084F0024039
:101760001B1F0100001F1F1F90F0024094F0024059
:101770000100004704F0024001000007124B13492A
:101780001A6842F4004210B51A600A68104C42F020
:1017900002020A601A6842F002021A602368002BF3
:1017A0000EDB0C4B1B68002B0ADB50B9FFF742FF26
:1017B00009480A490A4A4FF4C06303600B6013608A
:1017C00010BDFFF789FFF3E73C80044040800440F0
:1017D00000F0024080F0024008B004400CB0044029
:1017E00018B00440024A0349034806F037B800BF66
:1017F000B01DFF1F211500008836FF1F024A034954
:10180000034806F02BB800BFB01DFF1F21150000D4
:101810009036FF1F38B5074D074C08482A46214629
:1018200006F01CF82A4621460548BDE8384006F077
:1018300015B800BFB01DFF1F211500009836FF1F0F
:10184000A036FF1F024A0349034806F007B800BF4D
:10185000B01DFF1F21150000A836FF1F024A0349D3
:10186000034805F0FBBF00BFB01DFF1F211500009E
:10187000B036FF1F024A0349034805F0EFBF00BF1F
:10188000B01DFF1F21150000B836FF1F024A034993
:10189000034805F0E3BF00BFB01DFF1F2115000086
:1018A000C036FF1F024A0349034805F0D7BF00BFF7
:1018B000B01DFF1F21150000C836FF1F024A034953
:1018C000034805F0CBBF00BFB01DFF1F211500006E
:1018D000D036FF1F024A0349034805F0BFBF00BFCF
:1018E000B01DFF1F21150000D836FF1F024A034913
:1018F000034805F0B3BF00BFB01DFF1F2115000056
:10190000E036FF1F024A0349034805F0A7BF00BFA6
:10191000B01DFF1F21150000E836FF1F024A0349D2
:10192000034805F09BBF00BFB01DFF1F211500003D
:10193000F036FF1F024A0349034805F08FBF00BF7E
:10194000B01DFF1F21150000F836FF1F024A034992
:10195000034805F083BF00BFB01DFF1F2115000025
:101960000037FF1F024A0349034805F077BF00BF55
:10197000B01DFF1F211500000837FF1F024A034951
:10198000034805F06BBF00BFB01DFF1F211500000D
:101990001037FF1F024A0349034805F05FBF00BF2D
:1019A000B01DFF1F211500001837FF1F10B4047F62
:1019B0004160022CC26003D05DF8044B03F050BCC0
:1019C00083685DF8044B1847F0B4464B464A986B61
:1019D0005C6B01791170454922790A701A6B0079A4
:1019E0000870002A46D05968C9688A423ED82168E2
:1019F000CC8B240402F1FF3065D4C0F30E00C88301
:101A0000C88B80B2C882996B0968C88B000452D415
:101A1000C2F30E00C883C88B002480B212F1FF32DB
:101A2000C88218BF01221C63596B2E4809680D68D3
:101A300000F12C04A54236D00068C46814F0804F31
:101A40000C680D6815BF248824780235013544F0F0
:101A500000440D604463996B254B09791970214945
:101A600012B14A6B12791A70F0BC7047521A1A639D
:101A70000122D9E7D86B196805681E4C0A63CC624D
:101A8000CC682D681C4E24F080440327B542CC60FE
:101A900083F82D701FD1037F4260022BC2601ED0DD
:101AA000F0BC03F0DDBB016890F82C00CC6840F07E
:101AB00000404863CFE7CC8BC2F3080004F47E44B7
:101AC0002043C883A7E7CC8BC0F3080004F47E440E
:101AD0002043C88394E72B461146F0BC184783681F
:101AE000F0BC1847D01DFF1F1F8000401C80004025
:101AF0001B80004000000FFFAD1900000020704760
:101B0000704700BF064B074ADA6202210022596083
:101B10009A7083F8242083F8302083F832207047AD
:101B20002037FF1F008D00002049214A0B6843F039
:101B300080030B6011461368DB07FCD40B689B071E
:101B4000F9D41C4B30B44FF08072184D186000E08F
:101B5000A2B12968184B154C0B40013A002BF7D065
:101B600062B1012B0AD1236813F0800F23680FD0D4
:101B700043F001132360032030BC70470B4A136805
:101B800043F4702343F001031360012030BC70471D
:101B900013F48030236804D043F001132360052040
:101BA000F4E743F001032360F0E700BF30100B407F
:101BB00024100B400C100B4001000E0070B50D4DB1
:101BC0000D480E4E00232B60FFF7AEFF40F2E734C6
:101BD00003463268520701D507480BB1184670BD5D
:101BE0002B60FFF7A1FF013C0346F2D1002808BF9C
:101BF000052070BD08100B400000DB0C24100B40CA
:101C0000F8B5384B1A780AB10320F8BD5B78064660
:101C100003B94902344D354C354B36484FF6FF7702
:101C20004FF481322F6021601A60FFF77DFF00289A
:101C3000EBD1314B31491B681C3406F1400206F5EB
:101C400010702B68284F43F0200613F4E00F2E602D
:101C50003ED123681E05FCD50B6842F8403C0B685A
:101C600042F83C3C0B6842F8383C0B6842F8343C84
:101C70000B6842F8303C0B6842F82C3C0B6842F889
:101C8000283C0B6842F8243C0B6842F8203C0B6867
:101C900042F81C3C0B6842F8183C0B6842F8143CB4
:101CA0000B6842F8103C0B6842F80C3C0B6842F899
:101CB000083C0B6842F8043C40328242C1D100200B
:101CC00009490B68084A9B07FBD50D4B1360F8BD0B
:101CD00043F4E00343F020033B60FFF76FFF012074
:101CE000EEE700BF7437FF1F30100B4008100B40A9
:101CF00004100B4010003A1110100B4020100B4044
:101D000022000001F8B52B4B1A780AB10320F8BD68
:101D10005B78044603B94902274D28482A68284BB6
:101D20002A604FF48132016026481A60FFF7FCFEFA
:101D30000028ECD1244B254E1B68294604F500777A
:101D40000B681D4AD806FBD52B6813F4E00F1AD197
:101D500004F1400254F8043B3360A242FAD10B680C
:101D6000DFF854E043F010030B600B6813F4E0005D
:101D700013D19742E4D110490B680F4A9B07FBD55A
:101D8000134B1360F8BD136843F4E00343F01003F2
:101D90001360FFF713FF0120EDE7DEF8003043F496
:101DA000E00343F01003CEF80030FFF707FF0120F7
:101DB000E1E700BF7437FF1F30100B4008100B40E5
:101DC00004100B4000003A1810100B4020100B407C
:101DD0001200000110B50121007801F07BFE114ACC
:101DE0001378C3B11049CB7A00241846147093B10C
:101DF000DA0703D50D4AC869106018469C0703D559
:101E00000B4B0A6AC87A1A60420705D4030702D549
:101E1000084B8A6A1A6010BD074B4A6AC87A1A6072
:101E2000F4E700BF8837FF1FD01DFF1F00E100E06F
:101E300004E100E00CE100E008E100E0234B1A7847
:101E40001AB10078002101F045BE70B4204A214942
:101E5000D47A096801251D70002C26D072B6D47A78
:101E6000E607234606D51C4DD3682E683340D36160
:101E70002B602346A50706D5184D14692E68D37A22
:101E8000344014622C605C0706D5154D54692E68E9
:101E9000D37A344054622C601B0705D5114C9369EA
:101EA00025682B409362236062B61368DA688A4221
:101EB00007D00D4C1C600D4AD96041F080441C6174
:101EC0001A600078002170BC01F004BE8837FF1F43
:101ED000D01DFF1F8437FF1F80E100E084E100E098
:101EE00088E100E08CE100E001403F0000003F801D
:101EF000F0B41248124A036882B016460093009F5D
:101F00004FF00045FF24136843F480631360D562EB
:101F10005463D36A002BFCDAB36BDBB2FF2B09D01E
:101F200003680193019BDB1B8B42ECD3002002B0C2
:101F3000F0BC7047012002B0F0BC7047F839FF1FB9
:101F400000C00240F8B50D464FF49671164604469F
:101F5000FFF7CEFF284B1A684FF0004042F4806232
:101F600045F040011A60D8621A465963D36A002BC3
:101F7000FCDA214918204FF000470A6826FA00F3DE
:101F800042F48062DBB20A60CF624B63CB6A002B03
:101F9000FCDA083810F1080FEFD155B3082D0CBF4B
:101FA0008721FF21144B1A684FF0004042F48062F1
:101FB0001A60D8621A465963D36A002BFCDA0E4ABB
:101FC000002716464FF00045FF21136843F4806355
:101FD0001360D5625163D36A002BFCDAB36BD8B2BD
:101FE0001B06607000D4F8BD0137B7F5807FECD1D7
:101FF000F8BD9521D6E700BF00C00240F0B41549F6
:10200000154A0B6882B016460093009F4FF00045BA
:10201000FF24136843F480631360D5625463D36A6A
:10202000002BFCDAB36BDBB2FF2B43700AD10B68D9
:102030000193019BDB1BB3F5967FEAD9002002B028
:10204000F0BC7047A3F1FE00B0FA80F0400902B086
:10205000F0BC7047F839FF1F00C00240F8B5837824
:10206000032B0E46044618BF4E021546FFF7E6FE48
:10207000324611212046FFF765FF18B92046FFF7C9
:10208000BDFF20B92046FFF7A5FE0020F8BD204B7C
:102090002049214A1A608E4659631A4659631E46E2
:1020A000596305F5FD70A91C05F5FE77D36A13F099
:1020B000F00FFBD0C6F834E0B36B01F8013C1B1203
:1020C00001F8023C02318F42F0D105F50075A842BB
:1020D0000DD20F4A1646D36A13F0F00FFBD0B36B44
:1020E000191200F8021BA84200F8013CF3D3084B78
:1020F0000949084A196019465A63CB6A044A13F021
:10210000F00FFAD02046936BFFF764FE0120F8BD74
:1021100000C00240FFFF009000041F80F0B4314E69
:1021200033684FF0004743F4806333603D46F76205
:10213000344671633346511C02F20127E26A002AD9
:10214000FCDA1A6811F8016C42F480621A60DD62F0
:102150005E63E26A002AFCDA1A6811F8026B42F444
:1021600080628F421A60DD625E63E7D11D49CA6AF0
:102170001C4B002AFBDA1A684FF0004542F48062DB
:10218000FF241A601946DD625C63CB6A154A002B96
:10219000FBDA13684FF0004543F48063FF241360BB
:1021A0001146D5625463CB6A0E4A002BFBDA1368E2
:1021B0004FF0004543F48063FF2413601146D5625D
:1021C0005463CB6A074A002BFBDA936BDBB203F054
:1021D0001F024370A2F10500B0FA80F04009F0BC84
:1021E000704700BF00C0024070B5044671B18378EB
:1021F000032B0D4618BF4D021646FFF71FFE2A4659
:1022000018212046FFF79EFE054620B12046FFF725
:10221000E1FD002070BD3246FE212046FFF77EFF23
:102220000028F3D04FF416712046FFF761FE002816
:10223000ECD02A460D212046FFF784FE0028E5D188
:102240000B4B1A684FF0004542F48062FF201A6081
:102250001946DD625863CB6A054A002BFBDA936BA3
:1022600013F0FF0FD2D12046FFF7B4FD012070BD5F
:1022700000C00240014B024A1A6070478437FF1FBA
:102280000320003838B590F90530002B03DBBDE89A
:10229000384000F079B904460121006900F0B4F932
:1022A000F8B1257D104B13EB45151AD0A3790F4AD1
:1022B000012B9CBFA369EB61E36912686B831B0C64
:1022C000AB8232B105F1160105F1180090472B8B56
:1022D0006B82637903F07F036371BDE8384000F0DF
:1022E00053B9002038BD00BF9837FF1F8C37FF1F40
:1022F00010B500F1080204460121006A00F02CFA32
:1023000050B1E3693BB96379A268E26163F07F038E
:102310006371012010BD012010BD00BFF8B58379A5
:1023200013B182698A4201D20020F8BD022B0F4608
:1023300005461AD007B32B6AE9681C7C4A1E04F1D3
:1023400009037C1EDA40DC40A24211D9EB69AB6084
:1023500005F1080606E0A968286A00F0C5F9013C05
:102360000028E1D03246002CF5D1EF600120F8BD05
:102370000029EBD0A41AEBE7AF60EF600120F8BDB5
:102380002DE9F04F8B46817985B0012907460192EE
:1023900005D001233B71002005B0BDE8F08F4279E4
:1023A0009107F6D5530708D5FC68B9698C4200F04F
:1023B000B480FFF7B3FF0028EBD0019BFC68002B33
:1023C0004AD0DFF8A491DFF8A4A1DDF80480386AD0
:1023D0000679013E06EA542616F0FF06C4F3080407
:1023E00043D1002C41D1B968002973D1FA69002A80
:1023F00000F08380BA60C4F50075ADB245453AD9A6
:10240000057C4169023AAA400E4416441FFA88F539
:102410001CB9F868BA6990424FD23046012100F0E9
:10242000F3F80028B5D04C4404EB050E74450DD0EC
:102430000BF1FF31621E0EF1FF3611F8010F02F8A9
:10244000010F9642F9D1C4EB0E04A344FC68B8EB2B
:1024500005082C44FC60BAD1BB69A34262D27A79E8
:10246000BC6142F080027A7165E0C4F50075ADB2DE
:102470004545BA68C4D8017C4069023A8A4006449E
:10248000B5F5007F1644C3D1DAF80020964204BFA8
:102490004FF0FF32CAF800202F4A10680278FE2A57
:1024A000314633D05A46FFF79FFE00283FF471AF04
:1024B0000BF5007B4FF40075C8E700F065F80028C5
:1024C0003FF467AF2549CAF800600A7842F001027C
:1024D0000A70A8E703AA00F007F900283FF45CAFF0
:1024E000386A1F4B90F82050039A4FF6F871102D60
:1024F00018BF19468A42FFF47DAF3846FFF7F8FE51
:1025000000283FF446AF386ABA6874E75846FFF7C8
:10251000F9FBB0FA80F04009C7E7019B002B7FF47C
:1025200050AF08E00F4B7A791B6823B1019B13B1C0
:1025300042F080027A71120709D5BB79002B3FF473
:1025400028AF3846FFF79EFE00283FF422AF0198DF
:1025500005B0BDE8F08F00BF9437FF1F9839FF1F0B
:10256000F8FFFF0F8C37FF1F9837FF1F101EFF1F4C
:1025700000B583B002AB012203F8011D1946FFF735
:10258000FFFE03B05DF804FB70B51A4C23780BB95D
:10259000012070BD184D194B286819680378FE2B6F
:1025A00017D0174AFFF720FE88B1164E316819B9C7
:1025B00000232370012070BD28680378FE2B0FD004
:1025C0000F4AFFF711FE10B100233360F0E700203F
:1025D00070BD0B48FFF796FBB0FA80F04009E3E7C7
:1025E0000748FFF78FFBB0FA80F040090028EBD1D5
:1025F000EDE700BF9839FF1F9437FF1F101EFF1F24
:102600009837FF1F9037FF1F70B5124D2B6883421C
:102610000E4611D00446FFF7B7FF08B9002070BD81
:102620000D4B18680378FE2B0CD00C4A2146FFF79F
:1026300015FD0028F2D02C60094B19783143197030
:10264000012070BD21460548FFF7DAFAB0FA80F0A4
:102650004009EEE7101EFF1F9437FF1F9837FF1F3A
:102660009839FF1FF8B590F82030C469102B1A4B29
:1026700005460E4617461B6816D004EBD1149C4243
:1026800016D106F07F06154A42F826701449287EB6
:102690000A78012842F001020A7018D9A968114A83
:1026A0000B4413600120F8BD04EB11249C4208D0B8
:1026B00000212046FFF7A8FF50B195F82030102BDD
:1026C00007D1F6B2054A234622F81670DEE701204C
:1026D000F8BD2346D5E700BF101EFF1F9837FF1F28
:1026E0009839FF1F9037FF1FC36801338B4218D3FF
:1026F00070B590F82030102B154B044616460D4649
:10270000C0691B680FD000EBD11098420FD105F0C3
:102710007F01104B53F8213023F0704333600120C8
:1027200070BD0020704700EB1120984207D00021B7
:10273000FFF76AFF50B194F82030102BE7D1E9B2CF
:10274000044B33F811303360012070BD002070BDA0
:10275000101EFF1F9837FF1F2DE9F04F176883B039
:102760006FB301374FF0000AC36803F1010813B3D8
:102770008B46064691463C46002505E01C461F4612
:10278000F3680135AB4216D9A04538BF0224214673
:1027900001AA304638BF2746FFF7A6FF631CD91BA6
:1027A00048B1019A002AE9D18B4510D01C46F36844
:1027B0000135AB42E8D8002003B0BDE8F08FA1F1AD
:1027C000010ABAFA8AFA07684FEA5A1ACCE7012CCA
:1027D000F1D9F36801339C42EDD86FF07042214685
:1027E0003046FFF73FFF0028E5D0A74214D2013C56
:1027F000012CE0D9F36801339C42DCD8621C2146ED
:102800003046FFF72FFF0028D5D0A74204F1FF3450
:1028100002D0012CEED1CEE7D9F8001059B1012930
:10282000C9D9F36801339942C5D83A463046FFF713
:1028300019FF0028BFD0C9F80070BAF1000F01D00D
:10284000013737600120B7E70369D3F83801D3F8BF
:102850003431C01A704700BF0369D3F83411D3F87C
:102860003821914208D2D3F83421511C1A44C3F8BC
:10287000341192F8300070474FF0FF30704700BFBE
:102880000369D3F83411D3F8382191423DBFD3F80E
:1028900034219B1893F830004FF0FF30704700BF91
:1028A000704700BF0369D3F84422B2F5817F03D992
:1028B0000123037100207047D3F8442210B49C1800
:1028C0000132C3F8442284F83C1101205DF8044B26
:1028D000704700BF38B503690A4A026093F848227E
:1028E000022A044601D0204638BDD3F87452002D88
:1028F000F9D0284602F098FC2846082102F04EFD47
:10290000204638BD188D000038B503690546D3F858
:102910004402B0F5817F1AD81446D3F84422D3F884
:102920004402C2F58172013203F59E73A24218443B
:1029300002D2012314462B71224600F0D1FE2A69EF
:10294000D2F844322344C2F84432204638BD012331
:102950002B71002038BD00BF2DE9F04F574C83B0DC
:1029600006460D4692461F469DF830809DF834E09D
:102970009DF83890234621460022022004E00432CC
:10298000202A36D011F8040F8542F8D148785045F6
:10299000F5D196F84A121A448A4592F803B000F02D
:1029A0008680BBF1000F28D0BEF1000F0BD096F847
:1029B0004C2296F84A020193002A14BF02210021FA
:1029C00001F08EF8019B4FEA0B2202F4E062B8F1AD
:1029D000000F60D142F06402394901EBCA010120C5
:1029E00049680A6086F84AA286F84C8286F89802FE
:1029F00003E096F84A224FF0000B0022022104E087
:102A00000432202A36D014F8041F8D42F8D1A17860
:102A1000B942F5D11A4496F84B32D4789F4240D04F
:102A2000002C34D0B9F1000F09D096F84C3296F84A
:102A30004B02002B14BF0221002101F051F82302A8
:102A400003F4E063B8F1000F28D143F064031C4A9B
:102A500002EBC70201215268136086F84B7286F8B8
:102A60004C8286F89912BBF1000F10D0012003B000
:102A7000BDE8F08F96F84B32BB4208D1B9F1000F98
:102A800005D00024BBF1000F01D0002CEED10020B6
:102A900003B0BDE8F08F42F003029DE743F003036B
:102AA000D5E7B9F1000FEDD1002CC8D1EFE7BEF1A9
:102AB000000FA2D1BBF1000F85D19EE7348D00003D
:102AC0006C8E0000F8B5C3681B789B0610D4836831
:102AD0000D4680211970C3681221197090F849328F
:102AE000012B044606D08AB980F848220120F8BD9F
:102AF0000020F8BD1A4675B9794B4FF08071196006
:102B0000022A0FD0012084F84802F8BD531E012B81
:102B1000F1D90120F8BD012D4BD1714B4FF000715F
:102B20001960EDE7D4F87462002E00F097803379D5
:102B3000202B30D0002D43D132686A49938B6A4FE5
:102B40009BB243F0080393833279531102F11000D2
:102B50009B0041F8207003F1604303F561430121BC
:102B600002F01F0201FA02F231681A608B8B9BB2ED
:102B700043F002038B83337903F1804303F504337D
:102B800092221D701A700022022384F85E2284F8BB
:102B900048320120F8BD304602F046FB304608219D
:102BA00002F0FCFB00230120C4F8743284F84802D0
:102BB000F8BD022D5DD14D4B4FF4806119609FE748
:102BC000012D26D132684749938B494F9BB243F080
:102BD000080393833279531102F110009B0041F8EE
:102BE000207003F1604303F5614302F01F0295403A
:102BF00032681D60938B9BB243F002039383337959
:102C000003F1804303F504330021932219701A70F5
:102C1000B9E7022D35D1D4F8741232480A68354E1E
:102C2000938B9BB243F0080393830A79531102F10B
:102C300010059B0040F8256003F1604303F56143F4
:102C4000012002F01F0200FA02F208681A60838B6A
:102C50009BB243F0020383830B79D1E7082002F093
:102C600099FB314607463E4602F078FAC4F8747282
:102C70005DE7032D7FF444AF1C4B4FF000611960FA
:102C80003EE7032D7FF47FAFD4F8741215480A682D
:102C9000194E938B9BB243F0080393830A79531127
:102CA00002F110059B0040F8256003F1604303F535
:102CB0006143012002F01F0200FA02F208681A6064
:102CC000838B9BB243F0020383830B7903F1804330
:102CD00003F504330021922219701A7053E700BFE4
:102CE00000E100E00012FF1FF535000008E100E000
:102CF000013600000D36000019360000F0B5284EF0
:102D0000DFF8ACE0A6FB0143A6FB02429E093702B6
:102D10007546960914240023B7FBF6F604E0013348
:102D2000372B1BD055F8044F22029642F7DA83BBAB
:102D300014241C4A4568B1FBF4F491422B70C0F88E
:102D4000504207D8184B8269A3FB0131C1F30751E8
:102D50001170F0BD836904221A70F0BD0024224670
:102D60004FF470274FF470654FF0360CB21AF71B12
:102D7000002A87EAE776A6EBE776B8BF524296428A
:102D800002DD0A4AD35CD4E7084B2C4613F80C301A
:102D9000CFE703F1FF3C5EF82C502F02E6E700BFBF
:102DA000D34D6210FF6BDC02819F5E16348E0000F3
:102DB000588D0000F0B49DF814409DF810609DF807
:102DC00018503CB135B1C7683F78BF0602D5002026
:102DD000F0BC7047069505940496F0BCFFF7BCBDA7
:102DE0002DE9F04184B0044694469DF828609DF892
:102DF0002C209DF830009DF834E09DF83C700D4685
:102E000000294CD1DFF81081D8F8001041F04001C2
:102E1000C8F80010002184F849C284F85512BCF1AA
:102E2000000F2BD163692021197012B994F84A223E
:102E3000D2B210B994F84B02C0B294F8981294F838
:102E4000996202960346CDF800E00191204629469A
:102E5000FFF7B0FF0E9A2F492046FFF74FFF3A4683
:102E600029462046FFF72EFE94F84932002B37D032
:102E7000A368C0221A7004B0BDE8F0816169CEB1C8
:102E80004FF0280C81F800C09E4221682ED95B00CB
:102E9000DBB20B707600E369F6B21E70C5E701295C
:102EA00013D1DFF87480D8F8001041F08001C8F821
:102EB0000010AFE74FF0200C81F800C021685B00E4
:102EC000DBB20B70E3691E70AFE7022916D1DFF8A1
:102ED0004C80D8F8001041F04001C8F8001099E784
:102EE000A36880221A7004B0BDE8F0817600F6B2C3
:102EF0000E705E00E369F6B21E7096E7032989D171
:102F0000DFF81880D8F8001041F08001C8F80010F0
:102F100080E700BF0087930334800440288004408A
:102F2000D0F83421D0F838319A4208D2D0F8343170
:102F30005A1C0344C0F8342193F8300070474FF016
:102F4000FF3070472DE9F041BF4EC7683378D0F8A5
:102F500008E00133DBB233703D789EF80030044660
:102F6000DBB2806903F020020178EDB2FAB113F010
:102F7000100F94F85E327FD0022B00F0D78094F8C7
:102F80005E32032B00F0D28094F85532082B00F00B
:102F9000238294F85532092B00F05C8294F8553264
:102FA000012B00F0CC8180238EF800305BE002F032
:102FB000FF08EA0624D405F0400202F0FF071ABB1E
:102FC00003F0100303F0FF02002B00F08E8015F0D9
:102FD000010540F0A881D4F84022D4F844329A4246
:102FE00007D2D4F840325A1C2344C4F8402293F844
:102FF0003C5123691D70A368D0221A70A06979E042
:10300000102368063B7029D594F855320C2B00F03C
:103010000F8105F0040505F0FF02002D73D0A368B1
:103020000021D0220B2084F85502C4F844121A70F3
:103030002269D4F86C1213785B0884F8563209B10F
:1030400088472269D4F84432002B00F0758194F847
:103050003C8182F800800123C4F84032A2691378D1
:1030600043F050031370E36802221A703378013B77
:10307000DBB23370BDE8F081022B00F09F8094F842
:103080005E32032B00F09A80D4F83831D4F85822FD
:103090000233934200F0418194F85532012B00F045
:1030A0003781D4F838310133934280F00B8194F8A2
:1030B0005532012B00F00181D4F838312269591CB6
:1030C000C4F838112344127883F83020E3680222D0
:1030D0001A7094F85532DBB2012BC7D194F85D22F7
:1030E000002AC3D184F85D32C0E794F855320C2B26
:1030F00000F09381037843F050030370E3680222E9
:103100001A70BDE8F081A1690B7843F020030B70C1
:10311000A3680C20C02184F85502C4F83821197026
:1031200023691B785B0884F8563297E7D4F8742239
:1031300013689B8B190604D594F85E32022B00F0BD
:10314000B08094F85E32032B00F086803F4B1279FA
:103150001968012393400B4288D03D493D4B0A70CA
:10316000D4F87412097919700022072384F85E22BA
:1031700084F85532D4F89432013304D0D4F8943220
:103180000133C4F89432ED0611D5042384F8553286
:10319000D4F88C32013304D0D4F88C320133C4F823
:1031A0008C32E268102100231170C4F84032A36809
:1031B00080221A70E36802221A7032E0D4F8743266
:1031C0001A68928B120603D594F85E22022A5CD00C
:1031D00094F85E22032A00F0D6801C491A79096807
:1031E000012393400B423FF441AF1949194B0A7038
:1031F000D4F8742212791A70A36880220020072163
:1032000084F85E0284F855121A70E36802221A707C
:10321000D4F89432013304D0D4F894320133C4F892
:103220009432D4F87032002B3FF420AF98471DE75A
:10323000D4F86832002B3FF4ECAE0022C4F83421FD
:10324000D4F838019847E4E6D839FF1F2C800040B5
:103250001E8000401F8000403B781B06FCD5C34BFE
:1032600012791A70002384F85E32D4F8443221694E
:10327000013BC4F84032D4F840322344022293F890
:103280003C310B70E3681A70F0E6B9491B790B709A
:10329000A368E8211970E368032184F85E121A70AC
:1032A000E4E6B34912790A70A268F0211170E2686D
:1032B000032184F85E121370D8E694F85D32002B77
:1032C0003FF4FAAEA3680021B02284F85D121A70B0
:1032D000D4F838312269591CC4F8381123441278C3
:1032E00083F8302094F85432012B00F0C580E36855
:1032F00002221A7094F85532012B36D0D4F8643279
:10330000002284F85522002B3FF4E3AE9847E0E614
:1033100094F85D32002B7FF4C4AEE8238EF80030C1
:10332000D4F85822BDE6C0238EF800302369A06986
:103330001B7884F85572DDE684F83C3189E694F810
:103340005432012B0CBF8023B0238EF80030E36889
:1033500002221A70D4F8803201333FF462AFD4F8FD
:1033600080320133C4F880325BE7D4F88032013315
:1033700004D0D4F880320133C4F88032D4F87032EB
:10338000002BC3D1A5E6794A1B791370A3680021ED
:10339000B02284F85E121A70D4F858322269013BC8
:1033A000C4F83831D4F83831591CC4F838112344E2
:1033B000127883F8302094F85432012B00F0DA8030
:1033C000E36802221A70D4F86432002284F855228D
:1033D000002B7FF42BAF49E605F0100303F0FF024A
:1033E000002B50D000230421102284F85E3284F890
:1033F00055123A70A26880211170E268C4F8403218
:1034000002231370D4F88C3201333FF40AAFD4F89E
:103410008C320133C4F88C3203E7C9B211F0500F7B
:103420004AD0037843F050030370A1690B7803F08E
:10343000DF030B70E36802211970D4F8683284F856
:103440005522002B3FF412AEC4F83421D4F83801D1
:1034500098470BE6E80641D50422102384F855224C
:103460003B70A36880221A70E36802221A70D4F8B5
:103470008C320133CBD1D4E63C23013BFDD1A36890
:1034800080221A7033E715F001053CD084F85E22E3
:10349000D4F84032002B7CD1022384F85532D4F882
:1034A0008432013304D0D4F884320133C4F8843236
:1034B00080238EF800307DE623691B78D4F838210C
:1034C000B2F5817FDBB23FF615AED4F83821A118F2
:1034D0000132C4F8382181F830300BE6E9072ED5E7
:1034E0000223802284F855328EF80020E26813709F
:1034F000D4F8843201333FF494AED4F884320133EB
:10350000C4F884328DE6D4F840320133C4F8403236
:10351000D4F84422934234D394F8543284F8555268
:10352000012B0CBF8023B0238EF80030E368022209
:103530001A70D4F86032002B7FF478AE96E594F8D8
:103540005E32012B32D0D4F85832012B4FF00A02F0
:103550000CBFE823E02384F855228EF8003022695E
:10356000E368127802221A7080E500BF1C800040D8
:103570001F8000403C23013BFDD1A36880221A70CC
:103580001EE794F85E32012B20D0D4F84032216936
:1035900073E6032384F85532D4F88832013387D098
:1035A000D4F888320133C4F8883281E70223E1225B
:1035B00084F85E328EF80020D4F874120C4A09792F
:1035C00011702169E268097813704FE50223F12236
:1035D00084F85E328EF80020D4F87412044A097917
:1035E0001170226994F83D111170E26813703DE585
:1035F0001B80004000210148FFF7A4BC141EFF1FE0
:1036000001210148FFF79EBCB020FF1F02210148A5
:10361000FFF798BC4C23FF1F03210148FFF792BC22
:10362000E825FF1F2DE9F843224BDFF8A090DFF8D3
:10363000A080214E214D1E6000244FF47A774A4627
:1036400041461C711C739F6018465C731D6104F039
:1036500005F91B4B05F5277201211A611C714A46B9
:103660009F601C735973184641461E6004F0F6F8BB
:10367000144B05F5A76202211A611C714A469F602E
:103680001C735973184641461E6004F0E7F80E4B50
:103690004FF0030E05F2D4751C711C7383F80DE016
:1036A0004A46414618461D619F601E60BDE8F843CA
:1036B00004F0D4B8C439FF1F188D0000141EFF1F7A
:1036C0009C39FF1FB039FF1FDC39FF1FB01DFF1FE2
:1036D000D5280000014B00221A607047F039FF1F07
:1036E000844641EA000313F003036DD1403A41D30D
:1036F00051F8043B40F8043B51F8043B40F8043BCC
:1037000051F8043B40F8043B51F8043B40F8043BBB
:1037100051F8043B40F8043B51F8043B40F8043BAB
:1037200051F8043B40F8043B51F8043B40F8043B9B
:1037300051F8043B40F8043B51F8043B40F8043B8B
:1037400051F8043B40F8043B51F8043B40F8043B7B
:1037500051F8043B40F8043B51F8043B40F8043B6B
:1037600051F8043B40F8043B51F8043B40F8043B5B
:10377000403ABDD2303211D351F8043B40F8043BFB
:1037800051F8043B40F8043B51F8043B40F8043B3B
:1037900051F8043B40F8043B103AEDD20C3205D30B
:1037A00051F8043B40F8043B043AF9D2043208D003
:1037B000D2071CBF11F8013B00F8013B01D30B8875
:1037C00003806046704700BF082A13D38B078DD053
:1037D00010F003038AD0C3F10403D21ADB071CBF25
:1037E00011F8013B00F8013B80D331F8023B20F88F
:1037F000023B7BE7043AD9D3013A11F8013B00F8C8
:10380000013BF9D20B7803704B7843708B7883704F
:103810006046704730B42948294A2A4B2A4D602413
:10382000E121047011701B78284C082B30D00A2B32
:103830002748284937D00C2B0CBF35225D22122394
:103840002A60236002600B60234B24491B78244AC2
:10385000BBB101230B601360224B23491B78234A21
:10386000012B26D9042B0FD9082B1ED9102B94BF5E
:10387000862387230B6013601D4B01221A7030BC16
:1038800070470B601360E7E784230B601360F3E776
:1038900000F58E200F490830212213232A6023606F
:1038A00002600B60D0E73922F7E785230B601360D5
:1038B000E2E780230B601360DEE700BF00400740B3
:1038C000014007408428FF1F08B003400CB00340AC
:1038D00008B00B400CB00B40F539FF1F20B003407F
:1038E00020B00B408528FF1F24B0034024B00B40BC
:1038F000F439FF1F08B5104C08E0236859050DD4B2
:1039000023681A050FD42368DB0411D423685803F5
:10391000F3D500F0B1FA23685905F1D500F00EF89F
:1039200023681A05EFD500F009F82368DB04EDD50C
:1039300000F004F8EAE700BF3480044008B5FFF760
:10394000D9FF00BF014B10221A80704700200540AC
:10395000704700BF094908B50B6830B16A46184482
:10396000A2F50052904202D20860184608BD04F049
:1039700039FC0C2303604FF0FF3008BD8828FF1F7F
:10398000FEE700BF084A1378802B01D00020704763
:103990000649074B07480860002119701378802BEF
:1039A000FCD00120704700BF03E007404480044082
:1039B00001E0074000002822094A1378012B01D0BA
:1039C0000020704703F1804303F5FC236021197048
:1039D0001378802BFCD1034B034A1A6001207047F7
:1039E00003E00740448004400000060210B4114B7D
:1039F00053F8302092F8804234B1012379B182F833
:103A000080305DF8044B704703EBC0035B681A68B5
:103A100051B922F002021A605DF8044B704782F837
:103A200000315DF8044B704742F003021A605DF804
:103A3000044B70476C8E00001C4A02EBC003012946
:103A40005B6811D004291BD052F83000002280F8A6
:103A5000802229B1022920D0032922D01A60704780
:103A60004FF480721A60704752F830004FF4A2721F
:103A700080F880121A601A6822F020021A607047DB
:103A800052F830104FF4A272012081F880021A60BF
:103A90001A6842F020021A60704740F203121A605E
:103AA00070474FF481721A60704700BF6C8E00003F
:103AB00030B4054B054D064C002210211A602A60D7
:103AC0002060196030BC704714D0034004D003401C
:103AD00000D003403F2801D8FFF788BF704700BFE0
:103AE0003F2801D8FFF7A8BF704700BF2DE9F84372
:103AF000054672B6224F234B234A1B683C68126866
:103B000062B6520102D5322B88BF0134B5B3C3F57A
:103B10002F3303F21F331D4EDFF86890DFF8688003
:103B20009B084FF47A72A6FB031302FB04F404EB28
:103B3000930472B6D9F800103A68D8F800E062B67B
:103B4000C1F52F3303F21F339B08A6FB03031EF0BE
:103B5000806FC4EB93034FF47A7002D0322988BF90
:103B6000013200FB0233B3F57A7F04D3013D05D067
:103B700004F57A74DDE701F07FFEDAE7BDE8F8834B
:103B8000F839FF1F18E000E004ED00E0176CC116E3
:103B9000F8B54E4B4E48DFF85CC14E4C4E49DFF84D
:103BA00058E14E4E4E4D4F4F4FF000621A604FF0AD
:103BB00080521A604FF000521A604FF080421A6033
:103BC0004FF000421A600022026028234EF6FF7078
:103BD000CCF80000CEF8003023600EF5012E0B600B
:103BE00033602B6006F500263B6005F50025A362D7
:103BF00007F500278B6204F5012401F5012106F683
:103C0000E87605F6E87507F57F6710310EF1100EBE
:103C1000203433602B60CEF800303B600B602360B3
:103C2000314CBB618B6109212160A7F5002704F5A8
:103C30008054203F08343A602060BB60E36047F85E
:103C4000041C04F5FD2407F5FE27043704F2FC7478
:103C500022603860A360FB6044F8041C083404F65A
:103C6000FC74C7F8FC2F2060A4F5E124A4F2DC74F6
:103C700033602B60C7F8F81F21681C4841F40071BD
:103C8000216001681A4C0EF57F4E0EF1E80E07F523
:103C9000883706F5803605F5803541F00071016002
:103CA000CEF8002047F6FF710822396033602B60A0
:103CB0002260FFF7AFFD1920FFF718FF00F064FE48
:103CC00040F21310BDE8F840FFF710BF04E100E038
:103CD00004800340148003401C8003402480034080
:103CE0002C80034034800340008003400480044063
:103CF00000900C40088003400C800340431E072BBB
:103D000014D872B60A4951F8230068B170B4094C4E
:103D1000058834F81320466841F82360521B24F8C4
:103D2000132062B670BC704762B6704700207047BF
:103D3000643AFF1F643CFF1F013807280BD872B696
:103D4000074B53F8203043B100205B680130002B53
:103D5000FBD162B67047002070471846F9E700BFF4
:103D6000C83AFF1FF0B5864672B6022201231C49ED
:103D70001C4F02E0294601330132072B01F10105F6
:103D8000F9D0097817489C00090744F0010605D5C9
:103D900057F8341069B157F83610C1B1092AE9D182
:103DA00062B6114B00221A707046BDE8F04000F078
:103DB00073BE0D490D4D0A7840F8345000EB4313A3
:103DC0000EF10800013A58600A7062B6F0BD06496B
:103DD000074B40F836300A7800EBC603F0E700BF27
:103DE000A49000000000FF1F113BFF1F880040004F
:103DF000C8004000431E072B1DD81B4A400140F05D
:103E0000100030B4104472B6184CE25C032A1BD880
:103E1000DFE802F00212151703220D88E25410F0B9
:103E2000080F14BFC823882343EA05430831036001
:103E3000416062B630BC704708300222EDE70522CF
:103E4000EBE708300422E8E7094A52F8230038B1CA
:103E5000084A52F82300416042F8231062B6E9E7AD
:103E600042F82310034AF7E70000FF1F203BFF1F23
:103E7000C83AFF1FE83AFF1F2DE9F04FDFF834A3DF
:103E8000DFF834B389B049E0DFF830834FEA9309B3
:103E900008EBC907013C7A68E4B2052CA2F10800DE
:103EA00000F02981062C00F04581072C00F09E814E
:103EB0001E0700F1418158F839301B0C99B222F8E5
:103EC000081C002B00F02D81A64D55F8246000231E
:103ED00022F8063C42F8043C002E00F0E481A24E99
:103EE00056F824305860A14D46F8240035F81430B7
:103EF000194425F8141000F0AFFD002800F0CC8123
:103F00009B4A9C4B17F0080F00F1080018BF13469E
:103F1000786048F8393008238AF800309AF8004071
:103F2000E4B263071DD5944B1B78BBB193490A7863
:103F300002F0FF032AB1013BDBB20B70002B00F053
:103F4000EC848F490A7802F0FF032AB1013BDBB20F
:103F50000B70002B00F07B8100F0C4FD04238AF875
:103F6000003004F0080303F0FF02002B00F058813A
:103F70009BF80030DBB21C0986D19D08DFF83C922B
:103F800059F8352009EBC501C2F38302013A4968AB
:103F90000C2A00F28780DFE802F089898585858513
:103FA00085854F85858507000A68764E4968764B7A
:103FB0006F48764C716091B249F83500326001204B
:103FC0000022B1F5086F01931A60C9F81020C9F8F2
:103FD00018200792207000F0F78300F23B8140F236
:103FE0000230814200F0F88300F2C581B1F5817F93
:103FF00000F0708300F21284802900F05882822938
:1040000040F046815F4B998801F07F01082900F25A
:104010003F815F485F4D5B4B2A70890008446A709E
:104020000278DE885B49900748BF01224FF002000A
:1040300048BF2A70079056E1534B0193196839B372
:10404000554B524C554A1888257816784028074613
:1040500046F0020C28BF4027002D85F00105257091
:10406000A0EB07000CBF8824C82409EBCC0580B264
:1040700086F0010644EA07446960188049F83C402C
:104080003944167010B9402F18BF0021019B1960E8
:104090003C4B1A88B2F5A06F04D100219A78597070
:1040A0003F4B1A703F4A0123137034E7354A148896
:1040B00042F22100844200F09581324801F0A6FBD3
:1040C000A8B1364A314C1178207881F001060028D9
:1040D00041F0020116700CBF8822C82249F8312035
:1040E00009EBC10180F00100002220704A60204AE3
:1040F00049F83520D6E719077FF5DDAE01F0D8FA8B
:1041000000283FF408AF87F008070004264B274A31
:104110007B6040F080003860537983F00103537175
:10412000F9E6134A134B17F0080F18BF134648F867
:104130003930F0E61B0768D500F0AEFC1C4A1B4D79
:1041400052F82430002B00F03D815968285D42F878
:10415000241003F108027A60032833D8DFE800F066
:1041600043403D30643AFF1F003AFF1F643CFF1F8D
:10417000C8004000880040001C3BFF1F853AFF1F1D
:10418000303BFF1F083BFF1FFC39FF1F843AFF1F16
:10419000C0200740143BFF1F203AFF1F103BFF1FAA
:1041A00098200740942007408814FF1F203BFF1FE2
:1041B000C83AFF1F80200740902007400000FF1FE3
:1041C00004222A551A8817F0080F0CBF8823C82329
:1041D00043EA024348F839309DE605222A55F1E7C3
:1041E00002222A55EEE703222A55EBE71D077FF549
:1041F00062AE87F00807B64BB64AB74979603B60B4
:10420000D37983F00103D37185E658F83900000CA7
:1042100001F08EF9B14AB24B7A6048F839307AE64B
:10422000E00700F10D81210600F13181A20706D5DA
:10423000AC4AAD4913780220DBB213700870E30674
:1042400002D5A94B10221A7009B0BDE8F08F00F01A
:10425000A5FD81E642F22135A94200F0CE8126D8A3
:1042600040F60135A94200F0A38200F20682B1F5C2
:10427000106F00F0248140F68122914208D19B4BBF
:1042800007909A88042A00F03583052A00F03883C5
:10429000974A0F2313706AE0964A48F8390013785A
:1042A0000133137037E645F82400934E1BE648F2BD
:1042B000A120814200F0948100F2898148F2A1108E
:1042C000814200F08D8148F2A2108142E0D1874BFB
:1042D000DE88022EDCD9894944208A700870AC221D
:1042E00003204A700790864280F08981402E35462F
:1042F00094F800E0079628BF40254A198EF001087F
:10430000701B2B0402927E4A84F800801678BEF15E
:10431000000F46F0020C0CBF8827C8271F4309EB8B
:10432000CC0349F83C7086F0010759601770754955
:10433000002800F07181402840F27181724B029C8C
:1043400047F0020703EBC7035C60B8F1000F00F011
:104350007F8181F800E06C496C4B167041F8373072
:104360002246403840326A4B019918800A60694AF7
:104370000123137096E6B1F5A06F00F03E8140F284
:104380004282A1F5D061012982D8634A516800298F
:104390003FF47EAF554B5D889E8804E00C32516837
:1043A00000293FF475AF1388AB42F7D15388B3426D
:1043B000F4D12D0A032D00F0AB824C4B10890790ED
:1043C000DE8890E72B5D032B00F27D8101A252F87D
:1043D00023F000BF173F0000173F0000A344000078
:1043E000A94400009288A2B94C4A0C78487814700D
:1043F00050708C78C8789470D0700C7910681471F3
:104400004C79547186288C79947101F1070100F080
:10441000F6813B4A3B4C1078267880F00107002E4D
:1044200040F0020017700CBF8822C82249F83020E3
:1044300009EBC00086F001060022267042603CE6CF
:10444000314B34482E491A614FF0020E80F800E0DB
:10445000274F0A70324919609960224E224D314C23
:104460009A610D213970FF213170DFF8C8E02970A1
:1044700022702D4D2D4A8EF800109F27012406F83A
:10448000047C5D600470DA6009B0BDE8F08F184903
:10449000154B80220D2008701A70A2077FF5CFAE51
:1044A000C6E600232B5536E501232B5533E513498A
:1044B0000E4B0A700220DE884A70079013E70B4B00
:1044C000114D9A781A4B05F580761A7037E000BFC7
:1044D00080000300203BFF1FD013FF1FD413FF1FDA
:1044E0008000B4008820074080200740083BFF1F61
:1044F000C0200740113BFF1F003AFF1F143BFF1F66
:10450000103BFF1F843AFF1F0000FF1FC800400040
:10451000203AFF1F94200740AC900000743CFF1F1E
:104520008800400098200740243AFF1F883AFF1F68
:104530001C3BFF1F8C2007400835AE4209D02B6A78
:104540001F06F9D5686A0835083800F0A5FAAE42AA
:10455000F5D1B949B94BBA4A0291BA49BA4EBB4DE5
:104560000594039604954FF0000814460E461D4628
:10457000286828B1476800F08FFA3846002FF9D133
:1045800000232B60039B20681A46002342F8283042
:1045900028B1476800F080FA3846002FF9D1002290
:1045A0002260029A33781146002241F8042F049ABF
:1045B0000291023B4FF0000122F81810032B00F289
:1045C0009F80DFE813F0EC009A00EC009A0048F2BC
:1045D000A132914204D048F2A14291427FF458AEF8
:1045E0009B4D9C49284607AA01F0DCF800283FF4BF
:1045F0004FAEEE880798974975E60020014640289F
:10460000054694F800E028BF40254A198EF00108BD
:10461000401B2B04029276E6402D7FF4A8AE47F0B3
:10462000020709EBC703029D5D608B490304B8F1E3
:10463000000F18D143F08803054441F83730167055
:1046400084F800E02A4640287FF491AE00208AE6F4
:1046500081F800E016708049029A804B41F83730AB
:10466000403840327FE61670029A84F800E043F04A
:10467000C803024441F83730E5E742F221008142A5
:104680003FF475AE42F2212081427FF401AE704BBF
:104690009988002940F0CD80714D7248724A2D688A
:1046A000997805601170714A167846F0020109EB9D
:1046B000C10086F001071770C825002249F8315063
:1046C0004260227053E617F0080F0CBF0223032349
:1046D0002B5520E45E4B9A8802F07F02082A3FF6B1
:1046E000D7AD598800297FF4D3AD614992001144B8
:1046F0000A7822F002020A70D5E74FF00103337006
:1047000008F10108B8F1080F05F1040504F10404EB
:1047100006F101067FF42CAF564B5749059C0294D5
:104720000022DFF868810A70022701261C4611E08A
:10473000B50045F0020245F003050021082E49F8B6
:10474000321049F83510444D00F0F880092F2AD076
:104750000136013718F8012B04F8042B072E00F05E
:10476000DD801507E4D500F077F9002800F0998086
:10477000B50009EB4612394B49F835300830506026
:1047800000F06AF9002800F0838045F0010209EB8F
:10479000C2010830394B49F832304860C9E74FF060
:1047A00000033370ACE72A4B029CDE8807989AE539
:1047B000274B9A88042A7CD0052A7FF469AD244BC4
:1047C0002F4A598811706EE72E4B22491A78204BD8
:1047D0000790DE880A7086E51D4B9A8802F07F02FA
:1047E000082A3FF655AD598800297FF451AD20497C
:1047F000920011440A7842F002020A7053E7224AFA
:104800000F20107005E640F2213399423FF4AFAD1E
:1048100040F2214399423FF4AAAD39E540F2211319
:1048200099423FF4A4AD40F2212399423FF49FAD59
:104830002EE510461146E2E6E43AFF1F643AFF1FF8
:10484000C83AFF1F203BFF1F003AFF1F643CFF1FB9
:10485000083BFF1F143BFF1F0000FF1F88004000A4
:10486000F839FF1F7C3CFF1F403BFF1F103BFF1F21
:10487000C0200740C4200740113BFF1FC800400074
:10488000EB3BFF1F1C3BFF1F853AFF1FA49000005E
:10489000304B1A7845F00101013249F831001A70A5
:1048A00047E72C4B1A78B500013249F835001A70E9
:1048B00066E79A7828490A70002A3FF4F4AE274D3B
:1048C000274A6F79A2F10806002F18BF16463268F2
:1048D00012F080017FF4E7AEDFF8A880B0224046F6
:1048E00003F076FF87F001071E4AC6F804806F7157
:1048F0003260D8E6184A1C491278DE880A70F2E461
:104900001A4A19491A4B1278DE880A700120EAE423
:10491000174B0878DE880790E5E400BE154A164973
:10492000C9F8E420C9F8EC200022C9F8E010C9F861
:10493000E810C9F8F020C9F8F82009E705EBC2072C
:104940000B4E0E480E4B45F83200029CF6887B60F9
:104950000798C8E4113BFF1FEA3BFF1F203BFF1FE6
:10496000D800FF1F8000B000143BFF1FEB3BFF1F70
:10497000083BFF1FD413FF1F8000B400800003001A
:10498000D013FF1F8814FF1F2DE9F041274C01F0C1
:104990000FF8002204F5907023461A605A6008331D
:1049A00083424FF00001F8D12148224A0368DFF822
:1049B0009CE0214E214D224FDFF894C0DFF8948017
:1049C00043F480230360136843F0407313600323B0
:1049D0008EF80030A023337002F5C922C4F30723F8
:1049E00000F528302B708030C4F3074310323B7041
:1049F000240EFF230470134D8CF80030124888F801
:104A000000301370012306F8AC3C4FF400140EF88C
:104A1000441C7026102107F82C3C2E70046082F88C
:104A2000F810AEF1440EBDE8F08100BF0000FF1F9A
:104A30003480044000D80040402107409C200740BB
:104A4000B020074035E400E004E100E044210740E5
:104A5000802007408820074072B60D480268B2FAED
:104A600082F31D2B10DC4FF00041D94022EA0102F5
:104A7000026062B6074803EBC303DB00C2180021E3
:104A8000C15010465160704762B60020704700BFA9
:104A90008C28FF1F3C15FF1F0D4B0E4AC31AA2FBAB
:104AA00003231B091D2B0CD80B4A127852B972B67E
:104AB0000A484FF00041026821FA03F31A430260EA
:104AC00062B67047064A1278002AF0D0FFF74AB95A
:104AD0003C15FF1F398EE338113BFF1F8C28FF1F49
:104AE0001C3BFF1F38B5084B1C7824B9074D2968BB
:104AF00009B14B8803B938BD9B000B800420FFF738
:104B000079F92C6038BD00BF283BFF1F2C3BFF1FED
:104B100038B50F4D286878B143880288C118013331
:104B200093420C7A02D24380204638BDFFF7B4FF8F
:104B3000002320462B6038BD064B1B782BB102208A
:104B4000FFF7DCF828600028E6D14FF0FF3038BDD1
:104B50003C3BFF1F1C3BFF1F10B5094C206818B1E0
:104B600043881844007A10BD064B1B782BB10220F5
:104B7000FFF7C4F820600028F2D14FF0FF3010BDDD
:104B80003C3BFF1F1C3BFF1F044B054A1B68508822
:104B90001BB11A885B88D31A184470473C3BFF1F2F
:104BA000643CFF1F0B4B1B789BB110B50A4C20686F
:104BB00048B1FFF771FF002302202360FFF79EF842
:104BC00030B1FFF769FF0220FFF798F80028F8D10D
:104BD00010BD70471C3BFF1F3C3BFF1F2DE9F04FF2
:104BE000DFF8F89083B0012289F80020019169B3C1
:104BF000DFF8EC80354F019E8346D8F80000B0B353
:104C0000334D4488C4F14001B14228BF314604EB22
:104C1000010E00221FFA8EFE2A70761AA0F802E01A
:104C200000F1080251B1013C224459441BF8014BE8
:104C300002F8014F8B45F9D1B0F802E0BEF13F0F09
:104C40000BD8244A05211170002ED6D101980023DB
:104C500089F8003003B0BDE8F08F402202800146A1
:104C60000320FFF7C7F80022C8F80020E9E73A78E8
:104C700022B3194C164D4FF0010A07E0013C16D043
:104C80002A78A2B900F0F8FD3A78BAB10320FFF70C
:104C900053F80728F2D889F800A0FFF7DDFEC8F81E
:104CA00000000028ADD10D4B013C1870E8D1012364
:104CB0004FF0FF302B7003B0BDE8F08F00234FF0B2
:104CC000FF3089F8003003B0BDE8F08F1C3BFF1FB8
:104CD000383BFF1F303BFF1F21480100313BFF1FC6
:104CE000343BFF1F00B583B002AB012103F8010D77
:104CF0001846FFF773FF03B05DF804FB38B50E4D9F
:104D00000E4C28680123237028B1408800232370AB
:104D1000C0F1400038BD0A4B1B7813B90020207049
:104D200038BD0320FFF708F80728F7D8FFF794FEEF
:104D300028600028E9D1F1E7343BFF1F313BFF1F1A
:104D40001C3BFF1FF8B5114B1B788BB1104E114D5A
:104D5000346801272F7064B10F4A638800271770E9
:104D6000214623800320FFF745F8376000232B708E
:104D7000F8BDFFF771FE084B28B1014603201C70F7
:104D8000FFF738F8F2E71F70F0E700BF1C3BFF1F8A
:104D9000343BFF1F313BFF1F303BFF1F38B50E4B2D
:104DA0001B7873B90D4C216861B103F0FF054B8886
:104DB0000B800320FFF71EF8256038BD084B012249
:104DC0001A7038BDFFF748FE0028F7D00146BDE84D
:104DD00038400320FFF70EB8313BFF1F343BFF1F65
:104DE000303BFF1FB1F5607FF0B428BF4FF4607116
:104DF00072B6134A134C144B10600022228003F148
:104E0000700443F8042FA342FBD1B1B10F4E00232D
:104E100001275D0903F01F0456F8252007FA04F462
:104E2000013322438B4246F82520F2D100234380F0
:104E300001338B4200F58270F9D162B6F0BC704745
:104E40004C3BFF1FC63BFF1F503BFF1F543BFF1F48
:104E5000F0B472B6234F244E3C8806F1700306EB83
:104E60008400984212D256F8241099B9021D06F116
:104E70007305631CAD1A03EB950503E052F8041BA0
:104E800041B90133AB421C461046F7D162B600204F
:104E9000F0BC7047B1FA81F34FF00042DA4021EAEA
:104EA0000201016001B9013410493C800A880132D5
:104EB00094B20C8062B6801B8010C3EB401000EBF4
:104EC000801083000A480B49006803F5FB531C332C
:104ED0000125C5540D88AA42184488BF0C80F0BC37
:104EE000704700BFC63BFF1F543BFF1FC83BFF1F5F
:104EF0004C3BFF1F483BFF1F428872B60378012BD3
:104F000003D9013B037062B67047531170B40C4C67
:104F10000C4D54F823102E88D2434FF0004002F07D
:104F20001F0220FA02F21143074A44F82310B34249
:104F300038BF2B801388013B138062B670BC70476A
:104F4000543BFF1FC63BFF1FC83BFF1FC368B3B1E5
:104F500030B401E0DB688BB1187A9042FAD158681E
:104F60005C7A006950F82450002DF3D140F82410E9
:104F7000087801300870DB68002BEDD130BC704739
:104F800038B5437A8B421AD9036953F8214000227D
:104F900043F821209CB12378012B0ED9FFF758FF4D
:104FA000054628B14FF48072211D0430FEF798FBAE
:104FB0002378013B2370284638BD204638BD0020A9
:104FC00038BD00BF037C23BB4368427A5B7A9A42B8
:104FD0001FD830B472B60468E3682BB3DA6832B114
:104FE00019688C4216D01346DA68002AF8D1D860C6
:104FF0000023C360A37A0133A372026841680123CE
:1050000013728A7A1A448A7242681372037462B6FF
:1050100030BC70475D6841688D42E4D119890389CD
:105020009942F4D01346DFE7E060E1E7037C10B576
:10503000002B32D04368427A5B7A9A422DD872B6FE
:105040000268D36843B3984202D129E0984202D063
:10505000DB68002BFAD14368417A1B69044653F898
:10506000210048B1FFF748FF72B66368627A1B6996
:10507000002143F822102268937A013B937223683F
:105080009A7A02B91A726268937A013B93726368E2
:105090009A7A1AB10023237462B610BD1A72F9E726
:1050A000C368D360D7E700BF084B1A785AB90848DD
:1050B000084910B4D0240470012210460A601A7006
:1050C0005DF8044B70470020704700BF503BFF1F46
:1050D00040E400E008E100E01A491B4A1B48F8B52B
:1050E0000B681B4D046843F080730B60136843F03A
:1050F000010313602E6814B915E064699CB1237A2A
:10510000002BFAD023682F681B68204698472B682D
:10511000E188DB1B1B099AB28B42A28088BFE28028
:105120006469002CEBD10A4B0A4A1B6810880A4CB0
:105130009B1B1B0999B28342218001D91180F8BDC4
:10514000F8BD00BFFCED00E0001000E0443BFF1F95
:10515000041000E0C43BFF1FCA3BFF1FF0B572B64E
:1051600099B902688AB103790F2B0ED8284C21888F
:1051700041FA03F5ED070AD503F1007303F59063D7
:10518000B2EB431F03D162B6F0BD214C218800234E
:1051900041FA03F212F0010207D00133102BF7D1CC
:1051A00062B6002203710260F0BD01259D402943D3
:1051B000218062B6174E184D184FDFF868E0D9B25B
:1051C0000171346844F0020434602C6844F0020435
:1051D0002C60A6F5802640F28244A5F5802503F1D7
:1051E00000733C6003F59063223E243D0C4C8EF826
:1051F00000105B0131702970217003601A605A60E1
:105200009A60DA601A615A619A61DA61F0BD00BF92
:10521000CC3BFF1F408004403C80044000800040A5
:105220001F8000401A80004003790F2B12D80A4AD1
:1052300010B4137072B6094904790A880123A34097
:1052400022EA03030B8062B6102200235DF8044BB0
:1052500002710360704700BF1A800040CC3BFF1F03
:1052600010B4EFF3108272B6437F33B9017F012986
:1052700008D0032910D00123437702B962B65DF844
:10528000044B7047114C2168A1B1114943610B686F
:10529000836108605861EEE70E4C216881B10E49C8
:1052A00043610B688361086058610C4B4FF080517B
:1052B0001960E0E7064B4161816120601860DAE720
:1052C000054B4161816120601860EEE7DC3BFF1F08
:1052D000D83BFF1FD03BFF1FD43BFF1F04ED00E076
:1052E00070B5EFF3108272B60C4C206880B10C4E92
:1052F00000254369236073B19D6102B962B64577A9
:1053000083689847EFF3108272B620680028F0D1C6
:1053100002B962B670BD3360EFE700BFD03BFF1F3C
:10532000D43BFF1FFFF7DCBF024A13680133136051
:10533000704700BFF839FF1FF8B50E4671B17AB15A
:105340000746144600253B6816F8011B1B683846C3
:105350009847013C0544F6D12846F8BD0846F8BDFB
:105360001046F8BD00B5064A036812885B6883B032
:1053700001A9ADF804200222984703B05DF804FBB0
:105380006C90000008B5FBF79BF9FBF735FA00F0CD
:1053900073FAFAE702F054BF02F052BF02F058BFAE
:1053A00000EB83039842F0B50AD32DE050F8044B8C
:1053B00021F8024B83424FEA144422F8024B23D9CE
:1053C0008C07F3D4A3F1080E704512D250F8087B75
:1053D00050F8046C340C2404BDB244EA174445EA86
:1053E0000645704541F8045B42F8044BEED3834216
:1053F0000FD950F8044B21F8024B83424FEA144472
:1054000022F8024BF5D8F0BDA3F1080E7045DDD3AC
:10541000F0BDF0BD2DE9F04100210446FFF7B0FDDD
:10542000012105462046FFF7ABFD3B4B1B780446A8
:1054300043BB15B12846FFF75FFD14B12046FFF7C7
:105440005BFD364C206818B1FFF756FD0023236042
:10545000334C206818B1FFF74FFD00232360314C17
:10546000206818B1FFF748FD002323602E4C206808
:1054700018B1FFF741FD002323602C4B00221A8056
:10548000BDE8F08135B3002C2FD072B6234B1868DD
:10549000D0B1234A116899B1224F234E1960D7F831
:1054A0000080224B156032683A60002234601A8016
:1054B000FFF722FD4046FFF71FFD62B6BDE8F08111
:1054C000194B15601C60F8E71649184A1D600C60FE
:1054D0001080F2E7FFF7BCFC054688B14FF48072FC
:1054E0000021043003F074F9CDE7FFF7B1FC044666
:1054F00068B14FF480720021043003F069F9C4E709
:10550000002CDBD02046BDE8F041FFF7F5BC284673
:10551000BDE8F041FFF7F0BCEA3BFF1FF03BFF1F87
:105520000C3CFF1F043CFF1FF43BFF1FE83BFF1F29
:10553000514B2DE9F04FB3F80080DFF850B14F4BDD
:10554000DBF8004001221A704D4B83B08608C2463A
:105550001D68002C4ED0002D55D0002E5CD0C8F117
:105560008007BE42C0F08380464B0193DFF8208164
:10557000DFF814910FBBD8F80030002B37D1D9F8E1
:1055800000204B46002A32D1C8F800401D60FFF7CA
:105590005FFC0446002845D0FFF75AFC054600286A
:1055A00049D0374BCBF800401860002E33D07F2E07
:1055B0004FF0000A4FF0800749D94FEA4A032A1DED
:1055C000211D1A44194401983B46FFF7E9FE019A50
:1055D000D8F8003002EB8702F61B019223B9D9F804
:1055E0000020294B002ACFD0234B57441F8003B003
:1055F000BDE8F08FFFF72CFC04460028F7D0CBF86D
:105600000000002DA9D1FFF723FC05460028EED0AD
:105610001B4B1860A1E7B046174BA3F8008003B0FE
:10562000BDE8F08F164BCBF800001860124B1880C5
:1056300003B0BDE8F08F2046FFF75EFC104BCBF8BF
:1056400000501D600C4B1D8003B0BDE8F08FD046AC
:1056500053462A1D211D1A44194401983346FFF769
:105660009FFE054B46441E8003B0BDE8F08F054AFF
:1056700001924FEA4803ECE7103CFF1FFC3BFF1F81
:10568000E43BFF1FD413FF1FEC3BFF1FF83BFF1F42
:10569000003CFF1F03480449044A002303700B60C9
:1056A00013607047083CFF1FF03BFF1F043CFF1FC7
:1056B000354A2DE9F04F13680133082B83B051D8D8
:1056C0001360B02301934FF02C0A3049DFF8D0B0BB
:1056D0004FF000080868C8EB0A03002849D0BBF85F
:1056E00000E02B4AD2F80090CEF18002934228BF0E
:1056F0001346051D4FEA4E0209F1040715441744ED
:105700004FEA88066BB1234A043E16441C4637F91B
:1057100002CB35F8022B013C42EA0C4246F8042F3A
:10572000F5D19E44BEF17F0F984407D8ABF800E056
:10573000C245CFD8019803B0BDE8F08F0091FFF7C4
:10574000DBFB4846FFF7D8FB134800990368134A70
:105750000B60002314680360ABF8003013600C4B3F
:105760001C60E5E700231360B42301934FF02D0A7A
:10577000ABE7084C01469A0004EB480003F028F818
:10578000019803B0BDE8F08F9C28FF1FF03BFF1F7E
:10579000043CFF1F8814FF1F0C3CFF1FF43BFF1F3E
:1057A000E83BFF1F0378A12B01D000207047C3788E
:1057B000012B12D0022BF8D14378812B18D0822BE9
:1057C0001DD0832B0FD0842BEFD101200023087034
:1057D0004B7002231360012070470B48406808702B
:1057E000184613607047FF200F2308704B70F0E7D6
:1057F000054B986808709B681B124B70E9E7002303
:105800000B704B70E5E700BF9028FF1F0378212B3A
:1058100001D000207047C3784078012B0ED0022BB6
:10582000F7D10128F5D110B40B784C78074A03EB77
:105830000423936010605DF8044B70470128E8D1A1
:10584000024B0A7883E80500704700BF9028FF1FCD
:10585000FFF7A8B9FFF780B9FFF75AB9FFF794B976
:10586000FFF770BAFFF74ABA08461146FFF7B6B914
:105870000846FFF737BA00BF2DE9F843314E3378B9
:1058800093B1314F3A787AB90122D9073A7036D4B8
:105890009A0719D400225B073A7005D52B4B1A687A
:1058A00012B1EFF305820AB1BDE8F883EFF310817E
:1058B00072B6186818B1264C2278002A2ED000291A
:1058C000F2D162B6BDE8F883DFF8908098F8002046
:1058D000002ADFD0DFF88890002405E0013498F832
:1058E0000030E4B2A34212D959F824502B6828465C
:1058F0001B6998470028F1D02B699847EEE7FFF71E
:1059000043F9C8B9134B1B781BB93378C0E7337818
:10591000C0E7337803F0FE033370B9E745691D60D3
:10592000012323705DB1AA6101B962B600254577F4
:10593000836898472570B7E700F07CF8E2E7064BEC
:105940001D60F1E7B028FF1F123CFF1FDC3BFF1F6B
:10595000E03BFF1F762AFF1FD83BFF1F2C3CFF1F99
:10596000143CFF1FF0B44D1E2E46002400E001340D
:10597000B0FBF2F302FB1300092800F130078ABFE5
:105980003730F8B2C0B206F8010F1846002BEED13E
:105990000A1953704CB1107815F8016F2870013353
:1059A000E01A834202F80169F5DB0846F0BC704753
:1059B00010B584B072B6FDF7E5FF184A184B1949C7
:1059C0001160702280211A701A46197013781B0614
:1059D000FCD5154B1C68FDF7EFFF62B6134B9C42DC
:1059E0009CBF04EB840464002046114C01A90A22E8
:1059F000FFF7B8FF01A92046002311F8012B01335E
:105A00003AB10A2B20F8022FF7D11623237004B0E5
:105A100010BD5B00DBB2237004B010BD0400024077
:105A200000000240000007410C0002407F969800F1
:105A3000602AFF1F704700BF38B51D4604460B01A2
:105A400001608260002128461A4602F0C1FE6560AE
:105A500038BD00BF2DE9F00F4FEA930B84B04568C5
:105A60008468006892464FEA0B1202920190084641
:105A7000029903F003020AEB010305F1100705F197
:105A8000040905F1080805F10C0C039394ED004A94
:105A9000D4ED013AD4ED024A94ED035AD4ED045A00
:105AA00017ED043A1434D9ED001AD8ED007A9CEDC4
:105AB000007ABBF1000F00F0AC805D465146034612
:105AC00093ED002A23EE836A04EE026A04EEA16AD3
:105AD00005EE276A05EE876A63EE826A81ED006A49
